{
  "_format": "hh-sol-artifact-1",
  "contractName": "Condominium",
  "sourceName": "contracts/Condominium.sol",
  "abi": [
    {
      "inputs": [],
      "stateMutability": "nonpayable",
      "type": "constructor"
    },
    {
      "inputs": [
        {
          "internalType": "address",
          "name": "resident",
          "type": "address"
        },
        {
          "internalType": "uint16",
          "name": "residenceNumber",
          "type": "uint16"
        }
      ],
      "name": "addResident",
      "outputs": [],
      "stateMutability": "nonpayable",
      "type": "function"
    },
    {
      "inputs": [
        {
          "internalType": "string",
          "name": "title",
          "type": "string"
        },
        {
          "internalType": "string",
          "name": "description",
          "type": "string"
        },
        {
          "internalType": "enum CondominiumLib.Category",
          "name": "category",
          "type": "uint8"
        },
        {
          "internalType": "uint256",
          "name": "amount",
          "type": "uint256"
        },
        {
          "internalType": "address",
          "name": "responsible",
          "type": "address"
        }
      ],
      "name": "addTopic",
      "outputs": [],
      "stateMutability": "nonpayable",
      "type": "function"
    },
    {
      "inputs": [
        {
          "internalType": "string",
          "name": "title",
          "type": "string"
        }
      ],
      "name": "closeVoting",
      "outputs": [
        {
          "components": [
            {
              "internalType": "bytes32",
              "name": "topicId",
              "type": "bytes32"
            },
            {
              "internalType": "string",
              "name": "title",
              "type": "string"
            },
            {
              "internalType": "enum CondominiumLib.Status",
              "name": "status",
              "type": "uint8"
            },
            {
              "internalType": "enum CondominiumLib.Category",
              "name": "category",
              "type": "uint8"
            }
          ],
          "internalType": "struct CondominiumLib.TopicUpdate",
          "name": "",
          "type": "tuple"
        }
      ],
      "stateMutability": "nonpayable",
      "type": "function"
    },
    {
      "inputs": [
        {
          "internalType": "address",
          "name": "",
          "type": "address"
        }
      ],
      "name": "counselors",
      "outputs": [
        {
          "internalType": "bool",
          "name": "",
          "type": "bool"
        }
      ],
      "stateMutability": "view",
      "type": "function"
    },
    {
      "inputs": [
        {
          "internalType": "string",
          "name": "topicToEdit",
          "type": "string"
        },
        {
          "internalType": "string",
          "name": "description",
          "type": "string"
        },
        {
          "internalType": "uint256",
          "name": "amount",
          "type": "uint256"
        },
        {
          "internalType": "address",
          "name": "responsible",
          "type": "address"
        }
      ],
      "name": "editTopic",
      "outputs": [
        {
          "components": [
            {
              "internalType": "bytes32",
              "name": "topicId",
              "type": "bytes32"
            },
            {
              "internalType": "string",
              "name": "title",
              "type": "string"
            },
            {
              "internalType": "enum CondominiumLib.Status",
              "name": "status",
              "type": "uint8"
            },
            {
              "internalType": "enum CondominiumLib.Category",
              "name": "category",
              "type": "uint8"
            }
          ],
          "internalType": "struct CondominiumLib.TopicUpdate",
          "name": "",
          "type": "tuple"
        }
      ],
      "stateMutability": "nonpayable",
      "type": "function"
    },
    {
      "inputs": [],
      "name": "getManager",
      "outputs": [
        {
          "internalType": "address",
          "name": "",
          "type": "address"
        }
      ],
      "stateMutability": "view",
      "type": "function"
    },
    {
      "inputs": [],
      "name": "getQuota",
      "outputs": [
        {
          "internalType": "uint256",
          "name": "",
          "type": "uint256"
        }
      ],
      "stateMutability": "view",
      "type": "function"
    },
    {
      "inputs": [
        {
          "internalType": "string",
          "name": "title",
          "type": "string"
        }
      ],
      "name": "getTopic",
      "outputs": [
        {
          "components": [
            {
              "internalType": "string",
              "name": "title",
              "type": "string"
            },
            {
              "internalType": "string",
              "name": "description",
              "type": "string"
            },
            {
              "internalType": "enum CondominiumLib.Status",
              "name": "status",
              "type": "uint8"
            },
            {
              "internalType": "uint256",
              "name": "createdDate",
              "type": "uint256"
            },
            {
              "internalType": "uint256",
              "name": "startDate",
              "type": "uint256"
            },
            {
              "internalType": "uint256",
              "name": "endDate",
              "type": "uint256"
            },
            {
              "internalType": "enum CondominiumLib.Category",
              "name": "category",
              "type": "uint8"
            },
            {
              "internalType": "uint256",
              "name": "amount",
              "type": "uint256"
            },
            {
              "internalType": "address",
              "name": "responsible",
              "type": "address"
            }
          ],
          "internalType": "struct CondominiumLib.Topic",
          "name": "",
          "type": "tuple"
        }
      ],
      "stateMutability": "view",
      "type": "function"
    },
    {
      "inputs": [
        {
          "internalType": "address",
          "name": "resident",
          "type": "address"
        }
      ],
      "name": "isResident",
      "outputs": [
        {
          "internalType": "bool",
          "name": "",
          "type": "bool"
        }
      ],
      "stateMutability": "view",
      "type": "function"
    },
    {
      "inputs": [],
      "name": "manager",
      "outputs": [
        {
          "internalType": "address",
          "name": "",
          "type": "address"
        }
      ],
      "stateMutability": "view",
      "type": "function"
    },
    {
      "inputs": [],
      "name": "monthlyQuota",
      "outputs": [
        {
          "internalType": "uint256",
          "name": "",
          "type": "uint256"
        }
      ],
      "stateMutability": "view",
      "type": "function"
    },
    {
      "inputs": [
        {
          "internalType": "string",
          "name": "title",
          "type": "string"
        }
      ],
      "name": "numberOfVotes",
      "outputs": [
        {
          "internalType": "uint256",
          "name": "",
          "type": "uint256"
        }
      ],
      "stateMutability": "view",
      "type": "function"
    },
    {
      "inputs": [
        {
          "internalType": "string",
          "name": "title",
          "type": "string"
        }
      ],
      "name": "openVoting",
      "outputs": [
        {
          "components": [
            {
              "internalType": "bytes32",
              "name": "topicId",
              "type": "bytes32"
            },
            {
              "internalType": "string",
              "name": "title",
              "type": "string"
            },
            {
              "internalType": "enum CondominiumLib.Status",
              "name": "status",
              "type": "uint8"
            },
            {
              "internalType": "enum CondominiumLib.Category",
              "name": "category",
              "type": "uint8"
            }
          ],
          "internalType": "struct CondominiumLib.TopicUpdate",
          "name": "",
          "type": "tuple"
        }
      ],
      "stateMutability": "nonpayable",
      "type": "function"
    },
    {
      "inputs": [
        {
          "internalType": "uint16",
          "name": "residence",
          "type": "uint16"
        }
      ],
      "name": "payQuota",
      "outputs": [],
      "stateMutability": "payable",
      "type": "function"
    },
    {
      "inputs": [
        {
          "internalType": "uint16",
          "name": "",
          "type": "uint16"
        }
      ],
      "name": "payments",
      "outputs": [
        {
          "internalType": "uint256",
          "name": "",
          "type": "uint256"
        }
      ],
      "stateMutability": "view",
      "type": "function"
    },
    {
      "inputs": [
        {
          "internalType": "address",
          "name": "resident",
          "type": "address"
        }
      ],
      "name": "removeResident",
      "outputs": [],
      "stateMutability": "nonpayable",
      "type": "function"
    },
    {
      "inputs": [
        {
          "internalType": "string",
          "name": "title",
          "type": "string"
        }
      ],
      "name": "removeTopic",
      "outputs": [
        {
          "components": [
            {
              "internalType": "bytes32",
              "name": "topicId",
              "type": "bytes32"
            },
            {
              "internalType": "string",
              "name": "title",
              "type": "string"
            },
            {
              "internalType": "enum CondominiumLib.Status",
              "name": "status",
              "type": "uint8"
            },
            {
              "internalType": "enum CondominiumLib.Category",
              "name": "category",
              "type": "uint8"
            }
          ],
          "internalType": "struct CondominiumLib.TopicUpdate",
          "name": "",
          "type": "tuple"
        }
      ],
      "stateMutability": "nonpayable",
      "type": "function"
    },
    {
      "inputs": [
        {
          "internalType": "uint16",
          "name": "residence",
          "type": "uint16"
        }
      ],
      "name": "residenceExists",
      "outputs": [
        {
          "internalType": "bool",
          "name": "",
          "type": "bool"
        }
      ],
      "stateMutability": "view",
      "type": "function"
    },
    {
      "inputs": [
        {
          "internalType": "uint16",
          "name": "",
          "type": "uint16"
        }
      ],
      "name": "residences",
      "outputs": [
        {
          "internalType": "bool",
          "name": "",
          "type": "bool"
        }
      ],
      "stateMutability": "view",
      "type": "function"
    },
    {
      "inputs": [
        {
          "internalType": "address",
          "name": "",
          "type": "address"
        }
      ],
      "name": "residents",
      "outputs": [
        {
          "internalType": "uint16",
          "name": "",
          "type": "uint16"
        }
      ],
      "stateMutability": "view",
      "type": "function"
    },
    {
      "inputs": [
        {
          "internalType": "address",
          "name": "resident",
          "type": "address"
        },
        {
          "internalType": "bool",
          "name": "isEntering",
          "type": "bool"
        }
      ],
      "name": "setCounselor",
      "outputs": [],
      "stateMutability": "nonpayable",
      "type": "function"
    },
    {
      "inputs": [
        {
          "internalType": "string",
          "name": "title",
          "type": "string"
        }
      ],
      "name": "topicExists",
      "outputs": [
        {
          "internalType": "bool",
          "name": "",
          "type": "bool"
        }
      ],
      "stateMutability": "view",
      "type": "function"
    },
    {
      "inputs": [
        {
          "internalType": "bytes32",
          "name": "",
          "type": "bytes32"
        }
      ],
      "name": "topics",
      "outputs": [
        {
          "internalType": "string",
          "name": "title",
          "type": "string"
        },
        {
          "internalType": "string",
          "name": "description",
          "type": "string"
        },
        {
          "internalType": "enum CondominiumLib.Status",
          "name": "status",
          "type": "uint8"
        },
        {
          "internalType": "uint256",
          "name": "createdDate",
          "type": "uint256"
        },
        {
          "internalType": "uint256",
          "name": "startDate",
          "type": "uint256"
        },
        {
          "internalType": "uint256",
          "name": "endDate",
          "type": "uint256"
        },
        {
          "internalType": "enum CondominiumLib.Category",
          "name": "category",
          "type": "uint8"
        },
        {
          "internalType": "uint256",
          "name": "amount",
          "type": "uint256"
        },
        {
          "internalType": "address",
          "name": "responsible",
          "type": "address"
        }
      ],
      "stateMutability": "view",
      "type": "function"
    },
    {
      "inputs": [
        {
          "internalType": "string",
          "name": "title",
          "type": "string"
        },
        {
          "internalType": "uint256",
          "name": "amount",
          "type": "uint256"
        }
      ],
      "name": "transfer",
      "outputs": [
        {
          "components": [
            {
              "internalType": "address",
              "name": "to",
              "type": "address"
            },
            {
              "internalType": "uint256",
              "name": "amount",
              "type": "uint256"
            },
            {
              "internalType": "string",
              "name": "topic",
              "type": "string"
            }
          ],
          "internalType": "struct CondominiumLib.TransferReceipt",
          "name": "",
          "type": "tuple"
        }
      ],
      "stateMutability": "nonpayable",
      "type": "function"
    },
    {
      "inputs": [
        {
          "internalType": "string",
          "name": "title",
          "type": "string"
        },
        {
          "internalType": "enum CondominiumLib.VoteOptions",
          "name": "option",
          "type": "uint8"
        }
      ],
      "name": "vote",
      "outputs": [],
      "stateMutability": "nonpayable",
      "type": "function"
    },
    {
      "inputs": [
        {
          "internalType": "bytes32",
          "name": "",
          "type": "bytes32"
        },
        {
          "internalType": "uint256",
          "name": "",
          "type": "uint256"
        }
      ],
      "name": "votings",
      "outputs": [
        {
          "internalType": "address",
          "name": "resident",
          "type": "address"
        },
        {
          "internalType": "uint16",
          "name": "residence",
          "type": "uint16"
        },
        {
          "internalType": "enum CondominiumLib.VoteOptions",
          "name": "option",
          "type": "uint8"
        },
        {
          "internalType": "uint256",
          "name": "timestamp",
          "type": "uint256"
        }
      ],
      "stateMutability": "view",
      "type": "function"
    }
  ],
  "bytecode": "0x6080604052662386f26fc100006001553480156200001c57600080fd5b50336000806101000a81548173ffffffffffffffffffffffffffffffffffffffff021916908373ffffffffffffffffffffffffffffffffffffffff1602179055506000600190505b60028161ffff161162000148576000600190505b60058161ffff161162000131576000600190505b60058161ffff16116200011a5760016002600083606486620000af91906200018c565b6103e888620000bf91906200018c565b620000cb9190620001d2565b620000d79190620001d2565b61ffff1661ffff16815260200190815260200160002060006101000a81548160ff021916908315150217905550808062000111906200020f565b9150506200008c565b50808062000128906200020f565b91505062000078565b5080806200013f906200020f565b91505062000064565b506200023e565b600061ffff82169050919050565b7f4e487b7100000000000000000000000000000000000000000000000000000000600052601160045260246000fd5b600062000199826200014f565b9150620001a6836200014f565b9250828202620001b6816200014f565b9150808214620001cb57620001ca6200015d565b5b5092915050565b6000620001df826200014f565b9150620001ec836200014f565b9250828201905061ffff8111156200020957620002086200015d565b5b92915050565b60006200021c826200014f565b915061ffff82036200023357620002326200015d565b5b600182019050919050565b614b34806200024e6000396000f3fe6080604052600436106101815760003560e01c806378b5749d116100d15780639e1bf9851161008a578063c12e806311610064578063c12e806314610635578063d500958414610651578063e4d65d541461067c578063eaf5d9dc146106b957610181565b80639e1bf98514610592578063b1583546146105cf578063bc2f89f3146105f857610181565b806378b5749d1461044c5780637b57ee49146104895780638fc5dad8146104c657806390ca27f314610503578063967d59e41461052c57806396fa1def1461056957610181565b806343b8c6b11161013e5780634de53265116101185780634de532651461037e578063597de987146103bb57806368aca335146103e4578063783bb57d1461042157610181565b806343b8c6b1146102ed578063474502d814610316578063481c6a751461035357610181565b80630f2fbeec1461018657806312cb70c7146101cb5780631794230c146102085780631a6c0192146102455780631df8ba77146102855780632f9f21fe146102b0575b600080fd5b34801561019257600080fd5b506101ad60048036038101906101a89190612fbe565b6106f6565b6040516101c299989796959493929190613194565b60405180910390f35b3480156101d757600080fd5b506101f260048036038101906101ed9190613390565b61088e565b6040516101ff91906134a4565b60405180910390f35b34801561021457600080fd5b5061022f600480360381019061022a9190613500565b610b31565b60405161023c919061352d565b60405180910390f35b34801561025157600080fd5b5061026c60048036038101906102679190613548565b610b49565b60405161027c94939291906135df565b60405180910390f35b34801561029157600080fd5b5061029a610bd1565b6040516102a7919061352d565b60405180910390f35b3480156102bc57600080fd5b506102d760048036038101906102d29190613624565b610bdb565b6040516102e4919061352d565b60405180910390f35b3480156102f957600080fd5b50610314600480360381019061030f91906136be565b610c07565b005b34801561032257600080fd5b5061033d60048036038101906103389190613624565b61107a565b60405161034a919061385b565b60405180910390f35b34801561035f57600080fd5b506103686112cd565b604051610375919061387d565b60405180910390f35b34801561038a57600080fd5b506103a560048036038101906103a09190613898565b6112f1565b6040516103b291906138e0565b60405180910390f35b3480156103c757600080fd5b506103e260048036038101906103dd9190613898565b611311565b005b3480156103f057600080fd5b5061040b60048036038101906104069190613898565b61147f565b60405161041891906138e0565b60405180910390f35b34801561042d57600080fd5b506104366114dc565b604051610443919061352d565b60405180910390f35b34801561045857600080fd5b50610473600480360381019061046e9190613624565b6114e2565b60405161048091906138e0565b60405180910390f35b34801561049557600080fd5b506104b060048036038101906104ab9190613624565b6114fa565b6040516104bd919061396d565b60405180910390f35b3480156104d257600080fd5b506104ed60048036038101906104e89190613624565b611757565b6040516104fa919061396d565b60405180910390f35b34801561050f57600080fd5b5061052a600480360381019061052591906139b4565b611d86565b005b34801561053857600080fd5b50610553600480360381019061054e9190613500565b6123b0565b60405161056091906138e0565b60405180910390f35b34801561057557600080fd5b50610590600480360381019061058b9190613a3c565b6123e2565b005b34801561059e57600080fd5b506105b960048036038101906105b49190613624565b6125e0565b6040516105c6919061396d565b60405180910390f35b3480156105db57600080fd5b506105f660048036038101906105f19190613a7c565b6127f2565b005b34801561060457600080fd5b5061061f600480360381019061061a9190613500565b6129eb565b60405161062c91906138e0565b60405180910390f35b61064f600480360381019061064a9190613500565b612a0b565b005b34801561065d57600080fd5b50610666612b26565b604051610673919061387d565b60405180910390f35b34801561068857600080fd5b506106a3600480360381019061069e9190613898565b612b4f565b6040516106b09190613abc565b60405180910390f35b3480156106c557600080fd5b506106e060048036038101906106db9190613ad7565b612b70565b6040516106ed919061396d565b60405180910390f35b600660205280600052604060002060009150905080600001805461071990613ba5565b80601f016020809104026020016040519081016040528092919081815260200182805461074590613ba5565b80156107925780601f1061076757610100808354040283529160200191610792565b820191906000526020600020905b81548152906001019060200180831161077557829003601f168201915b5050505050908060010180546107a790613ba5565b80601f01602080910402602001604051908101604052809291908181526020018280546107d390613ba5565b80156108205780601f106107f557610100808354040283529160200191610820565b820191906000526020600020905b81548152906001019060200180831161080357829003601f168201915b5050505050908060020160009054906101000a900460ff16908060030154908060040154908060050154908060060160009054906101000a900460ff16908060070154908060080160009054906101000a900473ffffffffffffffffffffffffffffffffffffffff16905089565b610896612e0b565b60008054906101000a900473ffffffffffffffffffffffffffffffffffffffff1673ffffffffffffffffffffffffffffffffffffffff163273ffffffffffffffffffffffffffffffffffffffff1614610924576040517f08c379a000000000000000000000000000000000000000000000000000000000815260040161091b90613c48565b60405180910390fd5b81471015610967576040517f08c379a000000000000000000000000000000000000000000000000000000000815260040161095e90613cb4565b60405180910390fd5b60006109728461107a565b9050600260058111156109885761098761307b565b5b8160400151600581111561099f5761099e61307b565b5b1480156109d45750600160038111156109bb576109ba61307b565b5b8160c0015160038111156109d2576109d161307b565b5b145b610a13576040517f08c379a0000000000000000000000000000000000000000000000000000000008152600401610a0a90613d46565b60405180910390fd5b828160e001511015610a5a576040517f08c379a0000000000000000000000000000000000000000000000000000000008152600401610a5190613dd8565b60405180910390fd5b80610100015173ffffffffffffffffffffffffffffffffffffffff166108fc849081150290604051600060405180830381858888f19350505050158015610aa5573d6000803e3d6000fd5b5060008480519060200120905060056006600083815260200190815260200160002060020160006101000a81548160ff02191690836005811115610aec57610aeb61307b565b5b0217905550604051806060016040528083610100015173ffffffffffffffffffffffffffffffffffffffff168152602001858152602001868152509250505092915050565b60056020528060005260406000206000915090505481565b60076020528160005260406000208181548110610b6557600080fd5b9060005260206000209060020201600091509150508060000160009054906101000a900473ffffffffffffffffffffffffffffffffffffffff16908060000160149054906101000a900461ffff16908060000160169054906101000a900460ff16908060010154905084565b6000600154905090565b600080828051906020012090506007600082815260200190815260200160002080549050915050919050565b60008054906101000a900473ffffffffffffffffffffffffffffffffffffffff1673ffffffffffffffffffffffffffffffffffffffff163273ffffffffffffffffffffffffffffffffffffffff161480610c665750610c653261147f565b5b610ca5576040517f08c379a0000000000000000000000000000000000000000000000000000000008152600401610c9c90613e6a565b60405180910390fd5b60008054906101000a900473ffffffffffffffffffffffffffffffffffffffff1673ffffffffffffffffffffffffffffffffffffffff163273ffffffffffffffffffffffffffffffffffffffff161480610d74575062278d0060056000600460003273ffffffffffffffffffffffffffffffffffffffff1673ffffffffffffffffffffffffffffffffffffffff16815260200190815260200160002060009054906101000a900461ffff1661ffff1661ffff16815260200190815260200160002054610d719190613eb9565b42105b610db3576040517f08c379a0000000000000000000000000000000000000000000000000000000008152600401610daa90613f39565b60405180910390fd5b610dbc856114e2565b15610dfc576040517f08c379a0000000000000000000000000000000000000000000000000000000008152600401610df390613fa5565b60405180910390fd5b6000821115610e9c5760026003811115610e1957610e1861307b565b5b836003811115610e2c57610e2b61307b565b5b1480610e5c575060016003811115610e4757610e4661307b565b5b836003811115610e5a57610e5961307b565b5b145b610e9b576040517f08c379a0000000000000000000000000000000000000000000000000000000008152600401610e9290614011565b60405180910390fd5b5b600060405180610120016040528087815260200186815260200160006005811115610eca57610ec961307b565b5b81526020014281526020016000815260200160008152602001856003811115610ef657610ef561307b565b5b8152602001848152602001600073ffffffffffffffffffffffffffffffffffffffff168473ffffffffffffffffffffffffffffffffffffffff1603610f3b5732610f3d565b835b73ffffffffffffffffffffffffffffffffffffffff1681525090508060066000888051906020012081526020019081526020016000206000820151816000019081610f8891906141dd565b506020820151816001019081610f9e91906141dd565b5060408201518160020160006101000a81548160ff02191690836005811115610fca57610fc961307b565b5b0217905550606082015181600301556080820151816004015560a0820151816005015560c08201518160060160006101000a81548160ff021916908360038111156110185761101761307b565b5b021790555060e082015181600701556101008201518160080160006101000a81548173ffffffffffffffffffffffffffffffffffffffff021916908373ffffffffffffffffffffffffffffffffffffffff160217905550905050505050505050565b611082612e42565b60008280519060200120905060066000828152602001908152602001600020604051806101200160405290816000820180546110bd90613ba5565b80601f01602080910402602001604051908101604052809291908181526020018280546110e990613ba5565b80156111365780601f1061110b57610100808354040283529160200191611136565b820191906000526020600020905b81548152906001019060200180831161111957829003601f168201915b5050505050815260200160018201805461114f90613ba5565b80601f016020809104026020016040519081016040528092919081815260200182805461117b90613ba5565b80156111c85780601f1061119d576101008083540402835291602001916111c8565b820191906000526020600020905b8154815290600101906020018083116111ab57829003601f168201915b505050505081526020016002820160009054906101000a900460ff1660058111156111f6576111f561307b565b5b60058111156112085761120761307b565b5b81526020016003820154815260200160048201548152602001600582015481526020016006820160009054906101000a900460ff16600381111561124f5761124e61307b565b5b60038111156112615761126061307b565b5b8152602001600782015481526020016008820160009054906101000a900473ffffffffffffffffffffffffffffffffffffffff1673ffffffffffffffffffffffffffffffffffffffff1673ffffffffffffffffffffffffffffffffffffffff1681525050915050919050565b60008054906101000a900473ffffffffffffffffffffffffffffffffffffffff1681565b60036020528060005260406000206000915054906101000a900460ff1681565b60008054906101000a900473ffffffffffffffffffffffffffffffffffffffff1673ffffffffffffffffffffffffffffffffffffffff163273ffffffffffffffffffffffffffffffffffffffff161461139f576040517f08c379a000000000000000000000000000000000000000000000000000000000815260040161139690613c48565b60405180910390fd5b600360008273ffffffffffffffffffffffffffffffffffffffff1673ffffffffffffffffffffffffffffffffffffffff16815260200190815260200160002060009054906101000a900460ff161561142c576040517f08c379a0000000000000000000000000000000000000000000000000000000008152600401611423906142fb565b60405180910390fd5b600460008273ffffffffffffffffffffffffffffffffffffffff1673ffffffffffffffffffffffffffffffffffffffff16815260200190815260200160002060006101000a81549061ffff021916905550565b600080600460008473ffffffffffffffffffffffffffffffffffffffff1673ffffffffffffffffffffffffffffffffffffffff16815260200190815260200160002060009054906101000a900461ffff1661ffff16119050919050565b60015481565b6000806114ee8361107a565b60600151119050919050565b611502612ec8565b60008054906101000a900473ffffffffffffffffffffffffffffffffffffffff1673ffffffffffffffffffffffffffffffffffffffff163273ffffffffffffffffffffffffffffffffffffffff1614611590576040517f08c379a000000000000000000000000000000000000000000000000000000000815260040161158790613c48565b60405180910390fd5b600061159b8361107a565b905060008160600151116115e4576040517f08c379a00000000000000000000000000000000000000000000000000000000081526004016115db90614367565b60405180910390fd5b600060058111156115f8576115f761307b565b5b8160400151600581111561160f5761160e61307b565b5b1461164f576040517f08c379a0000000000000000000000000000000000000000000000000000000008152600401611646906143d3565b60405180910390fd5b600083805190602001209050600660008281526020019081526020016000206000808201600061167f9190612f17565b60018201600061168f9190612f17565b6002820160006101000a81549060ff02191690556003820160009055600482016000905560058201600090556006820160006101000a81549060ff021916905560078201600090556008820160006101000a81549073ffffffffffffffffffffffffffffffffffffffff021916905550506040518060800160405280828152602001836000015181526020016004600581111561172f5761172e61307b565b5b81526020018360c00151600381111561174b5761174a61307b565b5b81525092505050919050565b61175f612ec8565b60008054906101000a900473ffffffffffffffffffffffffffffffffffffffff1673ffffffffffffffffffffffffffffffffffffffff163273ffffffffffffffffffffffffffffffffffffffff16146117ed576040517f08c379a00000000000000000000000000000000000000000000000000000000081526004016117e490613c48565b60405180910390fd5b60006117f88361107a565b90506000816060015111611841576040517f08c379a000000000000000000000000000000000000000000000000000000000815260040161183890614367565b60405180910390fd5b600160058111156118555761185461307b565b5b8160400151600581111561186c5761186b61307b565b5b146118ac576040517f08c379a00000000000000000000000000000000000000000000000000000000081526004016118a39061443f565b60405180910390fd5b600060059050600160038111156118c6576118c561307b565b5b8260c0015160038111156118dd576118dc61307b565b5b036118eb57600a905061195a565b6003808111156118fe576118fd61307b565b5b8260c0015160038111156119155761191461307b565b5b0361192357600f9050611959565b600260038111156119375761193661307b565b5b8260c00151600381111561194e5761194d61307b565b5b0361195857601490505b5b5b8060ff1661196785610bdb565b10156119a8576040517f08c379a000000000000000000000000000000000000000000000000000000000815260040161199f906144f7565b60405180910390fd5b60008480519060200120905060008060008060076000868152602001908152602001600020805480602002602001604051908101604052809291908181526020016000905b82821015611ada57838290600052602060002090600202016040518060800160405290816000820160009054906101000a900473ffffffffffffffffffffffffffffffffffffffff1673ffffffffffffffffffffffffffffffffffffffff1673ffffffffffffffffffffffffffffffffffffffff1681526020016000820160149054906101000a900461ffff1661ffff1661ffff1681526020016000820160169054906101000a900460ff166003811115611aab57611aaa61307b565b5b6003811115611abd57611abc61307b565b5b8152602001600182015481525050815260200190600101906119ed565b50505050905060005b81518160ff161015611bd25760016003811115611b0357611b0261307b565b5b828260ff1681518110611b1957611b18614517565b5b6020026020010151604001516003811115611b3757611b3661307b565b5b03611b4f578480611b4790614553565b955050611bbf565b60026003811115611b6357611b6261307b565b5b828260ff1681518110611b7957611b78614517565b5b6020026020010151604001516003811115611b9757611b9661307b565b5b03611baf578380611ba790614553565b945050611bbe565b8280611bba90614553565b9350505b5b8080611bca90614553565b915050611ae3565b5060008360ff168560ff1611611be9576003611bec565b60025b9050806006600088815260200190815260200160002060020160006101000a81548160ff02191690836005811115611c2757611c2661307b565b5b021790555042600660008881526020019081526020016000206005018190555060026005811115611c5b57611c5a61307b565b5b816005811115611c6e57611c6d61307b565b5b03611d2a5760026003811115611c8757611c8661307b565b5b8860c001516003811115611c9e57611c9d61307b565b5b03611cb3578760e00151600181905550611d29565b600380811115611cc657611cc561307b565b5b8860c001516003811115611cdd57611cdc61307b565b5b03611d28578761010001516000806101000a81548173ffffffffffffffffffffffffffffffffffffffff021916908373ffffffffffffffffffffffffffffffffffffffff1602179055505b5b5b604051806080016040528087815260200189600001518152602001826005811115611d5857611d5761307b565b5b81526020018960c001516003811115611d7457611d7361307b565b5b81525098505050505050505050919050565b60008054906101000a900473ffffffffffffffffffffffffffffffffffffffff1673ffffffffffffffffffffffffffffffffffffffff163273ffffffffffffffffffffffffffffffffffffffff161480611de55750611de43261147f565b5b611e24576040517f08c379a0000000000000000000000000000000000000000000000000000000008152600401611e1b90613e6a565b60405180910390fd5b60008054906101000a900473ffffffffffffffffffffffffffffffffffffffff1673ffffffffffffffffffffffffffffffffffffffff163273ffffffffffffffffffffffffffffffffffffffff161480611ef3575062278d0060056000600460003273ffffffffffffffffffffffffffffffffffffffff1673ffffffffffffffffffffffffffffffffffffffff16815260200190815260200160002060009054906101000a900461ffff1661ffff1661ffff16815260200190815260200160002054611ef09190613eb9565b42105b611f32576040517f08c379a0000000000000000000000000000000000000000000000000000000008152600401611f2990613f39565b60405180910390fd5b60006003811115611f4657611f4561307b565b5b816003811115611f5957611f5861307b565b5b03611f99576040517f08c379a0000000000000000000000000000000000000000000000000000000008152600401611f90906145c8565b60405180910390fd5b6000611fa48361107a565b90506000816060015111611fed576040517f08c379a0000000000000000000000000000000000000000000000000000000008152600401611fe490614367565b60405180910390fd5b600160058111156120015761200061307b565b5b816040015160058111156120185761201761307b565b5b14612058576040517f08c379a000000000000000000000000000000000000000000000000000000000815260040161204f90614634565b60405180910390fd5b6000600460003273ffffffffffffffffffffffffffffffffffffffff1673ffffffffffffffffffffffffffffffffffffffff16815260200190815260200160002060009054906101000a900461ffff169050600084805190602001209050600060076000838152602001908152602001600020805480602002602001604051908101604052809291908181526020016000905b828210156121d857838290600052602060002090600202016040518060800160405290816000820160009054906101000a900473ffffffffffffffffffffffffffffffffffffffff1673ffffffffffffffffffffffffffffffffffffffff1673ffffffffffffffffffffffffffffffffffffffff1681526020016000820160149054906101000a900461ffff1661ffff1661ffff1681526020016000820160169054906101000a900460ff1660038111156121a9576121a861307b565b5b60038111156121bb576121ba61307b565b5b8152602001600182015481525050815260200190600101906120eb565b50505050905060005b81518160ff161015612272578361ffff16828260ff168151811061220857612207614517565b5b60200260200101516020015161ffff160361225f57600061225e576040517f08c379a0000000000000000000000000000000000000000000000000000000008152600401612255906146c6565b60405180910390fd5b5b808061226a90614553565b9150506121e1565b50600060405180608001604052803273ffffffffffffffffffffffffffffffffffffffff1681526020018561ffff1681526020018760038111156122b9576122b861307b565b5b81526020014281525090506007600084815260200190815260200160002081908060018154018082558091505060019003906000526020600020906002020160009091909190915060008201518160000160006101000a81548173ffffffffffffffffffffffffffffffffffffffff021916908373ffffffffffffffffffffffffffffffffffffffff16021790555060208201518160000160146101000a81548161ffff021916908361ffff16021790555060408201518160000160166101000a81548160ff021916908360038111156123965761239561307b565b5b021790555060608201518160010155505050505050505050565b6000600260008361ffff1661ffff16815260200190815260200160002060009054906101000a900460ff169050919050565b60008054906101000a900473ffffffffffffffffffffffffffffffffffffffff1673ffffffffffffffffffffffffffffffffffffffff163273ffffffffffffffffffffffffffffffffffffffff1614612470576040517f08c379a000000000000000000000000000000000000000000000000000000000815260040161246790613c48565b60405180910390fd5b81600073ffffffffffffffffffffffffffffffffffffffff168173ffffffffffffffffffffffffffffffffffffffff16036124e0576040517f08c379a00000000000000000000000000000000000000000000000000000000081526004016124d790614732565b60405180910390fd5b811561258b576124ef8361147f565b61252e576040517f08c379a00000000000000000000000000000000000000000000000000000000081526004016125259061479e565b60405180910390fd5b6001600360008573ffffffffffffffffffffffffffffffffffffffff1673ffffffffffffffffffffffffffffffffffffffff16815260200190815260200160002060006101000a81548160ff0219169083151502179055506125db565b600360008473ffffffffffffffffffffffffffffffffffffffff1673ffffffffffffffffffffffffffffffffffffffff16815260200190815260200160002060006101000a81549060ff02191690555b505050565b6125e8612ec8565b60008054906101000a900473ffffffffffffffffffffffffffffffffffffffff1673ffffffffffffffffffffffffffffffffffffffff163273ffffffffffffffffffffffffffffffffffffffff1614612676576040517f08c379a000000000000000000000000000000000000000000000000000000000815260040161266d90613c48565b60405180910390fd5b60006126818361107a565b905060008160600151116126ca576040517f08c379a00000000000000000000000000000000000000000000000000000000081526004016126c190614367565b60405180910390fd5b600060058111156126de576126dd61307b565b5b816040015160058111156126f5576126f461307b565b5b14612735576040517f08c379a000000000000000000000000000000000000000000000000000000000815260040161272c90614830565b60405180910390fd5b60008380519060200120905060016006600083815260200190815260200160002060020160006101000a81548160ff0219169083600581111561277b5761277a61307b565b5b0217905550426006600083815260200190815260200160002060040181905550604051806080016040528082815260200183600001518152602001600160058111156127ca576127c961307b565b5b81526020018360c0015160038111156127e6576127e561307b565b5b81525092505050919050565b60008054906101000a900473ffffffffffffffffffffffffffffffffffffffff1673ffffffffffffffffffffffffffffffffffffffff163273ffffffffffffffffffffffffffffffffffffffff1614806128955750600360003273ffffffffffffffffffffffffffffffffffffffff1673ffffffffffffffffffffffffffffffffffffffff16815260200190815260200160002060009054906101000a900460ff165b6128d4576040517f08c379a00000000000000000000000000000000000000000000000000000000081526004016128cb906148c2565b60405180910390fd5b81600073ffffffffffffffffffffffffffffffffffffffff168173ffffffffffffffffffffffffffffffffffffffff1603612944576040517f08c379a000000000000000000000000000000000000000000000000000000000815260040161293b90614732565b60405180910390fd5b61294d826123b0565b61298c576040517f08c379a00000000000000000000000000000000000000000000000000000000081526004016129839061492e565b60405180910390fd5b81600460008573ffffffffffffffffffffffffffffffffffffffff1673ffffffffffffffffffffffffffffffffffffffff16815260200190815260200160002060006101000a81548161ffff021916908361ffff160217905550505050565b60026020528060005260406000206000915054906101000a900460ff1681565b612a14816123b0565b612a53576040517f08c379a0000000000000000000000000000000000000000000000000000000008152600401612a4a9061499a565b60405180910390fd5b600154341015612a98576040517f08c379a0000000000000000000000000000000000000000000000000000000008152600401612a8f90614a06565b60405180910390fd5b62278d00600560008361ffff1661ffff16815260200190815260200160002054612ac29190613eb9565b4211612b03576040517f08c379a0000000000000000000000000000000000000000000000000000000008152600401612afa90614a72565b60405180910390fd5b42600560008361ffff1661ffff1681526020019081526020016000208190555050565b60008060009054906101000a900473ffffffffffffffffffffffffffffffffffffffff16905090565b60046020528060005260406000206000915054906101000a900461ffff1681565b612b78612ec8565b60008054906101000a900473ffffffffffffffffffffffffffffffffffffffff1673ffffffffffffffffffffffffffffffffffffffff163273ffffffffffffffffffffffffffffffffffffffff1614612c06576040517f08c379a0000000000000000000000000000000000000000000000000000000008152600401612bfd90613c48565b60405180910390fd5b6000612c118661107a565b90506000816060015111612c5a576040517f08c379a0000000000000000000000000000000000000000000000000000000008152600401612c5190614367565b60405180910390fd5b60006005811115612c6e57612c6d61307b565b5b81604001516005811115612c8557612c8461307b565b5b14612cc5576040517f08c379a0000000000000000000000000000000000000000000000000000000008152600401612cbc90614ade565b60405180910390fd5b600086805190602001209050600086511115612d005785600660008381526020019081526020016000206001019081612cfe91906141dd565b505b60008510612d24578460066000838152602001908152602001600020600701819055505b600073ffffffffffffffffffffffffffffffffffffffff168473ffffffffffffffffffffffffffffffffffffffff1614612dae57836006600083815260200190815260200160002060080160006101000a81548173ffffffffffffffffffffffffffffffffffffffff021916908373ffffffffffffffffffffffffffffffffffffffff1602179055505b60405180608001604052808281526020018360000151815260200183604001516005811115612de057612ddf61307b565b5b81526020018360c001516003811115612dfc57612dfb61307b565b5b81525092505050949350505050565b6040518060600160405280600073ffffffffffffffffffffffffffffffffffffffff16815260200160008152602001606081525090565b604051806101200160405280606081526020016060815260200160006005811115612e7057612e6f61307b565b5b815260200160008152602001600081526020016000815260200160006003811115612e9e57612e9d61307b565b5b815260200160008152602001600073ffffffffffffffffffffffffffffffffffffffff1681525090565b6040518060800160405280600080191681526020016060815260200160006005811115612ef857612ef761307b565b5b815260200160006003811115612f1157612f1061307b565b5b81525090565b508054612f2390613ba5565b6000825580601f10612f355750612f54565b601f016020900490600052602060002090810190612f539190612f57565b5b50565b5b80821115612f70576000816000905550600101612f58565b5090565b6000604051905090565b600080fd5b600080fd5b6000819050919050565b612f9b81612f88565b8114612fa657600080fd5b50565b600081359050612fb881612f92565b92915050565b600060208284031215612fd457612fd3612f7e565b5b6000612fe284828501612fa9565b91505092915050565b600081519050919050565b600082825260208201905092915050565b60005b8381101561302557808201518184015260208101905061300a565b60008484015250505050565b6000601f19601f8301169050919050565b600061304d82612feb565b6130578185612ff6565b9350613067818560208601613007565b61307081613031565b840191505092915050565b7f4e487b7100000000000000000000000000000000000000000000000000000000600052602160045260246000fd5b600681106130bb576130ba61307b565b5b50565b60008190506130cc826130aa565b919050565b60006130dc826130be565b9050919050565b6130ec816130d1565b82525050565b6000819050919050565b613105816130f2565b82525050565b6004811061311c5761311b61307b565b5b50565b600081905061312d8261310b565b919050565b600061313d8261311f565b9050919050565b61314d81613132565b82525050565b600073ffffffffffffffffffffffffffffffffffffffff82169050919050565b600061317e82613153565b9050919050565b61318e81613173565b82525050565b60006101208201905081810360008301526131af818c613042565b905081810360208301526131c3818b613042565b90506131d2604083018a6130e3565b6131df60608301896130fc565b6131ec60808301886130fc565b6131f960a08301876130fc565b61320660c0830186613144565b61321360e08301856130fc565b613221610100830184613185565b9a9950505050505050505050565b600080fd5b600080fd5b7f4e487b7100000000000000000000000000000000000000000000000000000000600052604160045260246000fd5b61327182613031565b810181811067ffffffffffffffff821117156132905761328f613239565b5b80604052505050565b60006132a3612f74565b90506132af8282613268565b919050565b600067ffffffffffffffff8211156132cf576132ce613239565b5b6132d882613031565b9050602081019050919050565b82818337600083830152505050565b6000613307613302846132b4565b613299565b90508281526020810184848401111561332357613322613234565b5b61332e8482856132e5565b509392505050565b600082601f83011261334b5761334a61322f565b5b813561335b8482602086016132f4565b91505092915050565b61336d816130f2565b811461337857600080fd5b50565b60008135905061338a81613364565b92915050565b600080604083850312156133a7576133a6612f7e565b5b600083013567ffffffffffffffff8111156133c5576133c4612f83565b5b6133d185828601613336565b92505060206133e28582860161337b565b9150509250929050565b6133f581613173565b82525050565b613404816130f2565b82525050565b600082825260208201905092915050565b600061342682612feb565b613430818561340a565b9350613440818560208601613007565b61344981613031565b840191505092915050565b600060608301600083015161346c60008601826133ec565b50602083015161347f60208601826133fb565b5060408301518482036040860152613497828261341b565b9150508091505092915050565b600060208201905081810360008301526134be8184613454565b905092915050565b600061ffff82169050919050565b6134dd816134c6565b81146134e857600080fd5b50565b6000813590506134fa816134d4565b92915050565b60006020828403121561351657613515612f7e565b5b6000613524848285016134eb565b91505092915050565b600060208201905061354260008301846130fc565b92915050565b6000806040838503121561355f5761355e612f7e565b5b600061356d85828601612fa9565b925050602061357e8582860161337b565b9150509250929050565b613591816134c6565b82525050565b600481106135a8576135a761307b565b5b50565b60008190506135b982613597565b919050565b60006135c9826135ab565b9050919050565b6135d9816135be565b82525050565b60006080820190506135f46000830187613185565b6136016020830186613588565b61360e60408301856135d0565b61361b60608301846130fc565b95945050505050565b60006020828403121561363a57613639612f7e565b5b600082013567ffffffffffffffff81111561365857613657612f83565b5b61366484828501613336565b91505092915050565b6004811061367a57600080fd5b50565b60008135905061368c8161366d565b92915050565b61369b81613173565b81146136a657600080fd5b50565b6000813590506136b881613692565b92915050565b600080600080600060a086880312156136da576136d9612f7e565b5b600086013567ffffffffffffffff8111156136f8576136f7612f83565b5b61370488828901613336565b955050602086013567ffffffffffffffff81111561372557613724612f83565b5b61373188828901613336565b94505060406137428882890161367d565b93505060606137538882890161337b565b9250506080613764888289016136a9565b9150509295509295909350565b61377a816130d1565b82525050565b61378981613132565b82525050565b60006101208301600083015184820360008601526137ad828261341b565b915050602083015184820360208601526137c7828261341b565b91505060408301516137dc6040860182613771565b5060608301516137ef60608601826133fb565b50608083015161380260808601826133fb565b5060a083015161381560a08601826133fb565b5060c083015161382860c0860182613780565b5060e083015161383b60e08601826133fb565b506101008301516138506101008601826133ec565b508091505092915050565b60006020820190508181036000830152613875818461378f565b905092915050565b60006020820190506138926000830184613185565b92915050565b6000602082840312156138ae576138ad612f7e565b5b60006138bc848285016136a9565b91505092915050565b60008115159050919050565b6138da816138c5565b82525050565b60006020820190506138f560008301846138d1565b92915050565b61390481612f88565b82525050565b600060808301600083015161392260008601826138fb565b506020830151848203602086015261393a828261341b565b915050604083015161394f6040860182613771565b5060608301516139626060860182613780565b508091505092915050565b60006020820190508181036000830152613987818461390a565b905092915050565b6004811061399c57600080fd5b50565b6000813590506139ae8161398f565b92915050565b600080604083850312156139cb576139ca612f7e565b5b600083013567ffffffffffffffff8111156139e9576139e8612f83565b5b6139f585828601613336565b9250506020613a068582860161399f565b9150509250929050565b613a19816138c5565b8114613a2457600080fd5b50565b600081359050613a3681613a10565b92915050565b60008060408385031215613a5357613a52612f7e565b5b6000613a61858286016136a9565b9250506020613a7285828601613a27565b9150509250929050565b60008060408385031215613a9357613a92612f7e565b5b6000613aa1858286016136a9565b9250506020613ab2858286016134eb565b9150509250929050565b6000602082019050613ad16000830184613588565b92915050565b60008060008060808587031215613af157613af0612f7e565b5b600085013567ffffffffffffffff811115613b0f57613b0e612f83565b5b613b1b87828801613336565b945050602085013567ffffffffffffffff811115613b3c57613b3b612f83565b5b613b4887828801613336565b9350506040613b598782880161337b565b9250506060613b6a878288016136a9565b91505092959194509250565b7f4e487b7100000000000000000000000000000000000000000000000000000000600052602260045260246000fd5b60006002820490506001821680613bbd57607f821691505b602082108103613bd057613bcf613b76565b5b50919050565b7f4f6e6c7920746865206d616e61676572206861732061636365737320746f207460008201527f6869732066756e6374696f6e616c697479000000000000000000000000000000602082015250565b6000613c32603183612ff6565b9150613c3d82613bd6565b604082019050919050565b60006020820190508181036000830152613c6181613c25565b9050919050565b7f496e73756666696369656e742066756e64730000000000000000000000000000600082015250565b6000613c9e601283612ff6565b9150613ca982613c68565b602082019050919050565b60006020820190508181036000830152613ccd81613c91565b9050919050565b7f4f6e6c7920415050524f564544205350454e5420746f706963732063616e206260008201527f65207573656420666f72207472616e7366657273000000000000000000000000602082015250565b6000613d30603483612ff6565b9150613d3b82613cd4565b604082019050919050565b60006020820190508181036000830152613d5f81613d23565b9050919050565b7f54686520616d6f756e74206d757374206265206c657373206f7220657175616c60008201527f2074686520415050524f56454420746f70696300000000000000000000000000602082015250565b6000613dc2603383612ff6565b9150613dcd82613d66565b604082019050919050565b60006020820190508181036000830152613df181613db5565b9050919050565b7f4f6e6c7920746865207265736964656e7473206f72206d616e6167657220686160008201527f76652061636365737320746f20746869732066756e6374696f6e616c69747900602082015250565b6000613e54603f83612ff6565b9150613e5f82613df8565b604082019050919050565b60006020820190508181036000830152613e8381613e47565b9050919050565b7f4e487b7100000000000000000000000000000000000000000000000000000000600052601160045260246000fd5b6000613ec4826130f2565b9150613ecf836130f2565b9250828201905080821115613ee757613ee6613e8a565b5b92915050565b7f546865207265736964656e74206d7573742062652064656661756c7465720000600082015250565b6000613f23601e83612ff6565b9150613f2e82613eed565b602082019050919050565b60006020820190508181036000830152613f5281613f16565b9050919050565b7f5468697320746f70696320616c72656164792065786973747300000000000000600082015250565b6000613f8f601983612ff6565b9150613f9a82613f59565b602082019050919050565b60006020820190508181036000830152613fbe81613f82565b9050919050565b7f57726f6e672063617465676f7279000000000000000000000000000000000000600082015250565b6000613ffb600e83612ff6565b915061400682613fc5565b602082019050919050565b6000602082019050818103600083015261402a81613fee565b9050919050565b60008190508160005260206000209050919050565b60006020601f8301049050919050565b600082821b905092915050565b6000600883026140937fffffffffffffffffffffffffffffffffffffffffffffffffffffffffffffffff82614056565b61409d8683614056565b95508019841693508086168417925050509392505050565b6000819050919050565b60006140da6140d56140d0846130f2565b6140b5565b6130f2565b9050919050565b6000819050919050565b6140f4836140bf565b614108614100826140e1565b848454614063565b825550505050565b600090565b61411d614110565b6141288184846140eb565b505050565b5b8181101561414c57614141600082614115565b60018101905061412e565b5050565b601f8211156141915761416281614031565b61416b84614046565b8101602085101561417a578190505b61418e61418685614046565b83018261412d565b50505b505050565b600082821c905092915050565b60006141b460001984600802614196565b1980831691505092915050565b60006141cd83836141a3565b9150826002028217905092915050565b6141e682612feb565b67ffffffffffffffff8111156141ff576141fe613239565b5b6142098254613ba5565b614214828285614150565b600060209050601f8311600181146142475760008415614235578287015190505b61423f85826141c1565b8655506142a7565b601f19841661425586614031565b60005b8281101561427d57848901518255600182019150602085019450602081019050614258565b8683101561429a5784890151614296601f8916826141a3565b8355505b6001600288020188555050505b505050505050565b7f4120636f756e73656c6f722063616e6e6f742062652072656d6f766564000000600082015250565b60006142e5601d83612ff6565b91506142f0826142af565b602082019050919050565b60006020820190508181036000830152614314816142d8565b9050919050565b7f5468697320746f70696320646f6573206e6f7420657869737473000000000000600082015250565b6000614351601a83612ff6565b915061435c8261431b565b602082019050919050565b6000602082019050818103600083015261438081614344565b9050919050565b7f4f6e6c792049444c4520746f706963732063616e2062652072656d6f76656400600082015250565b60006143bd601f83612ff6565b91506143c882614387565b602082019050919050565b600060208201905081810360008301526143ec816143b0565b9050919050565b7f4f6e6c7920564f54494e4720746f706963732063616e20626520636c6f736564600082015250565b6000614429602083612ff6565b9150614434826143f3565b602082019050919050565b600060208201905081810360008301526144588161441c565b9050919050565b7f596f752063616e206e6f742066696e697368206120766f74696e67207769746860008201527f6f757420726561636820746865206d696e696d756d20766f746573206e65636560208201527f7373617279000000000000000000000000000000000000000000000000000000604082015250565b60006144e1604583612ff6565b91506144ec8261445f565b606082019050919050565b60006020820190508181036000830152614510816144d4565b9050919050565b7f4e487b7100000000000000000000000000000000000000000000000000000000600052603260045260246000fd5b600060ff82169050919050565b600061455e82614546565b915060ff820361457157614570613e8a565b5b600182019050919050565b7f546865206f7074696f6e2063616e6e6f7420626520454d505459000000000000600082015250565b60006145b2601a83612ff6565b91506145bd8261457c565b602082019050919050565b600060208201905081810360008301526145e1816145a5565b9050919050565b7f4f6e6c7920564f54494e4720746f706963732063616e20626520766f74656400600082015250565b600061461e601f83612ff6565b9150614629826145e8565b602082019050919050565b6000602082019050818103600083015261464d81614611565b9050919050565b7f41207265736964656e63652073686f756c6420766f7465206f6e6c79206f6e6360008201527f6500000000000000000000000000000000000000000000000000000000000000602082015250565b60006146b0602183612ff6565b91506146bb82614654565b604082019050919050565b600060208201905081810360008301526146df816146a3565b9050919050565b7f496e76616c696420616464726573730000000000000000000000000000000000600082015250565b600061471c600f83612ff6565b9150614727826146e6565b602082019050919050565b6000602082019050818103600083015261474b8161470f565b9050919050565b7f54686520636f756e73656c6f72206d7573742062652061207265736964656e74600082015250565b6000614788602083612ff6565b915061479382614752565b602082019050919050565b600060208201905081810360008301526147b78161477b565b9050919050565b7f4f6e6c792049444c4520746f706963732063616e206265206f70656e20666f7260008201527f20766f74696e6700000000000000000000000000000000000000000000000000602082015250565b600061481a602783612ff6565b9150614825826147be565b604082019050919050565b600060208201905081810360008301526148498161480d565b9050919050565b7f4f6e6c792074686520636f756e73656c6f7273206f72206d616e61676572206860008201527f6176652061636365737320746f20746869732066756e6374696f6e616c697479602082015250565b60006148ac604083612ff6565b91506148b782614850565b604082019050919050565b600060208201905081810360008301526148db8161489f565b9050919050565b7f54686973207265736964656e636520646f6573206e6f74206578697374730000600082015250565b6000614918601e83612ff6565b9150614923826148e2565b602082019050919050565b600060208201905081810360008301526149478161490b565b9050919050565b7f546865207265736964656e636520646f6573206e6f7420657869737473000000600082015250565b6000614984601d83612ff6565b915061498f8261494e565b602082019050919050565b600060208201905081810360008301526149b381614977565b9050919050565b7f57726f6e672076616c7565000000000000000000000000000000000000000000600082015250565b60006149f0600b83612ff6565b91506149fb826149ba565b602082019050919050565b60006020820190508181036000830152614a1f816149e3565b9050919050565b7f596f752063616e206e6f74207061792074776963652061206d6f6e7468000000600082015250565b6000614a5c601d83612ff6565b9150614a6782614a26565b602082019050919050565b60006020820190508181036000830152614a8b81614a4f565b9050919050565b7f4f6e6c792049444c4520746f706963732063616e206265206564697465640000600082015250565b6000614ac8601e83612ff6565b9150614ad382614a92565b602082019050919050565b60006020820190508181036000830152614af781614abb565b905091905056fea26469706673582212203ffbec43c816dfa44b27e9b5c5ddeea7eaec57d8e7aec1664f9c810a529d036c64736f6c63430008180033",
  "linkReferences": {},
  "deployedLinkReferences": {}
}