{
  "_format": "hh-sol-artifact-1",
  "contractName": "Condominium",
  "sourceName": "contracts/Condominium.sol",
  "abi": [
    {
      "inputs": [],
      "stateMutability": "nonpayable",
      "type": "constructor"
    },
    {
      "inputs": [
        {
          "internalType": "address",
          "name": "resident",
          "type": "address"
        },
        {
          "internalType": "uint16",
          "name": "residenceNumber",
          "type": "uint16"
        }
      ],
      "name": "addResident",
      "outputs": [],
      "stateMutability": "nonpayable",
      "type": "function"
    },
    {
      "inputs": [
        {
          "internalType": "string",
          "name": "title",
          "type": "string"
        },
        {
          "internalType": "string",
          "name": "description",
          "type": "string"
        },
        {
          "internalType": "enum CondominiumLib.Category",
          "name": "category",
          "type": "uint8"
        },
        {
          "internalType": "uint256",
          "name": "amount",
          "type": "uint256"
        },
        {
          "internalType": "address",
          "name": "responsible",
          "type": "address"
        }
      ],
      "name": "addTopic",
      "outputs": [],
      "stateMutability": "nonpayable",
      "type": "function"
    },
    {
      "inputs": [
        {
          "internalType": "string",
          "name": "title",
          "type": "string"
        }
      ],
      "name": "closeVoting",
      "outputs": [],
      "stateMutability": "nonpayable",
      "type": "function"
    },
    {
      "inputs": [
        {
          "internalType": "address",
          "name": "",
          "type": "address"
        }
      ],
      "name": "counselors",
      "outputs": [
        {
          "internalType": "bool",
          "name": "",
          "type": "bool"
        }
      ],
      "stateMutability": "view",
      "type": "function"
    },
    {
      "inputs": [
        {
          "internalType": "string",
          "name": "topicToEdit",
          "type": "string"
        },
        {
          "internalType": "string",
          "name": "description",
          "type": "string"
        },
        {
          "internalType": "uint256",
          "name": "amount",
          "type": "uint256"
        },
        {
          "internalType": "address",
          "name": "responsible",
          "type": "address"
        }
      ],
      "name": "editTopic",
      "outputs": [],
      "stateMutability": "nonpayable",
      "type": "function"
    },
    {
      "inputs": [
        {
          "internalType": "string",
          "name": "title",
          "type": "string"
        }
      ],
      "name": "getTopic",
      "outputs": [
        {
          "components": [
            {
              "internalType": "string",
              "name": "title",
              "type": "string"
            },
            {
              "internalType": "string",
              "name": "description",
              "type": "string"
            },
            {
              "internalType": "enum CondominiumLib.Status",
              "name": "status",
              "type": "uint8"
            },
            {
              "internalType": "uint256",
              "name": "createdDate",
              "type": "uint256"
            },
            {
              "internalType": "uint256",
              "name": "startDate",
              "type": "uint256"
            },
            {
              "internalType": "uint256",
              "name": "endDate",
              "type": "uint256"
            },
            {
              "internalType": "enum CondominiumLib.Category",
              "name": "category",
              "type": "uint8"
            },
            {
              "internalType": "uint256",
              "name": "amount",
              "type": "uint256"
            },
            {
              "internalType": "address",
              "name": "responsible",
              "type": "address"
            }
          ],
          "internalType": "struct CondominiumLib.Topic",
          "name": "",
          "type": "tuple"
        }
      ],
      "stateMutability": "view",
      "type": "function"
    },
    {
      "inputs": [
        {
          "internalType": "address",
          "name": "resident",
          "type": "address"
        }
      ],
      "name": "isResident",
      "outputs": [
        {
          "internalType": "bool",
          "name": "",
          "type": "bool"
        }
      ],
      "stateMutability": "view",
      "type": "function"
    },
    {
      "inputs": [],
      "name": "manager",
      "outputs": [
        {
          "internalType": "address",
          "name": "",
          "type": "address"
        }
      ],
      "stateMutability": "view",
      "type": "function"
    },
    {
      "inputs": [],
      "name": "monthlyQuota",
      "outputs": [
        {
          "internalType": "uint256",
          "name": "",
          "type": "uint256"
        }
      ],
      "stateMutability": "view",
      "type": "function"
    },
    {
      "inputs": [
        {
          "internalType": "string",
          "name": "title",
          "type": "string"
        }
      ],
      "name": "numberOfVotes",
      "outputs": [
        {
          "internalType": "uint256",
          "name": "",
          "type": "uint256"
        }
      ],
      "stateMutability": "view",
      "type": "function"
    },
    {
      "inputs": [
        {
          "internalType": "string",
          "name": "title",
          "type": "string"
        }
      ],
      "name": "openVoting",
      "outputs": [],
      "stateMutability": "nonpayable",
      "type": "function"
    },
    {
      "inputs": [
        {
          "internalType": "address",
          "name": "resident",
          "type": "address"
        }
      ],
      "name": "removeResident",
      "outputs": [],
      "stateMutability": "nonpayable",
      "type": "function"
    },
    {
      "inputs": [
        {
          "internalType": "string",
          "name": "title",
          "type": "string"
        }
      ],
      "name": "removeTopic",
      "outputs": [],
      "stateMutability": "nonpayable",
      "type": "function"
    },
    {
      "inputs": [
        {
          "internalType": "uint16",
          "name": "residence",
          "type": "uint16"
        }
      ],
      "name": "residenceExists",
      "outputs": [
        {
          "internalType": "bool",
          "name": "",
          "type": "bool"
        }
      ],
      "stateMutability": "view",
      "type": "function"
    },
    {
      "inputs": [
        {
          "internalType": "uint16",
          "name": "",
          "type": "uint16"
        }
      ],
      "name": "residences",
      "outputs": [
        {
          "internalType": "bool",
          "name": "",
          "type": "bool"
        }
      ],
      "stateMutability": "view",
      "type": "function"
    },
    {
      "inputs": [
        {
          "internalType": "address",
          "name": "",
          "type": "address"
        }
      ],
      "name": "residents",
      "outputs": [
        {
          "internalType": "uint16",
          "name": "",
          "type": "uint16"
        }
      ],
      "stateMutability": "view",
      "type": "function"
    },
    {
      "inputs": [
        {
          "internalType": "address",
          "name": "resident",
          "type": "address"
        },
        {
          "internalType": "bool",
          "name": "isEntering",
          "type": "bool"
        }
      ],
      "name": "setCounselor",
      "outputs": [],
      "stateMutability": "nonpayable",
      "type": "function"
    },
    {
      "inputs": [
        {
          "internalType": "string",
          "name": "title",
          "type": "string"
        }
      ],
      "name": "topicExists",
      "outputs": [
        {
          "internalType": "bool",
          "name": "",
          "type": "bool"
        }
      ],
      "stateMutability": "view",
      "type": "function"
    },
    {
      "inputs": [
        {
          "internalType": "bytes32",
          "name": "",
          "type": "bytes32"
        }
      ],
      "name": "topics",
      "outputs": [
        {
          "internalType": "string",
          "name": "title",
          "type": "string"
        },
        {
          "internalType": "string",
          "name": "description",
          "type": "string"
        },
        {
          "internalType": "enum CondominiumLib.Status",
          "name": "status",
          "type": "uint8"
        },
        {
          "internalType": "uint256",
          "name": "createdDate",
          "type": "uint256"
        },
        {
          "internalType": "uint256",
          "name": "startDate",
          "type": "uint256"
        },
        {
          "internalType": "uint256",
          "name": "endDate",
          "type": "uint256"
        },
        {
          "internalType": "enum CondominiumLib.Category",
          "name": "category",
          "type": "uint8"
        },
        {
          "internalType": "uint256",
          "name": "amount",
          "type": "uint256"
        },
        {
          "internalType": "address",
          "name": "responsible",
          "type": "address"
        }
      ],
      "stateMutability": "view",
      "type": "function"
    },
    {
      "inputs": [
        {
          "internalType": "string",
          "name": "title",
          "type": "string"
        },
        {
          "internalType": "enum CondominiumLib.VoteOptions",
          "name": "option",
          "type": "uint8"
        }
      ],
      "name": "vote",
      "outputs": [],
      "stateMutability": "nonpayable",
      "type": "function"
    },
    {
      "inputs": [
        {
          "internalType": "bytes32",
          "name": "",
          "type": "bytes32"
        },
        {
          "internalType": "uint256",
          "name": "",
          "type": "uint256"
        }
      ],
      "name": "votings",
      "outputs": [
        {
          "internalType": "address",
          "name": "resident",
          "type": "address"
        },
        {
          "internalType": "uint16",
          "name": "residence",
          "type": "uint16"
        },
        {
          "internalType": "enum CondominiumLib.VoteOptions",
          "name": "option",
          "type": "uint8"
        },
        {
          "internalType": "uint256",
          "name": "timestamp",
          "type": "uint256"
        }
      ],
      "stateMutability": "view",
      "type": "function"
    }
  ],
  "bytecode": "0x6080604052662386f26fc100006001553480156200001c57600080fd5b506200003967b224345eb03bebe760c01b6200024b60201b60201c565b6200005567b79fb78b01632fc260c01b6200024b60201b60201c565b336000806101000a81548173ffffffffffffffffffffffffffffffffffffffff021916908373ffffffffffffffffffffffffffffffffffffffff160217905550620000b16760933ea59e335d5f60c01b6200024b60201b60201c565b620000cd6723462974ac4e36b960c01b6200024b60201b60201c565b6000600190505b60028161ffff16116200024457620000fd67379bbd8818f746b760c01b6200024b60201b60201c565b6200011967725109588390688f60c01b6200024b60201b60201c565b6000600190505b60058161ffff16116200022d576200014967aea9f87d5a37b48360c01b6200024b60201b60201c565b6200016567c0fc865be2ab1ee360c01b6200024b60201b60201c565b6000600190505b60058161ffff1611620002165762000195673367a50dc58fc60660c01b6200024b60201b60201c565b60016002600083606486620001ab91906200028b565b6103e888620001bb91906200028b565b620001c79190620002d1565b620001d39190620002d1565b61ffff1661ffff16815260200190815260200160002060006101000a81548160ff02191690831515021790555080806200020d906200030e565b9150506200016c565b50808062000224906200030e565b91505062000120565b5080806200023b906200030e565b915050620000d4565b506200033d565b50565b600061ffff82169050919050565b7f4e487b7100000000000000000000000000000000000000000000000000000000600052601160045260246000fd5b600062000298826200024e565b9150620002a5836200024e565b9250828202620002b5816200024e565b9150808214620002ca57620002c96200025c565b5b5092915050565b6000620002de826200024e565b9150620002eb836200024e565b9250828201905061ffff8111156200030857620003076200025c565b5b92915050565b60006200031b826200024e565b915061ffff82036200033257620003316200025c565b5b600182019050919050565b6154d7806200034d6000396000f3fe608060405234801561001057600080fd5b50600436106101375760003560e01c806378b5749d116100b857806396fa1def1161007c57806396fa1def1461038f5780639e1bf985146103ab578063b1583546146103c7578063bc2f89f3146103e3578063e4d65d5414610413578063eaf5d9dc1461044357610137565b806378b5749d146102db5780637b57ee491461030b5780638fc5dad81461032757806390ca27f314610343578063967d59e41461035f57610137565b8063481c6a75116100ff578063481c6a75146102235780634de5326514610241578063597de9871461027157806368aca3351461028d578063783bb57d146102bd57610137565b80630f2fbeec1461013c5780631a6c0192146101745780632f9f21fe146101a757806343b8c6b1146101d7578063474502d8146101f3575b600080fd5b61015660048036038101906101519190613e37565b61045f565b60405161016b9998979695949392919061400d565b60405180910390f35b61018e600480360381019061018991906140d4565b6105f7565b60405161019e9493929190614179565b60405180910390f35b6101c160048036038101906101bc91906142f3565b61067f565b6040516101ce919061433c565b60405180910390f35b6101f160048036038101906101ec91906143a8565b610710565b005b61020d600480360381019061020891906142f3565b610cc9565b60405161021a91906145ad565b60405180910390f35b61022b610f80565b60405161023891906145cf565b60405180910390f35b61025b600480360381019061025691906145ea565b610fa4565b6040516102689190614632565b60405180910390f35b61028b600480360381019061028691906145ea565b610fc4565b005b6102a760048036038101906102a291906145ea565b61124a565b6040516102b49190614632565b60405180910390f35b6102c56112e4565b6040516102d2919061433c565b60405180910390f35b6102f560048036038101906102f091906142f3565b6112ea565b6040516103029190614632565b60405180910390f35b610325600480360381019061032091906142f3565b61133f565b005b610341600480360381019061033c91906142f3565b6116cc565b005b61035d60048036038101906103589190614672565b6122ee565b005b610379600480360381019061037491906146fa565b612ba2565b6040516103869190614632565b60405180910390f35b6103a960048036038101906103a49190614753565b612c10565b005b6103c560048036038101906103c091906142f3565b61302a565b005b6103e160048036038101906103dc9190614793565b6133ae565b005b6103fd60048036038101906103f891906146fa565b613797565b60405161040a9190614632565b60405180910390f35b61042d600480360381019061042891906145ea565b6137b7565b60405161043a91906147d3565b60405180910390f35b61045d600480360381019061045891906147ee565b6137d8565b005b6005602052806000526040600020600091509050806000018054610482906148bc565b80601f01602080910402602001604051908101604052809291908181526020018280546104ae906148bc565b80156104fb5780601f106104d0576101008083540402835291602001916104fb565b820191906000526020600020905b8154815290600101906020018083116104de57829003601f168201915b505050505090806001018054610510906148bc565b80601f016020809104026020016040519081016040528092919081815260200182805461053c906148bc565b80156105895780601f1061055e57610100808354040283529160200191610589565b820191906000526020600020905b81548152906001019060200180831161056c57829003601f168201915b5050505050908060020160009054906101000a900460ff16908060030154908060040154908060050154908060060160009054906101000a900460ff16908060070154908060080160009054906101000a900473ffffffffffffffffffffffffffffffffffffffff16905089565b6006602052816000526040600020818154811061061357600080fd5b9060005260206000209060020201600091509150508060000160009054906101000a900473ffffffffffffffffffffffffffffffffffffffff16908060000160149054906101000a900461ffff16908060000160169054906101000a900460ff16908060010154905084565b600061069567a2cb31d80bc3243d60c01b613cf5565b6106a967f43d964b5e3bbd3d60c01b613cf5565b6106bd6777c49879a5db16fa60c01b613cf5565b6000828051906020012090506106dd67c20789e4bf742acd60c01b613cf5565b6106f167a414530f2ff01d4460c01b613cf5565b6006600082815260200190815260200160002080549050915050919050565b6107246797f83ac89dc13d1060c01b613cf5565b61073867d1ffdeba592b972060c01b613cf5565b61074c67c66622f922232c1860c01b613cf5565b61076067d12ea055418c8eb760c01b613cf5565b6107746737e1686aed3d546660c01b613cf5565b60008054906101000a900473ffffffffffffffffffffffffffffffffffffffff1673ffffffffffffffffffffffffffffffffffffffff163273ffffffffffffffffffffffffffffffffffffffff161480156107df57506107de6743624cae606a5e1860c01b613cf8565b5b8061080b57506107ee3261124a565b801561080a575061080967c41be3c7ac44c9f160c01b613cf8565b5b5b61084a576040517f08c379a00000000000000000000000000000000000000000000000000000000081526004016108419061495f565b60405180910390fd5b61085e67fe3750f4561be56960c01b613cf5565b610872672d30f1cca034bac960c01b613cf5565b61088667632adc5b54b0f78060c01b613cf5565b61089a675002d60ff30d6af760c01b613cf5565b6108ae67b47bf324cbe7857360c01b613cf5565b6108c26745fc740b27c81bc760c01b613cf5565b6108d667e09a5ccd2fd0588660c01b613cf5565b6108df856112ea565b1561091f576040517f08c379a0000000000000000000000000000000000000000000000000000000008152600401610916906149cb565b60405180910390fd5b610933678042821d5d85505060c01b613cf5565b61094767226f93f0bdf3ea5960c01b613cf5565b61095b679b7fa96c458436d160c01b613cf5565b6000821115610a9b5761097867fa5b79c4499c1dce60c01b613cf5565b61098c6774c7ad5a36e034e060c01b613cf5565b6109a067c0116f2f5f46110360c01b613cf5565b6109b4678695fcfadbc0bcc160c01b613cf5565b600260038111156109c8576109c7613ef4565b5b8360038111156109db576109da613ef4565b5b1480156109f857506109f767443860bcd4bce05760c01b613cf8565b5b80610a43575060016003811115610a1257610a11613ef4565b5b836003811115610a2557610a24613ef4565b5b148015610a425750610a4167db9756d9fb45109c60c01b613cf8565b5b5b610a82576040517f08c379a0000000000000000000000000000000000000000000000000000000008152600401610a7990614a37565b60405180910390fd5b610a96678ddc75d985d733e460c01b613cf5565b610ab0565b610aaf671cbe9f3c1194b82460c01b613cf5565b5b610ac467d72a81cbc4f5817b60c01b613cf5565b610ad76645250a59be2a7d60c01b613cf5565b600060405180610120016040528087815260200186815260200160006003811115610b0557610b04613ef4565b5b81526020014281526020016000815260200160008152602001856003811115610b3157610b30613ef4565b5b8152602001848152602001600073ffffffffffffffffffffffffffffffffffffffff168473ffffffffffffffffffffffffffffffffffffffff1603610b765732610b78565b835b73ffffffffffffffffffffffffffffffffffffffff168152509050610ba767ff83f8aa1d90078e60c01b613cf5565b8060056000888051906020012081526020019081526020016000206000820151816000019081610bd79190614c03565b506020820151816001019081610bed9190614c03565b5060408201518160020160006101000a81548160ff02191690836003811115610c1957610c18613ef4565b5b0217905550606082015181600301556080820151816004015560a0820151816005015560c08201518160060160006101000a81548160ff02191690836003811115610c6757610c66613ef4565b5b021790555060e082015181600701556101008201518160080160006101000a81548173ffffffffffffffffffffffffffffffffffffffff021916908373ffffffffffffffffffffffffffffffffffffffff160217905550905050505050505050565b610cd1613d0a565b610ce5679c27a50c7a17698c60c01b613cf5565b610cf9674740c887b72977a760c01b613cf5565b610d0d674c474c616d9f7c0760c01b613cf5565b600082805190602001209050610d2d672bb7d6e4a4421c8060c01b613cf5565b610d4167344453b0f476fafc60c01b613cf5565b6005600082815260200190815260200160002060405180610120016040529081600082018054610d70906148bc565b80601f0160208091040260200160405190810160405280929190818152602001828054610d9c906148bc565b8015610de95780601f10610dbe57610100808354040283529160200191610de9565b820191906000526020600020905b815481529060010190602001808311610dcc57829003601f168201915b50505050508152602001600182018054610e02906148bc565b80601f0160208091040260200160405190810160405280929190818152602001828054610e2e906148bc565b8015610e7b5780601f10610e5057610100808354040283529160200191610e7b565b820191906000526020600020905b815481529060010190602001808311610e5e57829003601f168201915b505050505081526020016002820160009054906101000a900460ff166003811115610ea957610ea8613ef4565b5b6003811115610ebb57610eba613ef4565b5b81526020016003820154815260200160048201548152602001600582015481526020016006820160009054906101000a900460ff166003811115610f0257610f01613ef4565b5b6003811115610f1457610f13613ef4565b5b8152602001600782015481526020016008820160009054906101000a900473ffffffffffffffffffffffffffffffffffffffff1673ffffffffffffffffffffffffffffffffffffffff1673ffffffffffffffffffffffffffffffffffffffff1681525050915050919050565b60008054906101000a900473ffffffffffffffffffffffffffffffffffffffff1681565b60036020528060005260406000206000915054906101000a900460ff1681565b610fd867b4c8904fafc3084160c01b613cf5565b610fec677491a4bc27ff0d6f60c01b613cf5565b611000675203138e936e0d4860c01b613cf5565b61101467e9a1288d9a2e1ae160c01b613cf5565b611028677d712f92e514111860c01b613cf5565b60008054906101000a900473ffffffffffffffffffffffffffffffffffffffff1673ffffffffffffffffffffffffffffffffffffffff163273ffffffffffffffffffffffffffffffffffffffff16146110b6576040517f08c379a00000000000000000000000000000000000000000000000000000000081526004016110ad90614d47565b60405180910390fd5b6110ca6715db465a54abeadc60c01b613cf5565b6110de67e1c470834938bef360c01b613cf5565b6110f267c5b3a2db6fc2fe5060c01b613cf5565b6111066777d54983133f77e960c01b613cf5565b61111a67b54b1a7ba305fffb60c01b613cf5565b61112e6774620f04e60c8a8c60c01b613cf5565b611142678d3a8887f038e68460c01b613cf5565b600360008273ffffffffffffffffffffffffffffffffffffffff1673ffffffffffffffffffffffffffffffffffffffff16815260200190815260200160002060009054906101000a900460ff16156111cf576040517f08c379a00000000000000000000000000000000000000000000000000000000081526004016111c690614db3565b60405180910390fd5b6111e36720e099ebc608c7c060c01b613cf5565b6111f767112e5349369c252160c01b613cf5565b600460008273ffffffffffffffffffffffffffffffffffffffff1673ffffffffffffffffffffffffffffffffffffffff16815260200190815260200160002060006101000a81549061ffff021916905550565b600061126067330a741e26a5046d60c01b613cf5565b61127467adea8c4d738514ca60c01b613cf5565b6112886777f9accf2aa93bd760c01b613cf5565b6000600460008473ffffffffffffffffffffffffffffffffffffffff1673ffffffffffffffffffffffffffffffffffffffff16815260200190815260200160002060009054906101000a900461ffff1661ffff16119050919050565b60015481565b60006113006756c9430e90e27fc360c01b613cf5565b61131467d36c3ac8e00aea8d60c01b613cf5565b611328677d65ce61398f435f60c01b613cf5565b600061133383610cc9565b60600151119050919050565b61135367e468aa6aa8f4289860c01b613cf5565b611367677491a4bc27ff0d6f60c01b613cf5565b61137b675203138e936e0d4860c01b613cf5565b61138f67e9a1288d9a2e1ae160c01b613cf5565b6113a3677d712f92e514111860c01b613cf5565b60008054906101000a900473ffffffffffffffffffffffffffffffffffffffff1673ffffffffffffffffffffffffffffffffffffffff163273ffffffffffffffffffffffffffffffffffffffff1614611431576040517f08c379a000000000000000000000000000000000000000000000000000000000815260040161142890614d47565b60405180910390fd5b6114456715db465a54abeadc60c01b613cf5565b61145967e1c470834938bef360c01b613cf5565b61146d678c01ac0ca4ffa3ef60c01b613cf5565b61148167068bbb2170e63a4960c01b613cf5565b611495676db2502dddc3b3bb60c01b613cf5565b6114a9670534671d46f09dd560c01b613cf5565b60006114b482610cc9565b90506114ca678607017de512720f60c01b613cf5565b6114de67a5bdc078131d504660c01b613cf5565b6114f267fa62d63f11ed2ad060c01b613cf5565b6000816060015111611539576040517f08c379a000000000000000000000000000000000000000000000000000000000815260040161153090614e1f565b60405180910390fd5b61154d6745ffac5da3bbdf2760c01b613cf5565b61156167d794c1afda16ac1060c01b613cf5565b61157567c87177dd3bb84b5960c01b613cf5565b61158967de7f8b8962fe182b60c01b613cf5565b6000600381111561159d5761159c613ef4565b5b816040015160038111156115b4576115b3613ef4565b5b146115f4576040517f08c379a00000000000000000000000000000000000000000000000000000000081526004016115eb90614e8b565b60405180910390fd5b611608672d62061ecc33c8fb60c01b613cf5565b61161c673951d3f3965df85c60c01b613cf5565b6005600083805190602001208152602001908152602001600020600080820160006116479190613d90565b6001820160006116579190613d90565b6002820160006101000a81549060ff02191690556003820160009055600482016000905560058201600090556006820160006101000a81549060ff021916905560078201600090556008820160006101000a81549073ffffffffffffffffffffffffffffffffffffffff021916905550505050565b6116e0672c99dfbc80c996e960c01b613cf5565b6116f4677491a4bc27ff0d6f60c01b613cf5565b611708675203138e936e0d4860c01b613cf5565b61171c67e9a1288d9a2e1ae160c01b613cf5565b611730677d712f92e514111860c01b613cf5565b60008054906101000a900473ffffffffffffffffffffffffffffffffffffffff1673ffffffffffffffffffffffffffffffffffffffff163273ffffffffffffffffffffffffffffffffffffffff16146117be576040517f08c379a00000000000000000000000000000000000000000000000000000000081526004016117b590614d47565b60405180910390fd5b6117d26715db465a54abeadc60c01b613cf5565b6117e667e1c470834938bef360c01b613cf5565b6117fa6775829cc50ffc3c2b60c01b613cf5565b61180e67bba043052572aacc60c01b613cf5565b61182267a766a32e9ba30e8460c01b613cf5565b61183667807d2d460fd2591960c01b613cf5565b600061184182610cc9565b9050611857675f1d67fd6f9aab9b60c01b613cf5565b61186b6758db0cbd16abe8a460c01b613cf5565b61187f6706672250ca5cdfa260c01b613cf5565b60008160600151116118c6576040517f08c379a00000000000000000000000000000000000000000000000000000000081526004016118bd90614e1f565b60405180910390fd5b6118da67f22cf846d2086ff660c01b613cf5565b6118ee6758bef40cc0eafed360c01b613cf5565b6119026708a1a5e137d3bf3860c01b613cf5565b61191667e8d7ec9edbe3093260c01b613cf5565b6001600381111561192a57611929613ef4565b5b8160400151600381111561194157611940613ef4565b5b14611981576040517f08c379a000000000000000000000000000000000000000000000000000000000815260040161197890614ef7565b60405180910390fd5b611995673573cf061ac01a1f60c01b613cf5565b6119a967ae501a8e972d49e960c01b613cf5565b6119bd672686e0596df8b2d760c01b613cf5565b6000600590506119d767067852aef43a0ed860c01b613cf5565b6119eb6722c52d71c0f5b7f760c01b613cf5565b600160038111156119ff576119fe613ef4565b5b8260c001516003811115611a1657611a15613ef4565b5b03611a4c57611a2f67d8c545349088081b60c01b613cf5565b611a4367e22f1105cacf43f360c01b613cf5565b600a9050611b74565b611a6067bae32d37932dfae560c01b613cf5565b611a74672fb0faadef807ba360c01b613cf5565b600380811115611a8757611a86613ef4565b5b8260c001516003811115611a9e57611a9d613ef4565b5b03611ad457611ab767186fe8bd00aa743660c01b613cf5565b611acb673cf3c50ab941c1c260c01b613cf5565b600f9050611b73565b611ae86777b6ab4b95ee9e7f60c01b613cf5565b611afc67c6784a5e025fa82f60c01b613cf5565b60026003811115611b1057611b0f613ef4565b5b8260c001516003811115611b2757611b26613ef4565b5b03611b5d57611b40673245cf657cf7a84960c01b613cf5565b611b5467bc21b8cad4f2902460c01b613cf5565b60149050611b72565b611b716727929a90fb6bc63760c01b613cf5565b5b5b5b611b8867b6ad091bcb2503ad60c01b613cf5565b611b9c674d60778e957334a160c01b613cf5565b611bb067eab312659dfad7cc60c01b613cf5565b8060ff16611bbd8461067f565b1015611bfe576040517f08c379a0000000000000000000000000000000000000000000000000000000008152600401611bf590614faf565b60405180910390fd5b611c126776be160911585bde60c01b613cf5565b611c26672760b4b14da3605c60c01b613cf5565b611c3a678d78b2ae692f48fc60c01b613cf5565b600083805190602001209050611c5a67a2a91f030093d01d60c01b613cf5565b611c6e67524b8aeb32416fcf60c01b613cf5565b6000611c8467b2c50f41da10fd4f60c01b613cf5565b611c98674667d3a573805fa660c01b613cf5565b6000611cae6772c7bad76beb157660c01b613cf5565b611cc26769776a76e414052c60c01b613cf5565b6000611cd867f62e83c7dc5d674460c01b613cf5565b611cec67a70f92ea3f576df460c01b613cf5565b600060066000868152602001908152602001600020805480602002602001604051908101604052809291908181526020016000905b82821015611e0e57838290600052602060002090600202016040518060800160405290816000820160009054906101000a900473ffffffffffffffffffffffffffffffffffffffff1673ffffffffffffffffffffffffffffffffffffffff1673ffffffffffffffffffffffffffffffffffffffff1681526020016000820160149054906101000a900461ffff1661ffff1661ffff1681526020016000820160169054906101000a900460ff166003811115611ddf57611dde613ef4565b5b6003811115611df157611df0613ef4565b5b815260200160018201548152505081526020019060010190611d21565b505050509050611e28671309691c3910264b60c01b613cf5565b611e3c67f294b55ada0e400960c01b613cf5565b60005b81518160ff161015611ff657611e5f67e8a3d60256d772a760c01b613cf5565b611e7367ceeb838c242ff14d60c01b613cf5565b60016003811115611e8757611e86613ef4565b5b828260ff1681518110611e9d57611e9c614fcf565b5b6020026020010151604001516003811115611ebb57611eba613ef4565b5b03611efb57611ed467dab7656b34cbfbac60c01b613cf5565b611ee8674cc9a20505798e2d60c01b613cf5565b8480611ef39061503a565b955050611fe3565b611f0f67ac8b9a102bc43f9360c01b613cf5565b611f23677122f7da1ba69cb460c01b613cf5565b60026003811115611f3757611f36613ef4565b5b828260ff1681518110611f4d57611f4c614fcf565b5b6020026020010151604001516003811115611f6b57611f6a613ef4565b5b03611fab57611f84671003c9c82ed2169760c01b613cf5565b611f9867b472e72c0bbf10a060c01b613cf5565b8380611fa39061503a565b945050611fe2565b611fbf6759d78b3feecfb95d60c01b613cf5565b611fd367725bfd2e48428c8560c01b613cf5565b8280611fde9061503a565b9350505b5b8080611fee9061503a565b915050611e3f565b5061200b67b7b561a22a4585c660c01b613cf5565b61201f67ce07de86f7083e7560c01b613cf5565b60008360ff168560ff16118061204557506120446773de0dd9f14dafdb60c01b613d03565b5b8015612061575061206067c5292e945c105fab60c01b613cf8565b5b61206c57600361206f565b60025b90506120856712d823799162a7fd60c01b613cf5565b806005600088815260200190815260200160002060020160006101000a81548160ff021916908360038111156120be576120bd613ef4565b5b02179055506120d767c8a399d44757181460c01b613cf5565b426005600088815260200190815260200160002060050181905550612106676e489203b3964d2b60c01b613cf5565b61211a673c9771f1f46febd160c01b613cf5565b6002600381111561212e5761212d613ef4565b5b81600381111561214157612140613ef4565b5b036122ce5761215a67c52b0657631140bc60c01b613cf5565b61216e673fc72b6734cec21060c01b613cf5565b61218267431cc48776acaf3f60c01b613cf5565b6002600381111561219657612195613ef4565b5b8860c0015160038111156121ad576121ac613ef4565b5b036121ea576121c6678a37a4e49b977c5560c01b613cf5565b6121da67e79505f8859cb21460c01b613cf5565b8760e001516001819055506122c9565b6121fe67b10643701432d09560c01b613cf5565b61221267d0671a0fc44c605760c01b613cf5565b60038081111561222557612224613ef4565b5b8860c00151600381111561223c5761223b613ef4565b5b036122b35761225567da3792787f75c87760c01b613cf5565b61226967c5f34e6c3cbc0a9060c01b613cf5565b8761010001516000806101000a81548173ffffffffffffffffffffffffffffffffffffffff021916908373ffffffffffffffffffffffffffffffffffffffff1602179055506122c8565b6122c7679ae501496075646f60c01b613cf5565b5b5b6122e3565b6122e2672dd2b85d3571f76e60c01b613cf5565b5b505050505050505050565b612302679edc537c2e1f349f60c01b613cf5565b61231667d1ffdeba592b972060c01b613cf5565b61232a67c66622f922232c1860c01b613cf5565b61233e67d12ea055418c8eb760c01b613cf5565b6123526737e1686aed3d546660c01b613cf5565b60008054906101000a900473ffffffffffffffffffffffffffffffffffffffff1673ffffffffffffffffffffffffffffffffffffffff163273ffffffffffffffffffffffffffffffffffffffff161480156123bd57506123bc6743624cae606a5e1860c01b613cf8565b5b806123e957506123cc3261124a565b80156123e857506123e767c41be3c7ac44c9f160c01b613cf8565b5b5b612428576040517f08c379a000000000000000000000000000000000000000000000000000000000815260040161241f9061495f565b60405180910390fd5b61243c67fe3750f4561be56960c01b613cf5565b612450672d30f1cca034bac960c01b613cf5565b612464673cf2898eadad629b60c01b613cf5565b612478672da64329cfcff9f060c01b613cf5565b61248c67cdead2376075649160c01b613cf5565b6124a067ffe6952378c2039e60c01b613cf5565b6124b4675e0ebdce09d6e83660c01b613cf5565b600060038111156124c8576124c7613ef4565b5b8160038111156124db576124da613ef4565b5b0361251b576040517f08c379a0000000000000000000000000000000000000000000000000000000008152600401612512906150af565b60405180910390fd5b61252f672aa83da4215215b860c01b613cf5565b612543674862ee17a5743cb460c01b613cf5565b61255767b33f2c97723ba57e60c01b613cf5565b600061256283610cc9565b905061257867e980fefcdc193a8160c01b613cf5565b61258c67211b83b5cb497ee160c01b613cf5565b6125a0679896ccf9e114360360c01b613cf5565b60008160600151116125e7576040517f08c379a00000000000000000000000000000000000000000000000000000000081526004016125de90614e1f565b60405180910390fd5b6125fb6795fb86cde707511360c01b613cf5565b61260f67344d805082391cc460c01b613cf5565b61262367456368d5252f4e6860c01b613cf5565b61263767bff30254c5ca194960c01b613cf5565b6001600381111561264b5761264a613ef4565b5b8160400151600381111561266257612661613ef4565b5b146126a2576040517f08c379a00000000000000000000000000000000000000000000000000000000081526004016126999061511b565b60405180910390fd5b6126b6673eb47703a920242560c01b613cf5565b6126ca6742a0e649516c2ab360c01b613cf5565b6126de6704ae997846e400ad60c01b613cf5565b6000600460003273ffffffffffffffffffffffffffffffffffffffff1673ffffffffffffffffffffffffffffffffffffffff16815260200190815260200160002060009054906101000a900461ffff16905061274467c632338c7683abbe60c01b613cf5565b61275867cd560662f517c6ba60c01b613cf5565b6000848051906020012090506127786776f527b88c3c02e360c01b613cf5565b61278b66b92eb535f765a760c01b613cf5565b600060066000838152602001908152602001600020805480602002602001604051908101604052809291908181526020016000905b828210156128ad57838290600052602060002090600202016040518060800160405290816000820160009054906101000a900473ffffffffffffffffffffffffffffffffffffffff1673ffffffffffffffffffffffffffffffffffffffff1673ffffffffffffffffffffffffffffffffffffffff1681526020016000820160149054906101000a900461ffff1661ffff1661ffff1681526020016000820160169054906101000a900460ff16600381111561287e5761287d613ef4565b5b60038111156128905761288f613ef4565b5b8152602001600182015481525050815260200190600101906127c0565b5050505090506128c7676d81a0b7fe55baf960c01b613cf5565b6128db678c145a437865ed9e60c01b613cf5565b60005b81518160ff161015612a14576128fe679a2385c336d5c16e60c01b613cf5565b6129126720d3bcaae45c112460c01b613cf5565b8361ffff16828260ff168151811061292d5761292c614fcf565b5b60200260200101516020015161ffff16036129ec5761295667789c8f968405b51460c01b613cf5565b61296a6757e803a2dbb4c98960c01b613cf5565b61297e679ec65b41aacc2d0c60c01b613cf5565b61299267b407d563a75e7eb560c01b613cf5565b60006129d3576040517f08c379a00000000000000000000000000000000000000000000000000000000081526004016129ca906151ad565b60405180910390fd5b6129e76767ac0639328bcff660c01b613cf5565b612a01565b612a0067079a740eef78437560c01b613cf5565b5b8080612a0c9061503a565b9150506128de565b50612a29678b03dc5daae3312160c01b613cf5565b612a3d67b11bf4365249366660c01b613cf5565b600060405180608001604052803273ffffffffffffffffffffffffffffffffffffffff1681526020018561ffff168152602001876003811115612a8357612a82613ef4565b5b8152602001428152509050612aa267d3eb3a858f628f3060c01b613cf5565b612ab6671086728e1861e72660c01b613cf5565b6006600084815260200190815260200160002081908060018154018082558091505060019003906000526020600020906002020160009091909190915060008201518160000160006101000a81548173ffffffffffffffffffffffffffffffffffffffff021916908373ffffffffffffffffffffffffffffffffffffffff16021790555060208201518160000160146101000a81548161ffff021916908361ffff16021790555060408201518160000160166101000a81548160ff02191690836003811115612b8857612b87613ef4565b5b021790555060608201518160010155505050505050505050565b6000612bb8679061153aa686b1f560c01b613cf5565b612bcc675d6e98fa0565f46a60c01b613cf5565b612be067b9761a9015741d6f60c01b613cf5565b600260008361ffff1661ffff16815260200190815260200160002060009054906101000a900460ff169050919050565b612c246789daf8512f0be68b60c01b613cf5565b612c38677491a4bc27ff0d6f60c01b613cf5565b612c4c675203138e936e0d4860c01b613cf5565b612c6067e9a1288d9a2e1ae160c01b613cf5565b612c74677d712f92e514111860c01b613cf5565b60008054906101000a900473ffffffffffffffffffffffffffffffffffffffff1673ffffffffffffffffffffffffffffffffffffffff163273ffffffffffffffffffffffffffffffffffffffff1614612d02576040517f08c379a0000000000000000000000000000000000000000000000000000000008152600401612cf990614d47565b60405180910390fd5b612d166715db465a54abeadc60c01b613cf5565b612d2a67e1c470834938bef360c01b613cf5565b612d3e67395adc763880adcb60c01b613cf5565b612d526793dfa4c66238533f60c01b613cf5565b81612d6767c9f8ab23dccb587460c01b613cf5565b612d7b67ea2baf3cd243261860c01b613cf5565b612d8f6797a8bfcd647d8b9760c01b613cf5565b612da367b2c1caf62d8101b160c01b613cf5565b600073ffffffffffffffffffffffffffffffffffffffff168173ffffffffffffffffffffffffffffffffffffffff1603612e12576040517f08c379a0000000000000000000000000000000000000000000000000000000008152600401612e0990615219565b60405180910390fd5b612e26671cc5ce3d170bcb9760c01b613cf5565b612e3a673eba1e2b1913f81060c01b613cf5565b612e4e67e80c771ee793aa9f60c01b613cf5565b612e62670d6ab15b0bd7227960c01b613cf5565b612e7667364e0800500930ab60c01b613cf5565b612e8a67715b33c2c7fa720360c01b613cf5565b8115612fad57612ea467e01a437232207f9460c01b613cf5565b612eb8677a154ffa7883637560c01b613cf5565b612ecc677f89f84d1bb0470f60c01b613cf5565b612ee067df9ccd9b68aca3ff60c01b613cf5565b612ee98361124a565b612f28576040517f08c379a0000000000000000000000000000000000000000000000000000000008152600401612f1f90615285565b60405180910390fd5b612f3c673366b75f3c2574d660c01b613cf5565b612f5067d43a0270d0ee8c5b60c01b613cf5565b6001600360008573ffffffffffffffffffffffffffffffffffffffff1673ffffffffffffffffffffffffffffffffffffffff16815260200190815260200160002060006101000a81548160ff021916908315150217905550613025565b612fc16740564e9e21cbdf4960c01b613cf5565b612fd5678687da2fa21883ff60c01b613cf5565b600360008473ffffffffffffffffffffffffffffffffffffffff1673ffffffffffffffffffffffffffffffffffffffff16815260200190815260200160002060006101000a81549060ff02191690555b505050565b61303e67ae4732b106e0a66360c01b613cf5565b613052677491a4bc27ff0d6f60c01b613cf5565b613066675203138e936e0d4860c01b613cf5565b61307a67e9a1288d9a2e1ae160c01b613cf5565b61308e677d712f92e514111860c01b613cf5565b60008054906101000a900473ffffffffffffffffffffffffffffffffffffffff1673ffffffffffffffffffffffffffffffffffffffff163273ffffffffffffffffffffffffffffffffffffffff161461311c576040517f08c379a000000000000000000000000000000000000000000000000000000000815260040161311390614d47565b60405180910390fd5b6131306715db465a54abeadc60c01b613cf5565b61314467e1c470834938bef360c01b613cf5565b61315867070c1b582dd160c460c01b613cf5565b61316c67eb37d038d28e2e5960c01b613cf5565b613180673cd80d26f567aefe60c01b613cf5565b613194672684f85212d7a23a60c01b613cf5565b600061319f82610cc9565b90506131b567cdb446d03c78181d60c01b613cf5565b6131c967f9bb131f49010af160c01b613cf5565b6131dd67dd9376134f0ae34a60c01b613cf5565b6000816060015111613224576040517f08c379a000000000000000000000000000000000000000000000000000000000815260040161321b90614e1f565b60405180910390fd5b613238674a93b16b23a055f360c01b613cf5565b61324c67b3b48ce2102b4ef260c01b613cf5565b6132606717ce938a9e6581c060c01b613cf5565b61327467b01e2ee2870c532960c01b613cf5565b6000600381111561328857613287613ef4565b5b8160400151600381111561329f5761329e613ef4565b5b146132df576040517f08c379a00000000000000000000000000000000000000000000000000000000081526004016132d690615317565b60405180910390fd5b6132f36770bca712be175af960c01b613cf5565b6133076721ad3bf7bac8228660c01b613cf5565b61331b676c814d077391b71960c01b613cf5565b60008280519060200120905061333b671797f2f7564e23fe60c01b613cf5565b60016005600083815260200190815260200160002060020160006101000a81548160ff0219169083600381111561337557613374613ef4565b5b021790555061338e67d920cb828a1c43b360c01b613cf5565b426005600083815260200190815260200160002060040181905550505050565b6133c267cc4a1b726c2fc70360c01b613cf5565b6133d667d10dae52cd7d9d4860c01b613cf5565b6133ea6713afa5fe7e11d3fc60c01b613cf5565b6133fe67450418b7b820bb4b60c01b613cf5565b6134126726df1a89be6fb1e160c01b613cf5565b60008054906101000a900473ffffffffffffffffffffffffffffffffffffffff1673ffffffffffffffffffffffffffffffffffffffff163273ffffffffffffffffffffffffffffffffffffffff1614801561347d575061347c672da66c1b5cccefe360c01b613cf8565b5b806134ed5750600360003273ffffffffffffffffffffffffffffffffffffffff1673ffffffffffffffffffffffffffffffffffffffff16815260200190815260200160002060009054906101000a900460ff1680156134ec57506134eb6705c6b0ca111c0d1360c01b613cf8565b5b5b61352c576040517f08c379a0000000000000000000000000000000000000000000000000000000008152600401613523906153a9565b60405180910390fd5b61354067adcba4b4cc8e8e3660c01b613cf5565b61355467a20a093bdf27486060c01b613cf5565b613568678df24eb25012ab8160c01b613cf5565b61357c677895f5b8c68ce1db60c01b613cf5565b8161359167c9f8ab23dccb587460c01b613cf5565b6135a567ea2baf3cd243261860c01b613cf5565b6135b96797a8bfcd647d8b9760c01b613cf5565b6135cd67b2c1caf62d8101b160c01b613cf5565b600073ffffffffffffffffffffffffffffffffffffffff168173ffffffffffffffffffffffffffffffffffffffff160361363c576040517f08c379a000000000000000000000000000000000000000000000000000000000815260040161363390615219565b60405180910390fd5b613650671cc5ce3d170bcb9760c01b613cf5565b613664673eba1e2b1913f81060c01b613cf5565b613678677338e0d981c7bccc60c01b613cf5565b61368c67a4462b9c3d6a505460c01b613cf5565b6136a0678a973ee20502acb460c01b613cf5565b6136b467cd59ae41bf5a53af60c01b613cf5565b6136c8670a1398aff3a62f8760c01b613cf5565b6136d182612ba2565b613710576040517f08c379a000000000000000000000000000000000000000000000000000000000815260040161370790615415565b60405180910390fd5b61372467257874ec38a0b49e60c01b613cf5565b61373867078922252483c9ae60c01b613cf5565b81600460008573ffffffffffffffffffffffffffffffffffffffff1673ffffffffffffffffffffffffffffffffffffffff16815260200190815260200160002060006101000a81548161ffff021916908361ffff160217905550505050565b60026020528060005260406000206000915054906101000a900460ff1681565b60046020528060005260406000206000915054906101000a900461ffff1681565b6137ec67eb5656a05c16fa7160c01b613cf5565b613800677491a4bc27ff0d6f60c01b613cf5565b613814675203138e936e0d4860c01b613cf5565b61382867e9a1288d9a2e1ae160c01b613cf5565b61383c677d712f92e514111860c01b613cf5565b60008054906101000a900473ffffffffffffffffffffffffffffffffffffffff1673ffffffffffffffffffffffffffffffffffffffff163273ffffffffffffffffffffffffffffffffffffffff16146138ca576040517f08c379a00000000000000000000000000000000000000000000000000000000081526004016138c190614d47565b60405180910390fd5b6138de6715db465a54abeadc60c01b613cf5565b6138f267e1c470834938bef360c01b613cf5565b6139066723a21664f7071bc860c01b613cf5565b61391a67ee34d0b516b370cc60c01b613cf5565b61392e6723028a467b0e904d60c01b613cf5565b613942679637fccc0dc5a0fb60c01b613cf5565b600061394d85610cc9565b9050613963674f058a95a9d4f21c60c01b613cf5565b61397767f556f706961bee9d60c01b613cf5565b61398b67fbf35be8932a521a60c01b613cf5565b60008160600151116139d2576040517f08c379a00000000000000000000000000000000000000000000000000000000081526004016139c990614e1f565b60405180910390fd5b6139e667bdf67a80fc6038f860c01b613cf5565b6139fa6772a0460698a0598c60c01b613cf5565b613a0e67b95a65b1ebf3e4fc60c01b613cf5565b613a2267d2fd8259f1a27c6460c01b613cf5565b60006003811115613a3657613a35613ef4565b5b81604001516003811115613a4d57613a4c613ef4565b5b14613a8d576040517f08c379a0000000000000000000000000000000000000000000000000000000008152600401613a8490615481565b60405180910390fd5b613aa16766d20a5b72c45b8660c01b613cf5565b613ab567a0404b83e3e561b260c01b613cf5565b613ac967dfaff7c195e5286760c01b613cf5565b600085805190602001209050613ae9673342d21884b86c6260c01b613cf5565b613afd67e737af9f4667a81e60c01b613cf5565b600085511115613b5857613b1b6732de1ccf72253b3a60c01b613cf5565b613b2f67386388d4f4335bc360c01b613cf5565b84600560008381526020019081526020016000206001019081613b529190614c03565b50613b6d565b613b6c6724e7904531790f4360c01b613cf5565b5b613b81675dd0bb380faa949b60c01b613cf5565b613b9567ebeddd4398feae4460c01b613cf5565b60008410613be557613bb167610c3306469a01b960c01b613cf5565b613bc5675bdc5d2948dc781260c01b613cf5565b836005600083815260200190815260200160002060070181905550613bfa565b613bf967a0a51b855de60fdc60c01b613cf5565b5b613c0e67246a928beb8d78af60c01b613cf5565b613c2267d15c40ee01684d3d60c01b613cf5565b600073ffffffffffffffffffffffffffffffffffffffff168373ffffffffffffffffffffffffffffffffffffffff1614613cd857613c6a67119efe38c8f876a960c01b613cf5565b613c7e67b977e71cc12e1dcd60c01b613cf5565b826005600083815260200190815260200160002060080160006101000a81548173ffffffffffffffffffffffffffffffffffffffff021916908373ffffffffffffffffffffffffffffffffffffffff160217905550613ced565b613cec675edf1654bb13c40460c01b613cf5565b5b505050505050565b50565b600060019050919050565b6000919050565b604051806101200160405280606081526020016060815260200160006003811115613d3857613d37613ef4565b5b815260200160008152602001600081526020016000815260200160006003811115613d6657613d65613ef4565b5b815260200160008152602001600073ffffffffffffffffffffffffffffffffffffffff1681525090565b508054613d9c906148bc565b6000825580601f10613dae5750613dcd565b601f016020900490600052602060002090810190613dcc9190613dd0565b5b50565b5b80821115613de9576000816000905550600101613dd1565b5090565b6000604051905090565b600080fd5b600080fd5b6000819050919050565b613e1481613e01565b8114613e1f57600080fd5b50565b600081359050613e3181613e0b565b92915050565b600060208284031215613e4d57613e4c613df7565b5b6000613e5b84828501613e22565b91505092915050565b600081519050919050565b600082825260208201905092915050565b60005b83811015613e9e578082015181840152602081019050613e83565b60008484015250505050565b6000601f19601f8301169050919050565b6000613ec682613e64565b613ed08185613e6f565b9350613ee0818560208601613e80565b613ee981613eaa565b840191505092915050565b7f4e487b7100000000000000000000000000000000000000000000000000000000600052602160045260246000fd5b60048110613f3457613f33613ef4565b5b50565b6000819050613f4582613f23565b919050565b6000613f5582613f37565b9050919050565b613f6581613f4a565b82525050565b6000819050919050565b613f7e81613f6b565b82525050565b60048110613f9557613f94613ef4565b5b50565b6000819050613fa682613f84565b919050565b6000613fb682613f98565b9050919050565b613fc681613fab565b82525050565b600073ffffffffffffffffffffffffffffffffffffffff82169050919050565b6000613ff782613fcc565b9050919050565b61400781613fec565b82525050565b6000610120820190508181036000830152614028818c613ebb565b9050818103602083015261403c818b613ebb565b905061404b604083018a613f5c565b6140586060830189613f75565b6140656080830188613f75565b61407260a0830187613f75565b61407f60c0830186613fbd565b61408c60e0830185613f75565b61409a610100830184613ffe565b9a9950505050505050505050565b6140b181613f6b565b81146140bc57600080fd5b50565b6000813590506140ce816140a8565b92915050565b600080604083850312156140eb576140ea613df7565b5b60006140f985828601613e22565b925050602061410a858286016140bf565b9150509250929050565b600061ffff82169050919050565b61412b81614114565b82525050565b6004811061414257614141613ef4565b5b50565b600081905061415382614131565b919050565b600061416382614145565b9050919050565b61417381614158565b82525050565b600060808201905061418e6000830187613ffe565b61419b6020830186614122565b6141a8604083018561416a565b6141b56060830184613f75565b95945050505050565b600080fd5b600080fd5b7f4e487b7100000000000000000000000000000000000000000000000000000000600052604160045260246000fd5b61420082613eaa565b810181811067ffffffffffffffff8211171561421f5761421e6141c8565b5b80604052505050565b6000614232613ded565b905061423e82826141f7565b919050565b600067ffffffffffffffff82111561425e5761425d6141c8565b5b61426782613eaa565b9050602081019050919050565b82818337600083830152505050565b600061429661429184614243565b614228565b9050828152602081018484840111156142b2576142b16141c3565b5b6142bd848285614274565b509392505050565b600082601f8301126142da576142d96141be565b5b81356142ea848260208601614283565b91505092915050565b60006020828403121561430957614308613df7565b5b600082013567ffffffffffffffff81111561432757614326613dfc565b5b614333848285016142c5565b91505092915050565b60006020820190506143516000830184613f75565b92915050565b6004811061436457600080fd5b50565b60008135905061437681614357565b92915050565b61438581613fec565b811461439057600080fd5b50565b6000813590506143a28161437c565b92915050565b600080600080600060a086880312156143c4576143c3613df7565b5b600086013567ffffffffffffffff8111156143e2576143e1613dfc565b5b6143ee888289016142c5565b955050602086013567ffffffffffffffff81111561440f5761440e613dfc565b5b61441b888289016142c5565b945050604061442c88828901614367565b935050606061443d888289016140bf565b925050608061444e88828901614393565b9150509295509295909350565b600082825260208201905092915050565b600061447782613e64565b614481818561445b565b9350614491818560208601613e80565b61449a81613eaa565b840191505092915050565b6144ae81613f4a565b82525050565b6144bd81613f6b565b82525050565b6144cc81613fab565b82525050565b6144db81613fec565b82525050565b60006101208301600083015184820360008601526144ff828261446c565b91505060208301518482036020860152614519828261446c565b915050604083015161452e60408601826144a5565b50606083015161454160608601826144b4565b50608083015161455460808601826144b4565b5060a083015161456760a08601826144b4565b5060c083015161457a60c08601826144c3565b5060e083015161458d60e08601826144b4565b506101008301516145a26101008601826144d2565b508091505092915050565b600060208201905081810360008301526145c781846144e1565b905092915050565b60006020820190506145e46000830184613ffe565b92915050565b600060208284031215614600576145ff613df7565b5b600061460e84828501614393565b91505092915050565b60008115159050919050565b61462c81614617565b82525050565b60006020820190506146476000830184614623565b92915050565b6004811061465a57600080fd5b50565b60008135905061466c8161464d565b92915050565b6000806040838503121561468957614688613df7565b5b600083013567ffffffffffffffff8111156146a7576146a6613dfc565b5b6146b3858286016142c5565b92505060206146c48582860161465d565b9150509250929050565b6146d781614114565b81146146e257600080fd5b50565b6000813590506146f4816146ce565b92915050565b6000602082840312156147105761470f613df7565b5b600061471e848285016146e5565b91505092915050565b61473081614617565b811461473b57600080fd5b50565b60008135905061474d81614727565b92915050565b6000806040838503121561476a57614769613df7565b5b600061477885828601614393565b92505060206147898582860161473e565b9150509250929050565b600080604083850312156147aa576147a9613df7565b5b60006147b885828601614393565b92505060206147c9858286016146e5565b9150509250929050565b60006020820190506147e86000830184614122565b92915050565b6000806000806080858703121561480857614807613df7565b5b600085013567ffffffffffffffff81111561482657614825613dfc565b5b614832878288016142c5565b945050602085013567ffffffffffffffff81111561485357614852613dfc565b5b61485f878288016142c5565b9350506040614870878288016140bf565b925050606061488187828801614393565b91505092959194509250565b7f4e487b7100000000000000000000000000000000000000000000000000000000600052602260045260246000fd5b600060028204905060018216806148d457607f821691505b6020821081036148e7576148e661488d565b5b50919050565b7f4f6e6c7920746865207265736964656e7473206f72206d616e6167657220686160008201527f76652061636365737320746f20746869732066756e6374696f6e616c69747900602082015250565b6000614949603f83613e6f565b9150614954826148ed565b604082019050919050565b600060208201905081810360008301526149788161493c565b9050919050565b7f5468697320746f70696320616c72656164792065786973747300000000000000600082015250565b60006149b5601983613e6f565b91506149c08261497f565b602082019050919050565b600060208201905081810360008301526149e4816149a8565b9050919050565b7f57726f6e672063617465676f7279000000000000000000000000000000000000600082015250565b6000614a21600e83613e6f565b9150614a2c826149eb565b602082019050919050565b60006020820190508181036000830152614a5081614a14565b9050919050565b60008190508160005260206000209050919050565b60006020601f8301049050919050565b600082821b905092915050565b600060088302614ab97fffffffffffffffffffffffffffffffffffffffffffffffffffffffffffffffff82614a7c565b614ac38683614a7c565b95508019841693508086168417925050509392505050565b6000819050919050565b6000614b00614afb614af684613f6b565b614adb565b613f6b565b9050919050565b6000819050919050565b614b1a83614ae5565b614b2e614b2682614b07565b848454614a89565b825550505050565b600090565b614b43614b36565b614b4e818484614b11565b505050565b5b81811015614b7257614b67600082614b3b565b600181019050614b54565b5050565b601f821115614bb757614b8881614a57565b614b9184614a6c565b81016020851015614ba0578190505b614bb4614bac85614a6c565b830182614b53565b50505b505050565b600082821c905092915050565b6000614bda60001984600802614bbc565b1980831691505092915050565b6000614bf38383614bc9565b9150826002028217905092915050565b614c0c82613e64565b67ffffffffffffffff811115614c2557614c246141c8565b5b614c2f82546148bc565b614c3a828285614b76565b600060209050601f831160018114614c6d5760008415614c5b578287015190505b614c658582614be7565b865550614ccd565b601f198416614c7b86614a57565b60005b82811015614ca357848901518255600182019150602085019450602081019050614c7e565b86831015614cc05784890151614cbc601f891682614bc9565b8355505b6001600288020188555050505b505050505050565b7f4f6e6c7920746865206d616e61676572206861732061636365737320746f207460008201527f6869732066756e6374696f6e616c697479000000000000000000000000000000602082015250565b6000614d31603183613e6f565b9150614d3c82614cd5565b604082019050919050565b60006020820190508181036000830152614d6081614d24565b9050919050565b7f4120636f756e73656c6f722063616e6e6f742062652072656d6f766564000000600082015250565b6000614d9d601d83613e6f565b9150614da882614d67565b602082019050919050565b60006020820190508181036000830152614dcc81614d90565b9050919050565b7f5468697320746f70696320646f6573206e6f7420657869737473000000000000600082015250565b6000614e09601a83613e6f565b9150614e1482614dd3565b602082019050919050565b60006020820190508181036000830152614e3881614dfc565b9050919050565b7f4f6e6c792049444c4520746f706963732063616e2062652072656d6f76656400600082015250565b6000614e75601f83613e6f565b9150614e8082614e3f565b602082019050919050565b60006020820190508181036000830152614ea481614e68565b9050919050565b7f4f6e6c7920564f54494e4720746f706963732063616e20626520636c6f736564600082015250565b6000614ee1602083613e6f565b9150614eec82614eab565b602082019050919050565b60006020820190508181036000830152614f1081614ed4565b9050919050565b7f596f752063616e206e6f742066696e697368206120766f74696e67207769746860008201527f6f757420726561636820746865206d696e696d756d20766f746573206e65636560208201527f7373617279000000000000000000000000000000000000000000000000000000604082015250565b6000614f99604583613e6f565b9150614fa482614f17565b606082019050919050565b60006020820190508181036000830152614fc881614f8c565b9050919050565b7f4e487b7100000000000000000000000000000000000000000000000000000000600052603260045260246000fd5b7f4e487b7100000000000000000000000000000000000000000000000000000000600052601160045260246000fd5b600060ff82169050919050565b60006150458261502d565b915060ff820361505857615057614ffe565b5b600182019050919050565b7f546865206f7074696f6e2063616e6e6f7420626520454d505459000000000000600082015250565b6000615099601a83613e6f565b91506150a482615063565b602082019050919050565b600060208201905081810360008301526150c88161508c565b9050919050565b7f4f6e6c7920564f54494e4720746f706963732063616e20626520766f74656400600082015250565b6000615105601f83613e6f565b9150615110826150cf565b602082019050919050565b60006020820190508181036000830152615134816150f8565b9050919050565b7f41207265736964656e63652073686f756c6420766f7465206f6e6c79206f6e6360008201527f6500000000000000000000000000000000000000000000000000000000000000602082015250565b6000615197602183613e6f565b91506151a28261513b565b604082019050919050565b600060208201905081810360008301526151c68161518a565b9050919050565b7f496e76616c696420616464726573730000000000000000000000000000000000600082015250565b6000615203600f83613e6f565b915061520e826151cd565b602082019050919050565b60006020820190508181036000830152615232816151f6565b9050919050565b7f54686520636f756e73656c6f72206d7573742062652061207265736964656e74600082015250565b600061526f602083613e6f565b915061527a82615239565b602082019050919050565b6000602082019050818103600083015261529e81615262565b9050919050565b7f4f6e6c792049444c4520746f706963732063616e206265206f70656e20666f7260008201527f20766f74696e6700000000000000000000000000000000000000000000000000602082015250565b6000615301602783613e6f565b915061530c826152a5565b604082019050919050565b60006020820190508181036000830152615330816152f4565b9050919050565b7f4f6e6c792074686520636f756e73656c6f7273206f72206d616e61676572206860008201527f6176652061636365737320746f20746869732066756e6374696f6e616c697479602082015250565b6000615393604083613e6f565b915061539e82615337565b604082019050919050565b600060208201905081810360008301526153c281615386565b9050919050565b7f54686973207265736964656e636520646f6573206e6f74206578697374730000600082015250565b60006153ff601e83613e6f565b915061540a826153c9565b602082019050919050565b6000602082019050818103600083015261542e816153f2565b9050919050565b7f4f6e6c792049444c4520746f706963732063616e206265206564697465640000600082015250565b600061546b601e83613e6f565b915061547682615435565b602082019050919050565b6000602082019050818103600083015261549a8161545e565b905091905056fea26469706673582212209d349b92d43b012801b5bc589b1f0dad2a88bf54851ac709502f0b8eb2c4221664736f6c63430008180033",
  "linkReferences": {},
  "deployedLinkReferences": {}
}