{
  "_format": "hh-sol-artifact-1",
  "contractName": "Condominium",
  "sourceName": "contracts/Condominium.sol",
  "abi": [
    {
      "inputs": [],
      "stateMutability": "nonpayable",
      "type": "constructor"
    },
    {
      "inputs": [
        {
          "internalType": "address",
          "name": "resident",
          "type": "address"
        },
        {
          "internalType": "uint16",
          "name": "residenceNumber",
          "type": "uint16"
        }
      ],
      "name": "addResident",
      "outputs": [],
      "stateMutability": "nonpayable",
      "type": "function"
    },
    {
      "inputs": [
        {
          "internalType": "address",
          "name": "",
          "type": "address"
        }
      ],
      "name": "counselors",
      "outputs": [
        {
          "internalType": "bool",
          "name": "",
          "type": "bool"
        }
      ],
      "stateMutability": "view",
      "type": "function"
    },
    {
      "inputs": [
        {
          "internalType": "address",
          "name": "resident",
          "type": "address"
        }
      ],
      "name": "isResident",
      "outputs": [
        {
          "internalType": "bool",
          "name": "",
          "type": "bool"
        }
      ],
      "stateMutability": "view",
      "type": "function"
    },
    {
      "inputs": [],
      "name": "manager",
      "outputs": [
        {
          "internalType": "address",
          "name": "",
          "type": "address"
        }
      ],
      "stateMutability": "view",
      "type": "function"
    },
    {
      "inputs": [
        {
          "internalType": "address",
          "name": "resident",
          "type": "address"
        }
      ],
      "name": "removeResident",
      "outputs": [],
      "stateMutability": "nonpayable",
      "type": "function"
    },
    {
      "inputs": [
        {
          "internalType": "uint16",
          "name": "residence",
          "type": "uint16"
        }
      ],
      "name": "residenceExists",
      "outputs": [
        {
          "internalType": "bool",
          "name": "",
          "type": "bool"
        }
      ],
      "stateMutability": "view",
      "type": "function"
    },
    {
      "inputs": [
        {
          "internalType": "uint16",
          "name": "",
          "type": "uint16"
        }
      ],
      "name": "residences",
      "outputs": [
        {
          "internalType": "bool",
          "name": "",
          "type": "bool"
        }
      ],
      "stateMutability": "view",
      "type": "function"
    },
    {
      "inputs": [
        {
          "internalType": "address",
          "name": "",
          "type": "address"
        }
      ],
      "name": "residents",
      "outputs": [
        {
          "internalType": "uint16",
          "name": "",
          "type": "uint16"
        }
      ],
      "stateMutability": "view",
      "type": "function"
    }
  ],
  "bytecode": "0x608060405234801561001057600080fd5b50336000806101000a81548173ffffffffffffffffffffffffffffffffffffffff021916908373ffffffffffffffffffffffffffffffffffffffff1602179055506000600190505b60028160ff1611610107576000600190505b60058161ffff16116100f3576000600190505b60058160ff16116100df5760018060008360ff16606486026103e88860ff1602010161ffff1661ffff16815260200190815260200160002060006101000a81548160ff02191690831515021790555080806100d790610149565b91505061007d565b5080806100eb90610180565b91505061006a565b5080806100ff90610149565b915050610058565b506101aa565b7f4e487b7100000000000000000000000000000000000000000000000000000000600052601160045260246000fd5b600060ff82169050919050565b60006101548261013c565b915060ff82036101675761016661010d565b5b600182019050919050565b600061ffff82169050919050565b600061018b82610172565b915061ffff820361019f5761019e61010d565b5b600182019050919050565b6109e1806101b96000396000f3fe608060405234801561001057600080fd5b50600436106100885760003560e01c8063967d59e41161005b578063967d59e414610127578063b158354614610157578063bc2f89f314610173578063e4d65d54146101a357610088565b8063481c6a751461008d5780634de53265146100ab578063597de987146100db57806368aca335146100f7575b600080fd5b6100956101d3565b6040516100a2919061061e565b60405180910390f35b6100c560048036038101906100c0919061066a565b6101f7565b6040516100d291906106b2565b60405180910390f35b6100f560048036038101906100f0919061066a565b610217565b005b610111600480360381019061010c919061066a565b610385565b60405161011e91906106b2565b60405180910390f35b610141600480360381019061013c9190610707565b6103e2565b60405161014e91906106b2565b60405180910390f35b610171600480360381019061016c9190610734565b610414565b005b61018d60048036038101906101889190610707565b61059c565b60405161019a91906106b2565b60405180910390f35b6101bd60048036038101906101b8919061066a565b6105bc565b6040516101ca9190610783565b60405180910390f35b60008054906101000a900473ffffffffffffffffffffffffffffffffffffffff1681565b60026020528060005260406000206000915054906101000a900460ff1681565b60008054906101000a900473ffffffffffffffffffffffffffffffffffffffff1673ffffffffffffffffffffffffffffffffffffffff163373ffffffffffffffffffffffffffffffffffffffff16146102a5576040517f08c379a000000000000000000000000000000000000000000000000000000000815260040161029c90610821565b60405180910390fd5b600260008273ffffffffffffffffffffffffffffffffffffffff1673ffffffffffffffffffffffffffffffffffffffff16815260200190815260200160002060009054906101000a900460ff1615610332576040517f08c379a00000000000000000000000000000000000000000000000000000000081526004016103299061088d565b60405180910390fd5b600360008273ffffffffffffffffffffffffffffffffffffffff1673ffffffffffffffffffffffffffffffffffffffff16815260200190815260200160002060006101000a81549061ffff021916905550565b600080600360008473ffffffffffffffffffffffffffffffffffffffff1673ffffffffffffffffffffffffffffffffffffffff16815260200190815260200160002060009054906101000a900461ffff1661ffff16119050919050565b6000600160008361ffff1661ffff16815260200190815260200160002060009054906101000a900460ff169050919050565b60008054906101000a900473ffffffffffffffffffffffffffffffffffffffff1673ffffffffffffffffffffffffffffffffffffffff163373ffffffffffffffffffffffffffffffffffffffff1614806104b75750600260003373ffffffffffffffffffffffffffffffffffffffff1673ffffffffffffffffffffffffffffffffffffffff16815260200190815260200160002060009054906101000a900460ff165b6104f6576040517f08c379a00000000000000000000000000000000000000000000000000000000081526004016104ed9061091f565b60405180910390fd5b6104ff816103e2565b61053e576040517f08c379a00000000000000000000000000000000000000000000000000000000081526004016105359061098b565b60405180910390fd5b80600360008473ffffffffffffffffffffffffffffffffffffffff1673ffffffffffffffffffffffffffffffffffffffff16815260200190815260200160002060006101000a81548161ffff021916908361ffff1602179055505050565b60016020528060005260406000206000915054906101000a900460ff1681565b60036020528060005260406000206000915054906101000a900461ffff1681565b600073ffffffffffffffffffffffffffffffffffffffff82169050919050565b6000610608826105dd565b9050919050565b610618816105fd565b82525050565b6000602082019050610633600083018461060f565b92915050565b600080fd5b610647816105fd565b811461065257600080fd5b50565b6000813590506106648161063e565b92915050565b6000602082840312156106805761067f610639565b5b600061068e84828501610655565b91505092915050565b60008115159050919050565b6106ac81610697565b82525050565b60006020820190506106c760008301846106a3565b92915050565b600061ffff82169050919050565b6106e4816106cd565b81146106ef57600080fd5b50565b600081359050610701816106db565b92915050565b60006020828403121561071d5761071c610639565b5b600061072b848285016106f2565b91505092915050565b6000806040838503121561074b5761074a610639565b5b600061075985828601610655565b925050602061076a858286016106f2565b9150509250929050565b61077d816106cd565b82525050565b60006020820190506107986000830184610774565b92915050565b600082825260208201905092915050565b7f4f6e6c7920746865206d616e61676572206861732061636365737320746f207460008201527f6869732066756e6374696f6e616c697479000000000000000000000000000000602082015250565b600061080b60318361079e565b9150610816826107af565b604082019050919050565b6000602082019050818103600083015261083a816107fe565b9050919050565b7f4120636f756e63656c6f722063616e6e6f742062652072656d6f766564000000600082015250565b6000610877601d8361079e565b915061088282610841565b602082019050919050565b600060208201905081810360008301526108a68161086a565b9050919050565b7f4f6e6c792074686520636f756e73656c6f7273206f72206d616e61676572206860008201527f6176652061636365737320746f20746869732066756e6374696f6e616c697479602082015250565b600061090960408361079e565b9150610914826108ad565b604082019050919050565b60006020820190508181036000830152610938816108fc565b9050919050565b7f54686973207265736964656e636520646f6573206e6f74206578697374730000600082015250565b6000610975601e8361079e565b91506109808261093f565b602082019050919050565b600060208201905081810360008301526109a481610968565b905091905056fea26469706673582212207ed66308071b195de682eb71681abf6f1f966357098d2e3466c5192eab48b0f864736f6c63430008180033",
  "linkReferences": {},
  "deployedLinkReferences": {}
}