{
  "_format": "hh-sol-artifact-1",
  "contractName": "Condominium",
  "sourceName": "contracts/Condominium.sol",
  "abi": [
    {
      "inputs": [],
      "stateMutability": "nonpayable",
      "type": "constructor"
    },
    {
      "inputs": [
        {
          "internalType": "address",
          "name": "resident",
          "type": "address"
        },
        {
          "internalType": "uint16",
          "name": "residenceNumber",
          "type": "uint16"
        }
      ],
      "name": "addResident",
      "outputs": [],
      "stateMutability": "nonpayable",
      "type": "function"
    },
    {
      "inputs": [
        {
          "internalType": "string",
          "name": "title",
          "type": "string"
        },
        {
          "internalType": "string",
          "name": "description",
          "type": "string"
        },
        {
          "internalType": "enum CondominiumLib.Category",
          "name": "category",
          "type": "uint8"
        },
        {
          "internalType": "uint256",
          "name": "amount",
          "type": "uint256"
        },
        {
          "internalType": "address",
          "name": "responsible",
          "type": "address"
        }
      ],
      "name": "addTopic",
      "outputs": [],
      "stateMutability": "nonpayable",
      "type": "function"
    },
    {
      "inputs": [
        {
          "internalType": "string",
          "name": "title",
          "type": "string"
        }
      ],
      "name": "closeVoting",
      "outputs": [
        {
          "components": [
            {
              "internalType": "bytes32",
              "name": "topicId",
              "type": "bytes32"
            },
            {
              "internalType": "string",
              "name": "title",
              "type": "string"
            },
            {
              "internalType": "enum CondominiumLib.Status",
              "name": "status",
              "type": "uint8"
            },
            {
              "internalType": "enum CondominiumLib.Category",
              "name": "category",
              "type": "uint8"
            }
          ],
          "internalType": "struct CondominiumLib.TopicUpdate",
          "name": "",
          "type": "tuple"
        }
      ],
      "stateMutability": "nonpayable",
      "type": "function"
    },
    {
      "inputs": [
        {
          "internalType": "uint256",
          "name": "",
          "type": "uint256"
        }
      ],
      "name": "counselors",
      "outputs": [
        {
          "internalType": "address",
          "name": "",
          "type": "address"
        }
      ],
      "stateMutability": "view",
      "type": "function"
    },
    {
      "inputs": [
        {
          "internalType": "string",
          "name": "topicToEdit",
          "type": "string"
        },
        {
          "internalType": "string",
          "name": "description",
          "type": "string"
        },
        {
          "internalType": "uint256",
          "name": "amount",
          "type": "uint256"
        },
        {
          "internalType": "address",
          "name": "responsible",
          "type": "address"
        }
      ],
      "name": "editTopic",
      "outputs": [
        {
          "components": [
            {
              "internalType": "bytes32",
              "name": "topicId",
              "type": "bytes32"
            },
            {
              "internalType": "string",
              "name": "title",
              "type": "string"
            },
            {
              "internalType": "enum CondominiumLib.Status",
              "name": "status",
              "type": "uint8"
            },
            {
              "internalType": "enum CondominiumLib.Category",
              "name": "category",
              "type": "uint8"
            }
          ],
          "internalType": "struct CondominiumLib.TopicUpdate",
          "name": "",
          "type": "tuple"
        }
      ],
      "stateMutability": "nonpayable",
      "type": "function"
    },
    {
      "inputs": [],
      "name": "getManager",
      "outputs": [
        {
          "internalType": "address",
          "name": "",
          "type": "address"
        }
      ],
      "stateMutability": "view",
      "type": "function"
    },
    {
      "inputs": [],
      "name": "getQuota",
      "outputs": [
        {
          "internalType": "uint256",
          "name": "",
          "type": "uint256"
        }
      ],
      "stateMutability": "view",
      "type": "function"
    },
    {
      "inputs": [
        {
          "internalType": "address",
          "name": "resident",
          "type": "address"
        }
      ],
      "name": "getResident",
      "outputs": [
        {
          "components": [
            {
              "internalType": "address",
              "name": "wallet",
              "type": "address"
            },
            {
              "internalType": "uint16",
              "name": "residence",
              "type": "uint16"
            },
            {
              "internalType": "bool",
              "name": "isCounselor",
              "type": "bool"
            },
            {
              "internalType": "bool",
              "name": "isManager",
              "type": "bool"
            },
            {
              "internalType": "uint256",
              "name": "nextPayment",
              "type": "uint256"
            }
          ],
          "internalType": "struct CondominiumLib.Resident",
          "name": "",
          "type": "tuple"
        }
      ],
      "stateMutability": "view",
      "type": "function"
    },
    {
      "inputs": [
        {
          "internalType": "uint256",
          "name": "page",
          "type": "uint256"
        },
        {
          "internalType": "uint256",
          "name": "pageSize",
          "type": "uint256"
        }
      ],
      "name": "getResidents",
      "outputs": [
        {
          "components": [
            {
              "components": [
                {
                  "internalType": "address",
                  "name": "wallet",
                  "type": "address"
                },
                {
                  "internalType": "uint16",
                  "name": "residence",
                  "type": "uint16"
                },
                {
                  "internalType": "bool",
                  "name": "isCounselor",
                  "type": "bool"
                },
                {
                  "internalType": "bool",
                  "name": "isManager",
                  "type": "bool"
                },
                {
                  "internalType": "uint256",
                  "name": "nextPayment",
                  "type": "uint256"
                }
              ],
              "internalType": "struct CondominiumLib.Resident[]",
              "name": "residents",
              "type": "tuple[]"
            },
            {
              "internalType": "uint256",
              "name": "total",
              "type": "uint256"
            }
          ],
          "internalType": "struct CondominiumLib.ResidentPage",
          "name": "",
          "type": "tuple"
        }
      ],
      "stateMutability": "view",
      "type": "function"
    },
    {
      "inputs": [
        {
          "internalType": "string",
          "name": "title",
          "type": "string"
        }
      ],
      "name": "getTopic",
      "outputs": [
        {
          "components": [
            {
              "internalType": "string",
              "name": "title",
              "type": "string"
            },
            {
              "internalType": "string",
              "name": "description",
              "type": "string"
            },
            {
              "internalType": "enum CondominiumLib.Status",
              "name": "status",
              "type": "uint8"
            },
            {
              "internalType": "uint256",
              "name": "createdDate",
              "type": "uint256"
            },
            {
              "internalType": "uint256",
              "name": "startDate",
              "type": "uint256"
            },
            {
              "internalType": "uint256",
              "name": "endDate",
              "type": "uint256"
            },
            {
              "internalType": "enum CondominiumLib.Category",
              "name": "category",
              "type": "uint8"
            },
            {
              "internalType": "uint256",
              "name": "amount",
              "type": "uint256"
            },
            {
              "internalType": "address",
              "name": "responsible",
              "type": "address"
            }
          ],
          "internalType": "struct CondominiumLib.Topic",
          "name": "",
          "type": "tuple"
        }
      ],
      "stateMutability": "view",
      "type": "function"
    },
    {
      "inputs": [
        {
          "internalType": "uint256",
          "name": "page",
          "type": "uint256"
        },
        {
          "internalType": "uint256",
          "name": "pageSize",
          "type": "uint256"
        }
      ],
      "name": "getTopics",
      "outputs": [
        {
          "components": [
            {
              "components": [
                {
                  "internalType": "string",
                  "name": "title",
                  "type": "string"
                },
                {
                  "internalType": "string",
                  "name": "description",
                  "type": "string"
                },
                {
                  "internalType": "enum CondominiumLib.Status",
                  "name": "status",
                  "type": "uint8"
                },
                {
                  "internalType": "uint256",
                  "name": "createdDate",
                  "type": "uint256"
                },
                {
                  "internalType": "uint256",
                  "name": "startDate",
                  "type": "uint256"
                },
                {
                  "internalType": "uint256",
                  "name": "endDate",
                  "type": "uint256"
                },
                {
                  "internalType": "enum CondominiumLib.Category",
                  "name": "category",
                  "type": "uint8"
                },
                {
                  "internalType": "uint256",
                  "name": "amount",
                  "type": "uint256"
                },
                {
                  "internalType": "address",
                  "name": "responsible",
                  "type": "address"
                }
              ],
              "internalType": "struct CondominiumLib.Topic[]",
              "name": "topics",
              "type": "tuple[]"
            },
            {
              "internalType": "uint256",
              "name": "total",
              "type": "uint256"
            }
          ],
          "internalType": "struct CondominiumLib.TopicPage",
          "name": "",
          "type": "tuple"
        }
      ],
      "stateMutability": "view",
      "type": "function"
    },
    {
      "inputs": [
        {
          "internalType": "string",
          "name": "topicTitle",
          "type": "string"
        }
      ],
      "name": "getVotes",
      "outputs": [
        {
          "components": [
            {
              "internalType": "address",
              "name": "resident",
              "type": "address"
            },
            {
              "internalType": "uint16",
              "name": "residence",
              "type": "uint16"
            },
            {
              "internalType": "enum CondominiumLib.VoteOptions",
              "name": "option",
              "type": "uint8"
            },
            {
              "internalType": "uint256",
              "name": "timestamp",
              "type": "uint256"
            }
          ],
          "internalType": "struct CondominiumLib.Vote[]",
          "name": "",
          "type": "tuple[]"
        }
      ],
      "stateMutability": "view",
      "type": "function"
    },
    {
      "inputs": [
        {
          "internalType": "address",
          "name": "resident",
          "type": "address"
        }
      ],
      "name": "isResident",
      "outputs": [
        {
          "internalType": "bool",
          "name": "",
          "type": "bool"
        }
      ],
      "stateMutability": "view",
      "type": "function"
    },
    {
      "inputs": [],
      "name": "manager",
      "outputs": [
        {
          "internalType": "address",
          "name": "",
          "type": "address"
        }
      ],
      "stateMutability": "view",
      "type": "function"
    },
    {
      "inputs": [],
      "name": "monthlyQuota",
      "outputs": [
        {
          "internalType": "uint256",
          "name": "",
          "type": "uint256"
        }
      ],
      "stateMutability": "view",
      "type": "function"
    },
    {
      "inputs": [
        {
          "internalType": "string",
          "name": "title",
          "type": "string"
        }
      ],
      "name": "numberOfVotes",
      "outputs": [
        {
          "internalType": "uint256",
          "name": "",
          "type": "uint256"
        }
      ],
      "stateMutability": "view",
      "type": "function"
    },
    {
      "inputs": [
        {
          "internalType": "string",
          "name": "title",
          "type": "string"
        }
      ],
      "name": "openVoting",
      "outputs": [
        {
          "components": [
            {
              "internalType": "bytes32",
              "name": "topicId",
              "type": "bytes32"
            },
            {
              "internalType": "string",
              "name": "title",
              "type": "string"
            },
            {
              "internalType": "enum CondominiumLib.Status",
              "name": "status",
              "type": "uint8"
            },
            {
              "internalType": "enum CondominiumLib.Category",
              "name": "category",
              "type": "uint8"
            }
          ],
          "internalType": "struct CondominiumLib.TopicUpdate",
          "name": "",
          "type": "tuple"
        }
      ],
      "stateMutability": "nonpayable",
      "type": "function"
    },
    {
      "inputs": [
        {
          "internalType": "uint16",
          "name": "residence",
          "type": "uint16"
        }
      ],
      "name": "payQuota",
      "outputs": [],
      "stateMutability": "payable",
      "type": "function"
    },
    {
      "inputs": [
        {
          "internalType": "address",
          "name": "resident",
          "type": "address"
        }
      ],
      "name": "removeResident",
      "outputs": [],
      "stateMutability": "nonpayable",
      "type": "function"
    },
    {
      "inputs": [
        {
          "internalType": "string",
          "name": "title",
          "type": "string"
        }
      ],
      "name": "removeTopic",
      "outputs": [
        {
          "components": [
            {
              "internalType": "bytes32",
              "name": "topicId",
              "type": "bytes32"
            },
            {
              "internalType": "string",
              "name": "title",
              "type": "string"
            },
            {
              "internalType": "enum CondominiumLib.Status",
              "name": "status",
              "type": "uint8"
            },
            {
              "internalType": "enum CondominiumLib.Category",
              "name": "category",
              "type": "uint8"
            }
          ],
          "internalType": "struct CondominiumLib.TopicUpdate",
          "name": "",
          "type": "tuple"
        }
      ],
      "stateMutability": "nonpayable",
      "type": "function"
    },
    {
      "inputs": [
        {
          "internalType": "uint16",
          "name": "residence",
          "type": "uint16"
        }
      ],
      "name": "residenceExists",
      "outputs": [
        {
          "internalType": "bool",
          "name": "",
          "type": "bool"
        }
      ],
      "stateMutability": "view",
      "type": "function"
    },
    {
      "inputs": [
        {
          "internalType": "uint16",
          "name": "",
          "type": "uint16"
        }
      ],
      "name": "residences",
      "outputs": [
        {
          "internalType": "bool",
          "name": "",
          "type": "bool"
        }
      ],
      "stateMutability": "view",
      "type": "function"
    },
    {
      "inputs": [
        {
          "internalType": "uint256",
          "name": "",
          "type": "uint256"
        }
      ],
      "name": "residents",
      "outputs": [
        {
          "internalType": "address",
          "name": "wallet",
          "type": "address"
        },
        {
          "internalType": "uint16",
          "name": "residence",
          "type": "uint16"
        },
        {
          "internalType": "bool",
          "name": "isCounselor",
          "type": "bool"
        },
        {
          "internalType": "bool",
          "name": "isManager",
          "type": "bool"
        },
        {
          "internalType": "uint256",
          "name": "nextPayment",
          "type": "uint256"
        }
      ],
      "stateMutability": "view",
      "type": "function"
    },
    {
      "inputs": [
        {
          "internalType": "address",
          "name": "resident",
          "type": "address"
        },
        {
          "internalType": "bool",
          "name": "isEntering",
          "type": "bool"
        }
      ],
      "name": "setCounselor",
      "outputs": [],
      "stateMutability": "nonpayable",
      "type": "function"
    },
    {
      "inputs": [
        {
          "internalType": "string",
          "name": "title",
          "type": "string"
        }
      ],
      "name": "topicExists",
      "outputs": [
        {
          "internalType": "bool",
          "name": "",
          "type": "bool"
        }
      ],
      "stateMutability": "view",
      "type": "function"
    },
    {
      "inputs": [
        {
          "internalType": "uint256",
          "name": "",
          "type": "uint256"
        }
      ],
      "name": "topics",
      "outputs": [
        {
          "internalType": "string",
          "name": "title",
          "type": "string"
        },
        {
          "internalType": "string",
          "name": "description",
          "type": "string"
        },
        {
          "internalType": "enum CondominiumLib.Status",
          "name": "status",
          "type": "uint8"
        },
        {
          "internalType": "uint256",
          "name": "createdDate",
          "type": "uint256"
        },
        {
          "internalType": "uint256",
          "name": "startDate",
          "type": "uint256"
        },
        {
          "internalType": "uint256",
          "name": "endDate",
          "type": "uint256"
        },
        {
          "internalType": "enum CondominiumLib.Category",
          "name": "category",
          "type": "uint8"
        },
        {
          "internalType": "uint256",
          "name": "amount",
          "type": "uint256"
        },
        {
          "internalType": "address",
          "name": "responsible",
          "type": "address"
        }
      ],
      "stateMutability": "view",
      "type": "function"
    },
    {
      "inputs": [
        {
          "internalType": "string",
          "name": "title",
          "type": "string"
        },
        {
          "internalType": "uint256",
          "name": "amount",
          "type": "uint256"
        }
      ],
      "name": "transfer",
      "outputs": [
        {
          "components": [
            {
              "internalType": "address",
              "name": "to",
              "type": "address"
            },
            {
              "internalType": "uint256",
              "name": "amount",
              "type": "uint256"
            },
            {
              "internalType": "string",
              "name": "topic",
              "type": "string"
            }
          ],
          "internalType": "struct CondominiumLib.TransferReceipt",
          "name": "",
          "type": "tuple"
        }
      ],
      "stateMutability": "nonpayable",
      "type": "function"
    },
    {
      "inputs": [
        {
          "internalType": "string",
          "name": "title",
          "type": "string"
        },
        {
          "internalType": "enum CondominiumLib.VoteOptions",
          "name": "option",
          "type": "uint8"
        }
      ],
      "name": "vote",
      "outputs": [],
      "stateMutability": "nonpayable",
      "type": "function"
    }
  ],
  "bytecode": "0x6080604052662386f26fc100006001553480156200001c57600080fd5b50600080546001600160a01b0319163317905560015b60028161ffff1611620000fd5760015b60058161ffff1611620000e75760015b60058161ffff1611620000d15760016002600083620000738660646200011a565b62000081886103e86200011a565b6200008d919062000143565b62000099919062000143565b61ffff1681526020810191909152604001600020805460ff191691151591909117905580620000c88162000168565b91505062000052565b5080620000de8162000168565b91505062000042565b5080620000f48162000168565b91505062000032565b506200018c565b634e487b7160e01b600052601160045260246000fd5b61ffff8181168382160280821691908281146200013b576200013b62000104565b505092915050565b61ffff81811683821601908082111562000161576200016162000104565b5092915050565b600061ffff80831681810362000182576200018262000104565b6001019392505050565b61460f806200019c6000396000f3fe6080604052600436106101b75760003560e01c80637b57ee49116100ec578063a7107f021161008a578063bc2f89f311610064578063bc2f89f3146105b4578063c12e8063146105e4578063d5009584146105f7578063eaf5d9dc1461061557600080fd5b8063a7107f0214610547578063abeb376114610574578063b15835461461059457600080fd5b806390ca27f3116100c657806390ca27f3146104b3578063967d59e4146104d357806396fa1def146105075780639e1bf9851461052757600080fd5b80637b57ee4914610439578063805265e5146104665780638fc5dad81461049357600080fd5b8063481c6a751161015957806368aca3351161013357806368aca335146103a6578063783bb57d146103d657806378b5749d146103ec5780637932938b1461040c57600080fd5b8063481c6a751461032157806356ea46d914610359578063597de9871461038657600080fd5b80631df8ba77116101955780631df8ba771461027e5780632f9f21fe1461029d57806343b8c6b1146102d2578063474502d8146102f457600080fd5b80631283d0a0146101bc57806312cb70c71461021c57806318d9adab14610249575b600080fd5b3480156101c857600080fd5b506101dc6101d7366004613c15565b610635565b604080516001600160a01b03909616865261ffff9094166020860152911515928401929092529015156060830152608082015260a0015b60405180910390f35b34801561022857600080fd5b5061023c610237366004613cd1565b61068e565b6040516102139190613d5c565b34801561025557600080fd5b50610269610264366004613c15565b61097f565b60405161021399989796959493929190613ddf565b34801561028a57600080fd5b506001545b604051908152602001610213565b3480156102a957600080fd5b5061028f6102b8366004613e5c565b805160209182012060009081526009909152604090205490565b3480156102de57600080fd5b506102f26102ed366004613eb5565b610afe565b005b34801561030057600080fd5b5061031461030f366004613e5c565b610e65565b6040516102139190613fec565b34801561032d57600080fd5b50600054610341906001600160a01b031681565b6040516001600160a01b039091168152602001610213565b34801561036557600080fd5b50610379610374366004614006565b610e76565b6040516102139190614028565b34801561039257600080fd5b506102f26103a136600461409d565b611169565b3480156103b257600080fd5b506103c66103c136600461409d565b6114ab565b6040519015158152602001610213565b3480156103e257600080fd5b5061028f60015481565b3480156103f857600080fd5b506103c6610407366004613e5c565b6114c6565b34801561041857600080fd5b5061042c610427366004614006565b6114dd565b60405161021391906140b8565b34801561044557600080fd5b50610459610454366004613e5c565b611634565b604051610213919061415a565b34801561047257600080fd5b50610486610481366004613e5c565b611bc3565b60405161021391906141b3565b34801561049f57600080fd5b506104596104ae366004613e5c565b611c9d565b3480156104bf57600080fd5b506102f26104ce36600461422d565b61232c565b3480156104df57600080fd5b506103c66104ee366004614291565b61ffff1660009081526002602052604090205460ff1690565b34801561051357600080fd5b506102f26105223660046142ac565b612882565b34801561053357600080fd5b50610459610542366004613e5c565b61295b565b34801561055357600080fd5b5061056761056236600461409d565b612ba1565b60405161021391906142dd565b34801561058057600080fd5b5061034161058f366004613c15565b612bd5565b3480156105a057600080fd5b506102f26105af366004614327565b612bff565b3480156105c057600080fd5b506103c66105cf366004614291565b60026020526000908152604090205460ff1681565b6102f26105f2366004614291565b612ecc565b34801561060357600080fd5b506000546001600160a01b0316610341565b34801561062157600080fd5b5061045961063036600461435a565b613050565b6004818154811061064557600080fd5b6000918252602090912060029091020180546001909101546001600160a01b038216925061ffff600160a01b8304169160ff600160b01b8204811692600160b81b909204169085565b604080516060808201835260008083526020830152918101919091526000546001600160a01b031632146107235760405162461bcd60e51b815260206004820152603160248201527f4f6e6c7920746865206d616e61676572206861732061636365737320746f20746044820152706869732066756e6374696f6e616c69747960781b60648201526084015b60405180910390fd5b814710156107735760405162461bcd60e51b815260206004820152601260248201527f496e73756666696369656e742066756e64730000000000000000000000000000604482015260640161071a565b600061077e846132e5565b905060028160400151600581111561079857610798613d9c565b1480156107ba575060018160c0015160038111156107b8576107b8613d9c565b145b61082c5760405162461bcd60e51b815260206004820152603460248201527f4f6e6c7920415050524f564544205350454e5420746f706963732063616e206260448201527f65207573656420666f72207472616e7366657273000000000000000000000000606482015260840161071a565b828160e0015110156108a65760405162461bcd60e51b815260206004820152603360248201527f54686520616d6f756e74206d757374206265206c657373206f7220657175616c60448201527f2074686520415050524f56454420746f70696300000000000000000000000000606482015260840161071a565b8061010001516001600160a01b03166108fc849081150290604051600060405180830381858888f193505050501580156108e4573d6000803e3d6000fd5b50835160208086019190912060008181526007909252604090912054600680546005919083908110610918576109186143d8565b60009182526020909120600260099092020101805460ff1916600183600581111561094557610945613d9c565b021790555060405180606001604052808461010001516001600160a01b031681526020018681526020018781525093505050505b92915050565b6006818154811061098f57600080fd5b90600052602060002090600902016000915090508060000180546109b2906143ee565b80601f01602080910402602001604051908101604052809291908181526020018280546109de906143ee565b8015610a2b5780601f10610a0057610100808354040283529160200191610a2b565b820191906000526020600020905b815481529060010190602001808311610a0e57829003601f168201915b505050505090806001018054610a40906143ee565b80601f0160208091040260200160405190810160405280929190818152602001828054610a6c906143ee565b8015610ab95780601f10610a8e57610100808354040283529160200191610ab9565b820191906000526020600020905b815481529060010190602001808311610a9c57829003601f168201915b505050600284015460038501546004860154600587015460068801546007890154600890990154979860ff95861698949750929550909316916001600160a01b031689565b6000546001600160a01b03163214610bee57610b19326114ab565b610b8b5760405162461bcd60e51b815260206004820152603f60248201527f4f6e6c7920746865207265736964656e7473206f72206d616e6167657220686160448201527f76652061636365737320746f20746869732066756e6374696f6e616c69747900606482015260840161071a565b6000610b963261359e565b90508060800151421115610bec5760405162461bcd60e51b815260206004820152601e60248201527f546865207265736964656e74206d7573742062652064656661756c7465720000604482015260640161071a565b505b610bf7856114c6565b15610c445760405162461bcd60e51b815260206004820152601960248201527f5468697320746f70696320616c72656164792065786973747300000000000000604482015260640161071a565b8115610cc7576002836003811115610c5e57610c5e613d9c565b1480610c7b57506001836003811115610c7957610c79613d9c565b145b610cc75760405162461bcd60e51b815260206004820152600e60248201527f57726f6e672063617465676f7279000000000000000000000000000000000000604482015260640161071a565b60408051610120810182528681526020810186905260009181018281526020014281526020016000815260200160008152602001856003811115610d0d57610d0d613d9c565b8152602081018590526040016001600160a01b038416610d2d5732610d2f565b835b6001600160a01b031690526006805488516020808b01919091206000908152600790915260408120829055600182018355919091528151919250829160099091027ff652222313e28459528d920b65115c16c04f3efc82aaedc97be59f3f377c0d3f01908190610d9f9082614478565b5060208201516001820190610db49082614478565b50604082015160028201805460ff19166001836005811115610dd857610dd8613d9c565b0217905550606082015181600301556080820151816004015560a0820151816005015560c08201518160060160006101000a81548160ff02191690836003811115610e2557610e25613d9c565b021790555060e0820151600782015561010090910151600890910180546001600160a01b0319166001600160a01b03909216919091179055505050505050565b610e6d613b6c565b610979826132e5565b60408051808201909152606081526000602082015260008267ffffffffffffffff811115610ea657610ea6613c2e565b604051908082528060200260200182016040528015610edf57816020015b610ecc613b6c565b815260200190600190039081610ec45790505b509050600083610ef060018761454e565b610efa9190614561565b90506000815b610f0a8684614578565b81108015610f19575060065481105b1561114a5760068181548110610f3157610f316143d8565b906000526020600020906009020160405180610120016040529081600082018054610f5b906143ee565b80601f0160208091040260200160405190810160405280929190818152602001828054610f87906143ee565b8015610fd45780601f10610fa957610100808354040283529160200191610fd4565b820191906000526020600020905b815481529060010190602001808311610fb757829003601f168201915b50505050508152602001600182018054610fed906143ee565b80601f0160208091040260200160405190810160405280929190818152602001828054611019906143ee565b80156110665780601f1061103b57610100808354040283529160200191611066565b820191906000526020600020905b81548152906001019060200180831161104957829003601f168201915b5050509183525050600282015460209091019060ff16600581111561108d5761108d613d9c565b600581111561109e5761109e613d9c565b815260038281015460208301526004830154604083015260058301546060830152600683015460809092019160ff16908111156110dd576110dd613d9c565b60038111156110ee576110ee613d9c565b8152600782015460208201526008909101546001600160a01b0316604090910152848361111a8161458b565b94508151811061112c5761112c6143d8565b602002602001018190525080806111429061458b565b915050610f00565b5050604080518082019091529182525060065460208201529392505050565b6000546001600160a01b031632146111dd5760405162461bcd60e51b815260206004820152603160248201527f4f6e6c7920746865206d616e61676572206861732061636365737320746f20746044820152706869732066756e6374696f6e616c69747960781b606482015260840161071a565b6111e6816136cf565b156112335760405162461bcd60e51b815260206004820152601d60248201527f4120636f756e73656c6f722063616e6e6f742062652072656d6f766564000000604482015260640161071a565b6001600160a01b038116600090815260056020526040812054908190036112d857816001600160a01b031660048281548110611271576112716143d8565b60009182526020909120600290910201546001600160a01b0316146112d85760405162461bcd60e51b815260206004820152601c60248201527f546865207265736964656e7420646f6573206e6f742065786973747300000000604482015260640161071a565b6004546112e79060019061454e565b81146114395760048054600091906113019060019061454e565b81548110611311576113116143d8565b60009182526020918290206040805160a081018252600290930290910180546001600160a01b038116845261ffff600160a01b8204169484019490945260ff600160b01b85048116151592840192909252600160b81b9093041615156060820152600190910154608082015260048054919250829184908110611396576113966143d8565b60009182526020808320845160029093020180548583015160408088015160608901511515600160b81b0260ff60b81b19911515600160b01b029190911661ffff60b01b1961ffff909416600160a01b0275ffffffffffffffffffffffffffffffffffffffffffff199095166001600160a01b03988916179490941792909216929092171782556080909501516001909101559351168152600590925290208190555b600480548061144a5761144a6145a4565b6000828152602080822060026000199094019384020180547fffffffffffffffff000000000000000000000000000000000000000000000000168155600101829055919092556001600160a01b039390931681526005909252506040812055565b6000806114b78361359e565b6020015161ffff161192915050565b6000806114d2836132e5565b606001511192915050565b60408051808201909152606081526000602082015260008267ffffffffffffffff81111561150d5761150d613c2e565b60405190808252806020026020018201604052801561156657816020015b6040805160a08101825260008082526020808301829052928201819052606082018190526080820152825260001990920191018161152b5790505b50905060008361157760018761454e565b6115819190614561565b90506000815b6115918684614578565b811080156115a0575060045481105b15611615576115da600482815481106115bb576115bb6143d8565b60009182526020909120600290910201546001600160a01b031661359e565b84836115e58161458b565b9450815181106115f7576115f76143d8565b6020026020010181905250808061160d9061458b565b915050611587565b5050604080518082019091529182525060045460208201529392505050565b61165e60408051608081018252600080825260606020830152909182019081526020016000905290565b6000546001600160a01b031632146116d25760405162461bcd60e51b815260206004820152603160248201527f4f6e6c7920746865206d616e61676572206861732061636365737320746f20746044820152706869732066756e6374696f6e616c69747960781b606482015260840161071a565b60006116dd836132e5565b905060008160600151116117335760405162461bcd60e51b815260206004820152601a60248201527f5468697320746f70696320646f6573206e6f7420657869737473000000000000604482015260640161071a565b60008160400151600581111561174b5761174b613d9c565b146117985760405162461bcd60e51b815260206004820152601f60248201527f4f6e6c792049444c4520746f706963732063616e2062652072656d6f76656400604482015260640161071a565b8251602080850191909120600081815260079092526040909120546006546117c29060019061454e565b8114611ade5760068054600091906117dc9060019061454e565b815481106117ec576117ec6143d8565b906000526020600020906009020160405180610120016040529081600082018054611816906143ee565b80601f0160208091040260200160405190810160405280929190818152602001828054611842906143ee565b801561188f5780601f106118645761010080835404028352916020019161188f565b820191906000526020600020905b81548152906001019060200180831161187257829003601f168201915b505050505081526020016001820180546118a8906143ee565b80601f01602080910402602001604051908101604052809291908181526020018280546118d4906143ee565b80156119215780601f106118f657610100808354040283529160200191611921565b820191906000526020600020905b81548152906001019060200180831161190457829003601f168201915b5050509183525050600282015460209091019060ff16600581111561194857611948613d9c565b600581111561195957611959613d9c565b815260038281015460208301526004830154604083015260058301546060830152600683015460809092019160ff169081111561199857611998613d9c565b60038111156119a9576119a9613d9c565b8152600782015460208201526008909101546001600160a01b0316604090910152600680549192508291849081106119e3576119e36143d8565b600091825260209091208251600990920201908190611a029082614478565b5060208201516001820190611a179082614478565b50604082015160028201805460ff19166001836005811115611a3b57611a3b613d9c565b0217905550606082015181600301556080820151816004015560a0820151816005015560c08201518160060160006101000a81548160ff02191690836003811115611a8857611a88613d9c565b021790555060e082015160078281019190915561010090920151600890910180546001600160a01b0319166001600160a01b03909216919091179055905180516020918201206000908152919052604090208190555b6006805480611aef57611aef6145a4565b60008281526020812060001990920191600983020190611b0f8282613bc7565b611b1d600183016000613bc7565b5060028101805460ff199081169091556000600383018190556004808401829055600584018290556006840180549093169092556007808401829055600890930180546001600160a01b0319169055929093558482526020908152604080832092909255815160808101835285815286519181019190915291908201905b81526020018460c001516003811115611bb657611bb6613d9c565b905293505050505b919050565b60606009600083805190602001208152602001908152602001600020805480602002602001604051908101604052809291908181526020016000905b82821015611c92576000848152602090819020604080516080810182526002860290920180546001600160a01b0381168452600160a01b810461ffff1694840194909452919290830190600160b01b900460ff166003811115611c6457611c64613d9c565b6003811115611c7557611c75613d9c565b815260200160018201548152505081526020019060010190611bff565b505050509050919050565b611cc760408051608081018252600080825260606020830152909182019081526020016000905290565b6000546001600160a01b03163214611d3b5760405162461bcd60e51b815260206004820152603160248201527f4f6e6c7920746865206d616e61676572206861732061636365737320746f20746044820152706869732066756e6374696f6e616c69747960781b606482015260840161071a565b6000611d46836132e5565b90506000816060015111611d9c5760405162461bcd60e51b815260206004820152601a60248201527f5468697320746f70696320646f6573206e6f7420657869737473000000000000604482015260640161071a565b600181604001516005811115611db457611db4613d9c565b14611e015760405162461bcd60e51b815260206004820181905260248201527f4f6e6c7920564f54494e4720746f706963732063616e20626520636c6f736564604482015260640161071a565b600560018260c001516003811115611e1b57611e1b613d9c565b03611e285750600a611e6e565b60038260c001516003811115611e4057611e40613d9c565b03611e4d5750600f611e6e565b60028260c001516003811115611e6557611e65613d9c565b03611e6e575060145b8060ff16611e9085805160209182012060009081526009909152604090205490565b1015611f2a5760405162461bcd60e51b815260206004820152604560248201527f596f752063616e206e6f742066696e697368206120766f74696e67207769746860448201527f6f757420726561636820746865206d696e696d756d20766f746573206e65636560648201527f7373617279000000000000000000000000000000000000000000000000000000608482015260a40161071a565b60008480519060200120905060008060008060096000868152602001908152602001600020805480602002602001604051908101604052809291908181526020016000905b82821015612002576000848152602090819020604080516080810182526002860290920180546001600160a01b0381168452600160a01b810461ffff1694840194909452919290830190600160b01b900460ff166003811115611fd457611fd4613d9c565b6003811115611fe557611fe5613d9c565b815260200160018201548152505081526020019060010190611f6f565b50505050905060005b81518160ff1610156120cd576001828260ff168151811061202e5761202e6143d8565b602002602001015160400151600381111561204b5761204b613d9c565b03612062578461205a816145ba565b9550506120bb565b6002828260ff1681518110612079576120796143d8565b602002602001015160400151600381111561209657612096613d9c565b036120ad57836120a5816145ba565b9450506120bb565b826120b7816145ba565b9350505b806120c5816145ba565b91505061200b565b5060008360ff168560ff16116120e45760036120e7565b60025b60008781526007602052604090205460068054929350909183919083908110612112576121126143d8565b60009182526020909120600260099092020101805460ff1916600183600581111561213f5761213f613d9c565b02179055504260068281548110612158576121586143d8565b6000918252602090912060056009909202010155600282600581111561218057612180613d9c565b036122d75760028960c00151600381111561219d5761219d613d9c565b036121af5760e08901516001556122d7565b60038960c0015160038111156121c7576121c7613d9c565b036122d7576000546121e1906001600160a01b03166114ab565b1561223f57600080546001600160a01b0316815260056020526040812054600480549091908110612214576122146143d8565b600091825260209091206002909102018054911515600160b81b0260ff60b81b199092169190911790555b61224d8961010001516114ab565b156122b1576101008901516001600160a01b031660009081526005602052604090205460048054600192908110612286576122866143d8565b600091825260209091206002909102018054911515600160b81b0260ff60b81b199092169190911790555b610100890151600080546001600160a01b0319166001600160a01b039092169190911790555b604080516080810182528881528a51602082015290810183600581111561230057612300613d9c565b81526020018a60c00151600381111561231b5761231b613d9c565b90529b9a5050505050505050505050565b6000546001600160a01b0316321461241c57612347326114ab565b6123b95760405162461bcd60e51b815260206004820152603f60248201527f4f6e6c7920746865207265736964656e7473206f72206d616e6167657220686160448201527f76652061636365737320746f20746869732066756e6374696f6e616c69747900606482015260840161071a565b60006123c43261359e565b9050806080015142111561241a5760405162461bcd60e51b815260206004820152601e60248201527f546865207265736964656e74206d7573742062652064656661756c7465720000604482015260640161071a565b505b600081600381111561243057612430613d9c565b0361247d5760405162461bcd60e51b815260206004820152601a60248201527f546865206f7074696f6e2063616e6e6f7420626520454d505459000000000000604482015260640161071a565b6000612488836132e5565b905060008160600151116124de5760405162461bcd60e51b815260206004820152601a60248201527f5468697320746f70696320646f6573206e6f7420657869737473000000000000604482015260640161071a565b6001816040015160058111156124f6576124f6613d9c565b146125435760405162461bcd60e51b815260206004820152601f60248201527f4f6e6c7920564f54494e4720746f706963732063616e20626520766f74656400604482015260640161071a565b32600090815260056020526040902054801515806125965750326001600160a01b0316600460008154811061257a5761257a6143d8565b60009182526020909120600290910201546001600160a01b0316145b6125e25760405162461bcd60e51b815260206004820152601260248201527f5265736964656e74206e6f7420666f756e640000000000000000000000000000604482015260640161071a565b6000600482815481106125f7576125f76143d8565b60009182526020808320600292909202909101548751888301208084526009835260408085208054825181870281018701909352808352600160a01b90940461ffff169650919493909290849084015b828210156126da576000848152602090819020604080516080810182526002860290920180546001600160a01b0381168452600160a01b810461ffff1694840194909452919290830190600160b01b900460ff1660038111156126ac576126ac613d9c565b60038111156126bd576126bd613d9c565b815260200160018201548152505081526020019060010190612647565b50505050905060005b81518160ff16101561279e578361ffff16828260ff1681518110612709576127096143d8565b60200260200101516020015161ffff160361278c5760405162461bcd60e51b815260206004820152602160248201527f41207265736964656e63652073686f756c6420766f7465206f6e6c79206f6e6360448201527f6500000000000000000000000000000000000000000000000000000000000000606482015260840161071a565b80612796816145ba565b9150506126e3565b506040805160808101825232815261ffff8516602082015260009181018860038111156127cd576127cd613d9c565b8152426020918201526000858152600982526040808220805460018101825590835291839020845160029093020180549385015161ffff16600160a01b0275ffffffffffffffffffffffffffffffffffffffffffff199094166001600160a01b0390931692909217929092178082559183015192935083929091829060ff60b01b1916600160b01b83600381111561286757612867613d9c565b02179055506060820151816001015550505050505050505050565b6000546001600160a01b031632146128f65760405162461bcd60e51b815260206004820152603160248201527f4f6e6c7920746865206d616e61676572206861732061636365737320746f20746044820152706869732066756e6374696f6e616c69747960781b606482015260840161071a565b816001600160a01b03811661293f5760405162461bcd60e51b815260206004820152600f60248201526e496e76616c6964206164647265737360881b604482015260640161071a565b816129525761294d8361372e565b505050565b61294d836139be565b61298560408051608081018252600080825260606020830152909182019081526020016000905290565b6000546001600160a01b031632146129f95760405162461bcd60e51b815260206004820152603160248201527f4f6e6c7920746865206d616e61676572206861732061636365737320746f20746044820152706869732066756e6374696f6e616c69747960781b606482015260840161071a565b6000612a04836132e5565b90506000816060015111612a5a5760405162461bcd60e51b815260206004820152601a60248201527f5468697320746f70696320646f6573206e6f7420657869737473000000000000604482015260640161071a565b600081604001516005811115612a7257612a72613d9c565b14612ae55760405162461bcd60e51b815260206004820152602760248201527f4f6e6c792049444c4520746f706963732063616e206265206f70656e20666f7260448201527f20766f74696e6700000000000000000000000000000000000000000000000000606482015260840161071a565b825160208085019190912060008181526007909252604090912054600680546001919083908110612b1857612b186143d8565b60009182526020909120600260099092020101805460ff19166001836005811115612b4557612b45613d9c565b02179055504260068281548110612b5e57612b5e6143d8565b90600052602060002090600902016004018190555060405180608001604052808381526020018460000151815260200160016005811115611b9b57611b9b613d9c565b6040805160a0810182526000808252602082018190529181018290526060810182905260808101919091526109798261359e565b60038181548110612be557600080fd5b6000918252602090912001546001600160a01b0316905081565b6000546001600160a01b0316321480612c1c5750612c1c326136cf565b612c90576040805162461bcd60e51b81526020600482015260248101919091527f4f6e6c792074686520636f756e73656c6f7273206f72206d616e61676572206860448201527f6176652061636365737320746f20746869732066756e6374696f6e616c697479606482015260840161071a565b816001600160a01b038116612cd95760405162461bcd60e51b815260206004820152600f60248201526e496e76616c6964206164647265737360881b604482015260640161071a565b61ffff821660009081526002602052604090205460ff16612d3c5760405162461bcd60e51b815260206004820152601e60248201527f54686973207265736964656e636520646f6573206e6f74206578697374730000604482015260640161071a565b612d45836114ab565b15612d925760405162461bcd60e51b815260206004820152601c60248201527f54686973207265736964656e7420616c72656164792065786973747300000000604482015260640161071a565b6040805160a0810182526001600160a01b0380861680835261ffff808716602085019081526000958501868152865485169093146060860190815260808601878152600480546001818101835599829052975160029098027f8a35acfbc15ff81a39ae7d344fd709f28e8600b4aa8c65c6b64bfe7fe36bd19b810180549551975194511515600160b81b0260ff60b81b19951515600160b01b029590951661ffff60b01b1998909716600160a01b0275ffffffffffffffffffffffffffffffffffffffffffff19909616999098169890981793909317949094169290921791909117909255517f8a35acfbc15ff81a39ae7d344fd709f28e8600b4aa8c65c6b64bfe7fe36bd19c9092019190915554612eab919061454e565b6001600160a01b039093166000908152600560205260409020929092555050565b61ffff811660009081526002602052604090205460ff16612f2f5760405162461bcd60e51b815260206004820152601d60248201527f546865207265736964656e636520646f6573206e6f7420657869737473000000604482015260640161071a565b600154341015612f815760405162461bcd60e51b815260206004820152600b60248201527f57726f6e672076616c7565000000000000000000000000000000000000000000604482015260640161071a565b61ffff81166000908152600860205260409020544211612fe35760405162461bcd60e51b815260206004820152601d60248201527f596f752063616e206e6f74207061792074776963652061206d6f6e7468000000604482015260640161071a565b61ffff811660009081526008602052604081205490036130215761300a62278d0042614578565b61ffff821660009081526008602052604090205550565b61ffff81166000908152600860205260408120805462278d009290613047908490614578565b90915550505b50565b61307a60408051608081018252600080825260606020830152909182019081526020016000905290565b6000546001600160a01b031632146130ee5760405162461bcd60e51b815260206004820152603160248201527f4f6e6c7920746865206d616e61676572206861732061636365737320746f20746044820152706869732066756e6374696f6e616c69747960781b606482015260840161071a565b60006130f9866132e5565b9050600081606001511161314f5760405162461bcd60e51b815260206004820152601a60248201527f5468697320746f70696320646f6573206e6f7420657869737473000000000000604482015260640161071a565b60008160400151600581111561316757613167613d9c565b146131b45760405162461bcd60e51b815260206004820152601e60248201527f4f6e6c792049444c4520746f706963732063616e206265206564697465640000604482015260640161071a565b8551602080880191909120600081815260079092526040909120548651156132095786600682815481106131ea576131ea6143d8565b906000526020600020906009020160010190816132079190614478565b505b856006828154811061321d5761321d6143d8565b9060005260206000209060090201600701819055506001600160a01b0385161561328b578460068281548110613255576132556143d8565b906000526020600020906009020160080160006101000a8154816001600160a01b0302191690836001600160a01b031602179055505b604051806080016040528083815260200184600001518152602001846040015160058111156132bc576132bc613d9c565b81526020018460c0015160038111156132d7576132d7613d9c565b905298975050505050505050565b6132ed613b6c565b81516020808401919091206000818152600790925260409091205460065481101561352c57600060068281548110613327576133276143d8565b906000526020600020906009020160405180610120016040529081600082018054613351906143ee565b80601f016020809104026020016040519081016040528092919081815260200182805461337d906143ee565b80156133ca5780601f1061339f576101008083540402835291602001916133ca565b820191906000526020600020905b8154815290600101906020018083116133ad57829003601f168201915b505050505081526020016001820180546133e3906143ee565b80601f016020809104026020016040519081016040528092919081815260200182805461340f906143ee565b801561345c5780601f106134315761010080835404028352916020019161345c565b820191906000526020600020905b81548152906001019060200180831161343f57829003601f168201915b5050509183525050600282015460209091019060ff16600581111561348357613483613d9c565b600581111561349457613494613d9c565b815260038281015460208301526004830154604083015260058301546060830152600683015460809092019160ff16908111156134d3576134d3613d9c565b60038111156134e4576134e4613d9c565b8152600782015460208201526008909101546001600160a01b031660409091015290508115158061351d57508051805160209091012083145b1561352a57949350505050565b505b604080516101408101825260006101208201818152825282516020818101855291815290820152908101600481526020016000815260200160008152602001600081526020016000600381111561358557613585613d9c565b8152600060208201819052604090910152949350505050565b6040805160a0810182526000808252602080830182905282840182905260608301829052608083018290526001600160a01b038516825260059052919091205460045481101561369d576000600482815481106135fd576135fd6143d8565b60009182526020918290206040805160a081018252600290930290910180546001600160a01b0380821680865261ffff600160a01b8404169686019690965260ff600160b01b83048116151594860194909452600160b81b909104909216151560608401526001015460808301529092508516900361369b5760208082015161ffff1660009081526008909152604090205460808201529392505050565b505b50506040805160a081018252600080825260208201819052918101829052606081018290526080810191909152919050565b6000805b60035481101561372557826001600160a01b0316600382815481106136fa576136fa6143d8565b6000918252602090912001546001600160a01b03160361371d5750600192915050565b6001016136d3565b50600092915050565b6000546001600160a01b031632146137a25760405162461bcd60e51b815260206004820152603160248201527f4f6e6c7920746865206d616e61676572206861732061636365737320746f20746044820152706869732066756e6374696f6e616c69747960781b606482015260840161071a565b806001600160a01b0381166137eb5760405162461bcd60e51b815260206004820152600f60248201526e496e76616c6964206164647265737360881b604482015260640161071a565b620f424060005b60035481101561384357836001600160a01b031660038281548110613819576138196143d8565b6000918252602090912001546001600160a01b03160361383b57809150613843565b6001016137f2565b5080620f4240036138965760405162461bcd60e51b815260206004820152601360248201527f436f756e73656c6f72206e6f7420666f756e6400000000000000000000000000604482015260640161071a565b6003546138a59060019061454e565b811461392e5760038054600091906138bf9060019061454e565b815481106138cf576138cf6143d8565b600091825260209091200154600380546001600160a01b0390921692508291849081106138fe576138fe6143d8565b9060005260206000200160006101000a8154816001600160a01b0302191690836001600160a01b03160217905550505b600380548061393f5761393f6145a4565b60008281526020808220830160001990810180546001600160a01b03191690559092019092556001600160a01b038516825260059052604081205460048054909190811061398f5761398f6143d8565b600091825260209091206002909102018054911515600160b01b0260ff60b01b19909216919091179055505050565b6000546001600160a01b03163214613a325760405162461bcd60e51b815260206004820152603160248201527f4f6e6c7920746865206d616e61676572206861732061636365737320746f20746044820152706869732066756e6374696f6e616c69747960781b606482015260840161071a565b806001600160a01b038116613a7b5760405162461bcd60e51b815260206004820152600f60248201526e496e76616c6964206164647265737360881b604482015260640161071a565b613a84826114ab565b613ad05760405162461bcd60e51b815260206004820181905260248201527f54686520636f756e73656c6f72206d7573742062652061207265736964656e74604482015260640161071a565b6003805460018082019092557fc2575a0e9e593c00f959f8c92f12db2869c3395a3b0502d05e2516446f71f85b0180546001600160a01b0319166001600160a01b038516908117909155600090815260056020526040902054600480549091908110613b3e57613b3e6143d8565b600091825260209091206002909102018054911515600160b01b0260ff60b01b199092169190911790555050565b6040805161012081018252606080825260208201529081016000815260200160008152602001600081526020016000815260200160006003811115613bb357613bb3613d9c565b815260006020820181905260409091015290565b508054613bd3906143ee565b6000825580601f10613be3575050565b601f01602090049060005260206000209081019061304d91905b80821115613c115760008155600101613bfd565b5090565b600060208284031215613c2757600080fd5b5035919050565b634e487b7160e01b600052604160045260246000fd5b600082601f830112613c5557600080fd5b813567ffffffffffffffff80821115613c7057613c70613c2e565b604051601f8301601f19908116603f01168101908282118183101715613c9857613c98613c2e565b81604052838152866020858801011115613cb157600080fd5b836020870160208301376000602085830101528094505050505092915050565b60008060408385031215613ce457600080fd5b823567ffffffffffffffff811115613cfb57600080fd5b613d0785828601613c44565b95602094909401359450505050565b6000815180845260005b81811015613d3c57602081850181015186830182015201613d20565b506000602082860101526020601f19601f83011685010191505092915050565b602081526001600160a01b0382511660208201526020820151604082015260006040830151606080840152613d946080840182613d16565b949350505050565b634e487b7160e01b600052602160045260246000fd5b60068110613dc257613dc2613d9c565b9052565b6004811061304d5761304d613d9c565b613dc281613dc6565b6000610120808352613df38184018d613d16565b90508281036020840152613e07818c613d16565b915050613e17604083018a613db2565b8760608301528660808301528560a0830152613e3285613dc6565b8460c08301528360e08301526001600160a01b0383166101008301529a9950505050505050505050565b600060208284031215613e6e57600080fd5b813567ffffffffffffffff811115613e8557600080fd5b613d9484828501613c44565b6004811061304d57600080fd5b80356001600160a01b0381168114611bbe57600080fd5b600080600080600060a08688031215613ecd57600080fd5b853567ffffffffffffffff80821115613ee557600080fd5b613ef189838a01613c44565b96506020880135915080821115613f0757600080fd5b50613f1488828901613c44565b9450506040860135613f2581613e91565b925060608601359150613f3a60808701613e9e565b90509295509295909350565b60006101208251818552613f5c82860182613d16565b91505060208301518482036020860152613f768282613d16565b9150506040830151613f8b6040860182613db2565b50606083015160608501526080830151608085015260a083015160a085015260c0830151613fbc60c0860182613dd6565b5060e083015160e085015261010080840151613fe2828701826001600160a01b03169052565b5090949350505050565b602081526000613fff6020830184613f46565b9392505050565b6000806040838503121561401957600080fd5b50508035926020909101359150565b6000602080835260608301845160408386015281815180845260808701915060808160051b8801019350848301925060005b8181101561408857607f19888603018352614076858551613f46565b9450928501929185019160010161405a565b50505050930151604092909201919091525090565b6000602082840312156140af57600080fd5b613fff82613e9e565b6020808252825160408383015280516060840181905260009291820190839060808601905b808310156141425761412c8285516001600160a01b03815116825261ffff6020820151166020830152604081015115156040830152606081015115156060830152608081015160808301525050565b60a08201915084840193506001830192506140dd565b50602087015160408701528094505050505092915050565b6020815281516020820152600060208301516080604084015261418060a0840182613d16565b905060408401516141946060850182613db2565b5060608401516141a381613dc6565b6080939093019290925250919050565b602080825282518282018190526000919060409081850190868401855b828110156142205781516001600160a01b03815116855261ffff8782015116878601528581015161420081613dc6565b8587015260609081015190850152608090930192908501906001016141d0565b5091979650505050505050565b6000806040838503121561424057600080fd5b823567ffffffffffffffff81111561425757600080fd5b61426385828601613c44565b925050602083013561427481613e91565b809150509250929050565b803561ffff81168114611bbe57600080fd5b6000602082840312156142a357600080fd5b613fff8261427f565b600080604083850312156142bf57600080fd5b6142c883613e9e565b91506020830135801515811461427457600080fd5b60a0810161097982846001600160a01b03815116825261ffff6020820151166020830152604081015115156040830152606081015115156060830152608081015160808301525050565b6000806040838503121561433a57600080fd5b61434383613e9e565b91506143516020840161427f565b90509250929050565b6000806000806080858703121561437057600080fd5b843567ffffffffffffffff8082111561438857600080fd5b61439488838901613c44565b955060208701359150808211156143aa57600080fd5b506143b787828801613c44565b935050604085013591506143cd60608601613e9e565b905092959194509250565b634e487b7160e01b600052603260045260246000fd5b600181811c9082168061440257607f821691505b60208210810361442257634e487b7160e01b600052602260045260246000fd5b50919050565b601f82111561294d576000816000526020600020601f850160051c810160208610156144515750805b601f850160051c820191505b818110156144705782815560010161445d565b505050505050565b815167ffffffffffffffff81111561449257614492613c2e565b6144a6816144a084546143ee565b84614428565b602080601f8311600181146144db57600084156144c35750858301515b600019600386901b1c1916600185901b178555614470565b600085815260208120601f198616915b8281101561450a578886015182559484019460019091019084016144eb565b50858210156145285787850151600019600388901b60f8161c191681555b5050505050600190811b01905550565b634e487b7160e01b600052601160045260246000fd5b8181038181111561097957610979614538565b808202811582820484141761097957610979614538565b8082018082111561097957610979614538565b60006001820161459d5761459d614538565b5060010190565b634e487b7160e01b600052603160045260246000fd5b600060ff821660ff81036145d0576145d0614538565b6001019291505056fea2646970667358221220ef29ffde0b5f8f6aa43d9cf2e44063eb545f32f530fb174950801400f51ebca664736f6c63430008180033",
  "linkReferences": {},
  "deployedLinkReferences": {}
}