{
  "_format": "hh-sol-artifact-1",
  "contractName": "Condominium",
  "sourceName": "contracts/Condominium.sol",
  "abi": [
    {
      "inputs": [],
      "stateMutability": "nonpayable",
      "type": "constructor"
    },
    {
      "inputs": [
        {
          "internalType": "address",
          "name": "resident",
          "type": "address"
        },
        {
          "internalType": "uint16",
          "name": "residenceNumber",
          "type": "uint16"
        }
      ],
      "name": "addResident",
      "outputs": [],
      "stateMutability": "nonpayable",
      "type": "function"
    },
    {
      "inputs": [
        {
          "internalType": "string",
          "name": "title",
          "type": "string"
        },
        {
          "internalType": "string",
          "name": "description",
          "type": "string"
        },
        {
          "internalType": "enum CondominiumLib.Category",
          "name": "category",
          "type": "uint8"
        },
        {
          "internalType": "uint256",
          "name": "amount",
          "type": "uint256"
        },
        {
          "internalType": "address",
          "name": "responsible",
          "type": "address"
        }
      ],
      "name": "addTopic",
      "outputs": [],
      "stateMutability": "nonpayable",
      "type": "function"
    },
    {
      "inputs": [
        {
          "internalType": "string",
          "name": "title",
          "type": "string"
        }
      ],
      "name": "closeVoting",
      "outputs": [],
      "stateMutability": "nonpayable",
      "type": "function"
    },
    {
      "inputs": [
        {
          "internalType": "address",
          "name": "",
          "type": "address"
        }
      ],
      "name": "counselors",
      "outputs": [
        {
          "internalType": "bool",
          "name": "",
          "type": "bool"
        }
      ],
      "stateMutability": "view",
      "type": "function"
    },
    {
      "inputs": [
        {
          "internalType": "string",
          "name": "topicToEdit",
          "type": "string"
        },
        {
          "internalType": "string",
          "name": "description",
          "type": "string"
        },
        {
          "internalType": "uint256",
          "name": "amount",
          "type": "uint256"
        },
        {
          "internalType": "address",
          "name": "responsible",
          "type": "address"
        }
      ],
      "name": "editTopic",
      "outputs": [],
      "stateMutability": "nonpayable",
      "type": "function"
    },
    {
      "inputs": [
        {
          "internalType": "string",
          "name": "title",
          "type": "string"
        }
      ],
      "name": "getTopic",
      "outputs": [
        {
          "components": [
            {
              "internalType": "string",
              "name": "title",
              "type": "string"
            },
            {
              "internalType": "string",
              "name": "description",
              "type": "string"
            },
            {
              "internalType": "enum CondominiumLib.Status",
              "name": "status",
              "type": "uint8"
            },
            {
              "internalType": "uint256",
              "name": "createdDate",
              "type": "uint256"
            },
            {
              "internalType": "uint256",
              "name": "startDate",
              "type": "uint256"
            },
            {
              "internalType": "uint256",
              "name": "endDate",
              "type": "uint256"
            },
            {
              "internalType": "enum CondominiumLib.Category",
              "name": "category",
              "type": "uint8"
            },
            {
              "internalType": "uint256",
              "name": "amount",
              "type": "uint256"
            },
            {
              "internalType": "address",
              "name": "responsible",
              "type": "address"
            }
          ],
          "internalType": "struct CondominiumLib.Topic",
          "name": "",
          "type": "tuple"
        }
      ],
      "stateMutability": "view",
      "type": "function"
    },
    {
      "inputs": [
        {
          "internalType": "address",
          "name": "resident",
          "type": "address"
        }
      ],
      "name": "isResident",
      "outputs": [
        {
          "internalType": "bool",
          "name": "",
          "type": "bool"
        }
      ],
      "stateMutability": "view",
      "type": "function"
    },
    {
      "inputs": [],
      "name": "manager",
      "outputs": [
        {
          "internalType": "address",
          "name": "",
          "type": "address"
        }
      ],
      "stateMutability": "view",
      "type": "function"
    },
    {
      "inputs": [],
      "name": "monthlyQuota",
      "outputs": [
        {
          "internalType": "uint256",
          "name": "",
          "type": "uint256"
        }
      ],
      "stateMutability": "view",
      "type": "function"
    },
    {
      "inputs": [
        {
          "internalType": "string",
          "name": "title",
          "type": "string"
        }
      ],
      "name": "numberOfVotes",
      "outputs": [
        {
          "internalType": "uint256",
          "name": "",
          "type": "uint256"
        }
      ],
      "stateMutability": "view",
      "type": "function"
    },
    {
      "inputs": [
        {
          "internalType": "string",
          "name": "title",
          "type": "string"
        }
      ],
      "name": "openVoting",
      "outputs": [],
      "stateMutability": "nonpayable",
      "type": "function"
    },
    {
      "inputs": [
        {
          "internalType": "uint16",
          "name": "residence",
          "type": "uint16"
        }
      ],
      "name": "payQuota",
      "outputs": [],
      "stateMutability": "payable",
      "type": "function"
    },
    {
      "inputs": [
        {
          "internalType": "uint16",
          "name": "",
          "type": "uint16"
        }
      ],
      "name": "payments",
      "outputs": [
        {
          "internalType": "uint256",
          "name": "",
          "type": "uint256"
        }
      ],
      "stateMutability": "view",
      "type": "function"
    },
    {
      "inputs": [
        {
          "internalType": "address",
          "name": "resident",
          "type": "address"
        }
      ],
      "name": "removeResident",
      "outputs": [],
      "stateMutability": "nonpayable",
      "type": "function"
    },
    {
      "inputs": [
        {
          "internalType": "string",
          "name": "title",
          "type": "string"
        }
      ],
      "name": "removeTopic",
      "outputs": [],
      "stateMutability": "nonpayable",
      "type": "function"
    },
    {
      "inputs": [
        {
          "internalType": "uint16",
          "name": "residence",
          "type": "uint16"
        }
      ],
      "name": "residenceExists",
      "outputs": [
        {
          "internalType": "bool",
          "name": "",
          "type": "bool"
        }
      ],
      "stateMutability": "view",
      "type": "function"
    },
    {
      "inputs": [
        {
          "internalType": "uint16",
          "name": "",
          "type": "uint16"
        }
      ],
      "name": "residences",
      "outputs": [
        {
          "internalType": "bool",
          "name": "",
          "type": "bool"
        }
      ],
      "stateMutability": "view",
      "type": "function"
    },
    {
      "inputs": [
        {
          "internalType": "address",
          "name": "",
          "type": "address"
        }
      ],
      "name": "residents",
      "outputs": [
        {
          "internalType": "uint16",
          "name": "",
          "type": "uint16"
        }
      ],
      "stateMutability": "view",
      "type": "function"
    },
    {
      "inputs": [
        {
          "internalType": "address",
          "name": "resident",
          "type": "address"
        },
        {
          "internalType": "bool",
          "name": "isEntering",
          "type": "bool"
        }
      ],
      "name": "setCounselor",
      "outputs": [],
      "stateMutability": "nonpayable",
      "type": "function"
    },
    {
      "inputs": [
        {
          "internalType": "string",
          "name": "title",
          "type": "string"
        }
      ],
      "name": "topicExists",
      "outputs": [
        {
          "internalType": "bool",
          "name": "",
          "type": "bool"
        }
      ],
      "stateMutability": "view",
      "type": "function"
    },
    {
      "inputs": [
        {
          "internalType": "bytes32",
          "name": "",
          "type": "bytes32"
        }
      ],
      "name": "topics",
      "outputs": [
        {
          "internalType": "string",
          "name": "title",
          "type": "string"
        },
        {
          "internalType": "string",
          "name": "description",
          "type": "string"
        },
        {
          "internalType": "enum CondominiumLib.Status",
          "name": "status",
          "type": "uint8"
        },
        {
          "internalType": "uint256",
          "name": "createdDate",
          "type": "uint256"
        },
        {
          "internalType": "uint256",
          "name": "startDate",
          "type": "uint256"
        },
        {
          "internalType": "uint256",
          "name": "endDate",
          "type": "uint256"
        },
        {
          "internalType": "enum CondominiumLib.Category",
          "name": "category",
          "type": "uint8"
        },
        {
          "internalType": "uint256",
          "name": "amount",
          "type": "uint256"
        },
        {
          "internalType": "address",
          "name": "responsible",
          "type": "address"
        }
      ],
      "stateMutability": "view",
      "type": "function"
    },
    {
      "inputs": [
        {
          "internalType": "string",
          "name": "title",
          "type": "string"
        },
        {
          "internalType": "enum CondominiumLib.VoteOptions",
          "name": "option",
          "type": "uint8"
        }
      ],
      "name": "vote",
      "outputs": [],
      "stateMutability": "nonpayable",
      "type": "function"
    },
    {
      "inputs": [
        {
          "internalType": "bytes32",
          "name": "",
          "type": "bytes32"
        },
        {
          "internalType": "uint256",
          "name": "",
          "type": "uint256"
        }
      ],
      "name": "votings",
      "outputs": [
        {
          "internalType": "address",
          "name": "resident",
          "type": "address"
        },
        {
          "internalType": "uint16",
          "name": "residence",
          "type": "uint16"
        },
        {
          "internalType": "enum CondominiumLib.VoteOptions",
          "name": "option",
          "type": "uint8"
        },
        {
          "internalType": "uint256",
          "name": "timestamp",
          "type": "uint256"
        }
      ],
      "stateMutability": "view",
      "type": "function"
    }
  ],
  "bytecode": "0x6080604052662386f26fc100006001553480156200001c57600080fd5b506200003967de2e44e7968effcd60c01b6200024b60201b60201c565b6200005567206c91ccbee52d2c60c01b6200024b60201b60201c565b336000806101000a81548173ffffffffffffffffffffffffffffffffffffffff021916908373ffffffffffffffffffffffffffffffffffffffff160217905550620000b1675a3c45dc8d3017e860c01b6200024b60201b60201c565b620000cd67be54b62234648d5f60c01b6200024b60201b60201c565b6000600190505b60028161ffff16116200024457620000fd67c9e834bd01ac35a360c01b6200024b60201b60201c565b6200011967292b9a8c4ade4e5960c01b6200024b60201b60201c565b6000600190505b60058161ffff16116200022d576200014967112b0e53c193afd460c01b6200024b60201b60201c565b6200016567b75d69d767b0858760c01b6200024b60201b60201c565b6000600190505b60058161ffff161162000216576200019567b8d30d89e4a85ec760c01b6200024b60201b60201c565b60016002600083606486620001ab91906200028b565b6103e888620001bb91906200028b565b620001c79190620002d1565b620001d39190620002d1565b61ffff1661ffff16815260200190815260200160002060006101000a81548160ff02191690831515021790555080806200020d906200030e565b9150506200016c565b50808062000224906200030e565b91505062000120565b5080806200023b906200030e565b915050620000d4565b506200033d565b50565b600061ffff82169050919050565b7f4e487b7100000000000000000000000000000000000000000000000000000000600052601160045260246000fd5b600062000298826200024e565b9150620002a5836200024e565b9250828202620002b5816200024e565b9150808214620002ca57620002c96200025c565b5b5092915050565b6000620002de826200024e565b9150620002eb836200024e565b9250828201905061ffff8111156200030857620003076200025c565b5b92915050565b60006200031b826200024e565b915061ffff82036200033257620003316200025c565b5b600182019050919050565b615da4806200034d6000396000f3fe6080604052600436106101405760003560e01c806378b5749d116100b65780639e1bf9851161006f5780639e1bf985146104c1578063b1583546146104ea578063bc2f89f314610513578063c12e806314610550578063e4d65d541461056c578063eaf5d9dc146105a957610140565b806378b5749d146103a35780637b57ee49146103e05780638fc5dad81461040957806390ca27f314610432578063967d59e41461045b57806396fa1def1461049857610140565b8063474502d811610108578063474502d81461026d578063481c6a75146102aa5780634de53265146102d5578063597de9871461031257806368aca3351461033b578063783bb57d1461037857610140565b80630f2fbeec146101455780631794230c1461018a5780631a6c0192146101c75780632f9f21fe1461020757806343b8c6b114610244575b600080fd5b34801561015157600080fd5b5061016c60048036038101906101679190614520565b6105d2565b604051610181999897969594939291906146f6565b60405180910390f35b34801561019657600080fd5b506101b160048036038101906101ac91906147cb565b61076a565b6040516101be91906147f8565b60405180910390f35b3480156101d357600080fd5b506101ee60048036038101906101e9919061483f565b610782565b6040516101fe94939291906148d6565b60405180910390f35b34801561021357600080fd5b5061022e60048036038101906102299190614a50565b61080a565b60405161023b91906147f8565b60405180910390f35b34801561025057600080fd5b5061026b60048036038101906102669190614aea565b61089b565b005b34801561027957600080fd5b50610294600480360381019061028f9190614a50565b610feb565b6040516102a19190614cef565b60405180910390f35b3480156102b657600080fd5b506102bf6112a2565b6040516102cc9190614d11565b60405180910390f35b3480156102e157600080fd5b506102fc60048036038101906102f79190614d2c565b6112c6565b6040516103099190614d74565b60405180910390f35b34801561031e57600080fd5b5061033960048036038101906103349190614d2c565b6112e6565b005b34801561034757600080fd5b50610362600480360381019061035d9190614d2c565b61156c565b60405161036f9190614d74565b60405180910390f35b34801561038457600080fd5b5061038d611606565b60405161039a91906147f8565b60405180910390f35b3480156103af57600080fd5b506103ca60048036038101906103c59190614a50565b61160c565b6040516103d79190614d74565b60405180910390f35b3480156103ec57600080fd5b5061040760048036038101906104029190614a50565b611661565b005b34801561041557600080fd5b50610430600480360381019061042b9190614a50565b6119ed565b005b34801561043e57600080fd5b5061045960048036038101906104549190614db4565b61260f565b005b34801561046757600080fd5b50610482600480360381019061047d91906147cb565b613059565b60405161048f9190614d74565b60405180910390f35b3480156104a457600080fd5b506104bf60048036038101906104ba9190614e3c565b6130c7565b005b3480156104cd57600080fd5b506104e860048036038101906104e39190614a50565b6134e1565b005b3480156104f657600080fd5b50610511600480360381019061050c9190614e7c565b613865565b005b34801561051f57600080fd5b5061053a600480360381019061053591906147cb565b613c4e565b6040516105479190614d74565b60405180910390f35b61056a600480360381019061056591906147cb565b613c6e565b005b34801561057857600080fd5b50610593600480360381019061058e9190614d2c565b613ea1565b6040516105a09190614ebc565b60405180910390f35b3480156105b557600080fd5b506105d060048036038101906105cb9190614ed7565b613ec2565b005b60066020528060005260406000206000915090508060000180546105f590614fa5565b80601f016020809104026020016040519081016040528092919081815260200182805461062190614fa5565b801561066e5780601f106106435761010080835404028352916020019161066e565b820191906000526020600020905b81548152906001019060200180831161065157829003601f168201915b50505050509080600101805461068390614fa5565b80601f01602080910402602001604051908101604052809291908181526020018280546106af90614fa5565b80156106fc5780601f106106d1576101008083540402835291602001916106fc565b820191906000526020600020905b8154815290600101906020018083116106df57829003601f168201915b5050505050908060020160009054906101000a900460ff16908060030154908060040154908060050154908060060160009054906101000a900460ff16908060070154908060080160009054906101000a900473ffffffffffffffffffffffffffffffffffffffff16905089565b60056020528060005260406000206000915090505481565b6007602052816000526040600020818154811061079e57600080fd5b9060005260206000209060020201600091509150508060000160009054906101000a900473ffffffffffffffffffffffffffffffffffffffff16908060000160149054906101000a900461ffff16908060000160169054906101000a900460ff16908060010154905084565b6000610820676d81a0b7fe55baf960c01b6143de565b610834678c145a437865ed9e60c01b6143de565b610848679a2385c336d5c16e60c01b6143de565b6000828051906020012090506108686720d3bcaae45c112460c01b6143de565b61087c67789c8f968405b51460c01b6143de565b6007600082815260200190815260200160002080549050915050919050565b6108af67b176a19ecc6d8ebe60c01b6143de565b6108c36723462974ac4e36b960c01b6143de565b6108d767379bbd8818f746b760c01b6143de565b6108eb67725109588390688f60c01b6143de565b6108ff67aea9f87d5a37b48360c01b6143de565b60008054906101000a900473ffffffffffffffffffffffffffffffffffffffff1673ffffffffffffffffffffffffffffffffffffffff163273ffffffffffffffffffffffffffffffffffffffff1614801561096a575061096967c0fc865be2ab1ee360c01b6143e1565b5b8061099657506109793261156c565b80156109955750610994673367a50dc58fc60660c01b6143e1565b5b5b6109d5576040517f08c379a00000000000000000000000000000000000000000000000000000000081526004016109cc90615048565b60405180910390fd5b6109e9677491a4bc27ff0d6f60c01b6143de565b6109fd675203138e936e0d4860c01b6143de565b610a1167e9a1288d9a2e1ae160c01b6143de565b610a25677d712f92e514111860c01b6143de565b60008054906101000a900473ffffffffffffffffffffffffffffffffffffffff1673ffffffffffffffffffffffffffffffffffffffff163273ffffffffffffffffffffffffffffffffffffffff16148015610a905750610a8f6715db465a54abeadc60c01b6143e1565b5b80610b2c575062278d0060056000600460003273ffffffffffffffffffffffffffffffffffffffff1673ffffffffffffffffffffffffffffffffffffffff16815260200190815260200160002060009054906101000a900461ffff1661ffff1661ffff16815260200190815260200160002054610b0d9190615097565b42108015610b2b5750610b2a67e1c470834938bef360c01b6143e1565b5b5b610b6b576040517f08c379a0000000000000000000000000000000000000000000000000000000008152600401610b6290615117565b60405180910390fd5b610b7f67d10dae52cd7d9d4860c01b6143de565b610b936713afa5fe7e11d3fc60c01b6143de565b610ba7677c9e92791a81aa3e60c01b6143de565b610bbb673366b75f3c2574d660c01b6143de565b610bcf67d43a0270d0ee8c5b60c01b6143de565b610be36740564e9e21cbdf4960c01b6143de565b610bf7678687da2fa21883ff60c01b6143de565b610c008561160c565b15610c40576040517f08c379a0000000000000000000000000000000000000000000000000000000008152600401610c3790615183565b60405180910390fd5b610c54679c27a50c7a17698c60c01b6143de565b610c68674740c887b72977a760c01b6143de565b610c7c674c474c616d9f7c0760c01b6143de565b6000821115610dbc57610c99672bb7d6e4a4421c8060c01b6143de565b610cad67344453b0f476fafc60c01b6143de565b610cc16756c9430e90e27fc360c01b6143de565b610cd567d36c3ac8e00aea8d60c01b6143de565b60026003811115610ce957610ce86145dd565b5b836003811115610cfc57610cfb6145dd565b5b148015610d195750610d18677d65ce61398f435f60c01b6143e1565b5b80610d64575060016003811115610d3357610d326145dd565b5b836003811115610d4657610d456145dd565b5b148015610d635750610d62679299615dcc8aec5b60c01b6143e1565b5b5b610da3576040517f08c379a0000000000000000000000000000000000000000000000000000000008152600401610d9a906151ef565b60405180910390fd5b610db767c23ddcc6eff13ea460c01b6143de565b610dd1565b610dd0675002d60ff30d6af760c01b6143de565b5b610de567b47bf324cbe7857360c01b6143de565b610df96745fc740b27c81bc760c01b6143de565b600060405180610120016040528087815260200186815260200160006003811115610e2757610e266145dd565b5b81526020014281526020016000815260200160008152602001856003811115610e5357610e526145dd565b5b8152602001848152602001600073ffffffffffffffffffffffffffffffffffffffff168473ffffffffffffffffffffffffffffffffffffffff1603610e985732610e9a565b835b73ffffffffffffffffffffffffffffffffffffffff168152509050610ec967e09a5ccd2fd0588660c01b6143de565b8060066000888051906020012081526020019081526020016000206000820151816000019081610ef991906153bb565b506020820151816001019081610f0f91906153bb565b5060408201518160020160006101000a81548160ff02191690836003811115610f3b57610f3a6145dd565b5b0217905550606082015181600301556080820151816004015560a0820151816005015560c08201518160060160006101000a81548160ff02191690836003811115610f8957610f886145dd565b5b021790555060e082015181600701556101008201518160080160006101000a81548173ffffffffffffffffffffffffffffffffffffffff021916908373ffffffffffffffffffffffffffffffffffffffff160217905550905050505050505050565b610ff36143f3565b61100767e0005106b208b86960c01b6143de565b61101b67e626b10027cd92ab60c01b6143de565b61102f67299c4ba62bd2888060c01b6143de565b60008280519060200120905061104f670d6ab15b0bd7227960c01b6143de565b61106367364e0800500930ab60c01b6143de565b600660008281526020019081526020016000206040518061012001604052908160008201805461109290614fa5565b80601f01602080910402602001604051908101604052809291908181526020018280546110be90614fa5565b801561110b5780601f106110e05761010080835404028352916020019161110b565b820191906000526020600020905b8154815290600101906020018083116110ee57829003601f168201915b5050505050815260200160018201805461112490614fa5565b80601f016020809104026020016040519081016040528092919081815260200182805461115090614fa5565b801561119d5780601f106111725761010080835404028352916020019161119d565b820191906000526020600020905b81548152906001019060200180831161118057829003601f168201915b505050505081526020016002820160009054906101000a900460ff1660038111156111cb576111ca6145dd565b5b60038111156111dd576111dc6145dd565b5b81526020016003820154815260200160048201548152602001600582015481526020016006820160009054906101000a900460ff166003811115611224576112236145dd565b5b6003811115611236576112356145dd565b5b8152602001600782015481526020016008820160009054906101000a900473ffffffffffffffffffffffffffffffffffffffff1673ffffffffffffffffffffffffffffffffffffffff1673ffffffffffffffffffffffffffffffffffffffff1681525050915050919050565b60008054906101000a900473ffffffffffffffffffffffffffffffffffffffff1681565b60036020528060005260406000206000915054906101000a900460ff1681565b6112fa673c259f07bd23c45c60c01b6143de565b61130e6770897dcd4869862760c01b6143de565b61132267570d2b998f51ac1660c01b6143de565b6113366785fa1c64cf20df0060c01b6143de565b61134a67f3aaf41a6a4ca47560c01b6143de565b60008054906101000a900473ffffffffffffffffffffffffffffffffffffffff1673ffffffffffffffffffffffffffffffffffffffff163273ffffffffffffffffffffffffffffffffffffffff16146113d8576040517f08c379a00000000000000000000000000000000000000000000000000000000081526004016113cf906154ff565b60405180910390fd5b6113ec67704b62a9344d89a560c01b6143de565b61140067b946fa9dfffc49f560c01b6143de565b6114146733fd176dcde288df60c01b6143de565b611428675d6e98fa0565f46a60c01b6143de565b61143c67b9761a9015741d6f60c01b6143de565b61145067747e0c1739788bb360c01b6143de565b6114646767a38342576caba460c01b6143de565b600360008273ffffffffffffffffffffffffffffffffffffffff1673ffffffffffffffffffffffffffffffffffffffff16815260200190815260200160002060009054906101000a900460ff16156114f1576040517f08c379a00000000000000000000000000000000000000000000000000000000081526004016114e89061556b565b60405180910390fd5b61150567a68648821bf2bc0960c01b6143de565b6115196705e9d4ccaff974ef60c01b6143de565b600460008273ffffffffffffffffffffffffffffffffffffffff1673ffffffffffffffffffffffffffffffffffffffff16815260200190815260200160002060006101000a81549061ffff021916905550565b600061158267d1ffdeba592b972060c01b6143de565b61159667c66622f922232c1860c01b6143de565b6115aa67d12ea055418c8eb760c01b6143de565b6000600460008473ffffffffffffffffffffffffffffffffffffffff1673ffffffffffffffffffffffffffffffffffffffff16815260200190815260200160002060009054906101000a900461ffff1661ffff16119050919050565b60015481565b600061162267715b33c2c7fa720360c01b6143de565b61163667e01a437232207f9460c01b6143de565b61164a677a154ffa7883637560c01b6143de565b600061165583610feb565b60600151119050919050565b611675673562ce167cb6a37860c01b6143de565b6116896770897dcd4869862760c01b6143de565b61169d67570d2b998f51ac1660c01b6143de565b6116b16785fa1c64cf20df0060c01b6143de565b6116c567f3aaf41a6a4ca47560c01b6143de565b60008054906101000a900473ffffffffffffffffffffffffffffffffffffffff1673ffffffffffffffffffffffffffffffffffffffff163273ffffffffffffffffffffffffffffffffffffffff1614611753576040517f08c379a000000000000000000000000000000000000000000000000000000000815260040161174a906154ff565b60405180910390fd5b61176767704b62a9344d89a560c01b6143de565b61177b67b946fa9dfffc49f560c01b6143de565b61178f67479b986f77961a9a60c01b6143de565b6117a3679b7fa96c458436d160c01b6143de565b6117b767fa5b79c4499c1dce60c01b6143de565b6117cb6774c7ad5a36e034e060c01b6143de565b60006117d682610feb565b90506117ec67c0116f2f5f46110360c01b6143de565b611800678695fcfadbc0bcc160c01b6143de565b61181467443860bcd4bce05760c01b6143de565b600081606001511161185b576040517f08c379a0000000000000000000000000000000000000000000000000000000008152600401611852906155d7565b60405180910390fd5b61186f67db9756d9fb45109c60c01b6143de565b611883678ddc75d985d733e460c01b6143de565b611897671cbe9f3c1194b82460c01b6143de565b6118ab67d72a81cbc4f5817b60c01b6143de565b600060038111156118bf576118be6145dd565b5b816040015160038111156118d6576118d56145dd565b5b14611916576040517f08c379a000000000000000000000000000000000000000000000000000000000815260040161190d90615643565b60405180910390fd5b6119296645250a59be2a7d60c01b6143de565b61193d67ff83f8aa1d90078e60c01b6143de565b6006600083805190602001208152602001908152602001600020600080820160006119689190614479565b6001820160006119789190614479565b6002820160006101000a81549060ff02191690556003820160009055600482016000905560058201600090556006820160006101000a81549060ff021916905560078201600090556008820160006101000a81549073ffffffffffffffffffffffffffffffffffffffff021916905550505050565b611a016745dd27748da806d460c01b6143de565b611a156770897dcd4869862760c01b6143de565b611a2967570d2b998f51ac1660c01b6143de565b611a3d6785fa1c64cf20df0060c01b6143de565b611a5167f3aaf41a6a4ca47560c01b6143de565b60008054906101000a900473ffffffffffffffffffffffffffffffffffffffff1673ffffffffffffffffffffffffffffffffffffffff163273ffffffffffffffffffffffffffffffffffffffff1614611adf576040517f08c379a0000000000000000000000000000000000000000000000000000000008152600401611ad6906154ff565b60405180910390fd5b611af367704b62a9344d89a560c01b6143de565b611b0767b946fa9dfffc49f560c01b6143de565b611b1b67a0caa7c2dc8cf10f60c01b6143de565b611b2f67cdb446d03c78181d60c01b6143de565b611b4367f9bb131f49010af160c01b6143de565b611b5767dd9376134f0ae34a60c01b6143de565b6000611b6282610feb565b9050611b78674a93b16b23a055f360c01b6143de565b611b8c67b3b48ce2102b4ef260c01b6143de565b611ba06717ce938a9e6581c060c01b6143de565b6000816060015111611be7576040517f08c379a0000000000000000000000000000000000000000000000000000000008152600401611bde906155d7565b60405180910390fd5b611bfb67b01e2ee2870c532960c01b6143de565b611c0f6770bca712be175af960c01b6143de565b611c236721ad3bf7bac8228660c01b6143de565b611c37676c814d077391b71960c01b6143de565b60016003811115611c4b57611c4a6145dd565b5b81604001516003811115611c6257611c616145dd565b5b14611ca2576040517f08c379a0000000000000000000000000000000000000000000000000000000008152600401611c99906156af565b60405180910390fd5b611cb6671797f2f7564e23fe60c01b6143de565b611cca67d920cb828a1c43b360c01b6143de565b611cde67c9659530bccccb7c60c01b6143de565b600060059050611cf867f793ae019219122660c01b6143de565b611d0c67bba043052572aacc60c01b6143de565b60016003811115611d2057611d1f6145dd565b5b8260c001516003811115611d3757611d366145dd565b5b03611d6d57611d5067a766a32e9ba30e8460c01b6143de565b611d6467807d2d460fd2591960c01b6143de565b600a9050611e95565b611d81675f1d67fd6f9aab9b60c01b6143de565b611d956758db0cbd16abe8a460c01b6143de565b600380811115611da857611da76145dd565b5b8260c001516003811115611dbf57611dbe6145dd565b5b03611df557611dd86706672250ca5cdfa260c01b6143de565b611dec67f22cf846d2086ff660c01b6143de565b600f9050611e94565b611e096758bef40cc0eafed360c01b6143de565b611e1d6708a1a5e137d3bf3860c01b6143de565b60026003811115611e3157611e306145dd565b5b8260c001516003811115611e4857611e476145dd565b5b03611e7e57611e6167e8d7ec9edbe3093260c01b6143de565b611e75673573cf061ac01a1f60c01b6143de565b60149050611e93565b611e9267ae501a8e972d49e960c01b6143de565b5b5b5b611ea9672686e0596df8b2d760c01b6143de565b611ebd67067852aef43a0ed860c01b6143de565b611ed16722c52d71c0f5b7f760c01b6143de565b8060ff16611ede8461080a565b1015611f1f576040517f08c379a0000000000000000000000000000000000000000000000000000000008152600401611f1690615767565b60405180910390fd5b611f3367d8c545349088081b60c01b6143de565b611f4767e22f1105cacf43f360c01b6143de565b611f5b67bae32d37932dfae560c01b6143de565b600083805190602001209050611f7b672fb0faadef807ba360c01b6143de565b611f8f67186fe8bd00aa743660c01b6143de565b6000611fa5673cf3c50ab941c1c260c01b6143de565b611fb96777b6ab4b95ee9e7f60c01b6143de565b6000611fcf67c6784a5e025fa82f60c01b6143de565b611fe3673245cf657cf7a84960c01b6143de565b6000611ff967bc21b8cad4f2902460c01b6143de565b61200d6727929a90fb6bc63760c01b6143de565b600060076000868152602001908152602001600020805480602002602001604051908101604052809291908181526020016000905b8282101561212f57838290600052602060002090600202016040518060800160405290816000820160009054906101000a900473ffffffffffffffffffffffffffffffffffffffff1673ffffffffffffffffffffffffffffffffffffffff1673ffffffffffffffffffffffffffffffffffffffff1681526020016000820160149054906101000a900461ffff1661ffff1661ffff1681526020016000820160169054906101000a900460ff166003811115612100576120ff6145dd565b5b6003811115612112576121116145dd565b5b815260200160018201548152505081526020019060010190612042565b50505050905061214967b6ad091bcb2503ad60c01b6143de565b61215d674d60778e957334a160c01b6143de565b60005b81518160ff1610156123175761218067eab312659dfad7cc60c01b6143de565b6121946776be160911585bde60c01b6143de565b600160038111156121a8576121a76145dd565b5b828260ff16815181106121be576121bd615787565b5b60200260200101516040015160038111156121dc576121db6145dd565b5b0361221c576121f5672760b4b14da3605c60c01b6143de565b612209678d78b2ae692f48fc60c01b6143de565b8480612214906157c3565b955050612304565b61223067a2a91f030093d01d60c01b6143de565b61224467524b8aeb32416fcf60c01b6143de565b60026003811115612258576122576145dd565b5b828260ff168151811061226e5761226d615787565b5b602002602001015160400151600381111561228c5761228b6145dd565b5b036122cc576122a567b2c50f41da10fd4f60c01b6143de565b6122b9674667d3a573805fa660c01b6143de565b83806122c4906157c3565b945050612303565b6122e06772c7bad76beb157660c01b6143de565b6122f46769776a76e414052c60c01b6143de565b82806122ff906157c3565b9350505b5b808061230f906157c3565b915050612160565b5061232c67f62e83c7dc5d674460c01b6143de565b61234067a70f92ea3f576df460c01b6143de565b60008360ff168560ff1611806123665750612365671309691c3910264b60c01b6143ec565b5b8015612382575061238167f294b55ada0e400960c01b6143e1565b5b61238d576003612390565b60025b90506123a667e8a3d60256d772a760c01b6143de565b806006600088815260200190815260200160002060020160006101000a81548160ff021916908360038111156123df576123de6145dd565b5b02179055506123f867ceeb838c242ff14d60c01b6143de565b42600660008881526020019081526020016000206005018190555061242767dab7656b34cbfbac60c01b6143de565b61243b674cc9a20505798e2d60c01b6143de565b6002600381111561244f5761244e6145dd565b5b816003811115612462576124616145dd565b5b036125ef5761247b67ac8b9a102bc43f9360c01b6143de565b61248f677122f7da1ba69cb460c01b6143de565b6124a3671003c9c82ed2169760c01b6143de565b600260038111156124b7576124b66145dd565b5b8860c0015160038111156124ce576124cd6145dd565b5b0361250b576124e767b472e72c0bbf10a060c01b6143de565b6124fb6759d78b3feecfb95d60c01b6143de565b8760e001516001819055506125ea565b61251f67725bfd2e48428c8560c01b6143de565b61253367b7b561a22a4585c660c01b6143de565b600380811115612546576125456145dd565b5b8860c00151600381111561255d5761255c6145dd565b5b036125d45761257667ce07de86f7083e7560c01b6143de565b61258a6773de0dd9f14dafdb60c01b6143de565b8761010001516000806101000a81548173ffffffffffffffffffffffffffffffffffffffff021916908373ffffffffffffffffffffffffffffffffffffffff1602179055506125e9565b6125e867c5292e945c105fab60c01b6143de565b5b5b612604565b6126036712d823799162a7fd60c01b6143de565b5b505050505050505050565b6126236726f59c8479370b8e60c01b6143de565b6126376723462974ac4e36b960c01b6143de565b61264b67379bbd8818f746b760c01b6143de565b61265f67725109588390688f60c01b6143de565b61267367aea9f87d5a37b48360c01b6143de565b60008054906101000a900473ffffffffffffffffffffffffffffffffffffffff1673ffffffffffffffffffffffffffffffffffffffff163273ffffffffffffffffffffffffffffffffffffffff161480156126de57506126dd67c0fc865be2ab1ee360c01b6143e1565b5b8061270a57506126ed3261156c565b80156127095750612708673367a50dc58fc60660c01b6143e1565b5b5b612749576040517f08c379a000000000000000000000000000000000000000000000000000000000815260040161274090615048565b60405180910390fd5b61275d677491a4bc27ff0d6f60c01b6143de565b612771675203138e936e0d4860c01b6143de565b61278567e9a1288d9a2e1ae160c01b6143de565b612799677d712f92e514111860c01b6143de565b60008054906101000a900473ffffffffffffffffffffffffffffffffffffffff1673ffffffffffffffffffffffffffffffffffffffff163273ffffffffffffffffffffffffffffffffffffffff1614801561280457506128036715db465a54abeadc60c01b6143e1565b5b806128a0575062278d0060056000600460003273ffffffffffffffffffffffffffffffffffffffff1673ffffffffffffffffffffffffffffffffffffffff16815260200190815260200160002060009054906101000a900461ffff1661ffff1661ffff168152602001908152602001600020546128819190615097565b4210801561289f575061289e67e1c470834938bef360c01b6143e1565b5b5b6128df576040517f08c379a00000000000000000000000000000000000000000000000000000000081526004016128d690615117565b60405180910390fd5b6128f367d10dae52cd7d9d4860c01b6143de565b6129076713afa5fe7e11d3fc60c01b6143de565b61291b673e401600a0fcdd6760c01b6143de565b61292f673c9771f1f46febd160c01b6143de565b61294367c52b0657631140bc60c01b6143de565b612957673fc72b6734cec21060c01b6143de565b61296b67431cc48776acaf3f60c01b6143de565b6000600381111561297f5761297e6145dd565b5b816003811115612992576129916145dd565b5b036129d2576040517f08c379a00000000000000000000000000000000000000000000000000000000081526004016129c990615838565b60405180910390fd5b6129e6678a37a4e49b977c5560c01b6143de565b6129fa67e79505f8859cb21460c01b6143de565b612a0e67b10643701432d09560c01b6143de565b6000612a1983610feb565b9050612a2f67d0671a0fc44c605760c01b6143de565b612a4367da3792787f75c87760c01b6143de565b612a5767c5f34e6c3cbc0a9060c01b6143de565b6000816060015111612a9e576040517f08c379a0000000000000000000000000000000000000000000000000000000008152600401612a95906155d7565b60405180910390fd5b612ab2679ae501496075646f60c01b6143de565b612ac6672dd2b85d3571f76e60c01b6143de565b612ada67c7347423895d433560c01b6143de565b612aee67e7f2417edca8189560c01b6143de565b60016003811115612b0257612b016145dd565b5b81604001516003811115612b1957612b186145dd565b5b14612b59576040517f08c379a0000000000000000000000000000000000000000000000000000000008152600401612b50906158a4565b60405180910390fd5b612b6d672da64329cfcff9f060c01b6143de565b612b8167cdead2376075649160c01b6143de565b612b9567ffe6952378c2039e60c01b6143de565b6000600460003273ffffffffffffffffffffffffffffffffffffffff1673ffffffffffffffffffffffffffffffffffffffff16815260200190815260200160002060009054906101000a900461ffff169050612bfb675e0ebdce09d6e83660c01b6143de565b612c0f672aa83da4215215b860c01b6143de565b600084805190602001209050612c2f674862ee17a5743cb460c01b6143de565b612c4367b33f2c97723ba57e60c01b6143de565b600060076000838152602001908152602001600020805480602002602001604051908101604052809291908181526020016000905b82821015612d6557838290600052602060002090600202016040518060800160405290816000820160009054906101000a900473ffffffffffffffffffffffffffffffffffffffff1673ffffffffffffffffffffffffffffffffffffffff1673ffffffffffffffffffffffffffffffffffffffff1681526020016000820160149054906101000a900461ffff1661ffff1661ffff1681526020016000820160169054906101000a900460ff166003811115612d3657612d356145dd565b5b6003811115612d4857612d476145dd565b5b815260200160018201548152505081526020019060010190612c78565b505050509050612d7f67e980fefcdc193a8160c01b6143de565b612d9367211b83b5cb497ee160c01b6143de565b60005b81518160ff161015612ecc57612db6679896ccf9e114360360c01b6143de565b612dca6795fb86cde707511360c01b6143de565b8361ffff16828260ff1681518110612de557612de4615787565b5b60200260200101516020015161ffff1603612ea457612e0e67344d805082391cc460c01b6143de565b612e2267456368d5252f4e6860c01b6143de565b612e3667bff30254c5ca194960c01b6143de565b612e4a673eb47703a920242560c01b6143de565b6000612e8b576040517f08c379a0000000000000000000000000000000000000000000000000000000008152600401612e8290615936565b60405180910390fd5b612e9f6742a0e649516c2ab360c01b6143de565b612eb9565b612eb86704ae997846e400ad60c01b6143de565b5b8080612ec4906157c3565b915050612d96565b50612ee167c632338c7683abbe60c01b6143de565b612ef567cd560662f517c6ba60c01b6143de565b600060405180608001604052803273ffffffffffffffffffffffffffffffffffffffff1681526020018561ffff168152602001876003811115612f3b57612f3a6145dd565b5b8152602001428152509050612f5a6776f527b88c3c02e360c01b6143de565b612f6d66b92eb535f765a760c01b6143de565b6007600084815260200190815260200160002081908060018154018082558091505060019003906000526020600020906002020160009091909190915060008201518160000160006101000a81548173ffffffffffffffffffffffffffffffffffffffff021916908373ffffffffffffffffffffffffffffffffffffffff16021790555060208201518160000160146101000a81548161ffff021916908361ffff16021790555060408201518160000160166101000a81548160ff0219169083600381111561303f5761303e6145dd565b5b021790555060608201518160010155505050505050505050565b600061306f6737e1686aed3d546660c01b6143de565b6130836743624cae606a5e1860c01b6143de565b61309767c41be3c7ac44c9f160c01b6143de565b600260008361ffff1661ffff16815260200190815260200160002060009054906101000a900460ff169050919050565b6130db67de97f5d7152061f460c01b6143de565b6130ef6770897dcd4869862760c01b6143de565b61310367570d2b998f51ac1660c01b6143de565b6131176785fa1c64cf20df0060c01b6143de565b61312b67f3aaf41a6a4ca47560c01b6143de565b60008054906101000a900473ffffffffffffffffffffffffffffffffffffffff1673ffffffffffffffffffffffffffffffffffffffff163273ffffffffffffffffffffffffffffffffffffffff16146131b9576040517f08c379a00000000000000000000000000000000000000000000000000000000081526004016131b0906154ff565b60405180910390fd5b6131cd67704b62a9344d89a560c01b6143de565b6131e167b946fa9dfffc49f560c01b6143de565b6131f567fc68bf47874e6a4260c01b6143de565b61320967e3c3fb0f2e334b3860c01b6143de565b8161321e67450418b7b820bb4b60c01b6143de565b6132326726df1a89be6fb1e160c01b6143de565b613246672da66c1b5cccefe360c01b6143de565b61325a6705c6b0ca111c0d1360c01b6143de565b600073ffffffffffffffffffffffffffffffffffffffff168173ffffffffffffffffffffffffffffffffffffffff16036132c9576040517f08c379a00000000000000000000000000000000000000000000000000000000081526004016132c0906159a2565b60405180910390fd5b6132dd67adcba4b4cc8e8e3660c01b6143de565b6132f167a20a093bdf27486060c01b6143de565b613305675dd9ceb24580f8ec60c01b6143de565b61331967257874ec38a0b49e60c01b6143de565b61332d67078922252483c9ae60c01b6143de565b613341679d2830cedfe4781960c01b6143de565b81156134645761335b67a32f69918622144c60c01b6143de565b61336f6777d54983133f77e960c01b6143de565b61338367b54b1a7ba305fffb60c01b6143de565b6133976774620f04e60c8a8c60c01b6143de565b6133a08361156c565b6133df576040517f08c379a00000000000000000000000000000000000000000000000000000000081526004016133d690615a0e565b60405180910390fd5b6133f3678d3a8887f038e68460c01b6143de565b6134076720e099ebc608c7c060c01b6143de565b6001600360008573ffffffffffffffffffffffffffffffffffffffff1673ffffffffffffffffffffffffffffffffffffffff16815260200190815260200160002060006101000a81548160ff0219169083151502179055506134dc565b61347867112e5349369c252160c01b6143de565b61348c67533ba40b41a897e560c01b6143de565b600360008473ffffffffffffffffffffffffffffffffffffffff1673ffffffffffffffffffffffffffffffffffffffff16815260200190815260200160002060006101000a81549060ff02191690555b505050565b6134f56793310b9c8d96f88e60c01b6143de565b6135096770897dcd4869862760c01b6143de565b61351d67570d2b998f51ac1660c01b6143de565b6135316785fa1c64cf20df0060c01b6143de565b61354567f3aaf41a6a4ca47560c01b6143de565b60008054906101000a900473ffffffffffffffffffffffffffffffffffffffff1673ffffffffffffffffffffffffffffffffffffffff163273ffffffffffffffffffffffffffffffffffffffff16146135d3576040517f08c379a00000000000000000000000000000000000000000000000000000000081526004016135ca906154ff565b60405180910390fd5b6135e767704b62a9344d89a560c01b6143de565b6135fb67b946fa9dfffc49f560c01b6143de565b61360f6795af955f6abe7fa360c01b6143de565b61362367068bbb2170e63a4960c01b6143de565b613637676db2502dddc3b3bb60c01b6143de565b61364b670534671d46f09dd560c01b6143de565b600061365682610feb565b905061366c678607017de512720f60c01b6143de565b61368067a5bdc078131d504660c01b6143de565b61369467fa62d63f11ed2ad060c01b6143de565b60008160600151116136db576040517f08c379a00000000000000000000000000000000000000000000000000000000081526004016136d2906155d7565b60405180910390fd5b6136ef6745ffac5da3bbdf2760c01b6143de565b61370367d794c1afda16ac1060c01b6143de565b61371767c87177dd3bb84b5960c01b6143de565b61372b67de7f8b8962fe182b60c01b6143de565b6000600381111561373f5761373e6145dd565b5b81604001516003811115613756576137556145dd565b5b14613796576040517f08c379a000000000000000000000000000000000000000000000000000000000815260040161378d90615aa0565b60405180910390fd5b6137aa672d62061ecc33c8fb60c01b6143de565b6137be673951d3f3965df85c60c01b6143de565b6137d267608410639144c55160c01b6143de565b6000828051906020012090506137f2674052afa46d26204a60c01b6143de565b60016006600083815260200190815260200160002060020160006101000a81548160ff0219169083600381111561382c5761382b6145dd565b5b021790555061384567eb37d038d28e2e5960c01b6143de565b426006600083815260200190815260200160002060040181905550505050565b6138796785791af28c26b0c760c01b6143de565b61388d67832bf63a789bbcf460c01b6143de565b6138a1678438aa2fa190a06560c01b6143de565b6138b5672d79139b0309e59860c01b6143de565b6138c967cab61a0608d35be060c01b6143de565b60008054906101000a900473ffffffffffffffffffffffffffffffffffffffff1673ffffffffffffffffffffffffffffffffffffffff163273ffffffffffffffffffffffffffffffffffffffff1614801561393457506139336773407043dced7b2f60c01b6143e1565b5b806139a45750600360003273ffffffffffffffffffffffffffffffffffffffff1673ffffffffffffffffffffffffffffffffffffffff16815260200190815260200160002060009054906101000a900460ff1680156139a357506139a267b224345eb03bebe760c01b6143e1565b5b5b6139e3576040517f08c379a00000000000000000000000000000000000000000000000000000000081526004016139da90615b32565b60405180910390fd5b6139f767b79fb78b01632fc260c01b6143de565b613a0b6760933ea59e335d5f60c01b6143de565b613a1f67c536348ee6193cfa60c01b6143de565b613a33674b81e395ca418d7960c01b6143de565b81613a4867450418b7b820bb4b60c01b6143de565b613a5c6726df1a89be6fb1e160c01b6143de565b613a70672da66c1b5cccefe360c01b6143de565b613a846705c6b0ca111c0d1360c01b6143de565b600073ffffffffffffffffffffffffffffffffffffffff168173ffffffffffffffffffffffffffffffffffffffff1603613af3576040517f08c379a0000000000000000000000000000000000000000000000000000000008152600401613aea906159a2565b60405180910390fd5b613b0767adcba4b4cc8e8e3660c01b6143de565b613b1b67a20a093bdf27486060c01b6143de565b613b2f6775bddd2e06fab43660c01b6143de565b613b436797a8bfcd647d8b9760c01b6143de565b613b5767b2c1caf62d8101b160c01b6143de565b613b6b671cc5ce3d170bcb9760c01b6143de565b613b7f673eba1e2b1913f81060c01b6143de565b613b8882613059565b613bc7576040517f08c379a0000000000000000000000000000000000000000000000000000000008152600401613bbe90615b9e565b60405180910390fd5b613bdb67330a741e26a5046d60c01b6143de565b613bef67adea8c4d738514ca60c01b6143de565b81600460008573ffffffffffffffffffffffffffffffffffffffff1673ffffffffffffffffffffffffffffffffffffffff16815260200190815260200160002060006101000a81548161ffff021916908361ffff160217905550505050565b60026020528060005260406000206000915054906101000a900460ff1681565b613c8267e737af9f4667a81e60c01b6143de565b613c966732de1ccf72253b3a60c01b6143de565b613caa67386388d4f4335bc360c01b6143de565b613cbe6724e7904531790f4360c01b6143de565b613cc781613059565b613d06576040517f08c379a0000000000000000000000000000000000000000000000000000000008152600401613cfd90615c0a565b60405180910390fd5b613d1a675dd0bb380faa949b60c01b6143de565b613d2e67ebeddd4398feae4460c01b6143de565b613d4267610c3306469a01b960c01b6143de565b613d56675bdc5d2948dc781260c01b6143de565b600154341015613d9b576040517f08c379a0000000000000000000000000000000000000000000000000000000008152600401613d9290615c76565b60405180910390fd5b613daf67a0a51b855de60fdc60c01b6143de565b613dc367246a928beb8d78af60c01b6143de565b613dd767d15c40ee01684d3d60c01b6143de565b613deb67119efe38c8f876a960c01b6143de565b62278d00600560008361ffff1661ffff16815260200190815260200160002054613e159190615097565b4211613e56576040517f08c379a0000000000000000000000000000000000000000000000000000000008152600401613e4d90615ce2565b60405180910390fd5b613e6a67b977e71cc12e1dcd60c01b6143de565b613e7e675edf1654bb13c40460c01b6143de565b42600560008361ffff1661ffff1681526020019081526020016000208190555050565b60046020528060005260406000206000915054906101000a900461ffff1681565b613ed566d11d927184e07460c01b6143de565b613ee96770897dcd4869862760c01b6143de565b613efd67570d2b998f51ac1660c01b6143de565b613f116785fa1c64cf20df0060c01b6143de565b613f2567f3aaf41a6a4ca47560c01b6143de565b60008054906101000a900473ffffffffffffffffffffffffffffffffffffffff1673ffffffffffffffffffffffffffffffffffffffff163273ffffffffffffffffffffffffffffffffffffffff1614613fb3576040517f08c379a0000000000000000000000000000000000000000000000000000000008152600401613faa906154ff565b60405180910390fd5b613fc767704b62a9344d89a560c01b6143de565b613fdb67b946fa9dfffc49f560c01b6143de565b613fef67e282ac21a2049f7960c01b6143de565b61400367b407d563a75e7eb560c01b6143de565b6140176767ac0639328bcff660c01b6143de565b61402b67079a740eef78437560c01b6143de565b600061403685610feb565b905061404c678b03dc5daae3312160c01b6143de565b61406067b11bf4365249366660c01b6143de565b61407467d3eb3a858f628f3060c01b6143de565b60008160600151116140bb576040517f08c379a00000000000000000000000000000000000000000000000000000000081526004016140b2906155d7565b60405180910390fd5b6140cf671086728e1861e72660c01b6143de565b6140e367a2cb31d80bc3243d60c01b6143de565b6140f767f43d964b5e3bbd3d60c01b6143de565b61410b6777c49879a5db16fa60c01b6143de565b6000600381111561411f5761411e6145dd565b5b81604001516003811115614136576141356145dd565b5b14614176576040517f08c379a000000000000000000000000000000000000000000000000000000000815260040161416d90615d4e565b60405180910390fd5b61418a67c20789e4bf742acd60c01b6143de565b61419e67a414530f2ff01d4460c01b6143de565b6141b2673e20d0255cb0fd3260c01b6143de565b6000858051906020012090506141d267ba503b558009fbcc60c01b6143de565b6141e667ee34d0b516b370cc60c01b6143de565b600085511115614241576142046723028a467b0e904d60c01b6143de565b614218679637fccc0dc5a0fb60c01b6143de565b8460066000838152602001908152602001600020600101908161423b91906153bb565b50614256565b614255674f058a95a9d4f21c60c01b6143de565b5b61426a67f556f706961bee9d60c01b6143de565b61427e67fbf35be8932a521a60c01b6143de565b600084106142ce5761429a67bdf67a80fc6038f860c01b6143de565b6142ae6772a0460698a0598c60c01b6143de565b8360066000838152602001908152602001600020600701819055506142e3565b6142e267b95a65b1ebf3e4fc60c01b6143de565b5b6142f767d2fd8259f1a27c6460c01b6143de565b61430b6766d20a5b72c45b8660c01b6143de565b600073ffffffffffffffffffffffffffffffffffffffff168373ffffffffffffffffffffffffffffffffffffffff16146143c15761435367a0404b83e3e561b260c01b6143de565b61436767dfaff7c195e5286760c01b6143de565b826006600083815260200190815260200160002060080160006101000a81548173ffffffffffffffffffffffffffffffffffffffff021916908373ffffffffffffffffffffffffffffffffffffffff1602179055506143d6565b6143d5673342d21884b86c6260c01b6143de565b5b505050505050565b50565b600060019050919050565b6000919050565b604051806101200160405280606081526020016060815260200160006003811115614421576144206145dd565b5b81526020016000815260200160008152602001600081526020016000600381111561444f5761444e6145dd565b5b815260200160008152602001600073ffffffffffffffffffffffffffffffffffffffff1681525090565b50805461448590614fa5565b6000825580601f1061449757506144b6565b601f0160209004906000526020600020908101906144b591906144b9565b5b50565b5b808211156144d25760008160009055506001016144ba565b5090565b6000604051905090565b600080fd5b600080fd5b6000819050919050565b6144fd816144ea565b811461450857600080fd5b50565b60008135905061451a816144f4565b92915050565b600060208284031215614536576145356144e0565b5b60006145448482850161450b565b91505092915050565b600081519050919050565b600082825260208201905092915050565b60005b8381101561458757808201518184015260208101905061456c565b60008484015250505050565b6000601f19601f8301169050919050565b60006145af8261454d565b6145b98185614558565b93506145c9818560208601614569565b6145d281614593565b840191505092915050565b7f4e487b7100000000000000000000000000000000000000000000000000000000600052602160045260246000fd5b6004811061461d5761461c6145dd565b5b50565b600081905061462e8261460c565b919050565b600061463e82614620565b9050919050565b61464e81614633565b82525050565b6000819050919050565b61466781614654565b82525050565b6004811061467e5761467d6145dd565b5b50565b600081905061468f8261466d565b919050565b600061469f82614681565b9050919050565b6146af81614694565b82525050565b600073ffffffffffffffffffffffffffffffffffffffff82169050919050565b60006146e0826146b5565b9050919050565b6146f0816146d5565b82525050565b6000610120820190508181036000830152614711818c6145a4565b90508181036020830152614725818b6145a4565b9050614734604083018a614645565b614741606083018961465e565b61474e608083018861465e565b61475b60a083018761465e565b61476860c08301866146a6565b61477560e083018561465e565b6147836101008301846146e7565b9a9950505050505050505050565b600061ffff82169050919050565b6147a881614791565b81146147b357600080fd5b50565b6000813590506147c58161479f565b92915050565b6000602082840312156147e1576147e06144e0565b5b60006147ef848285016147b6565b91505092915050565b600060208201905061480d600083018461465e565b92915050565b61481c81614654565b811461482757600080fd5b50565b60008135905061483981614813565b92915050565b60008060408385031215614856576148556144e0565b5b60006148648582860161450b565b92505060206148758582860161482a565b9150509250929050565b61488881614791565b82525050565b6004811061489f5761489e6145dd565b5b50565b60008190506148b08261488e565b919050565b60006148c0826148a2565b9050919050565b6148d0816148b5565b82525050565b60006080820190506148eb60008301876146e7565b6148f8602083018661487f565b61490560408301856148c7565b614912606083018461465e565b95945050505050565b600080fd5b600080fd5b7f4e487b7100000000000000000000000000000000000000000000000000000000600052604160045260246000fd5b61495d82614593565b810181811067ffffffffffffffff8211171561497c5761497b614925565b5b80604052505050565b600061498f6144d6565b905061499b8282614954565b919050565b600067ffffffffffffffff8211156149bb576149ba614925565b5b6149c482614593565b9050602081019050919050565b82818337600083830152505050565b60006149f36149ee846149a0565b614985565b905082815260208101848484011115614a0f57614a0e614920565b5b614a1a8482856149d1565b509392505050565b600082601f830112614a3757614a3661491b565b5b8135614a478482602086016149e0565b91505092915050565b600060208284031215614a6657614a656144e0565b5b600082013567ffffffffffffffff811115614a8457614a836144e5565b5b614a9084828501614a22565b91505092915050565b60048110614aa657600080fd5b50565b600081359050614ab881614a99565b92915050565b614ac7816146d5565b8114614ad257600080fd5b50565b600081359050614ae481614abe565b92915050565b600080600080600060a08688031215614b0657614b056144e0565b5b600086013567ffffffffffffffff811115614b2457614b236144e5565b5b614b3088828901614a22565b955050602086013567ffffffffffffffff811115614b5157614b506144e5565b5b614b5d88828901614a22565b9450506040614b6e88828901614aa9565b9350506060614b7f8882890161482a565b9250506080614b9088828901614ad5565b9150509295509295909350565b600082825260208201905092915050565b6000614bb98261454d565b614bc38185614b9d565b9350614bd3818560208601614569565b614bdc81614593565b840191505092915050565b614bf081614633565b82525050565b614bff81614654565b82525050565b614c0e81614694565b82525050565b614c1d816146d5565b82525050565b6000610120830160008301518482036000860152614c418282614bae565b91505060208301518482036020860152614c5b8282614bae565b9150506040830151614c706040860182614be7565b506060830151614c836060860182614bf6565b506080830151614c966080860182614bf6565b5060a0830151614ca960a0860182614bf6565b5060c0830151614cbc60c0860182614c05565b5060e0830151614ccf60e0860182614bf6565b50610100830151614ce4610100860182614c14565b508091505092915050565b60006020820190508181036000830152614d098184614c23565b905092915050565b6000602082019050614d2660008301846146e7565b92915050565b600060208284031215614d4257614d416144e0565b5b6000614d5084828501614ad5565b91505092915050565b60008115159050919050565b614d6e81614d59565b82525050565b6000602082019050614d896000830184614d65565b92915050565b60048110614d9c57600080fd5b50565b600081359050614dae81614d8f565b92915050565b60008060408385031215614dcb57614dca6144e0565b5b600083013567ffffffffffffffff811115614de957614de86144e5565b5b614df585828601614a22565b9250506020614e0685828601614d9f565b9150509250929050565b614e1981614d59565b8114614e2457600080fd5b50565b600081359050614e3681614e10565b92915050565b60008060408385031215614e5357614e526144e0565b5b6000614e6185828601614ad5565b9250506020614e7285828601614e27565b9150509250929050565b60008060408385031215614e9357614e926144e0565b5b6000614ea185828601614ad5565b9250506020614eb2858286016147b6565b9150509250929050565b6000602082019050614ed1600083018461487f565b92915050565b60008060008060808587031215614ef157614ef06144e0565b5b600085013567ffffffffffffffff811115614f0f57614f0e6144e5565b5b614f1b87828801614a22565b945050602085013567ffffffffffffffff811115614f3c57614f3b6144e5565b5b614f4887828801614a22565b9350506040614f598782880161482a565b9250506060614f6a87828801614ad5565b91505092959194509250565b7f4e487b7100000000000000000000000000000000000000000000000000000000600052602260045260246000fd5b60006002820490506001821680614fbd57607f821691505b602082108103614fd057614fcf614f76565b5b50919050565b7f4f6e6c7920746865207265736964656e7473206f72206d616e6167657220686160008201527f76652061636365737320746f20746869732066756e6374696f6e616c69747900602082015250565b6000615032603f83614558565b915061503d82614fd6565b604082019050919050565b6000602082019050818103600083015261506181615025565b9050919050565b7f4e487b7100000000000000000000000000000000000000000000000000000000600052601160045260246000fd5b60006150a282614654565b91506150ad83614654565b92508282019050808211156150c5576150c4615068565b5b92915050565b7f546865207265736964656e74206d7573742062652064656661756c7465720000600082015250565b6000615101601e83614558565b915061510c826150cb565b602082019050919050565b60006020820190508181036000830152615130816150f4565b9050919050565b7f5468697320746f70696320616c72656164792065786973747300000000000000600082015250565b600061516d601983614558565b915061517882615137565b602082019050919050565b6000602082019050818103600083015261519c81615160565b9050919050565b7f57726f6e672063617465676f7279000000000000000000000000000000000000600082015250565b60006151d9600e83614558565b91506151e4826151a3565b602082019050919050565b60006020820190508181036000830152615208816151cc565b9050919050565b60008190508160005260206000209050919050565b60006020601f8301049050919050565b600082821b905092915050565b6000600883026152717fffffffffffffffffffffffffffffffffffffffffffffffffffffffffffffffff82615234565b61527b8683615234565b95508019841693508086168417925050509392505050565b6000819050919050565b60006152b86152b36152ae84614654565b615293565b614654565b9050919050565b6000819050919050565b6152d28361529d565b6152e66152de826152bf565b848454615241565b825550505050565b600090565b6152fb6152ee565b6153068184846152c9565b505050565b5b8181101561532a5761531f6000826152f3565b60018101905061530c565b5050565b601f82111561536f576153408161520f565b61534984615224565b81016020851015615358578190505b61536c61536485615224565b83018261530b565b50505b505050565b600082821c905092915050565b600061539260001984600802615374565b1980831691505092915050565b60006153ab8383615381565b9150826002028217905092915050565b6153c48261454d565b67ffffffffffffffff8111156153dd576153dc614925565b5b6153e78254614fa5565b6153f282828561532e565b600060209050601f8311600181146154255760008415615413578287015190505b61541d858261539f565b865550615485565b601f1984166154338661520f565b60005b8281101561545b57848901518255600182019150602085019450602081019050615436565b868310156154785784890151615474601f891682615381565b8355505b6001600288020188555050505b505050505050565b7f4f6e6c7920746865206d616e61676572206861732061636365737320746f207460008201527f6869732066756e6374696f6e616c697479000000000000000000000000000000602082015250565b60006154e9603183614558565b91506154f48261548d565b604082019050919050565b60006020820190508181036000830152615518816154dc565b9050919050565b7f4120636f756e73656c6f722063616e6e6f742062652072656d6f766564000000600082015250565b6000615555601d83614558565b91506155608261551f565b602082019050919050565b6000602082019050818103600083015261558481615548565b9050919050565b7f5468697320746f70696320646f6573206e6f7420657869737473000000000000600082015250565b60006155c1601a83614558565b91506155cc8261558b565b602082019050919050565b600060208201905081810360008301526155f0816155b4565b9050919050565b7f4f6e6c792049444c4520746f706963732063616e2062652072656d6f76656400600082015250565b600061562d601f83614558565b9150615638826155f7565b602082019050919050565b6000602082019050818103600083015261565c81615620565b9050919050565b7f4f6e6c7920564f54494e4720746f706963732063616e20626520636c6f736564600082015250565b6000615699602083614558565b91506156a482615663565b602082019050919050565b600060208201905081810360008301526156c88161568c565b9050919050565b7f596f752063616e206e6f742066696e697368206120766f74696e67207769746860008201527f6f757420726561636820746865206d696e696d756d20766f746573206e65636560208201527f7373617279000000000000000000000000000000000000000000000000000000604082015250565b6000615751604583614558565b915061575c826156cf565b606082019050919050565b6000602082019050818103600083015261578081615744565b9050919050565b7f4e487b7100000000000000000000000000000000000000000000000000000000600052603260045260246000fd5b600060ff82169050919050565b60006157ce826157b6565b915060ff82036157e1576157e0615068565b5b600182019050919050565b7f546865206f7074696f6e2063616e6e6f7420626520454d505459000000000000600082015250565b6000615822601a83614558565b915061582d826157ec565b602082019050919050565b6000602082019050818103600083015261585181615815565b9050919050565b7f4f6e6c7920564f54494e4720746f706963732063616e20626520766f74656400600082015250565b600061588e601f83614558565b915061589982615858565b602082019050919050565b600060208201905081810360008301526158bd81615881565b9050919050565b7f41207265736964656e63652073686f756c6420766f7465206f6e6c79206f6e6360008201527f6500000000000000000000000000000000000000000000000000000000000000602082015250565b6000615920602183614558565b915061592b826158c4565b604082019050919050565b6000602082019050818103600083015261594f81615913565b9050919050565b7f496e76616c696420616464726573730000000000000000000000000000000000600082015250565b600061598c600f83614558565b915061599782615956565b602082019050919050565b600060208201905081810360008301526159bb8161597f565b9050919050565b7f54686520636f756e73656c6f72206d7573742062652061207265736964656e74600082015250565b60006159f8602083614558565b9150615a03826159c2565b602082019050919050565b60006020820190508181036000830152615a27816159eb565b9050919050565b7f4f6e6c792049444c4520746f706963732063616e206265206f70656e20666f7260008201527f20766f74696e6700000000000000000000000000000000000000000000000000602082015250565b6000615a8a602783614558565b9150615a9582615a2e565b604082019050919050565b60006020820190508181036000830152615ab981615a7d565b9050919050565b7f4f6e6c792074686520636f756e73656c6f7273206f72206d616e61676572206860008201527f6176652061636365737320746f20746869732066756e6374696f6e616c697479602082015250565b6000615b1c604083614558565b9150615b2782615ac0565b604082019050919050565b60006020820190508181036000830152615b4b81615b0f565b9050919050565b7f54686973207265736964656e636520646f6573206e6f74206578697374730000600082015250565b6000615b88601e83614558565b9150615b9382615b52565b602082019050919050565b60006020820190508181036000830152615bb781615b7b565b9050919050565b7f546865207265736964656e636520646f6573206e6f7420657869737473000000600082015250565b6000615bf4601d83614558565b9150615bff82615bbe565b602082019050919050565b60006020820190508181036000830152615c2381615be7565b9050919050565b7f57726f6e672076616c7565000000000000000000000000000000000000000000600082015250565b6000615c60600b83614558565b9150615c6b82615c2a565b602082019050919050565b60006020820190508181036000830152615c8f81615c53565b9050919050565b7f596f752063616e206e6f74207061792074776963652061206d6f6e7468000000600082015250565b6000615ccc601d83614558565b9150615cd782615c96565b602082019050919050565b60006020820190508181036000830152615cfb81615cbf565b9050919050565b7f4f6e6c792049444c4520746f706963732063616e206265206564697465640000600082015250565b6000615d38601e83614558565b9150615d4382615d02565b602082019050919050565b60006020820190508181036000830152615d6781615d2b565b905091905056fea264697066735822122027be7f5d9f3eb20c3d5373075d68c048eeccd66486eda83138079efa8704ba6c64736f6c63430008180033",
  "linkReferences": {},
  "deployedLinkReferences": {}
}