{
  "_format": "hh-sol-artifact-1",
  "contractName": "Condominium",
  "sourceName": "contracts/Condominium.sol",
  "abi": [
    {
      "inputs": [],
      "stateMutability": "nonpayable",
      "type": "constructor"
    },
    {
      "inputs": [
        {
          "internalType": "address",
          "name": "resident",
          "type": "address"
        },
        {
          "internalType": "uint16",
          "name": "residenceNumber",
          "type": "uint16"
        }
      ],
      "name": "addResident",
      "outputs": [],
      "stateMutability": "nonpayable",
      "type": "function"
    },
    {
      "inputs": [
        {
          "internalType": "string",
          "name": "title",
          "type": "string"
        },
        {
          "internalType": "string",
          "name": "description",
          "type": "string"
        },
        {
          "internalType": "enum CondominiumLib.Category",
          "name": "category",
          "type": "uint8"
        },
        {
          "internalType": "uint256",
          "name": "amount",
          "type": "uint256"
        },
        {
          "internalType": "address",
          "name": "responsible",
          "type": "address"
        }
      ],
      "name": "addTopic",
      "outputs": [],
      "stateMutability": "nonpayable",
      "type": "function"
    },
    {
      "inputs": [
        {
          "internalType": "string",
          "name": "title",
          "type": "string"
        }
      ],
      "name": "closeVoting",
      "outputs": [
        {
          "components": [
            {
              "internalType": "bytes32",
              "name": "topicId",
              "type": "bytes32"
            },
            {
              "internalType": "string",
              "name": "title",
              "type": "string"
            },
            {
              "internalType": "enum CondominiumLib.Status",
              "name": "status",
              "type": "uint8"
            },
            {
              "internalType": "enum CondominiumLib.Category",
              "name": "category",
              "type": "uint8"
            }
          ],
          "internalType": "struct CondominiumLib.TopicUpdate",
          "name": "",
          "type": "tuple"
        }
      ],
      "stateMutability": "nonpayable",
      "type": "function"
    },
    {
      "inputs": [
        {
          "internalType": "address",
          "name": "",
          "type": "address"
        }
      ],
      "name": "counselors",
      "outputs": [
        {
          "internalType": "bool",
          "name": "",
          "type": "bool"
        }
      ],
      "stateMutability": "view",
      "type": "function"
    },
    {
      "inputs": [
        {
          "internalType": "string",
          "name": "topicToEdit",
          "type": "string"
        },
        {
          "internalType": "string",
          "name": "description",
          "type": "string"
        },
        {
          "internalType": "uint256",
          "name": "amount",
          "type": "uint256"
        },
        {
          "internalType": "address",
          "name": "responsible",
          "type": "address"
        }
      ],
      "name": "editTopic",
      "outputs": [
        {
          "components": [
            {
              "internalType": "bytes32",
              "name": "topicId",
              "type": "bytes32"
            },
            {
              "internalType": "string",
              "name": "title",
              "type": "string"
            },
            {
              "internalType": "enum CondominiumLib.Status",
              "name": "status",
              "type": "uint8"
            },
            {
              "internalType": "enum CondominiumLib.Category",
              "name": "category",
              "type": "uint8"
            }
          ],
          "internalType": "struct CondominiumLib.TopicUpdate",
          "name": "",
          "type": "tuple"
        }
      ],
      "stateMutability": "nonpayable",
      "type": "function"
    },
    {
      "inputs": [],
      "name": "getManager",
      "outputs": [
        {
          "internalType": "address",
          "name": "",
          "type": "address"
        }
      ],
      "stateMutability": "view",
      "type": "function"
    },
    {
      "inputs": [],
      "name": "getQuota",
      "outputs": [
        {
          "internalType": "uint256",
          "name": "",
          "type": "uint256"
        }
      ],
      "stateMutability": "view",
      "type": "function"
    },
    {
      "inputs": [
        {
          "internalType": "string",
          "name": "title",
          "type": "string"
        }
      ],
      "name": "getTopic",
      "outputs": [
        {
          "components": [
            {
              "internalType": "string",
              "name": "title",
              "type": "string"
            },
            {
              "internalType": "string",
              "name": "description",
              "type": "string"
            },
            {
              "internalType": "enum CondominiumLib.Status",
              "name": "status",
              "type": "uint8"
            },
            {
              "internalType": "uint256",
              "name": "createdDate",
              "type": "uint256"
            },
            {
              "internalType": "uint256",
              "name": "startDate",
              "type": "uint256"
            },
            {
              "internalType": "uint256",
              "name": "endDate",
              "type": "uint256"
            },
            {
              "internalType": "enum CondominiumLib.Category",
              "name": "category",
              "type": "uint8"
            },
            {
              "internalType": "uint256",
              "name": "amount",
              "type": "uint256"
            },
            {
              "internalType": "address",
              "name": "responsible",
              "type": "address"
            }
          ],
          "internalType": "struct CondominiumLib.Topic",
          "name": "",
          "type": "tuple"
        }
      ],
      "stateMutability": "view",
      "type": "function"
    },
    {
      "inputs": [
        {
          "internalType": "address",
          "name": "resident",
          "type": "address"
        }
      ],
      "name": "isResident",
      "outputs": [
        {
          "internalType": "bool",
          "name": "",
          "type": "bool"
        }
      ],
      "stateMutability": "view",
      "type": "function"
    },
    {
      "inputs": [],
      "name": "manager",
      "outputs": [
        {
          "internalType": "address",
          "name": "",
          "type": "address"
        }
      ],
      "stateMutability": "view",
      "type": "function"
    },
    {
      "inputs": [],
      "name": "monthlyQuota",
      "outputs": [
        {
          "internalType": "uint256",
          "name": "",
          "type": "uint256"
        }
      ],
      "stateMutability": "view",
      "type": "function"
    },
    {
      "inputs": [
        {
          "internalType": "string",
          "name": "title",
          "type": "string"
        }
      ],
      "name": "numberOfVotes",
      "outputs": [
        {
          "internalType": "uint256",
          "name": "",
          "type": "uint256"
        }
      ],
      "stateMutability": "view",
      "type": "function"
    },
    {
      "inputs": [
        {
          "internalType": "string",
          "name": "title",
          "type": "string"
        }
      ],
      "name": "openVoting",
      "outputs": [
        {
          "components": [
            {
              "internalType": "bytes32",
              "name": "topicId",
              "type": "bytes32"
            },
            {
              "internalType": "string",
              "name": "title",
              "type": "string"
            },
            {
              "internalType": "enum CondominiumLib.Status",
              "name": "status",
              "type": "uint8"
            },
            {
              "internalType": "enum CondominiumLib.Category",
              "name": "category",
              "type": "uint8"
            }
          ],
          "internalType": "struct CondominiumLib.TopicUpdate",
          "name": "",
          "type": "tuple"
        }
      ],
      "stateMutability": "nonpayable",
      "type": "function"
    },
    {
      "inputs": [
        {
          "internalType": "uint16",
          "name": "residence",
          "type": "uint16"
        }
      ],
      "name": "payQuota",
      "outputs": [],
      "stateMutability": "payable",
      "type": "function"
    },
    {
      "inputs": [
        {
          "internalType": "uint16",
          "name": "",
          "type": "uint16"
        }
      ],
      "name": "payments",
      "outputs": [
        {
          "internalType": "uint256",
          "name": "",
          "type": "uint256"
        }
      ],
      "stateMutability": "view",
      "type": "function"
    },
    {
      "inputs": [
        {
          "internalType": "address",
          "name": "resident",
          "type": "address"
        }
      ],
      "name": "removeResident",
      "outputs": [],
      "stateMutability": "nonpayable",
      "type": "function"
    },
    {
      "inputs": [
        {
          "internalType": "string",
          "name": "title",
          "type": "string"
        }
      ],
      "name": "removeTopic",
      "outputs": [
        {
          "components": [
            {
              "internalType": "bytes32",
              "name": "topicId",
              "type": "bytes32"
            },
            {
              "internalType": "string",
              "name": "title",
              "type": "string"
            },
            {
              "internalType": "enum CondominiumLib.Status",
              "name": "status",
              "type": "uint8"
            },
            {
              "internalType": "enum CondominiumLib.Category",
              "name": "category",
              "type": "uint8"
            }
          ],
          "internalType": "struct CondominiumLib.TopicUpdate",
          "name": "",
          "type": "tuple"
        }
      ],
      "stateMutability": "nonpayable",
      "type": "function"
    },
    {
      "inputs": [
        {
          "internalType": "uint16",
          "name": "residence",
          "type": "uint16"
        }
      ],
      "name": "residenceExists",
      "outputs": [
        {
          "internalType": "bool",
          "name": "",
          "type": "bool"
        }
      ],
      "stateMutability": "view",
      "type": "function"
    },
    {
      "inputs": [
        {
          "internalType": "uint16",
          "name": "",
          "type": "uint16"
        }
      ],
      "name": "residences",
      "outputs": [
        {
          "internalType": "bool",
          "name": "",
          "type": "bool"
        }
      ],
      "stateMutability": "view",
      "type": "function"
    },
    {
      "inputs": [
        {
          "internalType": "address",
          "name": "",
          "type": "address"
        }
      ],
      "name": "residents",
      "outputs": [
        {
          "internalType": "uint16",
          "name": "",
          "type": "uint16"
        }
      ],
      "stateMutability": "view",
      "type": "function"
    },
    {
      "inputs": [
        {
          "internalType": "address",
          "name": "resident",
          "type": "address"
        },
        {
          "internalType": "bool",
          "name": "isEntering",
          "type": "bool"
        }
      ],
      "name": "setCounselor",
      "outputs": [],
      "stateMutability": "nonpayable",
      "type": "function"
    },
    {
      "inputs": [
        {
          "internalType": "string",
          "name": "title",
          "type": "string"
        }
      ],
      "name": "topicExists",
      "outputs": [
        {
          "internalType": "bool",
          "name": "",
          "type": "bool"
        }
      ],
      "stateMutability": "view",
      "type": "function"
    },
    {
      "inputs": [
        {
          "internalType": "bytes32",
          "name": "",
          "type": "bytes32"
        }
      ],
      "name": "topics",
      "outputs": [
        {
          "internalType": "string",
          "name": "title",
          "type": "string"
        },
        {
          "internalType": "string",
          "name": "description",
          "type": "string"
        },
        {
          "internalType": "enum CondominiumLib.Status",
          "name": "status",
          "type": "uint8"
        },
        {
          "internalType": "uint256",
          "name": "createdDate",
          "type": "uint256"
        },
        {
          "internalType": "uint256",
          "name": "startDate",
          "type": "uint256"
        },
        {
          "internalType": "uint256",
          "name": "endDate",
          "type": "uint256"
        },
        {
          "internalType": "enum CondominiumLib.Category",
          "name": "category",
          "type": "uint8"
        },
        {
          "internalType": "uint256",
          "name": "amount",
          "type": "uint256"
        },
        {
          "internalType": "address",
          "name": "responsible",
          "type": "address"
        }
      ],
      "stateMutability": "view",
      "type": "function"
    },
    {
      "inputs": [
        {
          "internalType": "string",
          "name": "title",
          "type": "string"
        },
        {
          "internalType": "uint256",
          "name": "amount",
          "type": "uint256"
        }
      ],
      "name": "transfer",
      "outputs": [
        {
          "components": [
            {
              "internalType": "address",
              "name": "to",
              "type": "address"
            },
            {
              "internalType": "uint256",
              "name": "amount",
              "type": "uint256"
            },
            {
              "internalType": "string",
              "name": "topic",
              "type": "string"
            }
          ],
          "internalType": "struct CondominiumLib.TransferReceipt",
          "name": "",
          "type": "tuple"
        }
      ],
      "stateMutability": "nonpayable",
      "type": "function"
    },
    {
      "inputs": [
        {
          "internalType": "string",
          "name": "title",
          "type": "string"
        },
        {
          "internalType": "enum CondominiumLib.VoteOptions",
          "name": "option",
          "type": "uint8"
        }
      ],
      "name": "vote",
      "outputs": [],
      "stateMutability": "nonpayable",
      "type": "function"
    },
    {
      "inputs": [
        {
          "internalType": "bytes32",
          "name": "",
          "type": "bytes32"
        },
        {
          "internalType": "uint256",
          "name": "",
          "type": "uint256"
        }
      ],
      "name": "votings",
      "outputs": [
        {
          "internalType": "address",
          "name": "resident",
          "type": "address"
        },
        {
          "internalType": "uint16",
          "name": "residence",
          "type": "uint16"
        },
        {
          "internalType": "enum CondominiumLib.VoteOptions",
          "name": "option",
          "type": "uint8"
        },
        {
          "internalType": "uint256",
          "name": "timestamp",
          "type": "uint256"
        }
      ],
      "stateMutability": "view",
      "type": "function"
    }
  ],
  "bytecode": "0x6080604052662386f26fc100006001553480156200001c57600080fd5b5062000039670fa62c19512f658b60c01b6200024b60201b60201c565b62000055671124966102c9094060c01b6200024b60201b60201c565b336000806101000a81548173ffffffffffffffffffffffffffffffffffffffff021916908373ffffffffffffffffffffffffffffffffffffffff160217905550620000b16727ea5e281480b27860c01b6200024b60201b60201c565b620000cd67c9fbda21adfecc1560c01b6200024b60201b60201c565b6000600190505b60028161ffff16116200024457620000fd67a9d15fb28f4a44ca60c01b6200024b60201b60201c565b6200011967f74295aa0029a09b60c01b6200024b60201b60201c565b6000600190505b60058161ffff16116200022d57620001496769ed044df2fe636360c01b6200024b60201b60201c565b620001656782d7b3c996125fdf60c01b6200024b60201b60201c565b6000600190505b60058161ffff1611620002165762000195679d428feb7a21a2c060c01b6200024b60201b60201c565b60016002600083606486620001ab91906200028b565b6103e888620001bb91906200028b565b620001c79190620002d1565b620001d39190620002d1565b61ffff1661ffff16815260200190815260200160002060006101000a81548160ff02191690831515021790555080806200020d906200030e565b9150506200016c565b50808062000224906200030e565b91505062000120565b5080806200023b906200030e565b915050620000d4565b506200033d565b50565b600061ffff82169050919050565b7f4e487b7100000000000000000000000000000000000000000000000000000000600052601160045260246000fd5b600062000298826200024e565b9150620002a5836200024e565b9250828202620002b5816200024e565b9150808214620002ca57620002c96200025c565b5b5092915050565b6000620002de826200024e565b9150620002eb836200024e565b9250828201905061ffff8111156200030857620003076200025c565b5b92915050565b60006200031b826200024e565b915061ffff82036200033257620003316200025c565b5b600182019050919050565b616a1d806200034d6000396000f3fe6080604052600436106101815760003560e01c806378b5749d116100d15780639e1bf9851161008a578063c12e806311610064578063c12e806314610635578063d500958414610651578063e4d65d541461067c578063eaf5d9dc146106b957610181565b80639e1bf98514610592578063b1583546146105cf578063bc2f89f3146105f857610181565b806378b5749d1461044c5780637b57ee49146104895780638fc5dad8146104c657806390ca27f314610503578063967d59e41461052c57806396fa1def1461056957610181565b806343b8c6b11161013e5780634de53265116101185780634de532651461037e578063597de987146103bb57806368aca335146103e4578063783bb57d1461042157610181565b806343b8c6b1146102ed578063474502d814610316578063481c6a751461035357610181565b80630f2fbeec1461018657806312cb70c7146101cb5780631794230c146102085780631a6c0192146102455780631df8ba77146102855780632f9f21fe146102b0575b600080fd5b34801561019257600080fd5b506101ad60048036038101906101a89190614ea7565b6106f6565b6040516101c29998979695949392919061507d565b60405180910390f35b3480156101d757600080fd5b506101f260048036038101906101ed9190615279565b61088e565b6040516101ff919061538d565b60405180910390f35b34801561021457600080fd5b5061022f600480360381019061022a91906153e9565b610d89565b60405161023c9190615416565b60405180910390f35b34801561025157600080fd5b5061026c60048036038101906102679190615431565b610da1565b60405161027c94939291906154c8565b60405180910390f35b34801561029157600080fd5b5061029a610e29565b6040516102a79190615416565b60405180910390f35b3480156102bc57600080fd5b506102d760048036038101906102d2919061550d565b610e6f565b6040516102e49190615416565b60405180910390f35b3480156102f957600080fd5b50610314600480360381019061030f91906155a7565b610f00565b005b34801561032257600080fd5b5061033d6004803603810190610338919061550d565b611650565b60405161034a9190615744565b60405180910390f35b34801561035f57600080fd5b50610368611907565b6040516103759190615766565b60405180910390f35b34801561038a57600080fd5b506103a560048036038101906103a09190615781565b61192b565b6040516103b291906157c9565b60405180910390f35b3480156103c757600080fd5b506103e260048036038101906103dd9190615781565b61194b565b005b3480156103f057600080fd5b5061040b60048036038101906104069190615781565b611bd1565b60405161041891906157c9565b60405180910390f35b34801561042d57600080fd5b50610436611c6b565b6040516104439190615416565b60405180910390f35b34801561045857600080fd5b50610473600480360381019061046e919061550d565b611c71565b60405161048091906157c9565b60405180910390f35b34801561049557600080fd5b506104b060048036038101906104ab919061550d565b611cc6565b6040516104bd9190615856565b60405180910390f35b3480156104d257600080fd5b506104ed60048036038101906104e8919061550d565b612103565b6040516104fa9190615856565b60405180910390f35b34801561050f57600080fd5b5061052a6004803603810190610525919061589d565b612da5565b005b34801561053857600080fd5b50610553600480360381019061054e91906153e9565b6137f0565b60405161056091906157c9565b60405180910390f35b34801561057557600080fd5b50610590600480360381019061058b9190615925565b61385e565b005b34801561059e57600080fd5b506105b960048036038101906105b4919061550d565b613c78565b6040516105c69190615856565b60405180910390f35b3480156105db57600080fd5b506105f660048036038101906105f19190615965565b61407e565b005b34801561060457600080fd5b5061061f600480360381019061061a91906153e9565b614467565b60405161062c91906157c9565b60405180910390f35b61064f600480360381019061064a91906153e9565b614487565b005b34801561065d57600080fd5b506106666146ba565b6040516106739190615766565b60405180910390f35b34801561068857600080fd5b506106a3600480360381019061069e9190615781565b61471e565b6040516106b091906159a5565b60405180910390f35b3480156106c557600080fd5b506106e060048036038101906106db91906159c0565b61473f565b6040516106ed9190615856565b60405180910390f35b600660205280600052604060002060009150905080600001805461071990615a8e565b80601f016020809104026020016040519081016040528092919081815260200182805461074590615a8e565b80156107925780601f1061076757610100808354040283529160200191610792565b820191906000526020600020905b81548152906001019060200180831161077557829003601f168201915b5050505050908060010180546107a790615a8e565b80601f01602080910402602001604051908101604052809291908181526020018280546107d390615a8e565b80156108205780601f106107f557610100808354040283529160200191610820565b820191906000526020600020905b81548152906001019060200180831161080357829003601f168201915b5050505050908060020160009054906101000a900460ff16908060030154908060040154908060050154908060060160009054906101000a900460ff16908060070154908060080160009054906101000a900473ffffffffffffffffffffffffffffffffffffffff16905089565b610896614cf4565b6108aa6724d3ba3b6aa5a9ea60c01b614cdf565b6108be6761c5454f0a7112f560c01b614cdf565b6108d2674512f2c213c97bb460c01b614cdf565b6108e667db843cb14f6fe90c60c01b614cdf565b6108fa67c0628f3441ec25b860c01b614cdf565b60008054906101000a900473ffffffffffffffffffffffffffffffffffffffff1673ffffffffffffffffffffffffffffffffffffffff163273ffffffffffffffffffffffffffffffffffffffff1614610988576040517f08c379a000000000000000000000000000000000000000000000000000000000815260040161097f90615b31565b60405180910390fd5b61099c6734af8f67ea12b67860c01b614cdf565b6109b067bcbfb3236db88bbc60c01b614cdf565b6109c4677e3bf46b97a368ec60c01b614cdf565b6109d867ee34d0b516b370cc60c01b614cdf565b6109ec6723028a467b0e904d60c01b614cdf565b610a00679637fccc0dc5a0fb60c01b614cdf565b610a14674f058a95a9d4f21c60c01b614cdf565b81471015610a57576040517f08c379a0000000000000000000000000000000000000000000000000000000008152600401610a4e90615b9d565b60405180910390fd5b610a6b67f556f706961bee9d60c01b614cdf565b610a7f67fbf35be8932a521a60c01b614cdf565b610a9367bdf67a80fc6038f860c01b614cdf565b6000610a9e84611650565b9050610ab46772a0460698a0598c60c01b614cdf565b610ac867b95a65b1ebf3e4fc60c01b614cdf565b610adc67d2fd8259f1a27c6460c01b614cdf565b60026005811115610af057610aef614f64565b5b81604001516005811115610b0757610b06614f64565b5b148015610b3c575060016003811115610b2357610b22614f64565b5b8160c001516003811115610b3a57610b39614f64565b5b145b610b7b576040517f08c379a0000000000000000000000000000000000000000000000000000000008152600401610b7290615c2f565b60405180910390fd5b610b8f6766d20a5b72c45b8660c01b614cdf565b610ba367a0404b83e3e561b260c01b614cdf565b610bb767dfaff7c195e5286760c01b614cdf565b610bcb673342d21884b86c6260c01b614cdf565b828160e001511015610c12576040517f08c379a0000000000000000000000000000000000000000000000000000000008152600401610c0990615cc1565b60405180910390fd5b610c2667e737af9f4667a81e60c01b614cdf565b610c3a6732de1ccf72253b3a60c01b614cdf565b610c4e67386388d4f4335bc360c01b614cdf565b80610100015173ffffffffffffffffffffffffffffffffffffffff166108fc849081150290604051600060405180830381858888f19350505050158015610c99573d6000803e3d6000fd5b50610cae6724e7904531790f4360c01b614cdf565b610cc2675dd0bb380faa949b60c01b614cdf565b600084805190602001209050610ce267ebeddd4398feae4460c01b614cdf565b60056006600083815260200190815260200160002060020160006101000a81548160ff02191690836005811115610d1c57610d1b614f64565b5b0217905550610d3567610c3306469a01b960c01b614cdf565b610d49675bdc5d2948dc781260c01b614cdf565b604051806060016040528083610100015173ffffffffffffffffffffffffffffffffffffffff168152602001858152602001868152509250505092915050565b60056020528060005260406000206000915090505481565b60076020528160005260406000208181548110610dbd57600080fd5b9060005260206000209060020201600091509150508060000160009054906101000a900473ffffffffffffffffffffffffffffffffffffffff16908060000160149054906101000a900461ffff16908060000160169054906101000a900460ff16908060010154905084565b6000610e3f67119efe38c8f876a960c01b614cdf565b610e5367b977e71cc12e1dcd60c01b614cdf565b610e67675edf1654bb13c40460c01b614cdf565b600154905090565b6000610e8567431cc48776acaf3f60c01b614cdf565b610e99678a37a4e49b977c5560c01b614cdf565b610ead67e79505f8859cb21460c01b614cdf565b600082805190602001209050610ecd67b10643701432d09560c01b614cdf565b610ee167d0671a0fc44c605760c01b614cdf565b6007600082815260200190815260200160002080549050915050919050565b610f146790255be6a86a217360c01b614cdf565b610f28679b0fdd7e6a91f32a60c01b614cdf565b610f3c67d2ceade5e8a7bca760c01b614cdf565b610f50679d5dad9fa0ef790b60c01b614cdf565b610f6467f97ade09e955da9760c01b614cdf565b60008054906101000a900473ffffffffffffffffffffffffffffffffffffffff1673ffffffffffffffffffffffffffffffffffffffff163273ffffffffffffffffffffffffffffffffffffffff16148015610fcf5750610fce676b94f44bf950f0c360c01b614ce2565b5b80610ffb5750610fde32611bd1565b8015610ffa5750610ff967cd030515d566781660c01b614ce2565b5b5b61103a576040517f08c379a000000000000000000000000000000000000000000000000000000000815260040161103190615d53565b60405180910390fd5b61104e676f9df8fbe26c7ae160c01b614cdf565b61106267bfa5d41b794c5b4e60c01b614cdf565b6110766773d4943bb67f615f60c01b614cdf565b61108a67f3e92bcd0d3830ae60c01b614cdf565b60008054906101000a900473ffffffffffffffffffffffffffffffffffffffff1673ffffffffffffffffffffffffffffffffffffffff163273ffffffffffffffffffffffffffffffffffffffff161480156110f557506110f467ca1da865bfb5b00a60c01b614ce2565b5b80611191575062278d0060056000600460003273ffffffffffffffffffffffffffffffffffffffff1673ffffffffffffffffffffffffffffffffffffffff16815260200190815260200160002060009054906101000a900461ffff1661ffff1661ffff168152602001908152602001600020546111729190615da2565b42108015611190575061118f673c0bdd753500f7e360c01b614ce2565b5b5b6111d0576040517f08c379a00000000000000000000000000000000000000000000000000000000081526004016111c790615e22565b60405180910390fd5b6111e46719d082b3c557e05460c01b614cdf565b6111f867dc9ade8ef36d5b2660c01b614cdf565b61120c674d198026a75b81bf60c01b614cdf565b61122067ea2baf3cd243261860c01b614cdf565b6112346797a8bfcd647d8b9760c01b614cdf565b61124867b2c1caf62d8101b160c01b614cdf565b61125c671cc5ce3d170bcb9760c01b614cdf565b61126585611c71565b156112a5576040517f08c379a000000000000000000000000000000000000000000000000000000000815260040161129c90615e8e565b60405180910390fd5b6112b9673eba1e2b1913f81060c01b614cdf565b6112cd67330a741e26a5046d60c01b614cdf565b6112e167adea8c4d738514ca60c01b614cdf565b6000821115611421576112fe6777f9accf2aa93bd760c01b614cdf565b611312679061153aa686b1f560c01b614cdf565b611326675d6e98fa0565f46a60c01b614cdf565b61133a67b9761a9015741d6f60c01b614cdf565b6002600381111561134e5761134d614f64565b5b83600381111561136157611360614f64565b5b14801561137e575061137d67747e0c1739788bb360c01b614ce2565b5b806113c957506001600381111561139857611397614f64565b5b8360038111156113ab576113aa614f64565b5b1480156113c857506113c76767a38342576caba460c01b614ce2565b5b5b611408576040517f08c379a00000000000000000000000000000000000000000000000000000000081526004016113ff90615efa565b60405180910390fd5b61141c67a68648821bf2bc0960c01b614cdf565b611436565b6114356705e9d4ccaff974ef60c01b614cdf565b5b61144a67a4462b9c3d6a505460c01b614cdf565b61145e678a973ee20502acb460c01b614cdf565b60006040518061012001604052808781526020018681526020016000600581111561148c5761148b614f64565b5b815260200142815260200160008152602001600081526020018560038111156114b8576114b7614f64565b5b8152602001848152602001600073ffffffffffffffffffffffffffffffffffffffff168473ffffffffffffffffffffffffffffffffffffffff16036114fd57326114ff565b835b73ffffffffffffffffffffffffffffffffffffffff16815250905061152e67cd59ae41bf5a53af60c01b614cdf565b806006600088805190602001208152602001908152602001600020600082015181600001908161155e91906160c6565b50602082015181600101908161157491906160c6565b5060408201518160020160006101000a81548160ff021916908360058111156115a05761159f614f64565b5b0217905550606082015181600301556080820151816004015560a0820151816005015560c08201518160060160006101000a81548160ff021916908360038111156115ee576115ed614f64565b5b021790555060e082015181600701556101008201518160080160006101000a81548173ffffffffffffffffffffffffffffffffffffffff021916908373ffffffffffffffffffffffffffffffffffffffff160217905550905050505050505050565b611658614d2b565b61166c67a20a093bdf27486060c01b614cdf565b61168067d1ffdeba592b972060c01b614cdf565b61169467c66622f922232c1860c01b614cdf565b6000828051906020012090506116b467d12ea055418c8eb760c01b614cdf565b6116c86737e1686aed3d546660c01b614cdf565b60066000828152602001908152602001600020604051806101200160405290816000820180546116f790615a8e565b80601f016020809104026020016040519081016040528092919081815260200182805461172390615a8e565b80156117705780601f1061174557610100808354040283529160200191611770565b820191906000526020600020905b81548152906001019060200180831161175357829003601f168201915b5050505050815260200160018201805461178990615a8e565b80601f01602080910402602001604051908101604052809291908181526020018280546117b590615a8e565b80156118025780601f106117d757610100808354040283529160200191611802565b820191906000526020600020905b8154815290600101906020018083116117e557829003601f168201915b505050505081526020016002820160009054906101000a900460ff1660058111156118305761182f614f64565b5b600581111561184257611841614f64565b5b81526020016003820154815260200160048201548152602001600582015481526020016006820160009054906101000a900460ff16600381111561188957611888614f64565b5b600381111561189b5761189a614f64565b5b8152602001600782015481526020016008820160009054906101000a900473ffffffffffffffffffffffffffffffffffffffff1673ffffffffffffffffffffffffffffffffffffffff1673ffffffffffffffffffffffffffffffffffffffff1681525050915050919050565b60008054906101000a900473ffffffffffffffffffffffffffffffffffffffff1681565b60036020528060005260406000206000915054906101000a900460ff1681565b61195f67ca25c791ab6d3fad60c01b614cdf565b6119736761c5454f0a7112f560c01b614cdf565b611987674512f2c213c97bb460c01b614cdf565b61199b67db843cb14f6fe90c60c01b614cdf565b6119af67c0628f3441ec25b860c01b614cdf565b60008054906101000a900473ffffffffffffffffffffffffffffffffffffffff1673ffffffffffffffffffffffffffffffffffffffff163273ffffffffffffffffffffffffffffffffffffffff1614611a3d576040517f08c379a0000000000000000000000000000000000000000000000000000000008152600401611a3490615b31565b60405180910390fd5b611a516734af8f67ea12b67860c01b614cdf565b611a6567bcbfb3236db88bbc60c01b614cdf565b611a7967e4ab659cf685955660c01b614cdf565b611a8d67b79fb78b01632fc260c01b614cdf565b611aa16760933ea59e335d5f60c01b614cdf565b611ab56723462974ac4e36b960c01b614cdf565b611ac967379bbd8818f746b760c01b614cdf565b600360008273ffffffffffffffffffffffffffffffffffffffff1673ffffffffffffffffffffffffffffffffffffffff16815260200190815260200160002060009054906101000a900460ff1615611b56576040517f08c379a0000000000000000000000000000000000000000000000000000000008152600401611b4d906161e4565b60405180910390fd5b611b6a67725109588390688f60c01b614cdf565b611b7e67aea9f87d5a37b48360c01b614cdf565b600460008273ffffffffffffffffffffffffffffffffffffffff1673ffffffffffffffffffffffffffffffffffffffff16815260200190815260200160002060006101000a81549061ffff021916905550565b6000611be767be54b62234648d5f60c01b614cdf565b611bfb67c9e834bd01ac35a360c01b614cdf565b611c0f67292b9a8c4ade4e5960c01b614cdf565b6000600460008473ffffffffffffffffffffffffffffffffffffffff1673ffffffffffffffffffffffffffffffffffffffff16815260200190815260200160002060009054906101000a900461ffff1661ffff16119050919050565b60015481565b6000611c876743624cae606a5e1860c01b614cdf565b611c9b67c41be3c7ac44c9f160c01b614cdf565b611caf67fe3750f4561be56960c01b614cdf565b6000611cba83611650565b60600151119050919050565b611cce614db1565b611ce267c724c745becb64b260c01b614cdf565b611cf66761c5454f0a7112f560c01b614cdf565b611d0a674512f2c213c97bb460c01b614cdf565b611d1e67db843cb14f6fe90c60c01b614cdf565b611d3267c0628f3441ec25b860c01b614cdf565b60008054906101000a900473ffffffffffffffffffffffffffffffffffffffff1673ffffffffffffffffffffffffffffffffffffffff163273ffffffffffffffffffffffffffffffffffffffff1614611dc0576040517f08c379a0000000000000000000000000000000000000000000000000000000008152600401611db790615b31565b60405180910390fd5b611dd46734af8f67ea12b67860c01b614cdf565b611de867bcbfb3236db88bbc60c01b614cdf565b611dfc677409acc2b1d9f99660c01b614cdf565b611e1067078922252483c9ae60c01b614cdf565b611e24679d2830cedfe4781960c01b614cdf565b611e3867a32f69918622144c60c01b614cdf565b6000611e4383611650565b9050611e596777d54983133f77e960c01b614cdf565b611e6d67b54b1a7ba305fffb60c01b614cdf565b611e816774620f04e60c8a8c60c01b614cdf565b6000816060015111611ec8576040517f08c379a0000000000000000000000000000000000000000000000000000000008152600401611ebf90616250565b60405180910390fd5b611edc678d3a8887f038e68460c01b614cdf565b611ef06720e099ebc608c7c060c01b614cdf565b611f0467112e5349369c252160c01b614cdf565b611f1867533ba40b41a897e560c01b614cdf565b60006005811115611f2c57611f2b614f64565b5b81604001516005811115611f4357611f42614f64565b5b14611f83576040517f08c379a0000000000000000000000000000000000000000000000000000000008152600401611f7a906162bc565b60405180910390fd5b611f9767e0005106b208b86960c01b614cdf565b611fab67e626b10027cd92ab60c01b614cdf565b611fbf67299c4ba62bd2888060c01b614cdf565b600083805190602001209050611fdf670d6ab15b0bd7227960c01b614cdf565b60066000828152602001908152602001600020600080820160006120039190614e00565b6001820160006120139190614e00565b6002820160006101000a81549060ff02191690556003820160009055600482016000905560058201600090556006820160006101000a81549060ff021916905560078201600090556008820160006101000a81549073ffffffffffffffffffffffffffffffffffffffff0219169055505061209867364e0800500930ab60c01b614cdf565b6120ac67715b33c2c7fa720360c01b614cdf565b604051806080016040528082815260200183600001518152602001600460058111156120db576120da614f64565b5b81526020018360c0015160038111156120f7576120f6614f64565b5b81525092505050919050565b61210b614db1565b61211f67e9b250d8e5397a7860c01b614cdf565b6121336761c5454f0a7112f560c01b614cdf565b612147674512f2c213c97bb460c01b614cdf565b61215b67db843cb14f6fe90c60c01b614cdf565b61216f67c0628f3441ec25b860c01b614cdf565b60008054906101000a900473ffffffffffffffffffffffffffffffffffffffff1673ffffffffffffffffffffffffffffffffffffffff163273ffffffffffffffffffffffffffffffffffffffff16146121fd576040517f08c379a00000000000000000000000000000000000000000000000000000000081526004016121f490615b31565b60405180910390fd5b6122116734af8f67ea12b67860c01b614cdf565b61222567bcbfb3236db88bbc60c01b614cdf565b61223967687d5bc0de57497960c01b614cdf565b61224d67e09a5ccd2fd0588660c01b614cdf565b612261678042821d5d85505060c01b614cdf565b61227567226f93f0bdf3ea5960c01b614cdf565b600061228083611650565b9050612296679b7fa96c458436d160c01b614cdf565b6122aa67fa5b79c4499c1dce60c01b614cdf565b6122be6774c7ad5a36e034e060c01b614cdf565b6000816060015111612305576040517f08c379a00000000000000000000000000000000000000000000000000000000081526004016122fc90616250565b60405180910390fd5b61231967c0116f2f5f46110360c01b614cdf565b61232d678695fcfadbc0bcc160c01b614cdf565b61234167443860bcd4bce05760c01b614cdf565b61235567db9756d9fb45109c60c01b614cdf565b6001600581111561236957612368614f64565b5b816040015160058111156123805761237f614f64565b5b146123c0576040517f08c379a00000000000000000000000000000000000000000000000000000000081526004016123b790616328565b60405180910390fd5b6123d4678ddc75d985d733e460c01b614cdf565b6123e8671cbe9f3c1194b82460c01b614cdf565b6123fc67d72a81cbc4f5817b60c01b614cdf565b6000600590506124156645250a59be2a7d60c01b614cdf565b61242967ff83f8aa1d90078e60c01b614cdf565b6001600381111561243d5761243c614f64565b5b8260c00151600381111561245457612453614f64565b5b0361248a5761246d674a9657105fe62d5a60c01b614cdf565b6124816726e0b9ebfdf0d57a60c01b614cdf565b600a90506125b2565b61249e67068bbb2170e63a4960c01b614cdf565b6124b2676db2502dddc3b3bb60c01b614cdf565b6003808111156124c5576124c4614f64565b5b8260c0015160038111156124dc576124db614f64565b5b03612512576124f5670534671d46f09dd560c01b614cdf565b612509678607017de512720f60c01b614cdf565b600f90506125b1565b61252667a5bdc078131d504660c01b614cdf565b61253a67fa62d63f11ed2ad060c01b614cdf565b6002600381111561254e5761254d614f64565b5b8260c00151600381111561256557612564614f64565b5b0361259b5761257e6745ffac5da3bbdf2760c01b614cdf565b61259267d794c1afda16ac1060c01b614cdf565b601490506125b0565b6125af67c87177dd3bb84b5960c01b614cdf565b5b5b5b6125c667de7f8b8962fe182b60c01b614cdf565b6125da672d62061ecc33c8fb60c01b614cdf565b6125ee673951d3f3965df85c60c01b614cdf565b8060ff166125fb85610e6f565b101561263c576040517f08c379a0000000000000000000000000000000000000000000000000000000008152600401612633906163e0565b60405180910390fd5b61265067608410639144c55160c01b614cdf565b612664674052afa46d26204a60c01b614cdf565b61267867eb37d038d28e2e5960c01b614cdf565b600084805190602001209050612698673cd80d26f567aefe60c01b614cdf565b6126ac672684f85212d7a23a60c01b614cdf565b60006126c267cdb446d03c78181d60c01b614cdf565b6126d667f9bb131f49010af160c01b614cdf565b60006126ec67dd9376134f0ae34a60c01b614cdf565b612700674a93b16b23a055f360c01b614cdf565b600061271667b3b48ce2102b4ef260c01b614cdf565b61272a6717ce938a9e6581c060c01b614cdf565b600060076000868152602001908152602001600020805480602002602001604051908101604052809291908181526020016000905b8282101561284c57838290600052602060002090600202016040518060800160405290816000820160009054906101000a900473ffffffffffffffffffffffffffffffffffffffff1673ffffffffffffffffffffffffffffffffffffffff1673ffffffffffffffffffffffffffffffffffffffff1681526020016000820160149054906101000a900461ffff1661ffff1661ffff1681526020016000820160169054906101000a900460ff16600381111561281d5761281c614f64565b5b600381111561282f5761282e614f64565b5b81526020016001820154815250508152602001906001019061275f565b50505050905061286667b01e2ee2870c532960c01b614cdf565b61287a6770bca712be175af960c01b614cdf565b60005b81518160ff161015612a345761289d6721ad3bf7bac8228660c01b614cdf565b6128b1676c814d077391b71960c01b614cdf565b600160038111156128c5576128c4614f64565b5b828260ff16815181106128db576128da616400565b5b60200260200101516040015160038111156128f9576128f8614f64565b5b0361293957612912671797f2f7564e23fe60c01b614cdf565b61292667d920cb828a1c43b360c01b614cdf565b84806129319061643c565b955050612a21565b61294d67c9659530bccccb7c60c01b614cdf565b61296167f793ae019219122660c01b614cdf565b6002600381111561297557612974614f64565b5b828260ff168151811061298b5761298a616400565b5b60200260200101516040015160038111156129a9576129a8614f64565b5b036129e9576129c267bba043052572aacc60c01b614cdf565b6129d667a766a32e9ba30e8460c01b614cdf565b83806129e19061643c565b945050612a20565b6129fd67807d2d460fd2591960c01b614cdf565b612a11675f1d67fd6f9aab9b60c01b614cdf565b8280612a1c9061643c565b9350505b5b8080612a2c9061643c565b91505061287d565b50612a496758db0cbd16abe8a460c01b614cdf565b612a5d6706672250ca5cdfa260c01b614cdf565b60008360ff168560ff161180612a835750612a8267f22cf846d2086ff660c01b614ced565b5b8015612a9f5750612a9e6758bef40cc0eafed360c01b614ce2565b5b612aaa576003612aad565b60025b9050612ac36708a1a5e137d3bf3860c01b614cdf565b806006600088815260200190815260200160002060020160006101000a81548160ff02191690836005811115612afc57612afb614f64565b5b0217905550612b1567e8d7ec9edbe3093260c01b614cdf565b426006600088815260200190815260200160002060050181905550612b44673573cf061ac01a1f60c01b614cdf565b612b5867ae501a8e972d49e960c01b614cdf565b60026005811115612b6c57612b6b614f64565b5b816005811115612b7f57612b7e614f64565b5b03612d0c57612b98672686e0596df8b2d760c01b614cdf565b612bac67067852aef43a0ed860c01b614cdf565b612bc06722c52d71c0f5b7f760c01b614cdf565b60026003811115612bd457612bd3614f64565b5b8860c001516003811115612beb57612bea614f64565b5b03612c2857612c0467d8c545349088081b60c01b614cdf565b612c1867e22f1105cacf43f360c01b614cdf565b8760e00151600181905550612d07565b612c3c67bae32d37932dfae560c01b614cdf565b612c50672fb0faadef807ba360c01b614cdf565b600380811115612c6357612c62614f64565b5b8860c001516003811115612c7a57612c79614f64565b5b03612cf157612c9367186fe8bd00aa743660c01b614cdf565b612ca7673cf3c50ab941c1c260c01b614cdf565b8761010001516000806101000a81548173ffffffffffffffffffffffffffffffffffffffff021916908373ffffffffffffffffffffffffffffffffffffffff160217905550612d06565b612d056777b6ab4b95ee9e7f60c01b614cdf565b5b5b612d21565b612d2067c6784a5e025fa82f60c01b614cdf565b5b612d35673245cf657cf7a84960c01b614cdf565b612d4967bc21b8cad4f2902460c01b614cdf565b604051806080016040528087815260200189600001518152602001826005811115612d7757612d76614f64565b5b81526020018960c001516003811115612d9357612d92614f64565b5b81525098505050505050505050919050565b612db9671dc280069ed0cd9c60c01b614cdf565b612dcd679b0fdd7e6a91f32a60c01b614cdf565b612de167d2ceade5e8a7bca760c01b614cdf565b612df5679d5dad9fa0ef790b60c01b614cdf565b612e0967f97ade09e955da9760c01b614cdf565b60008054906101000a900473ffffffffffffffffffffffffffffffffffffffff1673ffffffffffffffffffffffffffffffffffffffff163273ffffffffffffffffffffffffffffffffffffffff16148015612e745750612e73676b94f44bf950f0c360c01b614ce2565b5b80612ea05750612e8332611bd1565b8015612e9f5750612e9e67cd030515d566781660c01b614ce2565b5b5b612edf576040517f08c379a0000000000000000000000000000000000000000000000000000000008152600401612ed690615d53565b60405180910390fd5b612ef3676f9df8fbe26c7ae160c01b614cdf565b612f0767bfa5d41b794c5b4e60c01b614cdf565b612f1b6773d4943bb67f615f60c01b614cdf565b612f2f67f3e92bcd0d3830ae60c01b614cdf565b60008054906101000a900473ffffffffffffffffffffffffffffffffffffffff1673ffffffffffffffffffffffffffffffffffffffff163273ffffffffffffffffffffffffffffffffffffffff16148015612f9a5750612f9967ca1da865bfb5b00a60c01b614ce2565b5b80613036575062278d0060056000600460003273ffffffffffffffffffffffffffffffffffffffff1673ffffffffffffffffffffffffffffffffffffffff16815260200190815260200160002060009054906101000a900461ffff1661ffff1661ffff168152602001908152602001600020546130179190615da2565b421080156130355750613034673c0bdd753500f7e360c01b614ce2565b5b5b613075576040517f08c379a000000000000000000000000000000000000000000000000000000000815260040161306c90615e22565b60405180910390fd5b6130896719d082b3c557e05460c01b614cdf565b61309d67dc9ade8ef36d5b2660c01b614cdf565b6130b1679a67e1da5667c9b860c01b614cdf565b6130c5674d60778e957334a160c01b614cdf565b6130d967eab312659dfad7cc60c01b614cdf565b6130ed6776be160911585bde60c01b614cdf565b613101672760b4b14da3605c60c01b614cdf565b6000600381111561311557613114614f64565b5b81600381111561312857613127614f64565b5b03613168576040517f08c379a000000000000000000000000000000000000000000000000000000000815260040161315f906164b1565b60405180910390fd5b61317c678d78b2ae692f48fc60c01b614cdf565b61319067a2a91f030093d01d60c01b614cdf565b6131a467524b8aeb32416fcf60c01b614cdf565b60006131af83611650565b90506131c567b2c50f41da10fd4f60c01b614cdf565b6131d9674667d3a573805fa660c01b614cdf565b6131ed6772c7bad76beb157660c01b614cdf565b6000816060015111613234576040517f08c379a000000000000000000000000000000000000000000000000000000000815260040161322b90616250565b60405180910390fd5b6132486769776a76e414052c60c01b614cdf565b61325c67f62e83c7dc5d674460c01b614cdf565b61327067a70f92ea3f576df460c01b614cdf565b613284671309691c3910264b60c01b614cdf565b6001600581111561329857613297614f64565b5b816040015160058111156132af576132ae614f64565b5b146132ef576040517f08c379a00000000000000000000000000000000000000000000000000000000081526004016132e69061651d565b60405180910390fd5b61330367f294b55ada0e400960c01b614cdf565b61331767e8a3d60256d772a760c01b614cdf565b61332b67ceeb838c242ff14d60c01b614cdf565b6000600460003273ffffffffffffffffffffffffffffffffffffffff1673ffffffffffffffffffffffffffffffffffffffff16815260200190815260200160002060009054906101000a900461ffff16905061339167dab7656b34cbfbac60c01b614cdf565b6133a5674cc9a20505798e2d60c01b614cdf565b6000848051906020012090506133c567ac8b9a102bc43f9360c01b614cdf565b6133d9677122f7da1ba69cb460c01b614cdf565b600060076000838152602001908152602001600020805480602002602001604051908101604052809291908181526020016000905b828210156134fb57838290600052602060002090600202016040518060800160405290816000820160009054906101000a900473ffffffffffffffffffffffffffffffffffffffff1673ffffffffffffffffffffffffffffffffffffffff1673ffffffffffffffffffffffffffffffffffffffff1681526020016000820160149054906101000a900461ffff1661ffff1661ffff1681526020016000820160169054906101000a900460ff1660038111156134cc576134cb614f64565b5b60038111156134de576134dd614f64565b5b81526020016001820154815250508152602001906001019061340e565b505050509050613515671003c9c82ed2169760c01b614cdf565b61352967b472e72c0bbf10a060c01b614cdf565b60005b81518160ff1610156136625761354c6759d78b3feecfb95d60c01b614cdf565b61356067725bfd2e48428c8560c01b614cdf565b8361ffff16828260ff168151811061357b5761357a616400565b5b60200260200101516020015161ffff160361363a576135a467b7b561a22a4585c660c01b614cdf565b6135b867ce07de86f7083e7560c01b614cdf565b6135cc6773de0dd9f14dafdb60c01b614cdf565b6135e067c5292e945c105fab60c01b614cdf565b6000613621576040517f08c379a0000000000000000000000000000000000000000000000000000000008152600401613618906165af565b60405180910390fd5b6136356712d823799162a7fd60c01b614cdf565b61364f565b61364e67c8a399d44757181460c01b614cdf565b5b808061365a9061643c565b91505061352c565b50613677676e489203b3964d2b60c01b614cdf565b61368b673c9771f1f46febd160c01b614cdf565b600060405180608001604052803273ffffffffffffffffffffffffffffffffffffffff1681526020018561ffff1681526020018760038111156136d1576136d0614f64565b5b81526020014281525090506136f067c52b0657631140bc60c01b614cdf565b613704673fc72b6734cec21060c01b614cdf565b6007600084815260200190815260200160002081908060018154018082558091505060019003906000526020600020906002020160009091909190915060008201518160000160006101000a81548173ffffffffffffffffffffffffffffffffffffffff021916908373ffffffffffffffffffffffffffffffffffffffff16021790555060208201518160000160146101000a81548161ffff021916908361ffff16021790555060408201518160000160166101000a81548160ff021916908360038111156137d6576137d5614f64565b5b021790555060608201518160010155505050505050505050565b600061380667112b0e53c193afd460c01b614cdf565b61381a67b75d69d767b0858760c01b614cdf565b61382e67b8d30d89e4a85ec760c01b614cdf565b600260008361ffff1661ffff16815260200190815260200160002060009054906101000a900460ff169050919050565b61387267c959dce4014c67e960c01b614cdf565b6138866761c5454f0a7112f560c01b614cdf565b61389a674512f2c213c97bb460c01b614cdf565b6138ae67db843cb14f6fe90c60c01b614cdf565b6138c267c0628f3441ec25b860c01b614cdf565b60008054906101000a900473ffffffffffffffffffffffffffffffffffffffff1673ffffffffffffffffffffffffffffffffffffffff163273ffffffffffffffffffffffffffffffffffffffff1614613950576040517f08c379a000000000000000000000000000000000000000000000000000000000815260040161394790615b31565b60405180910390fd5b6139646734af8f67ea12b67860c01b614cdf565b61397867bcbfb3236db88bbc60c01b614cdf565b61398c67b4d9dc807be9958c60c01b614cdf565b6139a0672beb50e988d30e3760c01b614cdf565b816139b567aa788b035e16aea860c01b614cdf565b6139c9673330edd60433e4a060c01b614cdf565b6139dd67c61cd98437829e3f60c01b614cdf565b6139f167de2e44e7968effcd60c01b614cdf565b600073ffffffffffffffffffffffffffffffffffffffff168173ffffffffffffffffffffffffffffffffffffffff1603613a60576040517f08c379a0000000000000000000000000000000000000000000000000000000008152600401613a579061661b565b60405180910390fd5b613a7467206c91ccbee52d2c60c01b614cdf565b613a88675a3c45dc8d3017e860c01b614cdf565b613a9c67400d862eb182910e60c01b614cdf565b613ab067e9a1288d9a2e1ae160c01b614cdf565b613ac4677d712f92e514111860c01b614cdf565b613ad86715db465a54abeadc60c01b614cdf565b8115613bfb57613af267e1c470834938bef360c01b614cdf565b613b0667d10dae52cd7d9d4860c01b614cdf565b613b1a6713afa5fe7e11d3fc60c01b614cdf565b613b2e67450418b7b820bb4b60c01b614cdf565b613b3783611bd1565b613b76576040517f08c379a0000000000000000000000000000000000000000000000000000000008152600401613b6d90616687565b60405180910390fd5b613b8a6726df1a89be6fb1e160c01b614cdf565b613b9e672da66c1b5cccefe360c01b614cdf565b6001600360008573ffffffffffffffffffffffffffffffffffffffff1673ffffffffffffffffffffffffffffffffffffffff16815260200190815260200160002060006101000a81548160ff021916908315150217905550613c73565b613c0f6705c6b0ca111c0d1360c01b614cdf565b613c2367adcba4b4cc8e8e3660c01b614cdf565b600360008473ffffffffffffffffffffffffffffffffffffffff1673ffffffffffffffffffffffffffffffffffffffff16815260200190815260200160002060006101000a81549060ff02191690555b505050565b613c80614db1565b613c946724d9f561f58ff3bc60c01b614cdf565b613ca86761c5454f0a7112f560c01b614cdf565b613cbc674512f2c213c97bb460c01b614cdf565b613cd067db843cb14f6fe90c60c01b614cdf565b613ce467c0628f3441ec25b860c01b614cdf565b60008054906101000a900473ffffffffffffffffffffffffffffffffffffffff1673ffffffffffffffffffffffffffffffffffffffff163273ffffffffffffffffffffffffffffffffffffffff1614613d72576040517f08c379a0000000000000000000000000000000000000000000000000000000008152600401613d6990615b31565b60405180910390fd5b613d866734af8f67ea12b67860c01b614cdf565b613d9a67bcbfb3236db88bbc60c01b614cdf565b613dae67ce40c65c3dcf6e7660c01b614cdf565b613dc2677f89f84d1bb0470f60c01b614cdf565b613dd667df9ccd9b68aca3ff60c01b614cdf565b613dea673366b75f3c2574d660c01b614cdf565b6000613df583611650565b9050613e0b67d43a0270d0ee8c5b60c01b614cdf565b613e1f6740564e9e21cbdf4960c01b614cdf565b613e33678687da2fa21883ff60c01b614cdf565b6000816060015111613e7a576040517f08c379a0000000000000000000000000000000000000000000000000000000008152600401613e7190616250565b60405180910390fd5b613e8e679c27a50c7a17698c60c01b614cdf565b613ea2674740c887b72977a760c01b614cdf565b613eb6674c474c616d9f7c0760c01b614cdf565b613eca672bb7d6e4a4421c8060c01b614cdf565b60006005811115613ede57613edd614f64565b5b81604001516005811115613ef557613ef4614f64565b5b14613f35576040517f08c379a0000000000000000000000000000000000000000000000000000000008152600401613f2c90616719565b60405180910390fd5b613f4967344453b0f476fafc60c01b614cdf565b613f5d6756c9430e90e27fc360c01b614cdf565b613f7167d36c3ac8e00aea8d60c01b614cdf565b600083805190602001209050613f91677d65ce61398f435f60c01b614cdf565b60016006600083815260200190815260200160002060020160006101000a81548160ff02191690836005811115613fcb57613fca614f64565b5b0217905550613fe4679299615dcc8aec5b60c01b614cdf565b42600660008381526020019081526020016000206004018190555061401367c23ddcc6eff13ea460c01b614cdf565b614027675002d60ff30d6af760c01b614cdf565b6040518060800160405280828152602001836000015181526020016001600581111561405657614055614f64565b5b81526020018360c00151600381111561407257614071614f64565b5b81525092505050919050565b614092670b80cb3dfef0611160c01b614cdf565b6140a667521c4fc0a977d00c60c01b614cdf565b6140ba67b9b5dec1f51ad62160c01b614cdf565b6140ce67c4b7def6c5e52a7560c01b614cdf565b6140e2675d039d1ce3fd7f1860c01b614cdf565b60008054906101000a900473ffffffffffffffffffffffffffffffffffffffff1673ffffffffffffffffffffffffffffffffffffffff163273ffffffffffffffffffffffffffffffffffffffff1614801561414d575061414c67fef4873d255dbcb760c01b614ce2565b5b806141bd5750600360003273ffffffffffffffffffffffffffffffffffffffff1673ffffffffffffffffffffffffffffffffffffffff16815260200190815260200160002060009054906101000a900460ff1680156141bc57506141bb672cab28d8f963dc4a60c01b614ce2565b5b5b6141fc576040517f08c379a00000000000000000000000000000000000000000000000000000000081526004016141f3906167ab565b60405180910390fd5b614210674150a207c157c4ce60c01b614cdf565b61422467ce06fbecfce9ae9860c01b614cdf565b61423867533c2f1e825dddff60c01b614cdf565b61424c67a8d9d8b378dc9a6a60c01b614cdf565b8161426167aa788b035e16aea860c01b614cdf565b614275673330edd60433e4a060c01b614cdf565b61428967c61cd98437829e3f60c01b614cdf565b61429d67de2e44e7968effcd60c01b614cdf565b600073ffffffffffffffffffffffffffffffffffffffff168173ffffffffffffffffffffffffffffffffffffffff160361430c576040517f08c379a00000000000000000000000000000000000000000000000000000000081526004016143039061661b565b60405180910390fd5b61432067206c91ccbee52d2c60c01b614cdf565b614334675a3c45dc8d3017e860c01b614cdf565b6143486727a902331494391d60c01b614cdf565b61435c67704b62a9344d89a560c01b614cdf565b61437067b946fa9dfffc49f560c01b614cdf565b61438467832bf63a789bbcf460c01b614cdf565b614398678438aa2fa190a06560c01b614cdf565b6143a1826137f0565b6143e0576040517f08c379a00000000000000000000000000000000000000000000000000000000081526004016143d790616817565b60405180910390fd5b6143f4672d79139b0309e59860c01b614cdf565b61440867cab61a0608d35be060c01b614cdf565b81600460008573ffffffffffffffffffffffffffffffffffffffff1673ffffffffffffffffffffffffffffffffffffffff16815260200190815260200160002060006101000a81548161ffff021916908361ffff160217905550505050565b60026020528060005260406000206000915054906101000a900460ff1681565b61449b6757e803a2dbb4c98960c01b614cdf565b6144af679ec65b41aacc2d0c60c01b614cdf565b6144c367b407d563a75e7eb560c01b614cdf565b6144d76767ac0639328bcff660c01b614cdf565b6144e0816137f0565b61451f576040517f08c379a000000000000000000000000000000000000000000000000000000000815260040161451690616883565b60405180910390fd5b61453367079a740eef78437560c01b614cdf565b614547678b03dc5daae3312160c01b614cdf565b61455b67b11bf4365249366660c01b614cdf565b61456f67d3eb3a858f628f3060c01b614cdf565b6001543410156145b4576040517f08c379a00000000000000000000000000000000000000000000000000000000081526004016145ab906168ef565b60405180910390fd5b6145c8671086728e1861e72660c01b614cdf565b6145dc67a2cb31d80bc3243d60c01b614cdf565b6145f067f43d964b5e3bbd3d60c01b614cdf565b6146046777c49879a5db16fa60c01b614cdf565b62278d00600560008361ffff1661ffff1681526020019081526020016000205461462e9190615da2565b421161466f576040517f08c379a00000000000000000000000000000000000000000000000000000000081526004016146669061695b565b60405180910390fd5b61468367c20789e4bf742acd60c01b614cdf565b61469767a414530f2ff01d4460c01b614cdf565b42600560008361ffff1661ffff1681526020019081526020016000208190555050565b60006146d067a0a51b855de60fdc60c01b614cdf565b6146e467246a928beb8d78af60c01b614cdf565b6146f867d15c40ee01684d3d60c01b614cdf565b60008054906101000a900473ffffffffffffffffffffffffffffffffffffffff16905090565b60046020528060005260406000206000915054906101000a900461ffff1681565b614747614db1565b61475a6691d43ced24f8ee60c01b614cdf565b61476e6761c5454f0a7112f560c01b614cdf565b614782674512f2c213c97bb460c01b614cdf565b61479667db843cb14f6fe90c60c01b614cdf565b6147aa67c0628f3441ec25b860c01b614cdf565b60008054906101000a900473ffffffffffffffffffffffffffffffffffffffff1673ffffffffffffffffffffffffffffffffffffffff163273ffffffffffffffffffffffffffffffffffffffff1614614838576040517f08c379a000000000000000000000000000000000000000000000000000000000815260040161482f90615b31565b60405180910390fd5b61484c6734af8f67ea12b67860c01b614cdf565b61486067bcbfb3236db88bbc60c01b614cdf565b61487467fce7ada98a02bdd360c01b614cdf565b614888679ae501496075646f60c01b614cdf565b61489c672dd2b85d3571f76e60c01b614cdf565b6148b067c7347423895d433560c01b614cdf565b60006148bb86611650565b90506148d167e7f2417edca8189560c01b614cdf565b6148e5672da64329cfcff9f060c01b614cdf565b6148f967cdead2376075649160c01b614cdf565b6000816060015111614940576040517f08c379a000000000000000000000000000000000000000000000000000000000815260040161493790616250565b60405180910390fd5b61495467ffe6952378c2039e60c01b614cdf565b614968675e0ebdce09d6e83660c01b614cdf565b61497c672aa83da4215215b860c01b614cdf565b614990674862ee17a5743cb460c01b614cdf565b600060058111156149a4576149a3614f64565b5b816040015160058111156149bb576149ba614f64565b5b146149fb576040517f08c379a00000000000000000000000000000000000000000000000000000000081526004016149f2906169c7565b60405180910390fd5b614a0f67b33f2c97723ba57e60c01b614cdf565b614a2367e980fefcdc193a8160c01b614cdf565b614a3767211b83b5cb497ee160c01b614cdf565b600086805190602001209050614a57679896ccf9e114360360c01b614cdf565b614a6b6795fb86cde707511360c01b614cdf565b600086511115614ac657614a8967344d805082391cc460c01b614cdf565b614a9d67456368d5252f4e6860c01b614cdf565b85600660008381526020019081526020016000206001019081614ac091906160c6565b50614adb565b614ada67bff30254c5ca194960c01b614cdf565b5b614aef673eb47703a920242560c01b614cdf565b614b036742a0e649516c2ab360c01b614cdf565b60008510614b5357614b1f6704ae997846e400ad60c01b614cdf565b614b3367c632338c7683abbe60c01b614cdf565b846006600083815260200190815260200160002060070181905550614b68565b614b6767cd560662f517c6ba60c01b614cdf565b5b614b7c6776f527b88c3c02e360c01b614cdf565b614b8f66b92eb535f765a760c01b614cdf565b600073ffffffffffffffffffffffffffffffffffffffff168473ffffffffffffffffffffffffffffffffffffffff1614614c4557614bd7676d81a0b7fe55baf960c01b614cdf565b614beb678c145a437865ed9e60c01b614cdf565b836006600083815260200190815260200160002060080160006101000a81548173ffffffffffffffffffffffffffffffffffffffff021916908373ffffffffffffffffffffffffffffffffffffffff160217905550614c5a565b614c59679a2385c336d5c16e60c01b614cdf565b5b614c6e6720d3bcaae45c112460c01b614cdf565b614c8267789c8f968405b51460c01b614cdf565b60405180608001604052808281526020018360000151815260200183604001516005811115614cb457614cb3614f64565b5b81526020018360c001516003811115614cd057614ccf614f64565b5b81525092505050949350505050565b50565b600060019050919050565b6000919050565b6040518060600160405280600073ffffffffffffffffffffffffffffffffffffffff16815260200160008152602001606081525090565b604051806101200160405280606081526020016060815260200160006005811115614d5957614d58614f64565b5b815260200160008152602001600081526020016000815260200160006003811115614d8757614d86614f64565b5b815260200160008152602001600073ffffffffffffffffffffffffffffffffffffffff1681525090565b6040518060800160405280600080191681526020016060815260200160006005811115614de157614de0614f64565b5b815260200160006003811115614dfa57614df9614f64565b5b81525090565b508054614e0c90615a8e565b6000825580601f10614e1e5750614e3d565b601f016020900490600052602060002090810190614e3c9190614e40565b5b50565b5b80821115614e59576000816000905550600101614e41565b5090565b6000604051905090565b600080fd5b600080fd5b6000819050919050565b614e8481614e71565b8114614e8f57600080fd5b50565b600081359050614ea181614e7b565b92915050565b600060208284031215614ebd57614ebc614e67565b5b6000614ecb84828501614e92565b91505092915050565b600081519050919050565b600082825260208201905092915050565b60005b83811015614f0e578082015181840152602081019050614ef3565b60008484015250505050565b6000601f19601f8301169050919050565b6000614f3682614ed4565b614f408185614edf565b9350614f50818560208601614ef0565b614f5981614f1a565b840191505092915050565b7f4e487b7100000000000000000000000000000000000000000000000000000000600052602160045260246000fd5b60068110614fa457614fa3614f64565b5b50565b6000819050614fb582614f93565b919050565b6000614fc582614fa7565b9050919050565b614fd581614fba565b82525050565b6000819050919050565b614fee81614fdb565b82525050565b6004811061500557615004614f64565b5b50565b600081905061501682614ff4565b919050565b600061502682615008565b9050919050565b6150368161501b565b82525050565b600073ffffffffffffffffffffffffffffffffffffffff82169050919050565b60006150678261503c565b9050919050565b6150778161505c565b82525050565b6000610120820190508181036000830152615098818c614f2b565b905081810360208301526150ac818b614f2b565b90506150bb604083018a614fcc565b6150c86060830189614fe5565b6150d56080830188614fe5565b6150e260a0830187614fe5565b6150ef60c083018661502d565b6150fc60e0830185614fe5565b61510a61010083018461506e565b9a9950505050505050505050565b600080fd5b600080fd5b7f4e487b7100000000000000000000000000000000000000000000000000000000600052604160045260246000fd5b61515a82614f1a565b810181811067ffffffffffffffff8211171561517957615178615122565b5b80604052505050565b600061518c614e5d565b90506151988282615151565b919050565b600067ffffffffffffffff8211156151b8576151b7615122565b5b6151c182614f1a565b9050602081019050919050565b82818337600083830152505050565b60006151f06151eb8461519d565b615182565b90508281526020810184848401111561520c5761520b61511d565b5b6152178482856151ce565b509392505050565b600082601f83011261523457615233615118565b5b81356152448482602086016151dd565b91505092915050565b61525681614fdb565b811461526157600080fd5b50565b6000813590506152738161524d565b92915050565b600080604083850312156152905761528f614e67565b5b600083013567ffffffffffffffff8111156152ae576152ad614e6c565b5b6152ba8582860161521f565b92505060206152cb85828601615264565b9150509250929050565b6152de8161505c565b82525050565b6152ed81614fdb565b82525050565b600082825260208201905092915050565b600061530f82614ed4565b61531981856152f3565b9350615329818560208601614ef0565b61533281614f1a565b840191505092915050565b600060608301600083015161535560008601826152d5565b50602083015161536860208601826152e4565b50604083015184820360408601526153808282615304565b9150508091505092915050565b600060208201905081810360008301526153a7818461533d565b905092915050565b600061ffff82169050919050565b6153c6816153af565b81146153d157600080fd5b50565b6000813590506153e3816153bd565b92915050565b6000602082840312156153ff576153fe614e67565b5b600061540d848285016153d4565b91505092915050565b600060208201905061542b6000830184614fe5565b92915050565b6000806040838503121561544857615447614e67565b5b600061545685828601614e92565b925050602061546785828601615264565b9150509250929050565b61547a816153af565b82525050565b6004811061549157615490614f64565b5b50565b60008190506154a282615480565b919050565b60006154b282615494565b9050919050565b6154c2816154a7565b82525050565b60006080820190506154dd600083018761506e565b6154ea6020830186615471565b6154f760408301856154b9565b6155046060830184614fe5565b95945050505050565b60006020828403121561552357615522614e67565b5b600082013567ffffffffffffffff81111561554157615540614e6c565b5b61554d8482850161521f565b91505092915050565b6004811061556357600080fd5b50565b60008135905061557581615556565b92915050565b6155848161505c565b811461558f57600080fd5b50565b6000813590506155a18161557b565b92915050565b600080600080600060a086880312156155c3576155c2614e67565b5b600086013567ffffffffffffffff8111156155e1576155e0614e6c565b5b6155ed8882890161521f565b955050602086013567ffffffffffffffff81111561560e5761560d614e6c565b5b61561a8882890161521f565b945050604061562b88828901615566565b935050606061563c88828901615264565b925050608061564d88828901615592565b9150509295509295909350565b61566381614fba565b82525050565b6156728161501b565b82525050565b60006101208301600083015184820360008601526156968282615304565b915050602083015184820360208601526156b08282615304565b91505060408301516156c5604086018261565a565b5060608301516156d860608601826152e4565b5060808301516156eb60808601826152e4565b5060a08301516156fe60a08601826152e4565b5060c083015161571160c0860182615669565b5060e083015161572460e08601826152e4565b506101008301516157396101008601826152d5565b508091505092915050565b6000602082019050818103600083015261575e8184615678565b905092915050565b600060208201905061577b600083018461506e565b92915050565b60006020828403121561579757615796614e67565b5b60006157a584828501615592565b91505092915050565b60008115159050919050565b6157c3816157ae565b82525050565b60006020820190506157de60008301846157ba565b92915050565b6157ed81614e71565b82525050565b600060808301600083015161580b60008601826157e4565b50602083015184820360208601526158238282615304565b9150506040830151615838604086018261565a565b50606083015161584b6060860182615669565b508091505092915050565b6000602082019050818103600083015261587081846157f3565b905092915050565b6004811061588557600080fd5b50565b60008135905061589781615878565b92915050565b600080604083850312156158b4576158b3614e67565b5b600083013567ffffffffffffffff8111156158d2576158d1614e6c565b5b6158de8582860161521f565b92505060206158ef85828601615888565b9150509250929050565b615902816157ae565b811461590d57600080fd5b50565b60008135905061591f816158f9565b92915050565b6000806040838503121561593c5761593b614e67565b5b600061594a85828601615592565b925050602061595b85828601615910565b9150509250929050565b6000806040838503121561597c5761597b614e67565b5b600061598a85828601615592565b925050602061599b858286016153d4565b9150509250929050565b60006020820190506159ba6000830184615471565b92915050565b600080600080608085870312156159da576159d9614e67565b5b600085013567ffffffffffffffff8111156159f8576159f7614e6c565b5b615a048782880161521f565b945050602085013567ffffffffffffffff811115615a2557615a24614e6c565b5b615a318782880161521f565b9350506040615a4287828801615264565b9250506060615a5387828801615592565b91505092959194509250565b7f4e487b7100000000000000000000000000000000000000000000000000000000600052602260045260246000fd5b60006002820490506001821680615aa657607f821691505b602082108103615ab957615ab8615a5f565b5b50919050565b7f4f6e6c7920746865206d616e61676572206861732061636365737320746f207460008201527f6869732066756e6374696f6e616c697479000000000000000000000000000000602082015250565b6000615b1b603183614edf565b9150615b2682615abf565b604082019050919050565b60006020820190508181036000830152615b4a81615b0e565b9050919050565b7f496e73756666696369656e742066756e64730000000000000000000000000000600082015250565b6000615b87601283614edf565b9150615b9282615b51565b602082019050919050565b60006020820190508181036000830152615bb681615b7a565b9050919050565b7f4f6e6c7920415050524f564544205350454e5420746f706963732063616e206260008201527f65207573656420666f72207472616e7366657273000000000000000000000000602082015250565b6000615c19603483614edf565b9150615c2482615bbd565b604082019050919050565b60006020820190508181036000830152615c4881615c0c565b9050919050565b7f54686520616d6f756e74206d757374206265206c657373206f7220657175616c60008201527f2074686520415050524f56454420746f70696300000000000000000000000000602082015250565b6000615cab603383614edf565b9150615cb682615c4f565b604082019050919050565b60006020820190508181036000830152615cda81615c9e565b9050919050565b7f4f6e6c7920746865207265736964656e7473206f72206d616e6167657220686160008201527f76652061636365737320746f20746869732066756e6374696f6e616c69747900602082015250565b6000615d3d603f83614edf565b9150615d4882615ce1565b604082019050919050565b60006020820190508181036000830152615d6c81615d30565b9050919050565b7f4e487b7100000000000000000000000000000000000000000000000000000000600052601160045260246000fd5b6000615dad82614fdb565b9150615db883614fdb565b9250828201905080821115615dd057615dcf615d73565b5b92915050565b7f546865207265736964656e74206d7573742062652064656661756c7465720000600082015250565b6000615e0c601e83614edf565b9150615e1782615dd6565b602082019050919050565b60006020820190508181036000830152615e3b81615dff565b9050919050565b7f5468697320746f70696320616c72656164792065786973747300000000000000600082015250565b6000615e78601983614edf565b9150615e8382615e42565b602082019050919050565b60006020820190508181036000830152615ea781615e6b565b9050919050565b7f57726f6e672063617465676f7279000000000000000000000000000000000000600082015250565b6000615ee4600e83614edf565b9150615eef82615eae565b602082019050919050565b60006020820190508181036000830152615f1381615ed7565b9050919050565b60008190508160005260206000209050919050565b60006020601f8301049050919050565b600082821b905092915050565b600060088302615f7c7fffffffffffffffffffffffffffffffffffffffffffffffffffffffffffffffff82615f3f565b615f868683615f3f565b95508019841693508086168417925050509392505050565b6000819050919050565b6000615fc3615fbe615fb984614fdb565b615f9e565b614fdb565b9050919050565b6000819050919050565b615fdd83615fa8565b615ff1615fe982615fca565b848454615f4c565b825550505050565b600090565b616006615ff9565b616011818484615fd4565b505050565b5b818110156160355761602a600082615ffe565b600181019050616017565b5050565b601f82111561607a5761604b81615f1a565b61605484615f2f565b81016020851015616063578190505b61607761606f85615f2f565b830182616016565b50505b505050565b600082821c905092915050565b600061609d6000198460080261607f565b1980831691505092915050565b60006160b6838361608c565b9150826002028217905092915050565b6160cf82614ed4565b67ffffffffffffffff8111156160e8576160e7615122565b5b6160f28254615a8e565b6160fd828285616039565b600060209050601f831160018114616130576000841561611e578287015190505b61612885826160aa565b865550616190565b601f19841661613e86615f1a565b60005b8281101561616657848901518255600182019150602085019450602081019050616141565b86831015616183578489015161617f601f89168261608c565b8355505b6001600288020188555050505b505050505050565b7f4120636f756e73656c6f722063616e6e6f742062652072656d6f766564000000600082015250565b60006161ce601d83614edf565b91506161d982616198565b602082019050919050565b600060208201905081810360008301526161fd816161c1565b9050919050565b7f5468697320746f70696320646f6573206e6f7420657869737473000000000000600082015250565b600061623a601a83614edf565b915061624582616204565b602082019050919050565b600060208201905081810360008301526162698161622d565b9050919050565b7f4f6e6c792049444c4520746f706963732063616e2062652072656d6f76656400600082015250565b60006162a6601f83614edf565b91506162b182616270565b602082019050919050565b600060208201905081810360008301526162d581616299565b9050919050565b7f4f6e6c7920564f54494e4720746f706963732063616e20626520636c6f736564600082015250565b6000616312602083614edf565b915061631d826162dc565b602082019050919050565b6000602082019050818103600083015261634181616305565b9050919050565b7f596f752063616e206e6f742066696e697368206120766f74696e67207769746860008201527f6f757420726561636820746865206d696e696d756d20766f746573206e65636560208201527f7373617279000000000000000000000000000000000000000000000000000000604082015250565b60006163ca604583614edf565b91506163d582616348565b606082019050919050565b600060208201905081810360008301526163f9816163bd565b9050919050565b7f4e487b7100000000000000000000000000000000000000000000000000000000600052603260045260246000fd5b600060ff82169050919050565b60006164478261642f565b915060ff820361645a57616459615d73565b5b600182019050919050565b7f546865206f7074696f6e2063616e6e6f7420626520454d505459000000000000600082015250565b600061649b601a83614edf565b91506164a682616465565b602082019050919050565b600060208201905081810360008301526164ca8161648e565b9050919050565b7f4f6e6c7920564f54494e4720746f706963732063616e20626520766f74656400600082015250565b6000616507601f83614edf565b9150616512826164d1565b602082019050919050565b60006020820190508181036000830152616536816164fa565b9050919050565b7f41207265736964656e63652073686f756c6420766f7465206f6e6c79206f6e6360008201527f6500000000000000000000000000000000000000000000000000000000000000602082015250565b6000616599602183614edf565b91506165a48261653d565b604082019050919050565b600060208201905081810360008301526165c88161658c565b9050919050565b7f496e76616c696420616464726573730000000000000000000000000000000000600082015250565b6000616605600f83614edf565b9150616610826165cf565b602082019050919050565b60006020820190508181036000830152616634816165f8565b9050919050565b7f54686520636f756e73656c6f72206d7573742062652061207265736964656e74600082015250565b6000616671602083614edf565b915061667c8261663b565b602082019050919050565b600060208201905081810360008301526166a081616664565b9050919050565b7f4f6e6c792049444c4520746f706963732063616e206265206f70656e20666f7260008201527f20766f74696e6700000000000000000000000000000000000000000000000000602082015250565b6000616703602783614edf565b915061670e826166a7565b604082019050919050565b60006020820190508181036000830152616732816166f6565b9050919050565b7f4f6e6c792074686520636f756e73656c6f7273206f72206d616e61676572206860008201527f6176652061636365737320746f20746869732066756e6374696f6e616c697479602082015250565b6000616795604083614edf565b91506167a082616739565b604082019050919050565b600060208201905081810360008301526167c481616788565b9050919050565b7f54686973207265736964656e636520646f6573206e6f74206578697374730000600082015250565b6000616801601e83614edf565b915061680c826167cb565b602082019050919050565b60006020820190508181036000830152616830816167f4565b9050919050565b7f546865207265736964656e636520646f6573206e6f7420657869737473000000600082015250565b600061686d601d83614edf565b915061687882616837565b602082019050919050565b6000602082019050818103600083015261689c81616860565b9050919050565b7f57726f6e672076616c7565000000000000000000000000000000000000000000600082015250565b60006168d9600b83614edf565b91506168e4826168a3565b602082019050919050565b60006020820190508181036000830152616908816168cc565b9050919050565b7f596f752063616e206e6f74207061792074776963652061206d6f6e7468000000600082015250565b6000616945601d83614edf565b91506169508261690f565b602082019050919050565b6000602082019050818103600083015261697481616938565b9050919050565b7f4f6e6c792049444c4520746f706963732063616e206265206564697465640000600082015250565b60006169b1601e83614edf565b91506169bc8261697b565b602082019050919050565b600060208201905081810360008301526169e0816169a4565b905091905056fea2646970667358221220383f45fc0f257d7dcdd25021014a06568d3c6c7a4c59e4688e141f99701b7e4464736f6c63430008180033",
  "linkReferences": {},
  "deployedLinkReferences": {}
}