{
  "_format": "hh-sol-artifact-1",
  "contractName": "Condominium",
  "sourceName": "contracts/Condominium.sol",
  "abi": [
    {
      "inputs": [],
      "stateMutability": "nonpayable",
      "type": "constructor"
    },
    {
      "inputs": [
        {
          "internalType": "address",
          "name": "resident",
          "type": "address"
        },
        {
          "internalType": "uint16",
          "name": "residenceNumber",
          "type": "uint16"
        }
      ],
      "name": "addResident",
      "outputs": [],
      "stateMutability": "nonpayable",
      "type": "function"
    },
    {
      "inputs": [
        {
          "internalType": "string",
          "name": "title",
          "type": "string"
        },
        {
          "internalType": "string",
          "name": "description",
          "type": "string"
        },
        {
          "internalType": "enum CondominiumLib.Category",
          "name": "category",
          "type": "uint8"
        },
        {
          "internalType": "uint256",
          "name": "amount",
          "type": "uint256"
        },
        {
          "internalType": "address",
          "name": "responsible",
          "type": "address"
        }
      ],
      "name": "addTopic",
      "outputs": [],
      "stateMutability": "nonpayable",
      "type": "function"
    },
    {
      "inputs": [
        {
          "internalType": "string",
          "name": "title",
          "type": "string"
        }
      ],
      "name": "closeVoting",
      "outputs": [
        {
          "components": [
            {
              "internalType": "bytes32",
              "name": "topicId",
              "type": "bytes32"
            },
            {
              "internalType": "string",
              "name": "title",
              "type": "string"
            },
            {
              "internalType": "enum CondominiumLib.Status",
              "name": "status",
              "type": "uint8"
            },
            {
              "internalType": "enum CondominiumLib.Category",
              "name": "category",
              "type": "uint8"
            }
          ],
          "internalType": "struct CondominiumLib.TopicUpdate",
          "name": "",
          "type": "tuple"
        }
      ],
      "stateMutability": "nonpayable",
      "type": "function"
    },
    {
      "inputs": [
        {
          "internalType": "uint256",
          "name": "",
          "type": "uint256"
        }
      ],
      "name": "counselors",
      "outputs": [
        {
          "internalType": "address",
          "name": "",
          "type": "address"
        }
      ],
      "stateMutability": "view",
      "type": "function"
    },
    {
      "inputs": [
        {
          "internalType": "string",
          "name": "topicToEdit",
          "type": "string"
        },
        {
          "internalType": "string",
          "name": "description",
          "type": "string"
        },
        {
          "internalType": "uint256",
          "name": "amount",
          "type": "uint256"
        },
        {
          "internalType": "address",
          "name": "responsible",
          "type": "address"
        }
      ],
      "name": "editTopic",
      "outputs": [
        {
          "components": [
            {
              "internalType": "bytes32",
              "name": "topicId",
              "type": "bytes32"
            },
            {
              "internalType": "string",
              "name": "title",
              "type": "string"
            },
            {
              "internalType": "enum CondominiumLib.Status",
              "name": "status",
              "type": "uint8"
            },
            {
              "internalType": "enum CondominiumLib.Category",
              "name": "category",
              "type": "uint8"
            }
          ],
          "internalType": "struct CondominiumLib.TopicUpdate",
          "name": "",
          "type": "tuple"
        }
      ],
      "stateMutability": "nonpayable",
      "type": "function"
    },
    {
      "inputs": [],
      "name": "getManager",
      "outputs": [
        {
          "internalType": "address",
          "name": "",
          "type": "address"
        }
      ],
      "stateMutability": "view",
      "type": "function"
    },
    {
      "inputs": [],
      "name": "getQuota",
      "outputs": [
        {
          "internalType": "uint256",
          "name": "",
          "type": "uint256"
        }
      ],
      "stateMutability": "view",
      "type": "function"
    },
    {
      "inputs": [
        {
          "internalType": "address",
          "name": "resident",
          "type": "address"
        }
      ],
      "name": "getResident",
      "outputs": [
        {
          "components": [
            {
              "internalType": "address",
              "name": "wallet",
              "type": "address"
            },
            {
              "internalType": "uint16",
              "name": "residence",
              "type": "uint16"
            },
            {
              "internalType": "bool",
              "name": "isCounselor",
              "type": "bool"
            },
            {
              "internalType": "bool",
              "name": "isManager",
              "type": "bool"
            },
            {
              "internalType": "uint256",
              "name": "nextPayment",
              "type": "uint256"
            }
          ],
          "internalType": "struct CondominiumLib.Resident",
          "name": "",
          "type": "tuple"
        }
      ],
      "stateMutability": "view",
      "type": "function"
    },
    {
      "inputs": [
        {
          "internalType": "uint256",
          "name": "page",
          "type": "uint256"
        },
        {
          "internalType": "uint256",
          "name": "pageSize",
          "type": "uint256"
        }
      ],
      "name": "getResidents",
      "outputs": [
        {
          "components": [
            {
              "components": [
                {
                  "internalType": "address",
                  "name": "wallet",
                  "type": "address"
                },
                {
                  "internalType": "uint16",
                  "name": "residence",
                  "type": "uint16"
                },
                {
                  "internalType": "bool",
                  "name": "isCounselor",
                  "type": "bool"
                },
                {
                  "internalType": "bool",
                  "name": "isManager",
                  "type": "bool"
                },
                {
                  "internalType": "uint256",
                  "name": "nextPayment",
                  "type": "uint256"
                }
              ],
              "internalType": "struct CondominiumLib.Resident[]",
              "name": "residents",
              "type": "tuple[]"
            },
            {
              "internalType": "uint256",
              "name": "total",
              "type": "uint256"
            }
          ],
          "internalType": "struct CondominiumLib.ResidentPage",
          "name": "",
          "type": "tuple"
        }
      ],
      "stateMutability": "view",
      "type": "function"
    },
    {
      "inputs": [
        {
          "internalType": "string",
          "name": "title",
          "type": "string"
        }
      ],
      "name": "getTopic",
      "outputs": [
        {
          "components": [
            {
              "internalType": "string",
              "name": "title",
              "type": "string"
            },
            {
              "internalType": "string",
              "name": "description",
              "type": "string"
            },
            {
              "internalType": "enum CondominiumLib.Status",
              "name": "status",
              "type": "uint8"
            },
            {
              "internalType": "uint256",
              "name": "createdDate",
              "type": "uint256"
            },
            {
              "internalType": "uint256",
              "name": "startDate",
              "type": "uint256"
            },
            {
              "internalType": "uint256",
              "name": "endDate",
              "type": "uint256"
            },
            {
              "internalType": "enum CondominiumLib.Category",
              "name": "category",
              "type": "uint8"
            },
            {
              "internalType": "uint256",
              "name": "amount",
              "type": "uint256"
            },
            {
              "internalType": "address",
              "name": "responsible",
              "type": "address"
            }
          ],
          "internalType": "struct CondominiumLib.Topic",
          "name": "",
          "type": "tuple"
        }
      ],
      "stateMutability": "view",
      "type": "function"
    },
    {
      "inputs": [
        {
          "internalType": "uint256",
          "name": "page",
          "type": "uint256"
        },
        {
          "internalType": "uint256",
          "name": "pageSize",
          "type": "uint256"
        }
      ],
      "name": "getTopics",
      "outputs": [
        {
          "components": [
            {
              "components": [
                {
                  "internalType": "string",
                  "name": "title",
                  "type": "string"
                },
                {
                  "internalType": "string",
                  "name": "description",
                  "type": "string"
                },
                {
                  "internalType": "enum CondominiumLib.Status",
                  "name": "status",
                  "type": "uint8"
                },
                {
                  "internalType": "uint256",
                  "name": "createdDate",
                  "type": "uint256"
                },
                {
                  "internalType": "uint256",
                  "name": "startDate",
                  "type": "uint256"
                },
                {
                  "internalType": "uint256",
                  "name": "endDate",
                  "type": "uint256"
                },
                {
                  "internalType": "enum CondominiumLib.Category",
                  "name": "category",
                  "type": "uint8"
                },
                {
                  "internalType": "uint256",
                  "name": "amount",
                  "type": "uint256"
                },
                {
                  "internalType": "address",
                  "name": "responsible",
                  "type": "address"
                }
              ],
              "internalType": "struct CondominiumLib.Topic[]",
              "name": "topics",
              "type": "tuple[]"
            },
            {
              "internalType": "uint256",
              "name": "total",
              "type": "uint256"
            }
          ],
          "internalType": "struct CondominiumLib.TopicPage",
          "name": "",
          "type": "tuple"
        }
      ],
      "stateMutability": "view",
      "type": "function"
    },
    {
      "inputs": [
        {
          "internalType": "string",
          "name": "topicTitle",
          "type": "string"
        }
      ],
      "name": "getVotes",
      "outputs": [
        {
          "components": [
            {
              "internalType": "address",
              "name": "resident",
              "type": "address"
            },
            {
              "internalType": "uint16",
              "name": "residence",
              "type": "uint16"
            },
            {
              "internalType": "enum CondominiumLib.VoteOptions",
              "name": "option",
              "type": "uint8"
            },
            {
              "internalType": "uint256",
              "name": "timestamp",
              "type": "uint256"
            }
          ],
          "internalType": "struct CondominiumLib.Vote[]",
          "name": "",
          "type": "tuple[]"
        }
      ],
      "stateMutability": "view",
      "type": "function"
    },
    {
      "inputs": [
        {
          "internalType": "address",
          "name": "resident",
          "type": "address"
        }
      ],
      "name": "isResident",
      "outputs": [
        {
          "internalType": "bool",
          "name": "",
          "type": "bool"
        }
      ],
      "stateMutability": "view",
      "type": "function"
    },
    {
      "inputs": [],
      "name": "manager",
      "outputs": [
        {
          "internalType": "address",
          "name": "",
          "type": "address"
        }
      ],
      "stateMutability": "view",
      "type": "function"
    },
    {
      "inputs": [],
      "name": "monthlyQuota",
      "outputs": [
        {
          "internalType": "uint256",
          "name": "",
          "type": "uint256"
        }
      ],
      "stateMutability": "view",
      "type": "function"
    },
    {
      "inputs": [
        {
          "internalType": "string",
          "name": "title",
          "type": "string"
        }
      ],
      "name": "numberOfVotes",
      "outputs": [
        {
          "internalType": "uint256",
          "name": "",
          "type": "uint256"
        }
      ],
      "stateMutability": "view",
      "type": "function"
    },
    {
      "inputs": [
        {
          "internalType": "string",
          "name": "title",
          "type": "string"
        }
      ],
      "name": "openVoting",
      "outputs": [
        {
          "components": [
            {
              "internalType": "bytes32",
              "name": "topicId",
              "type": "bytes32"
            },
            {
              "internalType": "string",
              "name": "title",
              "type": "string"
            },
            {
              "internalType": "enum CondominiumLib.Status",
              "name": "status",
              "type": "uint8"
            },
            {
              "internalType": "enum CondominiumLib.Category",
              "name": "category",
              "type": "uint8"
            }
          ],
          "internalType": "struct CondominiumLib.TopicUpdate",
          "name": "",
          "type": "tuple"
        }
      ],
      "stateMutability": "nonpayable",
      "type": "function"
    },
    {
      "inputs": [
        {
          "internalType": "uint16",
          "name": "residence",
          "type": "uint16"
        }
      ],
      "name": "payQuota",
      "outputs": [],
      "stateMutability": "payable",
      "type": "function"
    },
    {
      "inputs": [
        {
          "internalType": "address",
          "name": "resident",
          "type": "address"
        }
      ],
      "name": "removeResident",
      "outputs": [],
      "stateMutability": "nonpayable",
      "type": "function"
    },
    {
      "inputs": [
        {
          "internalType": "string",
          "name": "title",
          "type": "string"
        }
      ],
      "name": "removeTopic",
      "outputs": [
        {
          "components": [
            {
              "internalType": "bytes32",
              "name": "topicId",
              "type": "bytes32"
            },
            {
              "internalType": "string",
              "name": "title",
              "type": "string"
            },
            {
              "internalType": "enum CondominiumLib.Status",
              "name": "status",
              "type": "uint8"
            },
            {
              "internalType": "enum CondominiumLib.Category",
              "name": "category",
              "type": "uint8"
            }
          ],
          "internalType": "struct CondominiumLib.TopicUpdate",
          "name": "",
          "type": "tuple"
        }
      ],
      "stateMutability": "nonpayable",
      "type": "function"
    },
    {
      "inputs": [
        {
          "internalType": "uint16",
          "name": "residence",
          "type": "uint16"
        }
      ],
      "name": "residenceExists",
      "outputs": [
        {
          "internalType": "bool",
          "name": "",
          "type": "bool"
        }
      ],
      "stateMutability": "view",
      "type": "function"
    },
    {
      "inputs": [
        {
          "internalType": "uint16",
          "name": "",
          "type": "uint16"
        }
      ],
      "name": "residences",
      "outputs": [
        {
          "internalType": "bool",
          "name": "",
          "type": "bool"
        }
      ],
      "stateMutability": "view",
      "type": "function"
    },
    {
      "inputs": [
        {
          "internalType": "uint256",
          "name": "",
          "type": "uint256"
        }
      ],
      "name": "residents",
      "outputs": [
        {
          "internalType": "address",
          "name": "wallet",
          "type": "address"
        },
        {
          "internalType": "uint16",
          "name": "residence",
          "type": "uint16"
        },
        {
          "internalType": "bool",
          "name": "isCounselor",
          "type": "bool"
        },
        {
          "internalType": "bool",
          "name": "isManager",
          "type": "bool"
        },
        {
          "internalType": "uint256",
          "name": "nextPayment",
          "type": "uint256"
        }
      ],
      "stateMutability": "view",
      "type": "function"
    },
    {
      "inputs": [
        {
          "internalType": "address",
          "name": "resident",
          "type": "address"
        },
        {
          "internalType": "bool",
          "name": "isEntering",
          "type": "bool"
        }
      ],
      "name": "setCounselor",
      "outputs": [],
      "stateMutability": "nonpayable",
      "type": "function"
    },
    {
      "inputs": [
        {
          "internalType": "string",
          "name": "title",
          "type": "string"
        }
      ],
      "name": "topicExists",
      "outputs": [
        {
          "internalType": "bool",
          "name": "",
          "type": "bool"
        }
      ],
      "stateMutability": "view",
      "type": "function"
    },
    {
      "inputs": [
        {
          "internalType": "uint256",
          "name": "",
          "type": "uint256"
        }
      ],
      "name": "topics",
      "outputs": [
        {
          "internalType": "string",
          "name": "title",
          "type": "string"
        },
        {
          "internalType": "string",
          "name": "description",
          "type": "string"
        },
        {
          "internalType": "enum CondominiumLib.Status",
          "name": "status",
          "type": "uint8"
        },
        {
          "internalType": "uint256",
          "name": "createdDate",
          "type": "uint256"
        },
        {
          "internalType": "uint256",
          "name": "startDate",
          "type": "uint256"
        },
        {
          "internalType": "uint256",
          "name": "endDate",
          "type": "uint256"
        },
        {
          "internalType": "enum CondominiumLib.Category",
          "name": "category",
          "type": "uint8"
        },
        {
          "internalType": "uint256",
          "name": "amount",
          "type": "uint256"
        },
        {
          "internalType": "address",
          "name": "responsible",
          "type": "address"
        }
      ],
      "stateMutability": "view",
      "type": "function"
    },
    {
      "inputs": [
        {
          "internalType": "string",
          "name": "title",
          "type": "string"
        },
        {
          "internalType": "uint256",
          "name": "amount",
          "type": "uint256"
        }
      ],
      "name": "transfer",
      "outputs": [
        {
          "components": [
            {
              "internalType": "address",
              "name": "to",
              "type": "address"
            },
            {
              "internalType": "uint256",
              "name": "amount",
              "type": "uint256"
            },
            {
              "internalType": "string",
              "name": "topic",
              "type": "string"
            }
          ],
          "internalType": "struct CondominiumLib.TransferReceipt",
          "name": "",
          "type": "tuple"
        }
      ],
      "stateMutability": "nonpayable",
      "type": "function"
    },
    {
      "inputs": [
        {
          "internalType": "string",
          "name": "title",
          "type": "string"
        },
        {
          "internalType": "enum CondominiumLib.VoteOptions",
          "name": "option",
          "type": "uint8"
        }
      ],
      "name": "vote",
      "outputs": [],
      "stateMutability": "nonpayable",
      "type": "function"
    }
  ],
  "bytecode": "0x6080604052662386f26fc100006001553480156200001c57600080fd5b50600080546001600160a01b0319163317905560015b60028161ffff1611620000fd5760015b60058161ffff1611620000e75760015b60058161ffff1611620000d15760016002600083620000738660646200011a565b62000081886103e86200011a565b6200008d919062000143565b62000099919062000143565b61ffff1681526020810191909152604001600020805460ff191691151591909117905580620000c88162000168565b91505062000052565b5080620000de8162000168565b91505062000042565b5080620000f48162000168565b91505062000032565b506200018c565b634e487b7160e01b600052601160045260246000fd5b61ffff8181168382160280821691908281146200013b576200013b62000104565b505092915050565b61ffff81811683821601908082111562000161576200016162000104565b5092915050565b600061ffff80831681810362000182576200018262000104565b6001019392505050565b614583806200019c6000396000f3fe6080604052600436106101b75760003560e01c80637b57ee49116100ec578063a7107f021161008a578063bc2f89f311610064578063bc2f89f3146105b4578063c12e8063146105e4578063d5009584146105f7578063eaf5d9dc1461061557600080fd5b8063a7107f0214610547578063abeb376114610574578063b15835461461059457600080fd5b806390ca27f3116100c657806390ca27f3146104b3578063967d59e4146104d357806396fa1def146105075780639e1bf9851461052757600080fd5b80637b57ee4914610439578063805265e5146104665780638fc5dad81461049357600080fd5b8063481c6a751161015957806368aca3351161013357806368aca335146103a6578063783bb57d146103d657806378b5749d146103ec5780637932938b1461040c57600080fd5b8063481c6a751461032157806356ea46d914610359578063597de9871461038657600080fd5b80631df8ba77116101955780631df8ba771461027e5780632f9f21fe1461029d57806343b8c6b1146102d2578063474502d8146102f457600080fd5b80631283d0a0146101bc57806312cb70c71461021c57806318d9adab14610249575b600080fd5b3480156101c857600080fd5b506101dc6101d7366004613b89565b610635565b604080516001600160a01b03909616865261ffff9094166020860152911515928401929092529015156060830152608082015260a0015b60405180910390f35b34801561022857600080fd5b5061023c610237366004613c45565b61068e565b6040516102139190613cd0565b34801561025557600080fd5b50610269610264366004613b89565b61097f565b60405161021399989796959493929190613d53565b34801561028a57600080fd5b506001545b604051908152602001610213565b3480156102a957600080fd5b5061028f6102b8366004613dd0565b805160209182012060009081526009909152604090205490565b3480156102de57600080fd5b506102f26102ed366004613e29565b610afe565b005b34801561030057600080fd5b5061031461030f366004613dd0565b610e65565b6040516102139190613f60565b34801561032d57600080fd5b50600054610341906001600160a01b031681565b6040516001600160a01b039091168152602001610213565b34801561036557600080fd5b50610379610374366004613f7a565b610e76565b6040516102139190613f9c565b34801561039257600080fd5b506102f26103a1366004614011565b611169565b3480156103b257600080fd5b506103c66103c1366004614011565b61141f565b6040519015158152602001610213565b3480156103e257600080fd5b5061028f60015481565b3480156103f857600080fd5b506103c6610407366004613dd0565b61143a565b34801561041857600080fd5b5061042c610427366004613f7a565b611451565b604051610213919061402c565b34801561044557600080fd5b50610459610454366004613dd0565b6115a8565b60405161021391906140ce565b34801561047257600080fd5b50610486610481366004613dd0565b611b37565b6040516102139190614127565b34801561049f57600080fd5b506104596104ae366004613dd0565b611c11565b3480156104bf57600080fd5b506102f26104ce3660046141a1565b6122a0565b3480156104df57600080fd5b506103c66104ee366004614205565b61ffff1660009081526002602052604090205460ff1690565b34801561051357600080fd5b506102f2610522366004614220565b6127f6565b34801561053357600080fd5b50610459610542366004613dd0565b6128cf565b34801561055357600080fd5b50610567610562366004614011565b612b15565b6040516102139190614251565b34801561058057600080fd5b5061034161058f366004613b89565b612b49565b3480156105a057600080fd5b506102f26105af36600461429b565b612b73565b3480156105c057600080fd5b506103c66105cf366004614205565b60026020526000908152604090205460ff1681565b6102f26105f2366004614205565b612e40565b34801561060357600080fd5b506000546001600160a01b0316610341565b34801561062157600080fd5b506104596106303660046142ce565b612fc4565b6004818154811061064557600080fd5b6000918252602090912060029091020180546001909101546001600160a01b038216925061ffff600160a01b8304169160ff600160b01b8204811692600160b81b909204169085565b604080516060808201835260008083526020830152918101919091526000546001600160a01b031632146107235760405162461bcd60e51b815260206004820152603160248201527f4f6e6c7920746865206d616e61676572206861732061636365737320746f20746044820152706869732066756e6374696f6e616c69747960781b60648201526084015b60405180910390fd5b814710156107735760405162461bcd60e51b815260206004820152601260248201527f496e73756666696369656e742066756e64730000000000000000000000000000604482015260640161071a565b600061077e84613259565b905060028160400151600581111561079857610798613d10565b1480156107ba575060018160c0015160038111156107b8576107b8613d10565b145b61082c5760405162461bcd60e51b815260206004820152603460248201527f4f6e6c7920415050524f564544205350454e5420746f706963732063616e206260448201527f65207573656420666f72207472616e7366657273000000000000000000000000606482015260840161071a565b828160e0015110156108a65760405162461bcd60e51b815260206004820152603360248201527f54686520616d6f756e74206d757374206265206c657373206f7220657175616c60448201527f2074686520415050524f56454420746f70696300000000000000000000000000606482015260840161071a565b8061010001516001600160a01b03166108fc849081150290604051600060405180830381858888f193505050501580156108e4573d6000803e3d6000fd5b508351602080860191909120600081815260079092526040909120546006805460059190839081106109185761091861434c565b60009182526020909120600260099092020101805460ff1916600183600581111561094557610945613d10565b021790555060405180606001604052808461010001516001600160a01b031681526020018681526020018781525093505050505b92915050565b6006818154811061098f57600080fd5b90600052602060002090600902016000915090508060000180546109b290614362565b80601f01602080910402602001604051908101604052809291908181526020018280546109de90614362565b8015610a2b5780601f10610a0057610100808354040283529160200191610a2b565b820191906000526020600020905b815481529060010190602001808311610a0e57829003601f168201915b505050505090806001018054610a4090614362565b80601f0160208091040260200160405190810160405280929190818152602001828054610a6c90614362565b8015610ab95780601f10610a8e57610100808354040283529160200191610ab9565b820191906000526020600020905b815481529060010190602001808311610a9c57829003601f168201915b505050600284015460038501546004860154600587015460068801546007890154600890990154979860ff95861698949750929550909316916001600160a01b031689565b6000546001600160a01b03163214610bee57610b193261141f565b610b8b5760405162461bcd60e51b815260206004820152603f60248201527f4f6e6c7920746865207265736964656e7473206f72206d616e6167657220686160448201527f76652061636365737320746f20746869732066756e6374696f6e616c69747900606482015260840161071a565b6000610b9632613512565b90508060800151421115610bec5760405162461bcd60e51b815260206004820152601e60248201527f546865207265736964656e74206d7573742062652064656661756c7465720000604482015260640161071a565b505b610bf78561143a565b15610c445760405162461bcd60e51b815260206004820152601960248201527f5468697320746f70696320616c72656164792065786973747300000000000000604482015260640161071a565b8115610cc7576002836003811115610c5e57610c5e613d10565b1480610c7b57506001836003811115610c7957610c79613d10565b145b610cc75760405162461bcd60e51b815260206004820152600e60248201527f57726f6e672063617465676f7279000000000000000000000000000000000000604482015260640161071a565b60408051610120810182528681526020810186905260009181018281526020014281526020016000815260200160008152602001856003811115610d0d57610d0d613d10565b8152602081018590526040016001600160a01b038416610d2d5732610d2f565b835b6001600160a01b031690526006805488516020808b01919091206000908152600790915260408120829055600182018355919091528151919250829160099091027ff652222313e28459528d920b65115c16c04f3efc82aaedc97be59f3f377c0d3f01908190610d9f90826143ec565b5060208201516001820190610db490826143ec565b50604082015160028201805460ff19166001836005811115610dd857610dd8613d10565b0217905550606082015181600301556080820151816004015560a0820151816005015560c08201518160060160006101000a81548160ff02191690836003811115610e2557610e25613d10565b021790555060e0820151600782015561010090910151600890910180546001600160a01b0319166001600160a01b03909216919091179055505050505050565b610e6d613ae0565b61097982613259565b60408051808201909152606081526000602082015260008267ffffffffffffffff811115610ea657610ea6613ba2565b604051908082528060200260200182016040528015610edf57816020015b610ecc613ae0565b815260200190600190039081610ec45790505b509050600083610ef06001876144c2565b610efa91906144d5565b90506000815b610f0a86846144ec565b81108015610f19575060065481105b1561114a5760068181548110610f3157610f3161434c565b906000526020600020906009020160405180610120016040529081600082018054610f5b90614362565b80601f0160208091040260200160405190810160405280929190818152602001828054610f8790614362565b8015610fd45780601f10610fa957610100808354040283529160200191610fd4565b820191906000526020600020905b815481529060010190602001808311610fb757829003601f168201915b50505050508152602001600182018054610fed90614362565b80601f016020809104026020016040519081016040528092919081815260200182805461101990614362565b80156110665780601f1061103b57610100808354040283529160200191611066565b820191906000526020600020905b81548152906001019060200180831161104957829003601f168201915b5050509183525050600282015460209091019060ff16600581111561108d5761108d613d10565b600581111561109e5761109e613d10565b815260038281015460208301526004830154604083015260058301546060830152600683015460809092019160ff16908111156110dd576110dd613d10565b60038111156110ee576110ee613d10565b8152600782015460208201526008909101546001600160a01b0316604090910152848361111a816144ff565b94508151811061112c5761112c61434c565b60200260200101819052508080611142906144ff565b915050610f00565b5050604080518082019091529182525060065460208201529392505050565b6000546001600160a01b031632146111dd5760405162461bcd60e51b815260206004820152603160248201527f4f6e6c7920746865206d616e61676572206861732061636365737320746f20746044820152706869732066756e6374696f6e616c69747960781b606482015260840161071a565b6111e681613643565b156112335760405162461bcd60e51b815260206004820152601d60248201527f4120636f756e73656c6f722063616e6e6f742062652072656d6f766564000000604482015260640161071a565b6001600160a01b03811660009081526005602052604090205460045461125b906001906144c2565b81146113ad576004805460009190611275906001906144c2565b815481106112855761128561434c565b60009182526020918290206040805160a081018252600290930290910180546001600160a01b038116845261ffff600160a01b8204169484019490945260ff600160b01b85048116151592840192909252600160b81b909304161515606082015260019091015460808201526004805491925082918490811061130a5761130a61434c565b60009182526020808320845160029093020180548583015160408088015160608901511515600160b81b0260ff60b81b19911515600160b01b029190911661ffff60b01b1961ffff909416600160a01b0275ffffffffffffffffffffffffffffffffffffffffffff199095166001600160a01b03988916179490941792909216929092171782556080909501516001909101559351168152600590925290208190555b60048054806113be576113be614518565b6000828152602080822060026000199094019384020180547fffffffffffffffff000000000000000000000000000000000000000000000000168155600101829055919092556001600160a01b039390931681526005909252506040812055565b60008061142b83613512565b6020015161ffff161192915050565b60008061144683613259565b606001511192915050565b60408051808201909152606081526000602082015260008267ffffffffffffffff81111561148157611481613ba2565b6040519080825280602002602001820160405280156114da57816020015b6040805160a08101825260008082526020808301829052928201819052606082018190526080820152825260001990920191018161149f5790505b5090506000836114eb6001876144c2565b6114f591906144d5565b90506000815b61150586846144ec565b81108015611514575060045481105b156115895761154e6004828154811061152f5761152f61434c565b60009182526020909120600290910201546001600160a01b0316613512565b8483611559816144ff565b94508151811061156b5761156b61434c565b60200260200101819052508080611581906144ff565b9150506114fb565b5050604080518082019091529182525060045460208201529392505050565b6115d260408051608081018252600080825260606020830152909182019081526020016000905290565b6000546001600160a01b031632146116465760405162461bcd60e51b815260206004820152603160248201527f4f6e6c7920746865206d616e61676572206861732061636365737320746f20746044820152706869732066756e6374696f6e616c69747960781b606482015260840161071a565b600061165183613259565b905060008160600151116116a75760405162461bcd60e51b815260206004820152601a60248201527f5468697320746f70696320646f6573206e6f7420657869737473000000000000604482015260640161071a565b6000816040015160058111156116bf576116bf613d10565b1461170c5760405162461bcd60e51b815260206004820152601f60248201527f4f6e6c792049444c4520746f706963732063616e2062652072656d6f76656400604482015260640161071a565b825160208085019190912060008181526007909252604090912054600654611736906001906144c2565b8114611a52576006805460009190611750906001906144c2565b815481106117605761176061434c565b90600052602060002090600902016040518061012001604052908160008201805461178a90614362565b80601f01602080910402602001604051908101604052809291908181526020018280546117b690614362565b80156118035780601f106117d857610100808354040283529160200191611803565b820191906000526020600020905b8154815290600101906020018083116117e657829003601f168201915b5050505050815260200160018201805461181c90614362565b80601f016020809104026020016040519081016040528092919081815260200182805461184890614362565b80156118955780601f1061186a57610100808354040283529160200191611895565b820191906000526020600020905b81548152906001019060200180831161187857829003601f168201915b5050509183525050600282015460209091019060ff1660058111156118bc576118bc613d10565b60058111156118cd576118cd613d10565b815260038281015460208301526004830154604083015260058301546060830152600683015460809092019160ff169081111561190c5761190c613d10565b600381111561191d5761191d613d10565b8152600782015460208201526008909101546001600160a01b0316604090910152600680549192508291849081106119575761195761434c565b60009182526020909120825160099092020190819061197690826143ec565b506020820151600182019061198b90826143ec565b50604082015160028201805460ff191660018360058111156119af576119af613d10565b0217905550606082015181600301556080820151816004015560a0820151816005015560c08201518160060160006101000a81548160ff021916908360038111156119fc576119fc613d10565b021790555060e082015160078281019190915561010090920151600890910180546001600160a01b0319166001600160a01b03909216919091179055905180516020918201206000908152919052604090208190555b6006805480611a6357611a63614518565b60008281526020812060001990920191600983020190611a838282613b3b565b611a91600183016000613b3b565b5060028101805460ff199081169091556000600383018190556004808401829055600584018290556006840180549093169092556007808401829055600890930180546001600160a01b0319169055929093558482526020908152604080832092909255815160808101835285815286519181019190915291908201905b81526020018460c001516003811115611b2a57611b2a613d10565b905293505050505b919050565b60606009600083805190602001208152602001908152602001600020805480602002602001604051908101604052809291908181526020016000905b82821015611c06576000848152602090819020604080516080810182526002860290920180546001600160a01b0381168452600160a01b810461ffff1694840194909452919290830190600160b01b900460ff166003811115611bd857611bd8613d10565b6003811115611be957611be9613d10565b815260200160018201548152505081526020019060010190611b73565b505050509050919050565b611c3b60408051608081018252600080825260606020830152909182019081526020016000905290565b6000546001600160a01b03163214611caf5760405162461bcd60e51b815260206004820152603160248201527f4f6e6c7920746865206d616e61676572206861732061636365737320746f20746044820152706869732066756e6374696f6e616c69747960781b606482015260840161071a565b6000611cba83613259565b90506000816060015111611d105760405162461bcd60e51b815260206004820152601a60248201527f5468697320746f70696320646f6573206e6f7420657869737473000000000000604482015260640161071a565b600181604001516005811115611d2857611d28613d10565b14611d755760405162461bcd60e51b815260206004820181905260248201527f4f6e6c7920564f54494e4720746f706963732063616e20626520636c6f736564604482015260640161071a565b600560018260c001516003811115611d8f57611d8f613d10565b03611d9c5750600a611de2565b60038260c001516003811115611db457611db4613d10565b03611dc15750600f611de2565b60028260c001516003811115611dd957611dd9613d10565b03611de2575060145b8060ff16611e0485805160209182012060009081526009909152604090205490565b1015611e9e5760405162461bcd60e51b815260206004820152604560248201527f596f752063616e206e6f742066696e697368206120766f74696e67207769746860448201527f6f757420726561636820746865206d696e696d756d20766f746573206e65636560648201527f7373617279000000000000000000000000000000000000000000000000000000608482015260a40161071a565b60008480519060200120905060008060008060096000868152602001908152602001600020805480602002602001604051908101604052809291908181526020016000905b82821015611f76576000848152602090819020604080516080810182526002860290920180546001600160a01b0381168452600160a01b810461ffff1694840194909452919290830190600160b01b900460ff166003811115611f4857611f48613d10565b6003811115611f5957611f59613d10565b815260200160018201548152505081526020019060010190611ee3565b50505050905060005b81518160ff161015612041576001828260ff1681518110611fa257611fa261434c565b6020026020010151604001516003811115611fbf57611fbf613d10565b03611fd65784611fce8161452e565b95505061202f565b6002828260ff1681518110611fed57611fed61434c565b602002602001015160400151600381111561200a5761200a613d10565b0361202157836120198161452e565b94505061202f565b8261202b8161452e565b9350505b806120398161452e565b915050611f7f565b5060008360ff168560ff161161205857600361205b565b60025b600087815260076020526040902054600680549293509091839190839081106120865761208661434c565b60009182526020909120600260099092020101805460ff191660018360058111156120b3576120b3613d10565b021790555042600682815481106120cc576120cc61434c565b600091825260209091206005600990920201015560028260058111156120f4576120f4613d10565b0361224b5760028960c00151600381111561211157612111613d10565b036121235760e089015160015561224b565b60038960c00151600381111561213b5761213b613d10565b0361224b57600054612155906001600160a01b031661141f565b156121b357600080546001600160a01b03168152600560205260408120546004805490919081106121885761218861434c565b600091825260209091206002909102018054911515600160b81b0260ff60b81b199092169190911790555b6121c189610100015161141f565b15612225576101008901516001600160a01b0316600090815260056020526040902054600480546001929081106121fa576121fa61434c565b600091825260209091206002909102018054911515600160b81b0260ff60b81b199092169190911790555b610100890151600080546001600160a01b0319166001600160a01b039092169190911790555b604080516080810182528881528a51602082015290810183600581111561227457612274613d10565b81526020018a60c00151600381111561228f5761228f613d10565b90529b9a5050505050505050505050565b6000546001600160a01b03163214612390576122bb3261141f565b61232d5760405162461bcd60e51b815260206004820152603f60248201527f4f6e6c7920746865207265736964656e7473206f72206d616e6167657220686160448201527f76652061636365737320746f20746869732066756e6374696f6e616c69747900606482015260840161071a565b600061233832613512565b9050806080015142111561238e5760405162461bcd60e51b815260206004820152601e60248201527f546865207265736964656e74206d7573742062652064656661756c7465720000604482015260640161071a565b505b60008160038111156123a4576123a4613d10565b036123f15760405162461bcd60e51b815260206004820152601a60248201527f546865206f7074696f6e2063616e6e6f7420626520454d505459000000000000604482015260640161071a565b60006123fc83613259565b905060008160600151116124525760405162461bcd60e51b815260206004820152601a60248201527f5468697320746f70696320646f6573206e6f7420657869737473000000000000604482015260640161071a565b60018160400151600581111561246a5761246a613d10565b146124b75760405162461bcd60e51b815260206004820152601f60248201527f4f6e6c7920564f54494e4720746f706963732063616e20626520766f74656400604482015260640161071a565b326000908152600560205260409020548015158061250a5750326001600160a01b031660046000815481106124ee576124ee61434c565b60009182526020909120600290910201546001600160a01b0316145b6125565760405162461bcd60e51b815260206004820152601260248201527f5265736964656e74206e6f7420666f756e640000000000000000000000000000604482015260640161071a565b60006004828154811061256b5761256b61434c565b60009182526020808320600292909202909101548751888301208084526009835260408085208054825181870281018701909352808352600160a01b90940461ffff169650919493909290849084015b8282101561264e576000848152602090819020604080516080810182526002860290920180546001600160a01b0381168452600160a01b810461ffff1694840194909452919290830190600160b01b900460ff16600381111561262057612620613d10565b600381111561263157612631613d10565b8152602001600182015481525050815260200190600101906125bb565b50505050905060005b81518160ff161015612712578361ffff16828260ff168151811061267d5761267d61434c565b60200260200101516020015161ffff16036127005760405162461bcd60e51b815260206004820152602160248201527f41207265736964656e63652073686f756c6420766f7465206f6e6c79206f6e6360448201527f6500000000000000000000000000000000000000000000000000000000000000606482015260840161071a565b8061270a8161452e565b915050612657565b506040805160808101825232815261ffff85166020820152600091810188600381111561274157612741613d10565b8152426020918201526000858152600982526040808220805460018101825590835291839020845160029093020180549385015161ffff16600160a01b0275ffffffffffffffffffffffffffffffffffffffffffff199094166001600160a01b0390931692909217929092178082559183015192935083929091829060ff60b01b1916600160b01b8360038111156127db576127db613d10565b02179055506060820151816001015550505050505050505050565b6000546001600160a01b0316321461286a5760405162461bcd60e51b815260206004820152603160248201527f4f6e6c7920746865206d616e61676572206861732061636365737320746f20746044820152706869732066756e6374696f6e616c69747960781b606482015260840161071a565b816001600160a01b0381166128b35760405162461bcd60e51b815260206004820152600f60248201526e496e76616c6964206164647265737360881b604482015260640161071a565b816128c6576128c1836136a2565b505050565b6128c183613932565b6128f960408051608081018252600080825260606020830152909182019081526020016000905290565b6000546001600160a01b0316321461296d5760405162461bcd60e51b815260206004820152603160248201527f4f6e6c7920746865206d616e61676572206861732061636365737320746f20746044820152706869732066756e6374696f6e616c69747960781b606482015260840161071a565b600061297883613259565b905060008160600151116129ce5760405162461bcd60e51b815260206004820152601a60248201527f5468697320746f70696320646f6573206e6f7420657869737473000000000000604482015260640161071a565b6000816040015160058111156129e6576129e6613d10565b14612a595760405162461bcd60e51b815260206004820152602760248201527f4f6e6c792049444c4520746f706963732063616e206265206f70656e20666f7260448201527f20766f74696e6700000000000000000000000000000000000000000000000000606482015260840161071a565b825160208085019190912060008181526007909252604090912054600680546001919083908110612a8c57612a8c61434c565b60009182526020909120600260099092020101805460ff19166001836005811115612ab957612ab9613d10565b02179055504260068281548110612ad257612ad261434c565b90600052602060002090600902016004018190555060405180608001604052808381526020018460000151815260200160016005811115611b0f57611b0f613d10565b6040805160a08101825260008082526020820181905291810182905260608101829052608081019190915261097982613512565b60038181548110612b5957600080fd5b6000918252602090912001546001600160a01b0316905081565b6000546001600160a01b0316321480612b905750612b9032613643565b612c04576040805162461bcd60e51b81526020600482015260248101919091527f4f6e6c792074686520636f756e73656c6f7273206f72206d616e61676572206860448201527f6176652061636365737320746f20746869732066756e6374696f6e616c697479606482015260840161071a565b816001600160a01b038116612c4d5760405162461bcd60e51b815260206004820152600f60248201526e496e76616c6964206164647265737360881b604482015260640161071a565b61ffff821660009081526002602052604090205460ff16612cb05760405162461bcd60e51b815260206004820152601e60248201527f54686973207265736964656e636520646f6573206e6f74206578697374730000604482015260640161071a565b612cb98361141f565b15612d065760405162461bcd60e51b815260206004820152601c60248201527f54686973207265736964656e7420616c72656164792065786973747300000000604482015260640161071a565b6040805160a0810182526001600160a01b0380861680835261ffff808716602085019081526000958501868152865485169093146060860190815260808601878152600480546001818101835599829052975160029098027f8a35acfbc15ff81a39ae7d344fd709f28e8600b4aa8c65c6b64bfe7fe36bd19b810180549551975194511515600160b81b0260ff60b81b19951515600160b01b029590951661ffff60b01b1998909716600160a01b0275ffffffffffffffffffffffffffffffffffffffffffff19909616999098169890981793909317949094169290921791909117909255517f8a35acfbc15ff81a39ae7d344fd709f28e8600b4aa8c65c6b64bfe7fe36bd19c9092019190915554612e1f91906144c2565b6001600160a01b039093166000908152600560205260409020929092555050565b61ffff811660009081526002602052604090205460ff16612ea35760405162461bcd60e51b815260206004820152601d60248201527f546865207265736964656e636520646f6573206e6f7420657869737473000000604482015260640161071a565b600154341015612ef55760405162461bcd60e51b815260206004820152600b60248201527f57726f6e672076616c7565000000000000000000000000000000000000000000604482015260640161071a565b61ffff81166000908152600860205260409020544211612f575760405162461bcd60e51b815260206004820152601d60248201527f596f752063616e206e6f74207061792074776963652061206d6f6e7468000000604482015260640161071a565b61ffff81166000908152600860205260408120549003612f9557612f7e62278d00426144ec565b61ffff821660009081526008602052604090205550565b61ffff81166000908152600860205260408120805462278d009290612fbb9084906144ec565b90915550505b50565b612fee60408051608081018252600080825260606020830152909182019081526020016000905290565b6000546001600160a01b031632146130625760405162461bcd60e51b815260206004820152603160248201527f4f6e6c7920746865206d616e61676572206861732061636365737320746f20746044820152706869732066756e6374696f6e616c69747960781b606482015260840161071a565b600061306d86613259565b905060008160600151116130c35760405162461bcd60e51b815260206004820152601a60248201527f5468697320746f70696320646f6573206e6f7420657869737473000000000000604482015260640161071a565b6000816040015160058111156130db576130db613d10565b146131285760405162461bcd60e51b815260206004820152601e60248201527f4f6e6c792049444c4520746f706963732063616e206265206564697465640000604482015260640161071a565b85516020808801919091206000818152600790925260409091205486511561317d57866006828154811061315e5761315e61434c565b9060005260206000209060090201600101908161317b91906143ec565b505b85600682815481106131915761319161434c565b9060005260206000209060090201600701819055506001600160a01b038516156131ff5784600682815481106131c9576131c961434c565b906000526020600020906009020160080160006101000a8154816001600160a01b0302191690836001600160a01b031602179055505b6040518060800160405280838152602001846000015181526020018460400151600581111561323057613230613d10565b81526020018460c00151600381111561324b5761324b613d10565b905298975050505050505050565b613261613ae0565b8151602080840191909120600081815260079092526040909120546006548110156134a05760006006828154811061329b5761329b61434c565b9060005260206000209060090201604051806101200160405290816000820180546132c590614362565b80601f01602080910402602001604051908101604052809291908181526020018280546132f190614362565b801561333e5780601f106133135761010080835404028352916020019161333e565b820191906000526020600020905b81548152906001019060200180831161332157829003601f168201915b5050505050815260200160018201805461335790614362565b80601f016020809104026020016040519081016040528092919081815260200182805461338390614362565b80156133d05780601f106133a5576101008083540402835291602001916133d0565b820191906000526020600020905b8154815290600101906020018083116133b357829003601f168201915b5050509183525050600282015460209091019060ff1660058111156133f7576133f7613d10565b600581111561340857613408613d10565b815260038281015460208301526004830154604083015260058301546060830152600683015460809092019160ff169081111561344757613447613d10565b600381111561345857613458613d10565b8152600782015460208201526008909101546001600160a01b031660409091015290508115158061349157508051805160209091012083145b1561349e57949350505050565b505b60408051610140810182526000610120820181815282528251602081810185529181529082015290810160048152602001600081526020016000815260200160008152602001600060038111156134f9576134f9613d10565b8152600060208201819052604090910152949350505050565b6040805160a0810182526000808252602080830182905282840182905260608301829052608083018290526001600160a01b0385168252600590529190912054600454811015613611576000600482815481106135715761357161434c565b60009182526020918290206040805160a081018252600290930290910180546001600160a01b0380821680865261ffff600160a01b8404169686019690965260ff600160b01b83048116151594860194909452600160b81b909104909216151560608401526001015460808301529092508516900361360f5760208082015161ffff1660009081526008909152604090205460808201529392505050565b505b50506040805160a081018252600080825260208201819052918101829052606081018290526080810191909152919050565b6000805b60035481101561369957826001600160a01b03166003828154811061366e5761366e61434c565b6000918252602090912001546001600160a01b0316036136915750600192915050565b600101613647565b50600092915050565b6000546001600160a01b031632146137165760405162461bcd60e51b815260206004820152603160248201527f4f6e6c7920746865206d616e61676572206861732061636365737320746f20746044820152706869732066756e6374696f6e616c69747960781b606482015260840161071a565b806001600160a01b03811661375f5760405162461bcd60e51b815260206004820152600f60248201526e496e76616c6964206164647265737360881b604482015260640161071a565b620f424060005b6003548110156137b757836001600160a01b03166003828154811061378d5761378d61434c565b6000918252602090912001546001600160a01b0316036137af578091506137b7565b600101613766565b5080620f42400361380a5760405162461bcd60e51b815260206004820152601360248201527f436f756e73656c6f72206e6f7420666f756e6400000000000000000000000000604482015260640161071a565b600354613819906001906144c2565b81146138a2576003805460009190613833906001906144c2565b815481106138435761384361434c565b600091825260209091200154600380546001600160a01b0390921692508291849081106138725761387261434c565b9060005260206000200160006101000a8154816001600160a01b0302191690836001600160a01b03160217905550505b60038054806138b3576138b3614518565b60008281526020808220830160001990810180546001600160a01b03191690559092019092556001600160a01b03851682526005905260408120546004805490919081106139035761390361434c565b600091825260209091206002909102018054911515600160b01b0260ff60b01b19909216919091179055505050565b6000546001600160a01b031632146139a65760405162461bcd60e51b815260206004820152603160248201527f4f6e6c7920746865206d616e61676572206861732061636365737320746f20746044820152706869732066756e6374696f6e616c69747960781b606482015260840161071a565b806001600160a01b0381166139ef5760405162461bcd60e51b815260206004820152600f60248201526e496e76616c6964206164647265737360881b604482015260640161071a565b6139f88261141f565b613a445760405162461bcd60e51b815260206004820181905260248201527f54686520636f756e73656c6f72206d7573742062652061207265736964656e74604482015260640161071a565b6003805460018082019092557fc2575a0e9e593c00f959f8c92f12db2869c3395a3b0502d05e2516446f71f85b0180546001600160a01b0319166001600160a01b038516908117909155600090815260056020526040902054600480549091908110613ab257613ab261434c565b600091825260209091206002909102018054911515600160b01b0260ff60b01b199092169190911790555050565b6040805161012081018252606080825260208201529081016000815260200160008152602001600081526020016000815260200160006003811115613b2757613b27613d10565b815260006020820181905260409091015290565b508054613b4790614362565b6000825580601f10613b57575050565b601f016020900490600052602060002090810190612fc191905b80821115613b855760008155600101613b71565b5090565b600060208284031215613b9b57600080fd5b5035919050565b634e487b7160e01b600052604160045260246000fd5b600082601f830112613bc957600080fd5b813567ffffffffffffffff80821115613be457613be4613ba2565b604051601f8301601f19908116603f01168101908282118183101715613c0c57613c0c613ba2565b81604052838152866020858801011115613c2557600080fd5b836020870160208301376000602085830101528094505050505092915050565b60008060408385031215613c5857600080fd5b823567ffffffffffffffff811115613c6f57600080fd5b613c7b85828601613bb8565b95602094909401359450505050565b6000815180845260005b81811015613cb057602081850181015186830182015201613c94565b506000602082860101526020601f19601f83011685010191505092915050565b602081526001600160a01b0382511660208201526020820151604082015260006040830151606080840152613d086080840182613c8a565b949350505050565b634e487b7160e01b600052602160045260246000fd5b60068110613d3657613d36613d10565b9052565b60048110612fc157612fc1613d10565b613d3681613d3a565b6000610120808352613d678184018d613c8a565b90508281036020840152613d7b818c613c8a565b915050613d8b604083018a613d26565b8760608301528660808301528560a0830152613da685613d3a565b8460c08301528360e08301526001600160a01b0383166101008301529a9950505050505050505050565b600060208284031215613de257600080fd5b813567ffffffffffffffff811115613df957600080fd5b613d0884828501613bb8565b60048110612fc157600080fd5b80356001600160a01b0381168114611b3257600080fd5b600080600080600060a08688031215613e4157600080fd5b853567ffffffffffffffff80821115613e5957600080fd5b613e6589838a01613bb8565b96506020880135915080821115613e7b57600080fd5b50613e8888828901613bb8565b9450506040860135613e9981613e05565b925060608601359150613eae60808701613e12565b90509295509295909350565b60006101208251818552613ed082860182613c8a565b91505060208301518482036020860152613eea8282613c8a565b9150506040830151613eff6040860182613d26565b50606083015160608501526080830151608085015260a083015160a085015260c0830151613f3060c0860182613d4a565b5060e083015160e085015261010080840151613f56828701826001600160a01b03169052565b5090949350505050565b602081526000613f736020830184613eba565b9392505050565b60008060408385031215613f8d57600080fd5b50508035926020909101359150565b6000602080835260608301845160408386015281815180845260808701915060808160051b8801019350848301925060005b81811015613ffc57607f19888603018352613fea858551613eba565b94509285019291850191600101613fce565b50505050930151604092909201919091525090565b60006020828403121561402357600080fd5b613f7382613e12565b6020808252825160408383015280516060840181905260009291820190839060808601905b808310156140b6576140a08285516001600160a01b03815116825261ffff6020820151166020830152604081015115156040830152606081015115156060830152608081015160808301525050565b60a0820191508484019350600183019250614051565b50602087015160408701528094505050505092915050565b602081528151602082015260006020830151608060408401526140f460a0840182613c8a565b905060408401516141086060850182613d26565b50606084015161411781613d3a565b6080939093019290925250919050565b602080825282518282018190526000919060409081850190868401855b828110156141945781516001600160a01b03815116855261ffff8782015116878601528581015161417481613d3a565b858701526060908101519085015260809093019290850190600101614144565b5091979650505050505050565b600080604083850312156141b457600080fd5b823567ffffffffffffffff8111156141cb57600080fd5b6141d785828601613bb8565b92505060208301356141e881613e05565b809150509250929050565b803561ffff81168114611b3257600080fd5b60006020828403121561421757600080fd5b613f73826141f3565b6000806040838503121561423357600080fd5b61423c83613e12565b9150602083013580151581146141e857600080fd5b60a0810161097982846001600160a01b03815116825261ffff6020820151166020830152604081015115156040830152606081015115156060830152608081015160808301525050565b600080604083850312156142ae57600080fd5b6142b783613e12565b91506142c5602084016141f3565b90509250929050565b600080600080608085870312156142e457600080fd5b843567ffffffffffffffff808211156142fc57600080fd5b61430888838901613bb8565b9550602087013591508082111561431e57600080fd5b5061432b87828801613bb8565b9350506040850135915061434160608601613e12565b905092959194509250565b634e487b7160e01b600052603260045260246000fd5b600181811c9082168061437657607f821691505b60208210810361439657634e487b7160e01b600052602260045260246000fd5b50919050565b601f8211156128c1576000816000526020600020601f850160051c810160208610156143c55750805b601f850160051c820191505b818110156143e4578281556001016143d1565b505050505050565b815167ffffffffffffffff81111561440657614406613ba2565b61441a816144148454614362565b8461439c565b602080601f83116001811461444f57600084156144375750858301515b600019600386901b1c1916600185901b1785556143e4565b600085815260208120601f198616915b8281101561447e5788860151825594840194600190910190840161445f565b508582101561449c5787850151600019600388901b60f8161c191681555b5050505050600190811b01905550565b634e487b7160e01b600052601160045260246000fd5b81810381811115610979576109796144ac565b8082028115828204841417610979576109796144ac565b80820180821115610979576109796144ac565b600060018201614511576145116144ac565b5060010190565b634e487b7160e01b600052603160045260246000fd5b600060ff821660ff8103614544576145446144ac565b6001019291505056fea2646970667358221220e8a1cd6f85c5a3c3b9f4a088773bb1ae816d0e20bead8fb9be53e67faf2dcacd64736f6c63430008180033",
  "linkReferences": {},
  "deployedLinkReferences": {}
}