{"contracts/Condominium.sol":{"Condominium":{"abi":[{"inputs":[],"stateMutability":"nonpayable","type":"constructor"},{"inputs":[{"internalType":"address","name":"resident","type":"address"},{"internalType":"uint16","name":"residenceNumber","type":"uint16"}],"name":"addResident","outputs":[],"stateMutability":"nonpayable","type":"function"},{"inputs":[{"internalType":"string","name":"title","type":"string"},{"internalType":"string","name":"description","type":"string"}],"name":"addTopic","outputs":[],"stateMutability":"nonpayable","type":"function"},{"inputs":[{"internalType":"string","name":"title","type":"string"}],"name":"closeVoting","outputs":[],"stateMutability":"nonpayable","type":"function"},{"inputs":[{"internalType":"address","name":"","type":"address"}],"name":"counselors","outputs":[{"internalType":"bool","name":"","type":"bool"}],"stateMutability":"view","type":"function"},{"inputs":[{"internalType":"string","name":"title","type":"string"}],"name":"getTopic","outputs":[{"components":[{"internalType":"string","name":"title","type":"string"},{"internalType":"string","name":"description","type":"string"},{"internalType":"enum CondominiumLib.Status","name":"status","type":"uint8"},{"internalType":"uint256","name":"createdDate","type":"uint256"},{"internalType":"uint256","name":"startDate","type":"uint256"},{"internalType":"uint256","name":"endDate","type":"uint256"}],"internalType":"struct CondominiumLib.Topic","name":"","type":"tuple"}],"stateMutability":"view","type":"function"},{"inputs":[{"internalType":"address","name":"resident","type":"address"}],"name":"isResident","outputs":[{"internalType":"bool","name":"","type":"bool"}],"stateMutability":"view","type":"function"},{"inputs":[],"name":"manager","outputs":[{"internalType":"address","name":"","type":"address"}],"stateMutability":"view","type":"function"},{"inputs":[{"internalType":"string","name":"title","type":"string"}],"name":"numberOfVotes","outputs":[{"internalType":"uint256","name":"","type":"uint256"}],"stateMutability":"view","type":"function"},{"inputs":[{"internalType":"string","name":"title","type":"string"}],"name":"openVoting","outputs":[],"stateMutability":"nonpayable","type":"function"},{"inputs":[{"internalType":"address","name":"resident","type":"address"}],"name":"removeResident","outputs":[],"stateMutability":"nonpayable","type":"function"},{"inputs":[{"internalType":"string","name":"title","type":"string"}],"name":"removeTopic","outputs":[],"stateMutability":"nonpayable","type":"function"},{"inputs":[{"internalType":"uint16","name":"residence","type":"uint16"}],"name":"residenceExists","outputs":[{"internalType":"bool","name":"","type":"bool"}],"stateMutability":"view","type":"function"},{"inputs":[{"internalType":"uint16","name":"","type":"uint16"}],"name":"residences","outputs":[{"internalType":"bool","name":"","type":"bool"}],"stateMutability":"view","type":"function"},{"inputs":[{"internalType":"address","name":"","type":"address"}],"name":"residents","outputs":[{"internalType":"uint16","name":"","type":"uint16"}],"stateMutability":"view","type":"function"},{"inputs":[{"internalType":"address","name":"resident","type":"address"},{"internalType":"bool","name":"isEntering","type":"bool"}],"name":"setCounselor","outputs":[],"stateMutability":"nonpayable","type":"function"},{"inputs":[{"internalType":"address","name":"newManager","type":"address"}],"name":"setManager","outputs":[],"stateMutability":"nonpayable","type":"function"},{"inputs":[{"internalType":"string","name":"title","type":"string"}],"name":"topicExists","outputs":[{"internalType":"bool","name":"","type":"bool"}],"stateMutability":"view","type":"function"},{"inputs":[{"internalType":"bytes32","name":"","type":"bytes32"}],"name":"topics","outputs":[{"internalType":"string","name":"title","type":"string"},{"internalType":"string","name":"description","type":"string"},{"internalType":"enum CondominiumLib.Status","name":"status","type":"uint8"},{"internalType":"uint256","name":"createdDate","type":"uint256"},{"internalType":"uint256","name":"startDate","type":"uint256"},{"internalType":"uint256","name":"endDate","type":"uint256"}],"stateMutability":"view","type":"function"},{"inputs":[{"internalType":"string","name":"title","type":"string"},{"internalType":"enum CondominiumLib.VoteOptions","name":"option","type":"uint8"}],"name":"vote","outputs":[],"stateMutability":"nonpayable","type":"function"},{"inputs":[{"internalType":"bytes32","name":"","type":"bytes32"},{"internalType":"uint256","name":"","type":"uint256"}],"name":"votings","outputs":[{"internalType":"address","name":"resident","type":"address"},{"internalType":"uint16","name":"residence","type":"uint16"},{"internalType":"enum CondominiumLib.VoteOptions","name":"option","type":"uint8"},{"internalType":"uint256","name":"timestamp","type":"uint256"}],"stateMutability":"view","type":"function"}],"evm":{"bytecode":{"linkReferences":{},"object":"60806040523480156200001157600080fd5b506200002e677a154ffa7883637560c01b6200023f60201b60201c565b6200004a677f89f84d1bb0470f60c01b6200023f60201b60201c565b336000806101000a81548173ffffffffffffffffffffffffffffffffffffffff021916908373ffffffffffffffffffffffffffffffffffffffff160217905550620000a667df9ccd9b68aca3ff60c01b6200023f60201b60201c565b620000c2673366b75f3c2574d660c01b6200023f60201b60201c565b6000600190505b60028161ffff16116200023857620000f267d43a0270d0ee8c5b60c01b6200023f60201b60201c565b6200010e6740564e9e21cbdf4960c01b6200023f60201b60201c565b6000600190505b60058161ffff161162000221576200013e678687da2fa21883ff60c01b6200023f60201b60201c565b6200015a679c27a50c7a17698c60c01b6200023f60201b60201c565b6000600190505b60058161ffff16116200020a576200018a674740c887b72977a760c01b6200023f60201b60201c565b6001806000836064866200019f91906200027f565b6103e888620001af91906200027f565b620001bb9190620002c5565b620001c79190620002c5565b61ffff1661ffff16815260200190815260200160002060006101000a81548160ff0219169083151502179055508080620002019062000302565b91505062000161565b508080620002189062000302565b91505062000115565b5080806200022f9062000302565b915050620000c9565b5062000331565b50565b600061ffff82169050919050565b7f4e487b7100000000000000000000000000000000000000000000000000000000600052601160045260246000fd5b60006200028c8262000242565b9150620002998362000242565b9250828202620002a98162000242565b9150808214620002be57620002bd62000250565b5b5092915050565b6000620002d28262000242565b9150620002df8362000242565b9250828201905061ffff811115620002fc57620002fb62000250565b5b92915050565b60006200030f8262000242565b915061ffff820362000326576200032562000250565b5b600182019050919050565b61454b80620003416000396000f3fe608060405234801561001057600080fd5b506004361061012c5760003560e01c80638fc5dad8116100ad578063b158354611610071578063b15835461461037f578063bc2f89f31461039b578063c1e6adfd146103cb578063d0ebdbe7146103e7578063e4d65d54146104035761012c565b80638fc5dad8146102df57806390ca27f3146102fb578063967d59e41461031757806396fa1def146103475780639e1bf985146103635761012c565b80634de53265116100f45780634de5326514610217578063597de9871461024757806368aca3351461026357806378b5749d146102935780637b57ee49146102c35761012c565b80630f2fbeec146101315780631a6c0192146101665780632f9f21fe14610199578063474502d8146101c9578063481c6a75146101f9575b600080fd5b61014b60048036038101906101469190613208565b610433565b60405161015d96959493929190613355565b60405180910390f35b610180600480360381019061017b91906133f0565b61058c565b60405161019094939291906134d6565b60405180910390f35b6101b360048036038101906101ae9190613650565b610614565b6040516101c09190613699565b60405180910390f35b6101e360048036038101906101de9190613650565b6106a5565b6040516101f091906137ac565b60405180910390f35b6102016108c0565b60405161020e91906137ce565b60405180910390f35b610231600480360381019061022c9190613815565b6108e4565b60405161023e919061385d565b60405180910390f35b610261600480360381019061025c9190613815565b610904565b005b61027d60048036038101906102789190613815565b610c81565b60405161028a919061385d565b60405180910390f35b6102ad60048036038101906102a89190613650565b610d1a565b6040516102ba919061385d565b60405180910390f35b6102dd60048036038101906102d89190613650565b610d6f565b005b6102f960048036038101906102f49190613650565b6110b9565b005b6103156004803603810190610310919061389d565b6118a8565b005b610331600480360381019061032c9190613925565b61215d565b60405161033e919061385d565b60405180910390f35b610361600480360381019061035c919061397e565b6121cb565b005b61037d60048036038101906103789190613650565b6124d4565b005b610399600480360381019061039491906139be565b612858565b005b6103b560048036038101906103b09190613925565b612b30565b6040516103c2919061385d565b60405180910390f35b6103e560048036038101906103e091906139fe565b612b50565b005b61040160048036038101906103fc9190613815565b612e92565b005b61041d60048036038101906104189190613815565b6130ea565b60405161042a9190613a76565b60405180910390f35b600460205280600052604060002060009150905080600001805461045690613ac0565b80601f016020809104026020016040519081016040528092919081815260200182805461048290613ac0565b80156104cf5780601f106104a4576101008083540402835291602001916104cf565b820191906000526020600020905b8154815290600101906020018083116104b257829003601f168201915b5050505050908060010180546104e490613ac0565b80601f016020809104026020016040519081016040528092919081815260200182805461051090613ac0565b801561055d5780601f106105325761010080835404028352916020019161055d565b820191906000526020600020905b81548152906001019060200180831161054057829003601f168201915b5050505050908060020160009054906101000a900460ff16908060030154908060040154908060050154905086565b600560205281600052604060002081815481106105a857600080fd5b9060005260206000209060020201600091509150508060000160009054906101000a900473ffffffffffffffffffffffffffffffffffffffff16908060000160149054906101000a900461ffff16908060000160169054906101000a900460ff16908060010154905084565b600061062a67246a928beb8d78af60c01b61310b565b61063e67d15c40ee01684d3d60c01b61310b565b61065267119efe38c8f876a960c01b61310b565b60008280519060200120905061067267b977e71cc12e1dcd60c01b61310b565b610686675edf1654bb13c40460c01b61310b565b6005600082815260200190815260200160002080549050915050919050565b6106ad613119565b6106c1673573cf061ac01a1f60c01b61310b565b6106d567ae501a8e972d49e960c01b61310b565b6106e9672686e0596df8b2d760c01b61310b565b60008280519060200120905061070967067852aef43a0ed860c01b61310b565b61071d6722c52d71c0f5b7f760c01b61310b565b600460008281526020019081526020016000206040518060c001604052908160008201805461074b90613ac0565b80601f016020809104026020016040519081016040528092919081815260200182805461077790613ac0565b80156107c45780601f10610799576101008083540402835291602001916107c4565b820191906000526020600020905b8154815290600101906020018083116107a757829003601f168201915b505050505081526020016001820180546107dd90613ac0565b80601f016020809104026020016040519081016040528092919081815260200182805461080990613ac0565b80156108565780601f1061082b57610100808354040283529160200191610856565b820191906000526020600020905b81548152906001019060200180831161083957829003601f168201915b505050505081526020016002820160009054906101000a900460ff166003811115610884576108836132c5565b5b6003811115610896576108956132c5565b5b81526020016003820154815260200160048201548152602001600582015481525050915050919050565b60008054906101000a900473ffffffffffffffffffffffffffffffffffffffff1681565b60026020528060005260406000206000915054906101000a900460ff1681565b6109186712f5fc41b27762ff60c01b61310b565b61092c674c474c616d9f7c0760c01b61310b565b610940672bb7d6e4a4421c8060c01b61310b565b61095467344453b0f476fafc60c01b61310b565b6109686756c9430e90e27fc360c01b61310b565b60008054906101000a900473ffffffffffffffffffffffffffffffffffffffff1673ffffffffffffffffffffffffffffffffffffffff163273ffffffffffffffffffffffffffffffffffffffff16146109f6576040517f08c379a00000000000000000000000000000000000000000000000000000000081526004016109ed90613b63565b60405180910390fd5b610a0a67d36c3ac8e00aea8d60c01b61310b565b610a1e677d65ce61398f435f60c01b61310b565b610a3267a18c8f9bc926b9bd60c01b61310b565b610a46672d62061ecc33c8fb60c01b61310b565b610a5a673951d3f3965df85c60c01b61310b565b610a6e67608410639144c55160c01b61310b565b610a82674052afa46d26204a60c01b61310b565b600260008273ffffffffffffffffffffffffffffffffffffffff1673ffffffffffffffffffffffffffffffffffffffff16815260200190815260200160002060009054906101000a900460ff1615610b0f576040517f08c379a0000000000000000000000000000000000000000000000000000000008152600401610b0690613bcf565b60405180910390fd5b610b2367eb37d038d28e2e5960c01b61310b565b610b37673cd80d26f567aefe60c01b61310b565b600360008273ffffffffffffffffffffffffffffffffffffffff1673ffffffffffffffffffffffffffffffffffffffff16815260200190815260200160002060006101000a81549061ffff0219169055610b9b672684f85212d7a23a60c01b61310b565b610baf67cdb446d03c78181d60c01b61310b565b600260008273ffffffffffffffffffffffffffffffffffffffff1673ffffffffffffffffffffffffffffffffffffffff16815260200190815260200160002060009054906101000a900460ff1615610c6957610c1567f9bb131f49010af160c01b61310b565b600260008273ffffffffffffffffffffffffffffffffffffffff1673ffffffffffffffffffffffffffffffffffffffff16815260200190815260200160002060006101000a81549060ff0219169055610c7e565b610c7d67dd9376134f0ae34a60c01b61310b565b5b50565b6000610c97671cbe9f3c1194b82460c01b61310b565b610cab67d72a81cbc4f5817b60c01b61310b565b610cbe6645250a59be2a7d60c01b61310b565b6000600360008473ffffffffffffffffffffffffffffffffffffffff1673ffffffffffffffffffffffffffffffffffffffff16815260200190815260200160002060009054906101000a900461ffff1661ffff16119050919050565b6000610d3067d8c545349088081b60c01b61310b565b610d4467e22f1105cacf43f360c01b61310b565b610d5867bae32d37932dfae560c01b61310b565b6000610d63836106a5565b60600151119050919050565b610d83679204123de22b98ae60c01b61310b565b610d97674c474c616d9f7c0760c01b61310b565b610dab672bb7d6e4a4421c8060c01b61310b565b610dbf67344453b0f476fafc60c01b61310b565b610dd36756c9430e90e27fc360c01b61310b565b60008054906101000a900473ffffffffffffffffffffffffffffffffffffffff1673ffffffffffffffffffffffffffffffffffffffff163273ffffffffffffffffffffffffffffffffffffffff1614610e61576040517f08c379a0000000000000000000000000000000000000000000000000000000008152600401610e5890613b63565b60405180910390fd5b610e7567d36c3ac8e00aea8d60c01b61310b565b610e89677d65ce61398f435f60c01b61310b565b610e9d67980462701bb660f860c01b61310b565b610eb1672760b4b14da3605c60c01b61310b565b610ec5678d78b2ae692f48fc60c01b61310b565b610ed967a2a91f030093d01d60c01b61310b565b6000610ee4826106a5565b9050610efa67524b8aeb32416fcf60c01b61310b565b610f0e67b2c50f41da10fd4f60c01b61310b565b610f22674667d3a573805fa660c01b61310b565b6000816060015111610f69576040517f08c379a0000000000000000000000000000000000000000000000000000000008152600401610f6090613c3b565b60405180910390fd5b610f7d6772c7bad76beb157660c01b61310b565b610f916769776a76e414052c60c01b61310b565b610fa567f62e83c7dc5d674460c01b61310b565b610fb967a70f92ea3f576df460c01b61310b565b60006003811115610fcd57610fcc6132c5565b5b81604001516003811115610fe457610fe36132c5565b5b14611024576040517f08c379a000000000000000000000000000000000000000000000000000000000815260040161101b90613ca7565b60405180910390fd5b611038671309691c3910264b60c01b61310b565b61104c67f294b55ada0e400960c01b61310b565b6004600083805190602001208152602001908152602001600020600080820160006110779190613161565b6001820160006110879190613161565b6002820160006101000a81549060ff021916905560038201600090556004820160009055600582016000905550505050565b6110cd67a01507671a93ea1560c01b61310b565b6110e1674c474c616d9f7c0760c01b61310b565b6110f5672bb7d6e4a4421c8060c01b61310b565b61110967344453b0f476fafc60c01b61310b565b61111d6756c9430e90e27fc360c01b61310b565b60008054906101000a900473ffffffffffffffffffffffffffffffffffffffff1673ffffffffffffffffffffffffffffffffffffffff163273ffffffffffffffffffffffffffffffffffffffff16146111ab576040517f08c379a00000000000000000000000000000000000000000000000000000000081526004016111a290613b63565b60405180910390fd5b6111bf67d36c3ac8e00aea8d60c01b61310b565b6111d3677d65ce61398f435f60c01b61310b565b6111e7671a156894e53ee2f060c01b61310b565b6111fb673fc72b6734cec21060c01b61310b565b61120f67431cc48776acaf3f60c01b61310b565b611223678a37a4e49b977c5560c01b61310b565b600061122e826106a5565b905061124467e79505f8859cb21460c01b61310b565b61125867b10643701432d09560c01b61310b565b61126c67d0671a0fc44c605760c01b61310b565b60008160600151116112b3576040517f08c379a00000000000000000000000000000000000000000000000000000000081526004016112aa90613c3b565b60405180910390fd5b6112c767da3792787f75c87760c01b61310b565b6112db67c5f34e6c3cbc0a9060c01b61310b565b6112ef679ae501496075646f60c01b61310b565b611303672dd2b85d3571f76e60c01b61310b565b60016003811115611317576113166132c5565b5b8160400151600381111561132e5761132d6132c5565b5b1461136e576040517f08c379a000000000000000000000000000000000000000000000000000000000815260040161136590613d13565b60405180910390fd5b61138267c7347423895d433560c01b61310b565b61139667e7f2417edca8189560c01b61310b565b6113aa672da64329cfcff9f060c01b61310b565b6000828051906020012090506113ca67cdead2376075649160c01b61310b565b6113de67ffe6952378c2039e60c01b61310b565b60006113f4675e0ebdce09d6e83660c01b61310b565b611408672aa83da4215215b860c01b61310b565b600061141e674862ee17a5743cb460c01b61310b565b61143267b33f2c97723ba57e60c01b61310b565b600061144867e980fefcdc193a8160c01b61310b565b61145c67211b83b5cb497ee160c01b61310b565b600060056000868152602001908152602001600020805480602002602001604051908101604052809291908181526020016000905b8282101561157e57838290600052602060002090600202016040518060800160405290816000820160009054906101000a900473ffffffffffffffffffffffffffffffffffffffff1673ffffffffffffffffffffffffffffffffffffffff1673ffffffffffffffffffffffffffffffffffffffff1681526020016000820160149054906101000a900461ffff1661ffff1661ffff1681526020016000820160169054906101000a900460ff16600381111561154f5761154e6132c5565b5b6003811115611561576115606132c5565b5b815260200160018201548152505081526020019060010190611491565b505050509050611598679896ccf9e114360360c01b61310b565b6115ac6795fb86cde707511360c01b61310b565b60005b81518160ff161015611765576115cf67344d805082391cc460c01b61310b565b6115e367456368d5252f4e6860c01b61310b565b600160038111156115f7576115f66132c5565b5b828260ff168151811061160d5761160c613d33565b5b602002602001015160400151600381111561162b5761162a6132c5565b5b0361166b5761164467bff30254c5ca194960c01b61310b565b611658673eb47703a920242560c01b61310b565b848061166390613d9e565b955050611752565b61167f6742a0e649516c2ab360c01b61310b565b6116936704ae997846e400ad60c01b61310b565b600260038111156116a7576116a66132c5565b5b828260ff16815181106116bd576116bc613d33565b5b60200260200101516040015160038111156116db576116da6132c5565b5b0361171b576116f467c632338c7683abbe60c01b61310b565b61170867cd560662f517c6ba60c01b61310b565b838061171390613d9e565b945050611751565b61172f6776f527b88c3c02e360c01b61310b565b61174266b92eb535f765a760c01b61310b565b828061174d90613d9e565b9350505b5b808061175d90613d9e565b9150506115af565b5061177a676d81a0b7fe55baf960c01b61310b565b61178e678c145a437865ed9e60c01b61310b565b8260ff168460ff161115611808576117b0679a2385c336d5c16e60c01b61310b565b6117c46720d3bcaae45c112460c01b61310b565b60026004600087815260200190815260200160002060020160006101000a81548160ff021916908360038111156117fe576117fd6132c5565b5b0217905550611870565b61181c67789c8f968405b51460c01b61310b565b6118306757e803a2dbb4c98960c01b61310b565b60036004600087815260200190815260200160002060020160006101000a81548160ff0219169083600381111561186a576118696132c5565b5b02179055505b611884679ec65b41aacc2d0c60c01b61310b565b42600460008781526020019081526020016000206005018190555050505050505050565b6118bc67e88eadddcdb2ba0860c01b61310b565b6118d0679b7fa96c458436d160c01b61310b565b6118e467fa5b79c4499c1dce60c01b61310b565b6118f86774c7ad5a36e034e060c01b61310b565b61190c67c0116f2f5f46110360c01b61310b565b60008054906101000a900473ffffffffffffffffffffffffffffffffffffffff1673ffffffffffffffffffffffffffffffffffffffff163273ffffffffffffffffffffffffffffffffffffffff161480156119775750611976678695fcfadbc0bcc160c01b61310e565b5b806119a3575061198632610c81565b80156119a257506119a167443860bcd4bce05760c01b61310e565b5b5b6119e2576040517f08c379a00000000000000000000000000000000000000000000000000000000081526004016119d990613e39565b60405180910390fd5b6119f667db9756d9fb45109c60c01b61310b565b611a0a678ddc75d985d733e460c01b61310b565b611a1e67f5061befa544ae0c60c01b61310b565b611a3267079a740eef78437560c01b61310b565b611a46678b03dc5daae3312160c01b61310b565b611a5a67b11bf4365249366660c01b61310b565b611a6e67d3eb3a858f628f3060c01b61310b565b60006003811115611a8257611a816132c5565b5b816003811115611a9557611a946132c5565b5b03611ad5576040517f08c379a0000000000000000000000000000000000000000000000000000000008152600401611acc90613ea5565b60405180910390fd5b611ae9671086728e1861e72660c01b61310b565b611afd67a2cb31d80bc3243d60c01b61310b565b611b1167f43d964b5e3bbd3d60c01b61310b565b6000611b1c836106a5565b9050611b326777c49879a5db16fa60c01b61310b565b611b4667c20789e4bf742acd60c01b61310b565b611b5a67a414530f2ff01d4460c01b61310b565b6000816060015111611ba1576040517f08c379a0000000000000000000000000000000000000000000000000000000008152600401611b9890613c3b565b60405180910390fd5b611bb5673e20d0255cb0fd3260c01b61310b565b611bc967ba503b558009fbcc60c01b61310b565b611bdd67ee34d0b516b370cc60c01b61310b565b611bf16723028a467b0e904d60c01b61310b565b60016003811115611c0557611c046132c5565b5b81604001516003811115611c1c57611c1b6132c5565b5b14611c5c576040517f08c379a0000000000000000000000000000000000000000000000000000000008152600401611c5390613f11565b60405180910390fd5b611c70679637fccc0dc5a0fb60c01b61310b565b611c84674f058a95a9d4f21c60c01b61310b565b611c9867f556f706961bee9d60c01b61310b565b6000600360003273ffffffffffffffffffffffffffffffffffffffff1673ffffffffffffffffffffffffffffffffffffffff16815260200190815260200160002060009054906101000a900461ffff169050611cfe67fbf35be8932a521a60c01b61310b565b611d1267bdf67a80fc6038f860c01b61310b565b600084805190602001209050611d326772a0460698a0598c60c01b61310b565b611d4667b95a65b1ebf3e4fc60c01b61310b565b600060056000838152602001908152602001600020805480602002602001604051908101604052809291908181526020016000905b82821015611e6857838290600052602060002090600202016040518060800160405290816000820160009054906101000a900473ffffffffffffffffffffffffffffffffffffffff1673ffffffffffffffffffffffffffffffffffffffff1673ffffffffffffffffffffffffffffffffffffffff1681526020016000820160149054906101000a900461ffff1661ffff1661ffff1681526020016000820160169054906101000a900460ff166003811115611e3957611e386132c5565b5b6003811115611e4b57611e4a6132c5565b5b815260200160018201548152505081526020019060010190611d7b565b505050509050611e8267d2fd8259f1a27c6460c01b61310b565b611e966766d20a5b72c45b8660c01b61310b565b60005b81518160ff161015611fcf57611eb967a0404b83e3e561b260c01b61310b565b611ecd67dfaff7c195e5286760c01b61310b565b8361ffff16828260ff1681518110611ee857611ee7613d33565b5b60200260200101516020015161ffff1603611fa757611f11673342d21884b86c6260c01b61310b565b611f2567e737af9f4667a81e60c01b61310b565b611f396732de1ccf72253b3a60c01b61310b565b611f4d67386388d4f4335bc360c01b61310b565b6000611f8e576040517f08c379a0000000000000000000000000000000000000000000000000000000008152600401611f8590613fa3565b60405180910390fd5b611fa26724e7904531790f4360c01b61310b565b611fbc565b611fbb675dd0bb380faa949b60c01b61310b565b5b8080611fc790613d9e565b915050611e99565b50611fe467ebeddd4398feae4460c01b61310b565b611ff867610c3306469a01b960c01b61310b565b600060405180608001604052803273ffffffffffffffffffffffffffffffffffffffff1681526020018561ffff16815260200187600381111561203e5761203d6132c5565b5b815260200142815250905061205d675bdc5d2948dc781260c01b61310b565b61207167a0a51b855de60fdc60c01b61310b565b6005600084815260200190815260200160002081908060018154018082558091505060019003906000526020600020906002020160009091909190915060008201518160000160006101000a81548173ffffffffffffffffffffffffffffffffffffffff021916908373ffffffffffffffffffffffffffffffffffffffff16021790555060208201518160000160146101000a81548161ffff021916908361ffff16021790555060408201518160000160166101000a81548160ff02191690836003811115612143576121426132c5565b5b021790555060608201518160010155505050505050505050565b600061217367ff83f8aa1d90078e60c01b61310b565b612187674a9657105fe62d5a60c01b61310b565b61219b6726e0b9ebfdf0d57a60c01b61310b565b600160008361ffff1661ffff16815260200190815260200160002060009054906101000a900460ff169050919050565b6121df679bae4aa9f0fa053e60c01b61310b565b6121f3674c474c616d9f7c0760c01b61310b565b612207672bb7d6e4a4421c8060c01b61310b565b61221b67344453b0f476fafc60c01b61310b565b61222f6756c9430e90e27fc360c01b61310b565b60008054906101000a900473ffffffffffffffffffffffffffffffffffffffff1673ffffffffffffffffffffffffffffffffffffffff163273ffffffffffffffffffffffffffffffffffffffff16146122bd576040517f08c379a00000000000000000000000000000000000000000000000000000000081526004016122b490613b63565b60405180910390fd5b6122d167d36c3ac8e00aea8d60c01b61310b565b6122e5677d65ce61398f435f60c01b61310b565b6122f967bdb935439da996ca60c01b61310b565b61230d6717ce938a9e6581c060c01b61310b565b61232167b01e2ee2870c532960c01b61310b565b6123356770bca712be175af960c01b61310b565b80156124585761234f6721ad3bf7bac8228660c01b61310b565b612363676c814d077391b71960c01b61310b565b612377671797f2f7564e23fe60c01b61310b565b61238b67d920cb828a1c43b360c01b61310b565b61239482610c81565b6123d3576040517f08c379a00000000000000000000000000000000000000000000000000000000081526004016123ca9061400f565b60405180910390fd5b6123e767c9659530bccccb7c60c01b61310b565b6123fb67f793ae019219122660c01b61310b565b6001600260008473ffffffffffffffffffffffffffffffffffffffff1673ffffffffffffffffffffffffffffffffffffffff16815260200190815260200160002060006101000a81548160ff0219169083151502179055506124d0565b61246c67bba043052572aacc60c01b61310b565b61248067a766a32e9ba30e8460c01b61310b565b600260008373ffffffffffffffffffffffffffffffffffffffff1673ffffffffffffffffffffffffffffffffffffffff16815260200190815260200160002060006101000a81549060ff02191690555b5050565b6124e867b167f7356142529460c01b61310b565b6124fc674c474c616d9f7c0760c01b61310b565b612510672bb7d6e4a4421c8060c01b61310b565b61252467344453b0f476fafc60c01b61310b565b6125386756c9430e90e27fc360c01b61310b565b60008054906101000a900473ffffffffffffffffffffffffffffffffffffffff1673ffffffffffffffffffffffffffffffffffffffff163273ffffffffffffffffffffffffffffffffffffffff16146125c6576040517f08c379a00000000000000000000000000000000000000000000000000000000081526004016125bd90613b63565b60405180910390fd5b6125da67d36c3ac8e00aea8d60c01b61310b565b6125ee677d65ce61398f435f60c01b61310b565b612602676ab3024177a2c78160c01b61310b565b61261667dab7656b34cbfbac60c01b61310b565b61262a674cc9a20505798e2d60c01b61310b565b61263e67ac8b9a102bc43f9360c01b61310b565b6000612649826106a5565b905061265f677122f7da1ba69cb460c01b61310b565b612673671003c9c82ed2169760c01b61310b565b61268767b472e72c0bbf10a060c01b61310b565b60008160600151116126ce576040517f08c379a00000000000000000000000000000000000000000000000000000000081526004016126c590613c3b565b60405180910390fd5b6126e26759d78b3feecfb95d60c01b61310b565b6126f667725bfd2e48428c8560c01b61310b565b61270a67b7b561a22a4585c660c01b61310b565b61271e67ce07de86f7083e7560c01b61310b565b60006003811115612732576127316132c5565b5b81604001516003811115612749576127486132c5565b5b14612789576040517f08c379a0000000000000000000000000000000000000000000000000000000008152600401612780906140a1565b60405180910390fd5b61279d6773de0dd9f14dafdb60c01b61310b565b6127b167c5292e945c105fab60c01b61310b565b6127c56712d823799162a7fd60c01b61310b565b6000828051906020012090506127e567c8a399d44757181460c01b61310b565b60016004600083815260200190815260200160002060020160006101000a81548160ff0219169083600381111561281f5761281e6132c5565b5b0217905550612838676e489203b3964d2b60c01b61310b565b426004600083815260200190815260200160002060040181905550505050565b61286c670e07b9fdeec26ba260c01b61310b565b612880679299615dcc8aec5b60c01b61310b565b61289467c23ddcc6eff13ea460c01b61310b565b6128a8675002d60ff30d6af760c01b61310b565b6128bc67b47bf324cbe7857360c01b61310b565b60008054906101000a900473ffffffffffffffffffffffffffffffffffffffff1673ffffffffffffffffffffffffffffffffffffffff163273ffffffffffffffffffffffffffffffffffffffff1614801561292757506129266745fc740b27c81bc760c01b61310e565b5b806129975750600260003273ffffffffffffffffffffffffffffffffffffffff1673ffffffffffffffffffffffffffffffffffffffff16815260200190815260200160002060009054906101000a900460ff168015612996575061299567e09a5ccd2fd0588660c01b61310e565b5b5b6129d6576040517f08c379a00000000000000000000000000000000000000000000000000000000081526004016129cd90614133565b60405180910390fd5b6129ea678042821d5d85505060c01b61310b565b6129fe67226f93f0bdf3ea5960c01b61310b565b612a1267a1baeb5a5410956660c01b61310b565b612a26670534671d46f09dd560c01b61310b565b612a3a678607017de512720f60c01b61310b565b612a4e67a5bdc078131d504660c01b61310b565b612a6267fa62d63f11ed2ad060c01b61310b565b612a6b8161215d565b612aaa576040517f08c379a0000000000000000000000000000000000000000000000000000000008152600401612aa19061419f565b60405180910390fd5b612abe6745ffac5da3bbdf2760c01b61310b565b612ad267d794c1afda16ac1060c01b61310b565b80600360008473ffffffffffffffffffffffffffffffffffffffff1673ffffffffffffffffffffffffffffffffffffffff16815260200190815260200160002060006101000a81548161ffff021916908361ffff1602179055505050565b60016020528060005260406000206000915054906101000a900460ff1681565b612b646733eab950220c2b2960c01b61310b565b612b78679b7fa96c458436d160c01b61310b565b612b8c67fa5b79c4499c1dce60c01b61310b565b612ba06774c7ad5a36e034e060c01b61310b565b612bb467c0116f2f5f46110360c01b61310b565b60008054906101000a900473ffffffffffffffffffffffffffffffffffffffff1673ffffffffffffffffffffffffffffffffffffffff163273ffffffffffffffffffffffffffffffffffffffff16148015612c1f5750612c1e678695fcfadbc0bcc160c01b61310e565b5b80612c4b5750612c2e32610c81565b8015612c4a5750612c4967443860bcd4bce05760c01b61310e565b5b5b612c8a576040517f08c379a0000000000000000000000000000000000000000000000000000000008152600401612c8190613e39565b60405180910390fd5b612c9e67db9756d9fb45109c60c01b61310b565b612cb2678ddc75d985d733e460c01b61310b565b612cc667bdd88f23a88f15d960c01b61310b565b612cda673cf3c50ab941c1c260c01b61310b565b612cee6777b6ab4b95ee9e7f60c01b61310b565b612d0267c6784a5e025fa82f60c01b61310b565b612d16673245cf657cf7a84960c01b61310b565b612d1f82610d1a565b15612d5f576040517f08c379a0000000000000000000000000000000000000000000000000000000008152600401612d569061420b565b60405180910390fd5b612d7367bc21b8cad4f2902460c01b61310b565b612d876727929a90fb6bc63760c01b61310b565b612d9b67b6ad091bcb2503ad60c01b61310b565b60006040518060c0016040528084815260200183815260200160006003811115612dc857612dc76132c5565b5b81526020014281526020016000815260200160008152509050612df5674d60778e957334a160c01b61310b565b8060046000858051906020012081526020019081526020016000206000820151816000019081612e2591906143d7565b506020820151816001019081612e3b91906143d7565b5060408201518160020160006101000a81548160ff02191690836003811115612e6757612e666132c5565b5b0217905550606082015181600301556080820151816004015560a08201518160050155905050505050565b612ea66744b404a2420c723e60c01b61310b565b612eba674c474c616d9f7c0760c01b61310b565b612ece672bb7d6e4a4421c8060c01b61310b565b612ee267344453b0f476fafc60c01b61310b565b612ef66756c9430e90e27fc360c01b61310b565b60008054906101000a900473ffffffffffffffffffffffffffffffffffffffff1673ffffffffffffffffffffffffffffffffffffffff163273ffffffffffffffffffffffffffffffffffffffff1614612f84576040517f08c379a0000000000000000000000000000000000000000000000000000000008152600401612f7b90613b63565b60405180910390fd5b612f9867d36c3ac8e00aea8d60c01b61310b565b612fac677d65ce61398f435f60c01b61310b565b612fc06769d6c1dfe0bc200360c01b61310b565b612fd46758db0cbd16abe8a460c01b61310b565b612fe86706672250ca5cdfa260c01b61310b565b612ffc67f22cf846d2086ff660c01b61310b565b6130106758bef40cc0eafed360c01b61310b565b600073ffffffffffffffffffffffffffffffffffffffff168173ffffffffffffffffffffffffffffffffffffffff160361307f576040517f08c379a0000000000000000000000000000000000000000000000000000000008152600401613076906144f5565b60405180910390fd5b6130936708a1a5e137d3bf3860c01b61310b565b6130a767e8d7ec9edbe3093260c01b61310b565b806000806101000a81548173ffffffffffffffffffffffffffffffffffffffff021916908373ffffffffffffffffffffffffffffffffffffffff16021790555050565b60036020528060005260406000206000915054906101000a900461ffff1681565b50565b600060019050919050565b6040518060c00160405280606081526020016060815260200160006003811115613146576131456132c5565b5b81526020016000815260200160008152602001600081525090565b50805461316d90613ac0565b6000825580601f1061317f575061319e565b601f01602090049060005260206000209081019061319d91906131a1565b5b50565b5b808211156131ba5760008160009055506001016131a2565b5090565b6000604051905090565b600080fd5b600080fd5b6000819050919050565b6131e5816131d2565b81146131f057600080fd5b50565b600081359050613202816131dc565b92915050565b60006020828403121561321e5761321d6131c8565b5b600061322c848285016131f3565b91505092915050565b600081519050919050565b600082825260208201905092915050565b60005b8381101561326f578082015181840152602081019050613254565b60008484015250505050565b6000601f19601f8301169050919050565b600061329782613235565b6132a18185613240565b93506132b1818560208601613251565b6132ba8161327b565b840191505092915050565b7f4e487b7100000000000000000000000000000000000000000000000000000000600052602160045260246000fd5b60048110613305576133046132c5565b5b50565b6000819050613316826132f4565b919050565b600061332682613308565b9050919050565b6133368161331b565b82525050565b6000819050919050565b61334f8161333c565b82525050565b600060c082019050818103600083015261336f818961328c565b90508181036020830152613383818861328c565b9050613392604083018761332d565b61339f6060830186613346565b6133ac6080830185613346565b6133b960a0830184613346565b979650505050505050565b6133cd8161333c565b81146133d857600080fd5b50565b6000813590506133ea816133c4565b92915050565b60008060408385031215613407576134066131c8565b5b6000613415858286016131f3565b9250506020613426858286016133db565b9150509250929050565b600073ffffffffffffffffffffffffffffffffffffffff82169050919050565b600061345b82613430565b9050919050565b61346b81613450565b82525050565b600061ffff82169050919050565b61348881613471565b82525050565b6004811061349f5761349e6132c5565b5b50565b60008190506134b08261348e565b919050565b60006134c0826134a2565b9050919050565b6134d0816134b5565b82525050565b60006080820190506134eb6000830187613462565b6134f8602083018661347f565b61350560408301856134c7565b6135126060830184613346565b95945050505050565b600080fd5b600080fd5b7f4e487b7100000000000000000000000000000000000000000000000000000000600052604160045260246000fd5b61355d8261327b565b810181811067ffffffffffffffff8211171561357c5761357b613525565b5b80604052505050565b600061358f6131be565b905061359b8282613554565b919050565b600067ffffffffffffffff8211156135bb576135ba613525565b5b6135c48261327b565b9050602081019050919050565b82818337600083830152505050565b60006135f36135ee846135a0565b613585565b90508281526020810184848401111561360f5761360e613520565b5b61361a8482856135d1565b509392505050565b600082601f8301126136375761363661351b565b5b81356136478482602086016135e0565b91505092915050565b600060208284031215613666576136656131c8565b5b600082013567ffffffffffffffff811115613684576136836131cd565b5b61369084828501613622565b91505092915050565b60006020820190506136ae6000830184613346565b92915050565b600082825260208201905092915050565b60006136d082613235565b6136da81856136b4565b93506136ea818560208601613251565b6136f38161327b565b840191505092915050565b6137078161331b565b82525050565b6137168161333c565b82525050565b600060c083016000830151848203600086015261373982826136c5565b9150506020830151848203602086015261375382826136c5565b915050604083015161376860408601826136fe565b50606083015161377b606086018261370d565b50608083015161378e608086018261370d565b5060a08301516137a160a086018261370d565b508091505092915050565b600060208201905081810360008301526137c6818461371c565b905092915050565b60006020820190506137e36000830184613462565b92915050565b6137f281613450565b81146137fd57600080fd5b50565b60008135905061380f816137e9565b92915050565b60006020828403121561382b5761382a6131c8565b5b600061383984828501613800565b91505092915050565b60008115159050919050565b61385781613842565b82525050565b6000602082019050613872600083018461384e565b92915050565b6004811061388557600080fd5b50565b60008135905061389781613878565b92915050565b600080604083850312156138b4576138b36131c8565b5b600083013567ffffffffffffffff8111156138d2576138d16131cd565b5b6138de85828601613622565b92505060206138ef85828601613888565b9150509250929050565b61390281613471565b811461390d57600080fd5b50565b60008135905061391f816138f9565b92915050565b60006020828403121561393b5761393a6131c8565b5b600061394984828501613910565b91505092915050565b61395b81613842565b811461396657600080fd5b50565b60008135905061397881613952565b92915050565b60008060408385031215613995576139946131c8565b5b60006139a385828601613800565b92505060206139b485828601613969565b9150509250929050565b600080604083850312156139d5576139d46131c8565b5b60006139e385828601613800565b92505060206139f485828601613910565b9150509250929050565b60008060408385031215613a1557613a146131c8565b5b600083013567ffffffffffffffff811115613a3357613a326131cd565b5b613a3f85828601613622565b925050602083013567ffffffffffffffff811115613a6057613a5f6131cd565b5b613a6c85828601613622565b9150509250929050565b6000602082019050613a8b600083018461347f565b92915050565b7f4e487b7100000000000000000000000000000000000000000000000000000000600052602260045260246000fd5b60006002820490506001821680613ad857607f821691505b602082108103613aeb57613aea613a91565b5b50919050565b7f4f6e6c7920746865206d616e61676572206861732061636365737320746f207460008201527f6869732066756e6374696f6e616c697479000000000000000000000000000000602082015250565b6000613b4d603183613240565b9150613b5882613af1565b604082019050919050565b60006020820190508181036000830152613b7c81613b40565b9050919050565b7f4120636f756e73656c6f722063616e6e6f742062652072656d6f766564000000600082015250565b6000613bb9601d83613240565b9150613bc482613b83565b602082019050919050565b60006020820190508181036000830152613be881613bac565b9050919050565b7f5468697320746f70696320646f6573206e6f7420657869737473000000000000600082015250565b6000613c25601a83613240565b9150613c3082613bef565b602082019050919050565b60006020820190508181036000830152613c5481613c18565b9050919050565b7f4f6e6c792049444c4520746f706963732063616e2062652072656d6f76656400600082015250565b6000613c91601f83613240565b9150613c9c82613c5b565b602082019050919050565b60006020820190508181036000830152613cc081613c84565b9050919050565b7f4f6e6c7920564f54494e4720746f706963732063616e20626520636c6f736564600082015250565b6000613cfd602083613240565b9150613d0882613cc7565b602082019050919050565b60006020820190508181036000830152613d2c81613cf0565b9050919050565b7f4e487b7100000000000000000000000000000000000000000000000000000000600052603260045260246000fd5b7f4e487b7100000000000000000000000000000000000000000000000000000000600052601160045260246000fd5b600060ff82169050919050565b6000613da982613d91565b915060ff8203613dbc57613dbb613d62565b5b600182019050919050565b7f4f6e6c7920746865207265736964656e7473206f72206d616e6167657220686160008201527f76652061636365737320746f20746869732066756e6374696f6e616c69747900602082015250565b6000613e23603f83613240565b9150613e2e82613dc7565b604082019050919050565b60006020820190508181036000830152613e5281613e16565b9050919050565b7f546865206f7074696f6e2063616e6e6f7420626520454d505459000000000000600082015250565b6000613e8f601a83613240565b9150613e9a82613e59565b602082019050919050565b60006020820190508181036000830152613ebe81613e82565b9050919050565b7f4f6e6c7920564f54494e4720746f706963732063616e20626520766f74656400600082015250565b6000613efb601f83613240565b9150613f0682613ec5565b602082019050919050565b60006020820190508181036000830152613f2a81613eee565b9050919050565b7f41207265736964656e63652073686f756c6420766f7465206f6e6c79206f6e6360008201527f6500000000000000000000000000000000000000000000000000000000000000602082015250565b6000613f8d602183613240565b9150613f9882613f31565b604082019050919050565b60006020820190508181036000830152613fbc81613f80565b9050919050565b7f54686520636f756e73656c6f72206d7573742062652061207265736964656e74600082015250565b6000613ff9602083613240565b915061400482613fc3565b602082019050919050565b6000602082019050818103600083015261402881613fec565b9050919050565b7f4f6e6c792049444c4520746f706963732063616e206265206f70656e20666f7260008201527f20766f74696e6700000000000000000000000000000000000000000000000000602082015250565b600061408b602783613240565b91506140968261402f565b604082019050919050565b600060208201905081810360008301526140ba8161407e565b9050919050565b7f4f6e6c792074686520636f756e73656c6f7273206f72206d616e61676572206860008201527f6176652061636365737320746f20746869732066756e6374696f6e616c697479602082015250565b600061411d604083613240565b9150614128826140c1565b604082019050919050565b6000602082019050818103600083015261414c81614110565b9050919050565b7f54686973207265736964656e636520646f6573206e6f74206578697374730000600082015250565b6000614189601e83613240565b915061419482614153565b602082019050919050565b600060208201905081810360008301526141b88161417c565b9050919050565b7f5468697320746f70696320616c72656164792065786973747300000000000000600082015250565b60006141f5601983613240565b9150614200826141bf565b602082019050919050565b60006020820190508181036000830152614224816141e8565b9050919050565b60008190508160005260206000209050919050565b60006020601f8301049050919050565b600082821b905092915050565b60006008830261428d7fffffffffffffffffffffffffffffffffffffffffffffffffffffffffffffffff82614250565b6142978683614250565b95508019841693508086168417925050509392505050565b6000819050919050565b60006142d46142cf6142ca8461333c565b6142af565b61333c565b9050919050565b6000819050919050565b6142ee836142b9565b6143026142fa826142db565b84845461425d565b825550505050565b600090565b61431761430a565b6143228184846142e5565b505050565b5b818110156143465761433b60008261430f565b600181019050614328565b5050565b601f82111561438b5761435c8161422b565b61436584614240565b81016020851015614374578190505b61438861438085614240565b830182614327565b50505b505050565b600082821c905092915050565b60006143ae60001984600802614390565b1980831691505092915050565b60006143c7838361439d565b9150826002028217905092915050565b6143e082613235565b67ffffffffffffffff8111156143f9576143f8613525565b5b6144038254613ac0565b61440e82828561434a565b600060209050601f831160018114614441576000841561442f578287015190505b61443985826143bb565b8655506144a1565b601f19841661444f8661422b565b60005b8281101561447757848901518255600182019150602085019450602081019050614452565b868310156144945784890151614490601f89168261439d565b8355505b6001600288020188555050505b505050505050565b7f5468652061646472657373206d7573742062652076616c696400000000000000600082015250565b60006144df601983613240565b91506144ea826144a9565b602082019050919050565b6000602082019050818103600083015261450e816144d2565b905091905056fea264697066735822122022105ada95409e86f05240710ef37b237348ec3fe09727eb9e8bfa42dfce0e3064736f6c63430008180033","opcodes":"PUSH1 0x80 PUSH1 0x40 MSTORE CALLVALUE DUP1 ISZERO PUSH3 0x11 JUMPI PUSH1 0x0 DUP1 REVERT JUMPDEST POP PUSH3 0x2E PUSH8 0x7A154FFA78836375 PUSH1 0xC0 SHL PUSH3 0x23F PUSH1 0x20 SHL PUSH1 0x20 SHR JUMP JUMPDEST PUSH3 0x4A PUSH8 0x7F89F84D1BB0470F PUSH1 0xC0 SHL PUSH3 0x23F PUSH1 0x20 SHL PUSH1 0x20 SHR JUMP JUMPDEST CALLER PUSH1 0x0 DUP1 PUSH2 0x100 EXP DUP2 SLOAD DUP2 PUSH20 0xFFFFFFFFFFFFFFFFFFFFFFFFFFFFFFFFFFFFFFFF MUL NOT AND SWAP1 DUP4 PUSH20 0xFFFFFFFFFFFFFFFFFFFFFFFFFFFFFFFFFFFFFFFF AND MUL OR SWAP1 SSTORE POP PUSH3 0xA6 PUSH8 0xDF9CCD9B68ACA3FF PUSH1 0xC0 SHL PUSH3 0x23F PUSH1 0x20 SHL PUSH1 0x20 SHR JUMP JUMPDEST PUSH3 0xC2 PUSH8 0x3366B75F3C2574D6 PUSH1 0xC0 SHL PUSH3 0x23F PUSH1 0x20 SHL PUSH1 0x20 SHR JUMP JUMPDEST PUSH1 0x0 PUSH1 0x1 SWAP1 POP JUMPDEST PUSH1 0x2 DUP2 PUSH2 0xFFFF AND GT PUSH3 0x238 JUMPI PUSH3 0xF2 PUSH8 0xD43A0270D0EE8C5B PUSH1 0xC0 SHL PUSH3 0x23F PUSH1 0x20 SHL PUSH1 0x20 SHR JUMP JUMPDEST PUSH3 0x10E PUSH8 0x40564E9E21CBDF49 PUSH1 0xC0 SHL PUSH3 0x23F PUSH1 0x20 SHL PUSH1 0x20 SHR JUMP JUMPDEST PUSH1 0x0 PUSH1 0x1 SWAP1 POP JUMPDEST PUSH1 0x5 DUP2 PUSH2 0xFFFF AND GT PUSH3 0x221 JUMPI PUSH3 0x13E PUSH8 0x8687DA2FA21883FF PUSH1 0xC0 SHL PUSH3 0x23F PUSH1 0x20 SHL PUSH1 0x20 SHR JUMP JUMPDEST PUSH3 0x15A PUSH8 0x9C27A50C7A17698C PUSH1 0xC0 SHL PUSH3 0x23F PUSH1 0x20 SHL PUSH1 0x20 SHR JUMP JUMPDEST PUSH1 0x0 PUSH1 0x1 SWAP1 POP JUMPDEST PUSH1 0x5 DUP2 PUSH2 0xFFFF AND GT PUSH3 0x20A JUMPI PUSH3 0x18A PUSH8 0x4740C887B72977A7 PUSH1 0xC0 SHL PUSH3 0x23F PUSH1 0x20 SHL PUSH1 0x20 SHR JUMP JUMPDEST PUSH1 0x1 DUP1 PUSH1 0x0 DUP4 PUSH1 0x64 DUP7 PUSH3 0x19F SWAP2 SWAP1 PUSH3 0x27F JUMP JUMPDEST PUSH2 0x3E8 DUP9 PUSH3 0x1AF SWAP2 SWAP1 PUSH3 0x27F JUMP JUMPDEST PUSH3 0x1BB SWAP2 SWAP1 PUSH3 0x2C5 JUMP JUMPDEST PUSH3 0x1C7 SWAP2 SWAP1 PUSH3 0x2C5 JUMP JUMPDEST PUSH2 0xFFFF AND PUSH2 0xFFFF AND DUP2 MSTORE PUSH1 0x20 ADD SWAP1 DUP2 MSTORE PUSH1 0x20 ADD PUSH1 0x0 KECCAK256 PUSH1 0x0 PUSH2 0x100 EXP DUP2 SLOAD DUP2 PUSH1 0xFF MUL NOT AND SWAP1 DUP4 ISZERO ISZERO MUL OR SWAP1 SSTORE POP DUP1 DUP1 PUSH3 0x201 SWAP1 PUSH3 0x302 JUMP JUMPDEST SWAP2 POP POP PUSH3 0x161 JUMP JUMPDEST POP DUP1 DUP1 PUSH3 0x218 SWAP1 PUSH3 0x302 JUMP JUMPDEST SWAP2 POP POP PUSH3 0x115 JUMP JUMPDEST POP DUP1 DUP1 PUSH3 0x22F SWAP1 PUSH3 0x302 JUMP JUMPDEST SWAP2 POP POP PUSH3 0xC9 JUMP JUMPDEST POP PUSH3 0x331 JUMP JUMPDEST POP JUMP JUMPDEST PUSH1 0x0 PUSH2 0xFFFF DUP3 AND SWAP1 POP SWAP2 SWAP1 POP JUMP JUMPDEST PUSH32 0x4E487B7100000000000000000000000000000000000000000000000000000000 PUSH1 0x0 MSTORE PUSH1 0x11 PUSH1 0x4 MSTORE PUSH1 0x24 PUSH1 0x0 REVERT JUMPDEST PUSH1 0x0 PUSH3 0x28C DUP3 PUSH3 0x242 JUMP JUMPDEST SWAP2 POP PUSH3 0x299 DUP4 PUSH3 0x242 JUMP JUMPDEST SWAP3 POP DUP3 DUP3 MUL PUSH3 0x2A9 DUP2 PUSH3 0x242 JUMP JUMPDEST SWAP2 POP DUP1 DUP3 EQ PUSH3 0x2BE JUMPI PUSH3 0x2BD PUSH3 0x250 JUMP JUMPDEST JUMPDEST POP SWAP3 SWAP2 POP POP JUMP JUMPDEST PUSH1 0x0 PUSH3 0x2D2 DUP3 PUSH3 0x242 JUMP JUMPDEST SWAP2 POP PUSH3 0x2DF DUP4 PUSH3 0x242 JUMP JUMPDEST SWAP3 POP DUP3 DUP3 ADD SWAP1 POP PUSH2 0xFFFF DUP2 GT ISZERO PUSH3 0x2FC JUMPI PUSH3 0x2FB PUSH3 0x250 JUMP JUMPDEST JUMPDEST SWAP3 SWAP2 POP POP JUMP JUMPDEST PUSH1 0x0 PUSH3 0x30F DUP3 PUSH3 0x242 JUMP JUMPDEST SWAP2 POP PUSH2 0xFFFF DUP3 SUB PUSH3 0x326 JUMPI PUSH3 0x325 PUSH3 0x250 JUMP JUMPDEST JUMPDEST PUSH1 0x1 DUP3 ADD SWAP1 POP SWAP2 SWAP1 POP JUMP JUMPDEST PUSH2 0x454B DUP1 PUSH3 0x341 PUSH1 0x0 CODECOPY PUSH1 0x0 RETURN INVALID PUSH1 0x80 PUSH1 0x40 MSTORE CALLVALUE DUP1 ISZERO PUSH2 0x10 JUMPI PUSH1 0x0 DUP1 REVERT JUMPDEST POP PUSH1 0x4 CALLDATASIZE LT PUSH2 0x12C JUMPI PUSH1 0x0 CALLDATALOAD PUSH1 0xE0 SHR DUP1 PUSH4 0x8FC5DAD8 GT PUSH2 0xAD JUMPI DUP1 PUSH4 0xB1583546 GT PUSH2 0x71 JUMPI DUP1 PUSH4 0xB1583546 EQ PUSH2 0x37F JUMPI DUP1 PUSH4 0xBC2F89F3 EQ PUSH2 0x39B JUMPI DUP1 PUSH4 0xC1E6ADFD EQ PUSH2 0x3CB JUMPI DUP1 PUSH4 0xD0EBDBE7 EQ PUSH2 0x3E7 JUMPI DUP1 PUSH4 0xE4D65D54 EQ PUSH2 0x403 JUMPI PUSH2 0x12C JUMP JUMPDEST DUP1 PUSH4 0x8FC5DAD8 EQ PUSH2 0x2DF JUMPI DUP1 PUSH4 0x90CA27F3 EQ PUSH2 0x2FB JUMPI DUP1 PUSH4 0x967D59E4 EQ PUSH2 0x317 JUMPI DUP1 PUSH4 0x96FA1DEF EQ PUSH2 0x347 JUMPI DUP1 PUSH4 0x9E1BF985 EQ PUSH2 0x363 JUMPI PUSH2 0x12C JUMP JUMPDEST DUP1 PUSH4 0x4DE53265 GT PUSH2 0xF4 JUMPI DUP1 PUSH4 0x4DE53265 EQ PUSH2 0x217 JUMPI DUP1 PUSH4 0x597DE987 EQ PUSH2 0x247 JUMPI DUP1 PUSH4 0x68ACA335 EQ PUSH2 0x263 JUMPI DUP1 PUSH4 0x78B5749D EQ PUSH2 0x293 JUMPI DUP1 PUSH4 0x7B57EE49 EQ PUSH2 0x2C3 JUMPI PUSH2 0x12C JUMP JUMPDEST DUP1 PUSH4 0xF2FBEEC EQ PUSH2 0x131 JUMPI DUP1 PUSH4 0x1A6C0192 EQ PUSH2 0x166 JUMPI DUP1 PUSH4 0x2F9F21FE EQ PUSH2 0x199 JUMPI DUP1 PUSH4 0x474502D8 EQ PUSH2 0x1C9 JUMPI DUP1 PUSH4 0x481C6A75 EQ PUSH2 0x1F9 JUMPI JUMPDEST PUSH1 0x0 DUP1 REVERT JUMPDEST PUSH2 0x14B PUSH1 0x4 DUP1 CALLDATASIZE SUB DUP2 ADD SWAP1 PUSH2 0x146 SWAP2 SWAP1 PUSH2 0x3208 JUMP JUMPDEST PUSH2 0x433 JUMP JUMPDEST PUSH1 0x40 MLOAD PUSH2 0x15D SWAP7 SWAP6 SWAP5 SWAP4 SWAP3 SWAP2 SWAP1 PUSH2 0x3355 JUMP JUMPDEST PUSH1 0x40 MLOAD DUP1 SWAP2 SUB SWAP1 RETURN JUMPDEST PUSH2 0x180 PUSH1 0x4 DUP1 CALLDATASIZE SUB DUP2 ADD SWAP1 PUSH2 0x17B SWAP2 SWAP1 PUSH2 0x33F0 JUMP JUMPDEST PUSH2 0x58C JUMP JUMPDEST PUSH1 0x40 MLOAD PUSH2 0x190 SWAP5 SWAP4 SWAP3 SWAP2 SWAP1 PUSH2 0x34D6 JUMP JUMPDEST PUSH1 0x40 MLOAD DUP1 SWAP2 SUB SWAP1 RETURN JUMPDEST PUSH2 0x1B3 PUSH1 0x4 DUP1 CALLDATASIZE SUB DUP2 ADD SWAP1 PUSH2 0x1AE SWAP2 SWAP1 PUSH2 0x3650 JUMP JUMPDEST PUSH2 0x614 JUMP JUMPDEST PUSH1 0x40 MLOAD PUSH2 0x1C0 SWAP2 SWAP1 PUSH2 0x3699 JUMP JUMPDEST PUSH1 0x40 MLOAD DUP1 SWAP2 SUB SWAP1 RETURN JUMPDEST PUSH2 0x1E3 PUSH1 0x4 DUP1 CALLDATASIZE SUB DUP2 ADD SWAP1 PUSH2 0x1DE SWAP2 SWAP1 PUSH2 0x3650 JUMP JUMPDEST PUSH2 0x6A5 JUMP JUMPDEST PUSH1 0x40 MLOAD PUSH2 0x1F0 SWAP2 SWAP1 PUSH2 0x37AC JUMP JUMPDEST PUSH1 0x40 MLOAD DUP1 SWAP2 SUB SWAP1 RETURN JUMPDEST PUSH2 0x201 PUSH2 0x8C0 JUMP JUMPDEST PUSH1 0x40 MLOAD PUSH2 0x20E SWAP2 SWAP1 PUSH2 0x37CE JUMP JUMPDEST PUSH1 0x40 MLOAD DUP1 SWAP2 SUB SWAP1 RETURN JUMPDEST PUSH2 0x231 PUSH1 0x4 DUP1 CALLDATASIZE SUB DUP2 ADD SWAP1 PUSH2 0x22C SWAP2 SWAP1 PUSH2 0x3815 JUMP JUMPDEST PUSH2 0x8E4 JUMP JUMPDEST PUSH1 0x40 MLOAD PUSH2 0x23E SWAP2 SWAP1 PUSH2 0x385D JUMP JUMPDEST PUSH1 0x40 MLOAD DUP1 SWAP2 SUB SWAP1 RETURN JUMPDEST PUSH2 0x261 PUSH1 0x4 DUP1 CALLDATASIZE SUB DUP2 ADD SWAP1 PUSH2 0x25C SWAP2 SWAP1 PUSH2 0x3815 JUMP JUMPDEST PUSH2 0x904 JUMP JUMPDEST STOP JUMPDEST PUSH2 0x27D PUSH1 0x4 DUP1 CALLDATASIZE SUB DUP2 ADD SWAP1 PUSH2 0x278 SWAP2 SWAP1 PUSH2 0x3815 JUMP JUMPDEST PUSH2 0xC81 JUMP JUMPDEST PUSH1 0x40 MLOAD PUSH2 0x28A SWAP2 SWAP1 PUSH2 0x385D JUMP JUMPDEST PUSH1 0x40 MLOAD DUP1 SWAP2 SUB SWAP1 RETURN JUMPDEST PUSH2 0x2AD PUSH1 0x4 DUP1 CALLDATASIZE SUB DUP2 ADD SWAP1 PUSH2 0x2A8 SWAP2 SWAP1 PUSH2 0x3650 JUMP JUMPDEST PUSH2 0xD1A JUMP JUMPDEST PUSH1 0x40 MLOAD PUSH2 0x2BA SWAP2 SWAP1 PUSH2 0x385D JUMP JUMPDEST PUSH1 0x40 MLOAD DUP1 SWAP2 SUB SWAP1 RETURN JUMPDEST PUSH2 0x2DD PUSH1 0x4 DUP1 CALLDATASIZE SUB DUP2 ADD SWAP1 PUSH2 0x2D8 SWAP2 SWAP1 PUSH2 0x3650 JUMP JUMPDEST PUSH2 0xD6F JUMP JUMPDEST STOP JUMPDEST PUSH2 0x2F9 PUSH1 0x4 DUP1 CALLDATASIZE SUB DUP2 ADD SWAP1 PUSH2 0x2F4 SWAP2 SWAP1 PUSH2 0x3650 JUMP JUMPDEST PUSH2 0x10B9 JUMP JUMPDEST STOP JUMPDEST PUSH2 0x315 PUSH1 0x4 DUP1 CALLDATASIZE SUB DUP2 ADD SWAP1 PUSH2 0x310 SWAP2 SWAP1 PUSH2 0x389D JUMP JUMPDEST PUSH2 0x18A8 JUMP JUMPDEST STOP JUMPDEST PUSH2 0x331 PUSH1 0x4 DUP1 CALLDATASIZE SUB DUP2 ADD SWAP1 PUSH2 0x32C SWAP2 SWAP1 PUSH2 0x3925 JUMP JUMPDEST PUSH2 0x215D JUMP JUMPDEST PUSH1 0x40 MLOAD PUSH2 0x33E SWAP2 SWAP1 PUSH2 0x385D JUMP JUMPDEST PUSH1 0x40 MLOAD DUP1 SWAP2 SUB SWAP1 RETURN JUMPDEST PUSH2 0x361 PUSH1 0x4 DUP1 CALLDATASIZE SUB DUP2 ADD SWAP1 PUSH2 0x35C SWAP2 SWAP1 PUSH2 0x397E JUMP JUMPDEST PUSH2 0x21CB JUMP JUMPDEST STOP JUMPDEST PUSH2 0x37D PUSH1 0x4 DUP1 CALLDATASIZE SUB DUP2 ADD SWAP1 PUSH2 0x378 SWAP2 SWAP1 PUSH2 0x3650 JUMP JUMPDEST PUSH2 0x24D4 JUMP JUMPDEST STOP JUMPDEST PUSH2 0x399 PUSH1 0x4 DUP1 CALLDATASIZE SUB DUP2 ADD SWAP1 PUSH2 0x394 SWAP2 SWAP1 PUSH2 0x39BE JUMP JUMPDEST PUSH2 0x2858 JUMP JUMPDEST STOP JUMPDEST PUSH2 0x3B5 PUSH1 0x4 DUP1 CALLDATASIZE SUB DUP2 ADD SWAP1 PUSH2 0x3B0 SWAP2 SWAP1 PUSH2 0x3925 JUMP JUMPDEST PUSH2 0x2B30 JUMP JUMPDEST PUSH1 0x40 MLOAD PUSH2 0x3C2 SWAP2 SWAP1 PUSH2 0x385D JUMP JUMPDEST PUSH1 0x40 MLOAD DUP1 SWAP2 SUB SWAP1 RETURN JUMPDEST PUSH2 0x3E5 PUSH1 0x4 DUP1 CALLDATASIZE SUB DUP2 ADD SWAP1 PUSH2 0x3E0 SWAP2 SWAP1 PUSH2 0x39FE JUMP JUMPDEST PUSH2 0x2B50 JUMP JUMPDEST STOP JUMPDEST PUSH2 0x401 PUSH1 0x4 DUP1 CALLDATASIZE SUB DUP2 ADD SWAP1 PUSH2 0x3FC SWAP2 SWAP1 PUSH2 0x3815 JUMP JUMPDEST PUSH2 0x2E92 JUMP JUMPDEST STOP JUMPDEST PUSH2 0x41D PUSH1 0x4 DUP1 CALLDATASIZE SUB DUP2 ADD SWAP1 PUSH2 0x418 SWAP2 SWAP1 PUSH2 0x3815 JUMP JUMPDEST PUSH2 0x30EA JUMP JUMPDEST PUSH1 0x40 MLOAD PUSH2 0x42A SWAP2 SWAP1 PUSH2 0x3A76 JUMP JUMPDEST PUSH1 0x40 MLOAD DUP1 SWAP2 SUB SWAP1 RETURN JUMPDEST PUSH1 0x4 PUSH1 0x20 MSTORE DUP1 PUSH1 0x0 MSTORE PUSH1 0x40 PUSH1 0x0 KECCAK256 PUSH1 0x0 SWAP2 POP SWAP1 POP DUP1 PUSH1 0x0 ADD DUP1 SLOAD PUSH2 0x456 SWAP1 PUSH2 0x3AC0 JUMP JUMPDEST DUP1 PUSH1 0x1F ADD PUSH1 0x20 DUP1 SWAP2 DIV MUL PUSH1 0x20 ADD PUSH1 0x40 MLOAD SWAP1 DUP2 ADD PUSH1 0x40 MSTORE DUP1 SWAP3 SWAP2 SWAP1 DUP2 DUP2 MSTORE PUSH1 0x20 ADD DUP3 DUP1 SLOAD PUSH2 0x482 SWAP1 PUSH2 0x3AC0 JUMP JUMPDEST DUP1 ISZERO PUSH2 0x4CF JUMPI DUP1 PUSH1 0x1F LT PUSH2 0x4A4 JUMPI PUSH2 0x100 DUP1 DUP4 SLOAD DIV MUL DUP4 MSTORE SWAP2 PUSH1 0x20 ADD SWAP2 PUSH2 0x4CF JUMP JUMPDEST DUP3 ADD SWAP2 SWAP1 PUSH1 0x0 MSTORE PUSH1 0x20 PUSH1 0x0 KECCAK256 SWAP1 JUMPDEST DUP2 SLOAD DUP2 MSTORE SWAP1 PUSH1 0x1 ADD SWAP1 PUSH1 0x20 ADD DUP1 DUP4 GT PUSH2 0x4B2 JUMPI DUP3 SWAP1 SUB PUSH1 0x1F AND DUP3 ADD SWAP2 JUMPDEST POP POP POP POP POP SWAP1 DUP1 PUSH1 0x1 ADD DUP1 SLOAD PUSH2 0x4E4 SWAP1 PUSH2 0x3AC0 JUMP JUMPDEST DUP1 PUSH1 0x1F ADD PUSH1 0x20 DUP1 SWAP2 DIV MUL PUSH1 0x20 ADD PUSH1 0x40 MLOAD SWAP1 DUP2 ADD PUSH1 0x40 MSTORE DUP1 SWAP3 SWAP2 SWAP1 DUP2 DUP2 MSTORE PUSH1 0x20 ADD DUP3 DUP1 SLOAD PUSH2 0x510 SWAP1 PUSH2 0x3AC0 JUMP JUMPDEST DUP1 ISZERO PUSH2 0x55D JUMPI DUP1 PUSH1 0x1F LT PUSH2 0x532 JUMPI PUSH2 0x100 DUP1 DUP4 SLOAD DIV MUL DUP4 MSTORE SWAP2 PUSH1 0x20 ADD SWAP2 PUSH2 0x55D JUMP JUMPDEST DUP3 ADD SWAP2 SWAP1 PUSH1 0x0 MSTORE PUSH1 0x20 PUSH1 0x0 KECCAK256 SWAP1 JUMPDEST DUP2 SLOAD DUP2 MSTORE SWAP1 PUSH1 0x1 ADD SWAP1 PUSH1 0x20 ADD DUP1 DUP4 GT PUSH2 0x540 JUMPI DUP3 SWAP1 SUB PUSH1 0x1F AND DUP3 ADD SWAP2 JUMPDEST POP POP POP POP POP SWAP1 DUP1 PUSH1 0x2 ADD PUSH1 0x0 SWAP1 SLOAD SWAP1 PUSH2 0x100 EXP SWAP1 DIV PUSH1 0xFF AND SWAP1 DUP1 PUSH1 0x3 ADD SLOAD SWAP1 DUP1 PUSH1 0x4 ADD SLOAD SWAP1 DUP1 PUSH1 0x5 ADD SLOAD SWAP1 POP DUP7 JUMP JUMPDEST PUSH1 0x5 PUSH1 0x20 MSTORE DUP2 PUSH1 0x0 MSTORE PUSH1 0x40 PUSH1 0x0 KECCAK256 DUP2 DUP2 SLOAD DUP2 LT PUSH2 0x5A8 JUMPI PUSH1 0x0 DUP1 REVERT JUMPDEST SWAP1 PUSH1 0x0 MSTORE PUSH1 0x20 PUSH1 0x0 KECCAK256 SWAP1 PUSH1 0x2 MUL ADD PUSH1 0x0 SWAP2 POP SWAP2 POP POP DUP1 PUSH1 0x0 ADD PUSH1 0x0 SWAP1 SLOAD SWAP1 PUSH2 0x100 EXP SWAP1 DIV PUSH20 0xFFFFFFFFFFFFFFFFFFFFFFFFFFFFFFFFFFFFFFFF AND SWAP1 DUP1 PUSH1 0x0 ADD PUSH1 0x14 SWAP1 SLOAD SWAP1 PUSH2 0x100 EXP SWAP1 DIV PUSH2 0xFFFF AND SWAP1 DUP1 PUSH1 0x0 ADD PUSH1 0x16 SWAP1 SLOAD SWAP1 PUSH2 0x100 EXP SWAP1 DIV PUSH1 0xFF AND SWAP1 DUP1 PUSH1 0x1 ADD SLOAD SWAP1 POP DUP5 JUMP JUMPDEST PUSH1 0x0 PUSH2 0x62A PUSH8 0x246A928BEB8D78AF PUSH1 0xC0 SHL PUSH2 0x310B JUMP JUMPDEST PUSH2 0x63E PUSH8 0xD15C40EE01684D3D PUSH1 0xC0 SHL PUSH2 0x310B JUMP JUMPDEST PUSH2 0x652 PUSH8 0x119EFE38C8F876A9 PUSH1 0xC0 SHL PUSH2 0x310B JUMP JUMPDEST PUSH1 0x0 DUP3 DUP1 MLOAD SWAP1 PUSH1 0x20 ADD KECCAK256 SWAP1 POP PUSH2 0x672 PUSH8 0xB977E71CC12E1DCD PUSH1 0xC0 SHL PUSH2 0x310B JUMP JUMPDEST PUSH2 0x686 PUSH8 0x5EDF1654BB13C404 PUSH1 0xC0 SHL PUSH2 0x310B JUMP JUMPDEST PUSH1 0x5 PUSH1 0x0 DUP3 DUP2 MSTORE PUSH1 0x20 ADD SWAP1 DUP2 MSTORE PUSH1 0x20 ADD PUSH1 0x0 KECCAK256 DUP1 SLOAD SWAP1 POP SWAP2 POP POP SWAP2 SWAP1 POP JUMP JUMPDEST PUSH2 0x6AD PUSH2 0x3119 JUMP JUMPDEST PUSH2 0x6C1 PUSH8 0x3573CF061AC01A1F PUSH1 0xC0 SHL PUSH2 0x310B JUMP JUMPDEST PUSH2 0x6D5 PUSH8 0xAE501A8E972D49E9 PUSH1 0xC0 SHL PUSH2 0x310B JUMP JUMPDEST PUSH2 0x6E9 PUSH8 0x2686E0596DF8B2D7 PUSH1 0xC0 SHL PUSH2 0x310B JUMP JUMPDEST PUSH1 0x0 DUP3 DUP1 MLOAD SWAP1 PUSH1 0x20 ADD KECCAK256 SWAP1 POP PUSH2 0x709 PUSH8 0x67852AEF43A0ED8 PUSH1 0xC0 SHL PUSH2 0x310B JUMP JUMPDEST PUSH2 0x71D PUSH8 0x22C52D71C0F5B7F7 PUSH1 0xC0 SHL PUSH2 0x310B JUMP JUMPDEST PUSH1 0x4 PUSH1 0x0 DUP3 DUP2 MSTORE PUSH1 0x20 ADD SWAP1 DUP2 MSTORE PUSH1 0x20 ADD PUSH1 0x0 KECCAK256 PUSH1 0x40 MLOAD DUP1 PUSH1 0xC0 ADD PUSH1 0x40 MSTORE SWAP1 DUP2 PUSH1 0x0 DUP3 ADD DUP1 SLOAD PUSH2 0x74B SWAP1 PUSH2 0x3AC0 JUMP JUMPDEST DUP1 PUSH1 0x1F ADD PUSH1 0x20 DUP1 SWAP2 DIV MUL PUSH1 0x20 ADD PUSH1 0x40 MLOAD SWAP1 DUP2 ADD PUSH1 0x40 MSTORE DUP1 SWAP3 SWAP2 SWAP1 DUP2 DUP2 MSTORE PUSH1 0x20 ADD DUP3 DUP1 SLOAD PUSH2 0x777 SWAP1 PUSH2 0x3AC0 JUMP JUMPDEST DUP1 ISZERO PUSH2 0x7C4 JUMPI DUP1 PUSH1 0x1F LT PUSH2 0x799 JUMPI PUSH2 0x100 DUP1 DUP4 SLOAD DIV MUL DUP4 MSTORE SWAP2 PUSH1 0x20 ADD SWAP2 PUSH2 0x7C4 JUMP JUMPDEST DUP3 ADD SWAP2 SWAP1 PUSH1 0x0 MSTORE PUSH1 0x20 PUSH1 0x0 KECCAK256 SWAP1 JUMPDEST DUP2 SLOAD DUP2 MSTORE SWAP1 PUSH1 0x1 ADD SWAP1 PUSH1 0x20 ADD DUP1 DUP4 GT PUSH2 0x7A7 JUMPI DUP3 SWAP1 SUB PUSH1 0x1F AND DUP3 ADD SWAP2 JUMPDEST POP POP POP POP POP DUP2 MSTORE PUSH1 0x20 ADD PUSH1 0x1 DUP3 ADD DUP1 SLOAD PUSH2 0x7DD SWAP1 PUSH2 0x3AC0 JUMP JUMPDEST DUP1 PUSH1 0x1F ADD PUSH1 0x20 DUP1 SWAP2 DIV MUL PUSH1 0x20 ADD PUSH1 0x40 MLOAD SWAP1 DUP2 ADD PUSH1 0x40 MSTORE DUP1 SWAP3 SWAP2 SWAP1 DUP2 DUP2 MSTORE PUSH1 0x20 ADD DUP3 DUP1 SLOAD PUSH2 0x809 SWAP1 PUSH2 0x3AC0 JUMP JUMPDEST DUP1 ISZERO PUSH2 0x856 JUMPI DUP1 PUSH1 0x1F LT PUSH2 0x82B JUMPI PUSH2 0x100 DUP1 DUP4 SLOAD DIV MUL DUP4 MSTORE SWAP2 PUSH1 0x20 ADD SWAP2 PUSH2 0x856 JUMP JUMPDEST DUP3 ADD SWAP2 SWAP1 PUSH1 0x0 MSTORE PUSH1 0x20 PUSH1 0x0 KECCAK256 SWAP1 JUMPDEST DUP2 SLOAD DUP2 MSTORE SWAP1 PUSH1 0x1 ADD SWAP1 PUSH1 0x20 ADD DUP1 DUP4 GT PUSH2 0x839 JUMPI DUP3 SWAP1 SUB PUSH1 0x1F AND DUP3 ADD SWAP2 JUMPDEST POP POP POP POP POP DUP2 MSTORE PUSH1 0x20 ADD PUSH1 0x2 DUP3 ADD PUSH1 0x0 SWAP1 SLOAD SWAP1 PUSH2 0x100 EXP SWAP1 DIV PUSH1 0xFF AND PUSH1 0x3 DUP2 GT ISZERO PUSH2 0x884 JUMPI PUSH2 0x883 PUSH2 0x32C5 JUMP JUMPDEST JUMPDEST PUSH1 0x3 DUP2 GT ISZERO PUSH2 0x896 JUMPI PUSH2 0x895 PUSH2 0x32C5 JUMP JUMPDEST JUMPDEST DUP2 MSTORE PUSH1 0x20 ADD PUSH1 0x3 DUP3 ADD SLOAD DUP2 MSTORE PUSH1 0x20 ADD PUSH1 0x4 DUP3 ADD SLOAD DUP2 MSTORE PUSH1 0x20 ADD PUSH1 0x5 DUP3 ADD SLOAD DUP2 MSTORE POP POP SWAP2 POP POP SWAP2 SWAP1 POP JUMP JUMPDEST PUSH1 0x0 DUP1 SLOAD SWAP1 PUSH2 0x100 EXP SWAP1 DIV PUSH20 0xFFFFFFFFFFFFFFFFFFFFFFFFFFFFFFFFFFFFFFFF AND DUP2 JUMP JUMPDEST PUSH1 0x2 PUSH1 0x20 MSTORE DUP1 PUSH1 0x0 MSTORE PUSH1 0x40 PUSH1 0x0 KECCAK256 PUSH1 0x0 SWAP2 POP SLOAD SWAP1 PUSH2 0x100 EXP SWAP1 DIV PUSH1 0xFF AND DUP2 JUMP JUMPDEST PUSH2 0x918 PUSH8 0x12F5FC41B27762FF PUSH1 0xC0 SHL PUSH2 0x310B JUMP JUMPDEST PUSH2 0x92C PUSH8 0x4C474C616D9F7C07 PUSH1 0xC0 SHL PUSH2 0x310B JUMP JUMPDEST PUSH2 0x940 PUSH8 0x2BB7D6E4A4421C80 PUSH1 0xC0 SHL PUSH2 0x310B JUMP JUMPDEST PUSH2 0x954 PUSH8 0x344453B0F476FAFC PUSH1 0xC0 SHL PUSH2 0x310B JUMP JUMPDEST PUSH2 0x968 PUSH8 0x56C9430E90E27FC3 PUSH1 0xC0 SHL PUSH2 0x310B JUMP JUMPDEST PUSH1 0x0 DUP1 SLOAD SWAP1 PUSH2 0x100 EXP SWAP1 DIV PUSH20 0xFFFFFFFFFFFFFFFFFFFFFFFFFFFFFFFFFFFFFFFF AND PUSH20 0xFFFFFFFFFFFFFFFFFFFFFFFFFFFFFFFFFFFFFFFF AND ORIGIN PUSH20 0xFFFFFFFFFFFFFFFFFFFFFFFFFFFFFFFFFFFFFFFF AND EQ PUSH2 0x9F6 JUMPI PUSH1 0x40 MLOAD PUSH32 0x8C379A000000000000000000000000000000000000000000000000000000000 DUP2 MSTORE PUSH1 0x4 ADD PUSH2 0x9ED SWAP1 PUSH2 0x3B63 JUMP JUMPDEST PUSH1 0x40 MLOAD DUP1 SWAP2 SUB SWAP1 REVERT JUMPDEST PUSH2 0xA0A PUSH8 0xD36C3AC8E00AEA8D PUSH1 0xC0 SHL PUSH2 0x310B JUMP JUMPDEST PUSH2 0xA1E PUSH8 0x7D65CE61398F435F PUSH1 0xC0 SHL PUSH2 0x310B JUMP JUMPDEST PUSH2 0xA32 PUSH8 0xA18C8F9BC926B9BD PUSH1 0xC0 SHL PUSH2 0x310B JUMP JUMPDEST PUSH2 0xA46 PUSH8 0x2D62061ECC33C8FB PUSH1 0xC0 SHL PUSH2 0x310B JUMP JUMPDEST PUSH2 0xA5A PUSH8 0x3951D3F3965DF85C PUSH1 0xC0 SHL PUSH2 0x310B JUMP JUMPDEST PUSH2 0xA6E PUSH8 0x608410639144C551 PUSH1 0xC0 SHL PUSH2 0x310B JUMP JUMPDEST PUSH2 0xA82 PUSH8 0x4052AFA46D26204A PUSH1 0xC0 SHL PUSH2 0x310B JUMP JUMPDEST PUSH1 0x2 PUSH1 0x0 DUP3 PUSH20 0xFFFFFFFFFFFFFFFFFFFFFFFFFFFFFFFFFFFFFFFF AND PUSH20 0xFFFFFFFFFFFFFFFFFFFFFFFFFFFFFFFFFFFFFFFF AND DUP2 MSTORE PUSH1 0x20 ADD SWAP1 DUP2 MSTORE PUSH1 0x20 ADD PUSH1 0x0 KECCAK256 PUSH1 0x0 SWAP1 SLOAD SWAP1 PUSH2 0x100 EXP SWAP1 DIV PUSH1 0xFF AND ISZERO PUSH2 0xB0F JUMPI PUSH1 0x40 MLOAD PUSH32 0x8C379A000000000000000000000000000000000000000000000000000000000 DUP2 MSTORE PUSH1 0x4 ADD PUSH2 0xB06 SWAP1 PUSH2 0x3BCF JUMP JUMPDEST PUSH1 0x40 MLOAD DUP1 SWAP2 SUB SWAP1 REVERT JUMPDEST PUSH2 0xB23 PUSH8 0xEB37D038D28E2E59 PUSH1 0xC0 SHL PUSH2 0x310B JUMP JUMPDEST PUSH2 0xB37 PUSH8 0x3CD80D26F567AEFE PUSH1 0xC0 SHL PUSH2 0x310B JUMP JUMPDEST PUSH1 0x3 PUSH1 0x0 DUP3 PUSH20 0xFFFFFFFFFFFFFFFFFFFFFFFFFFFFFFFFFFFFFFFF AND PUSH20 0xFFFFFFFFFFFFFFFFFFFFFFFFFFFFFFFFFFFFFFFF AND DUP2 MSTORE PUSH1 0x20 ADD SWAP1 DUP2 MSTORE PUSH1 0x20 ADD PUSH1 0x0 KECCAK256 PUSH1 0x0 PUSH2 0x100 EXP DUP2 SLOAD SWAP1 PUSH2 0xFFFF MUL NOT AND SWAP1 SSTORE PUSH2 0xB9B PUSH8 0x2684F85212D7A23A PUSH1 0xC0 SHL PUSH2 0x310B JUMP JUMPDEST PUSH2 0xBAF PUSH8 0xCDB446D03C78181D PUSH1 0xC0 SHL PUSH2 0x310B JUMP JUMPDEST PUSH1 0x2 PUSH1 0x0 DUP3 PUSH20 0xFFFFFFFFFFFFFFFFFFFFFFFFFFFFFFFFFFFFFFFF AND PUSH20 0xFFFFFFFFFFFFFFFFFFFFFFFFFFFFFFFFFFFFFFFF AND DUP2 MSTORE PUSH1 0x20 ADD SWAP1 DUP2 MSTORE PUSH1 0x20 ADD PUSH1 0x0 KECCAK256 PUSH1 0x0 SWAP1 SLOAD SWAP1 PUSH2 0x100 EXP SWAP1 DIV PUSH1 0xFF AND ISZERO PUSH2 0xC69 JUMPI PUSH2 0xC15 PUSH8 0xF9BB131F49010AF1 PUSH1 0xC0 SHL PUSH2 0x310B JUMP JUMPDEST PUSH1 0x2 PUSH1 0x0 DUP3 PUSH20 0xFFFFFFFFFFFFFFFFFFFFFFFFFFFFFFFFFFFFFFFF AND PUSH20 0xFFFFFFFFFFFFFFFFFFFFFFFFFFFFFFFFFFFFFFFF AND DUP2 MSTORE PUSH1 0x20 ADD SWAP1 DUP2 MSTORE PUSH1 0x20 ADD PUSH1 0x0 KECCAK256 PUSH1 0x0 PUSH2 0x100 EXP DUP2 SLOAD SWAP1 PUSH1 0xFF MUL NOT AND SWAP1 SSTORE PUSH2 0xC7E JUMP JUMPDEST PUSH2 0xC7D PUSH8 0xDD9376134F0AE34A PUSH1 0xC0 SHL PUSH2 0x310B JUMP JUMPDEST JUMPDEST POP JUMP JUMPDEST PUSH1 0x0 PUSH2 0xC97 PUSH8 0x1CBE9F3C1194B824 PUSH1 0xC0 SHL PUSH2 0x310B JUMP JUMPDEST PUSH2 0xCAB PUSH8 0xD72A81CBC4F5817B PUSH1 0xC0 SHL PUSH2 0x310B JUMP JUMPDEST PUSH2 0xCBE PUSH7 0x45250A59BE2A7D PUSH1 0xC0 SHL PUSH2 0x310B JUMP JUMPDEST PUSH1 0x0 PUSH1 0x3 PUSH1 0x0 DUP5 PUSH20 0xFFFFFFFFFFFFFFFFFFFFFFFFFFFFFFFFFFFFFFFF AND PUSH20 0xFFFFFFFFFFFFFFFFFFFFFFFFFFFFFFFFFFFFFFFF AND DUP2 MSTORE PUSH1 0x20 ADD SWAP1 DUP2 MSTORE PUSH1 0x20 ADD PUSH1 0x0 KECCAK256 PUSH1 0x0 SWAP1 SLOAD SWAP1 PUSH2 0x100 EXP SWAP1 DIV PUSH2 0xFFFF AND PUSH2 0xFFFF AND GT SWAP1 POP SWAP2 SWAP1 POP JUMP JUMPDEST PUSH1 0x0 PUSH2 0xD30 PUSH8 0xD8C545349088081B PUSH1 0xC0 SHL PUSH2 0x310B JUMP JUMPDEST PUSH2 0xD44 PUSH8 0xE22F1105CACF43F3 PUSH1 0xC0 SHL PUSH2 0x310B JUMP JUMPDEST PUSH2 0xD58 PUSH8 0xBAE32D37932DFAE5 PUSH1 0xC0 SHL PUSH2 0x310B JUMP JUMPDEST PUSH1 0x0 PUSH2 0xD63 DUP4 PUSH2 0x6A5 JUMP JUMPDEST PUSH1 0x60 ADD MLOAD GT SWAP1 POP SWAP2 SWAP1 POP JUMP JUMPDEST PUSH2 0xD83 PUSH8 0x9204123DE22B98AE PUSH1 0xC0 SHL PUSH2 0x310B JUMP JUMPDEST PUSH2 0xD97 PUSH8 0x4C474C616D9F7C07 PUSH1 0xC0 SHL PUSH2 0x310B JUMP JUMPDEST PUSH2 0xDAB PUSH8 0x2BB7D6E4A4421C80 PUSH1 0xC0 SHL PUSH2 0x310B JUMP JUMPDEST PUSH2 0xDBF PUSH8 0x344453B0F476FAFC PUSH1 0xC0 SHL PUSH2 0x310B JUMP JUMPDEST PUSH2 0xDD3 PUSH8 0x56C9430E90E27FC3 PUSH1 0xC0 SHL PUSH2 0x310B JUMP JUMPDEST PUSH1 0x0 DUP1 SLOAD SWAP1 PUSH2 0x100 EXP SWAP1 DIV PUSH20 0xFFFFFFFFFFFFFFFFFFFFFFFFFFFFFFFFFFFFFFFF AND PUSH20 0xFFFFFFFFFFFFFFFFFFFFFFFFFFFFFFFFFFFFFFFF AND ORIGIN PUSH20 0xFFFFFFFFFFFFFFFFFFFFFFFFFFFFFFFFFFFFFFFF AND EQ PUSH2 0xE61 JUMPI PUSH1 0x40 MLOAD PUSH32 0x8C379A000000000000000000000000000000000000000000000000000000000 DUP2 MSTORE PUSH1 0x4 ADD PUSH2 0xE58 SWAP1 PUSH2 0x3B63 JUMP JUMPDEST PUSH1 0x40 MLOAD DUP1 SWAP2 SUB SWAP1 REVERT JUMPDEST PUSH2 0xE75 PUSH8 0xD36C3AC8E00AEA8D PUSH1 0xC0 SHL PUSH2 0x310B JUMP JUMPDEST PUSH2 0xE89 PUSH8 0x7D65CE61398F435F PUSH1 0xC0 SHL PUSH2 0x310B JUMP JUMPDEST PUSH2 0xE9D PUSH8 0x980462701BB660F8 PUSH1 0xC0 SHL PUSH2 0x310B JUMP JUMPDEST PUSH2 0xEB1 PUSH8 0x2760B4B14DA3605C PUSH1 0xC0 SHL PUSH2 0x310B JUMP JUMPDEST PUSH2 0xEC5 PUSH8 0x8D78B2AE692F48FC PUSH1 0xC0 SHL PUSH2 0x310B JUMP JUMPDEST PUSH2 0xED9 PUSH8 0xA2A91F030093D01D PUSH1 0xC0 SHL PUSH2 0x310B JUMP JUMPDEST PUSH1 0x0 PUSH2 0xEE4 DUP3 PUSH2 0x6A5 JUMP JUMPDEST SWAP1 POP PUSH2 0xEFA PUSH8 0x524B8AEB32416FCF PUSH1 0xC0 SHL PUSH2 0x310B JUMP JUMPDEST PUSH2 0xF0E PUSH8 0xB2C50F41DA10FD4F PUSH1 0xC0 SHL PUSH2 0x310B JUMP JUMPDEST PUSH2 0xF22 PUSH8 0x4667D3A573805FA6 PUSH1 0xC0 SHL PUSH2 0x310B JUMP JUMPDEST PUSH1 0x0 DUP2 PUSH1 0x60 ADD MLOAD GT PUSH2 0xF69 JUMPI PUSH1 0x40 MLOAD PUSH32 0x8C379A000000000000000000000000000000000000000000000000000000000 DUP2 MSTORE PUSH1 0x4 ADD PUSH2 0xF60 SWAP1 PUSH2 0x3C3B JUMP JUMPDEST PUSH1 0x40 MLOAD DUP1 SWAP2 SUB SWAP1 REVERT JUMPDEST PUSH2 0xF7D PUSH8 0x72C7BAD76BEB1576 PUSH1 0xC0 SHL PUSH2 0x310B JUMP JUMPDEST PUSH2 0xF91 PUSH8 0x69776A76E414052C PUSH1 0xC0 SHL PUSH2 0x310B JUMP JUMPDEST PUSH2 0xFA5 PUSH8 0xF62E83C7DC5D6744 PUSH1 0xC0 SHL PUSH2 0x310B JUMP JUMPDEST PUSH2 0xFB9 PUSH8 0xA70F92EA3F576DF4 PUSH1 0xC0 SHL PUSH2 0x310B JUMP JUMPDEST PUSH1 0x0 PUSH1 0x3 DUP2 GT ISZERO PUSH2 0xFCD JUMPI PUSH2 0xFCC PUSH2 0x32C5 JUMP JUMPDEST JUMPDEST DUP2 PUSH1 0x40 ADD MLOAD PUSH1 0x3 DUP2 GT ISZERO PUSH2 0xFE4 JUMPI PUSH2 0xFE3 PUSH2 0x32C5 JUMP JUMPDEST JUMPDEST EQ PUSH2 0x1024 JUMPI PUSH1 0x40 MLOAD PUSH32 0x8C379A000000000000000000000000000000000000000000000000000000000 DUP2 MSTORE PUSH1 0x4 ADD PUSH2 0x101B SWAP1 PUSH2 0x3CA7 JUMP JUMPDEST PUSH1 0x40 MLOAD DUP1 SWAP2 SUB SWAP1 REVERT JUMPDEST PUSH2 0x1038 PUSH8 0x1309691C3910264B PUSH1 0xC0 SHL PUSH2 0x310B JUMP JUMPDEST PUSH2 0x104C PUSH8 0xF294B55ADA0E4009 PUSH1 0xC0 SHL PUSH2 0x310B JUMP JUMPDEST PUSH1 0x4 PUSH1 0x0 DUP4 DUP1 MLOAD SWAP1 PUSH1 0x20 ADD KECCAK256 DUP2 MSTORE PUSH1 0x20 ADD SWAP1 DUP2 MSTORE PUSH1 0x20 ADD PUSH1 0x0 KECCAK256 PUSH1 0x0 DUP1 DUP3 ADD PUSH1 0x0 PUSH2 0x1077 SWAP2 SWAP1 PUSH2 0x3161 JUMP JUMPDEST PUSH1 0x1 DUP3 ADD PUSH1 0x0 PUSH2 0x1087 SWAP2 SWAP1 PUSH2 0x3161 JUMP JUMPDEST PUSH1 0x2 DUP3 ADD PUSH1 0x0 PUSH2 0x100 EXP DUP2 SLOAD SWAP1 PUSH1 0xFF MUL NOT AND SWAP1 SSTORE PUSH1 0x3 DUP3 ADD PUSH1 0x0 SWAP1 SSTORE PUSH1 0x4 DUP3 ADD PUSH1 0x0 SWAP1 SSTORE PUSH1 0x5 DUP3 ADD PUSH1 0x0 SWAP1 SSTORE POP POP POP POP JUMP JUMPDEST PUSH2 0x10CD PUSH8 0xA01507671A93EA15 PUSH1 0xC0 SHL PUSH2 0x310B JUMP JUMPDEST PUSH2 0x10E1 PUSH8 0x4C474C616D9F7C07 PUSH1 0xC0 SHL PUSH2 0x310B JUMP JUMPDEST PUSH2 0x10F5 PUSH8 0x2BB7D6E4A4421C80 PUSH1 0xC0 SHL PUSH2 0x310B JUMP JUMPDEST PUSH2 0x1109 PUSH8 0x344453B0F476FAFC PUSH1 0xC0 SHL PUSH2 0x310B JUMP JUMPDEST PUSH2 0x111D PUSH8 0x56C9430E90E27FC3 PUSH1 0xC0 SHL PUSH2 0x310B JUMP JUMPDEST PUSH1 0x0 DUP1 SLOAD SWAP1 PUSH2 0x100 EXP SWAP1 DIV PUSH20 0xFFFFFFFFFFFFFFFFFFFFFFFFFFFFFFFFFFFFFFFF AND PUSH20 0xFFFFFFFFFFFFFFFFFFFFFFFFFFFFFFFFFFFFFFFF AND ORIGIN PUSH20 0xFFFFFFFFFFFFFFFFFFFFFFFFFFFFFFFFFFFFFFFF AND EQ PUSH2 0x11AB JUMPI PUSH1 0x40 MLOAD PUSH32 0x8C379A000000000000000000000000000000000000000000000000000000000 DUP2 MSTORE PUSH1 0x4 ADD PUSH2 0x11A2 SWAP1 PUSH2 0x3B63 JUMP JUMPDEST PUSH1 0x40 MLOAD DUP1 SWAP2 SUB SWAP1 REVERT JUMPDEST PUSH2 0x11BF PUSH8 0xD36C3AC8E00AEA8D PUSH1 0xC0 SHL PUSH2 0x310B JUMP JUMPDEST PUSH2 0x11D3 PUSH8 0x7D65CE61398F435F PUSH1 0xC0 SHL PUSH2 0x310B JUMP JUMPDEST PUSH2 0x11E7 PUSH8 0x1A156894E53EE2F0 PUSH1 0xC0 SHL PUSH2 0x310B JUMP JUMPDEST PUSH2 0x11FB PUSH8 0x3FC72B6734CEC210 PUSH1 0xC0 SHL PUSH2 0x310B JUMP JUMPDEST PUSH2 0x120F PUSH8 0x431CC48776ACAF3F PUSH1 0xC0 SHL PUSH2 0x310B JUMP JUMPDEST PUSH2 0x1223 PUSH8 0x8A37A4E49B977C55 PUSH1 0xC0 SHL PUSH2 0x310B JUMP JUMPDEST PUSH1 0x0 PUSH2 0x122E DUP3 PUSH2 0x6A5 JUMP JUMPDEST SWAP1 POP PUSH2 0x1244 PUSH8 0xE79505F8859CB214 PUSH1 0xC0 SHL PUSH2 0x310B JUMP JUMPDEST PUSH2 0x1258 PUSH8 0xB10643701432D095 PUSH1 0xC0 SHL PUSH2 0x310B JUMP JUMPDEST PUSH2 0x126C PUSH8 0xD0671A0FC44C6057 PUSH1 0xC0 SHL PUSH2 0x310B JUMP JUMPDEST PUSH1 0x0 DUP2 PUSH1 0x60 ADD MLOAD GT PUSH2 0x12B3 JUMPI PUSH1 0x40 MLOAD PUSH32 0x8C379A000000000000000000000000000000000000000000000000000000000 DUP2 MSTORE PUSH1 0x4 ADD PUSH2 0x12AA SWAP1 PUSH2 0x3C3B JUMP JUMPDEST PUSH1 0x40 MLOAD DUP1 SWAP2 SUB SWAP1 REVERT JUMPDEST PUSH2 0x12C7 PUSH8 0xDA3792787F75C877 PUSH1 0xC0 SHL PUSH2 0x310B JUMP JUMPDEST PUSH2 0x12DB PUSH8 0xC5F34E6C3CBC0A90 PUSH1 0xC0 SHL PUSH2 0x310B JUMP JUMPDEST PUSH2 0x12EF PUSH8 0x9AE501496075646F PUSH1 0xC0 SHL PUSH2 0x310B JUMP JUMPDEST PUSH2 0x1303 PUSH8 0x2DD2B85D3571F76E PUSH1 0xC0 SHL PUSH2 0x310B JUMP JUMPDEST PUSH1 0x1 PUSH1 0x3 DUP2 GT ISZERO PUSH2 0x1317 JUMPI PUSH2 0x1316 PUSH2 0x32C5 JUMP JUMPDEST JUMPDEST DUP2 PUSH1 0x40 ADD MLOAD PUSH1 0x3 DUP2 GT ISZERO PUSH2 0x132E JUMPI PUSH2 0x132D PUSH2 0x32C5 JUMP JUMPDEST JUMPDEST EQ PUSH2 0x136E JUMPI PUSH1 0x40 MLOAD PUSH32 0x8C379A000000000000000000000000000000000000000000000000000000000 DUP2 MSTORE PUSH1 0x4 ADD PUSH2 0x1365 SWAP1 PUSH2 0x3D13 JUMP JUMPDEST PUSH1 0x40 MLOAD DUP1 SWAP2 SUB SWAP1 REVERT JUMPDEST PUSH2 0x1382 PUSH8 0xC7347423895D4335 PUSH1 0xC0 SHL PUSH2 0x310B JUMP JUMPDEST PUSH2 0x1396 PUSH8 0xE7F2417EDCA81895 PUSH1 0xC0 SHL PUSH2 0x310B JUMP JUMPDEST PUSH2 0x13AA PUSH8 0x2DA64329CFCFF9F0 PUSH1 0xC0 SHL PUSH2 0x310B JUMP JUMPDEST PUSH1 0x0 DUP3 DUP1 MLOAD SWAP1 PUSH1 0x20 ADD KECCAK256 SWAP1 POP PUSH2 0x13CA PUSH8 0xCDEAD23760756491 PUSH1 0xC0 SHL PUSH2 0x310B JUMP JUMPDEST PUSH2 0x13DE PUSH8 0xFFE6952378C2039E PUSH1 0xC0 SHL PUSH2 0x310B JUMP JUMPDEST PUSH1 0x0 PUSH2 0x13F4 PUSH8 0x5E0EBDCE09D6E836 PUSH1 0xC0 SHL PUSH2 0x310B JUMP JUMPDEST PUSH2 0x1408 PUSH8 0x2AA83DA4215215B8 PUSH1 0xC0 SHL PUSH2 0x310B JUMP JUMPDEST PUSH1 0x0 PUSH2 0x141E PUSH8 0x4862EE17A5743CB4 PUSH1 0xC0 SHL PUSH2 0x310B JUMP JUMPDEST PUSH2 0x1432 PUSH8 0xB33F2C97723BA57E PUSH1 0xC0 SHL PUSH2 0x310B JUMP JUMPDEST PUSH1 0x0 PUSH2 0x1448 PUSH8 0xE980FEFCDC193A81 PUSH1 0xC0 SHL PUSH2 0x310B JUMP JUMPDEST PUSH2 0x145C PUSH8 0x211B83B5CB497EE1 PUSH1 0xC0 SHL PUSH2 0x310B JUMP JUMPDEST PUSH1 0x0 PUSH1 0x5 PUSH1 0x0 DUP7 DUP2 MSTORE PUSH1 0x20 ADD SWAP1 DUP2 MSTORE PUSH1 0x20 ADD PUSH1 0x0 KECCAK256 DUP1 SLOAD DUP1 PUSH1 0x20 MUL PUSH1 0x20 ADD PUSH1 0x40 MLOAD SWAP1 DUP2 ADD PUSH1 0x40 MSTORE DUP1 SWAP3 SWAP2 SWAP1 DUP2 DUP2 MSTORE PUSH1 0x20 ADD PUSH1 0x0 SWAP1 JUMPDEST DUP3 DUP3 LT ISZERO PUSH2 0x157E JUMPI DUP4 DUP3 SWAP1 PUSH1 0x0 MSTORE PUSH1 0x20 PUSH1 0x0 KECCAK256 SWAP1 PUSH1 0x2 MUL ADD PUSH1 0x40 MLOAD DUP1 PUSH1 0x80 ADD PUSH1 0x40 MSTORE SWAP1 DUP2 PUSH1 0x0 DUP3 ADD PUSH1 0x0 SWAP1 SLOAD SWAP1 PUSH2 0x100 EXP SWAP1 DIV PUSH20 0xFFFFFFFFFFFFFFFFFFFFFFFFFFFFFFFFFFFFFFFF AND PUSH20 0xFFFFFFFFFFFFFFFFFFFFFFFFFFFFFFFFFFFFFFFF AND PUSH20 0xFFFFFFFFFFFFFFFFFFFFFFFFFFFFFFFFFFFFFFFF AND DUP2 MSTORE PUSH1 0x20 ADD PUSH1 0x0 DUP3 ADD PUSH1 0x14 SWAP1 SLOAD SWAP1 PUSH2 0x100 EXP SWAP1 DIV PUSH2 0xFFFF AND PUSH2 0xFFFF AND PUSH2 0xFFFF AND DUP2 MSTORE PUSH1 0x20 ADD PUSH1 0x0 DUP3 ADD PUSH1 0x16 SWAP1 SLOAD SWAP1 PUSH2 0x100 EXP SWAP1 DIV PUSH1 0xFF AND PUSH1 0x3 DUP2 GT ISZERO PUSH2 0x154F JUMPI PUSH2 0x154E PUSH2 0x32C5 JUMP JUMPDEST JUMPDEST PUSH1 0x3 DUP2 GT ISZERO PUSH2 0x1561 JUMPI PUSH2 0x1560 PUSH2 0x32C5 JUMP JUMPDEST JUMPDEST DUP2 MSTORE PUSH1 0x20 ADD PUSH1 0x1 DUP3 ADD SLOAD DUP2 MSTORE POP POP DUP2 MSTORE PUSH1 0x20 ADD SWAP1 PUSH1 0x1 ADD SWAP1 PUSH2 0x1491 JUMP JUMPDEST POP POP POP POP SWAP1 POP PUSH2 0x1598 PUSH8 0x9896CCF9E1143603 PUSH1 0xC0 SHL PUSH2 0x310B JUMP JUMPDEST PUSH2 0x15AC PUSH8 0x95FB86CDE7075113 PUSH1 0xC0 SHL PUSH2 0x310B JUMP JUMPDEST PUSH1 0x0 JUMPDEST DUP2 MLOAD DUP2 PUSH1 0xFF AND LT ISZERO PUSH2 0x1765 JUMPI PUSH2 0x15CF PUSH8 0x344D805082391CC4 PUSH1 0xC0 SHL PUSH2 0x310B JUMP JUMPDEST PUSH2 0x15E3 PUSH8 0x456368D5252F4E68 PUSH1 0xC0 SHL PUSH2 0x310B JUMP JUMPDEST PUSH1 0x1 PUSH1 0x3 DUP2 GT ISZERO PUSH2 0x15F7 JUMPI PUSH2 0x15F6 PUSH2 0x32C5 JUMP JUMPDEST JUMPDEST DUP3 DUP3 PUSH1 0xFF AND DUP2 MLOAD DUP2 LT PUSH2 0x160D JUMPI PUSH2 0x160C PUSH2 0x3D33 JUMP JUMPDEST JUMPDEST PUSH1 0x20 MUL PUSH1 0x20 ADD ADD MLOAD PUSH1 0x40 ADD MLOAD PUSH1 0x3 DUP2 GT ISZERO PUSH2 0x162B JUMPI PUSH2 0x162A PUSH2 0x32C5 JUMP JUMPDEST JUMPDEST SUB PUSH2 0x166B JUMPI PUSH2 0x1644 PUSH8 0xBFF30254C5CA1949 PUSH1 0xC0 SHL PUSH2 0x310B JUMP JUMPDEST PUSH2 0x1658 PUSH8 0x3EB47703A9202425 PUSH1 0xC0 SHL PUSH2 0x310B JUMP JUMPDEST DUP5 DUP1 PUSH2 0x1663 SWAP1 PUSH2 0x3D9E JUMP JUMPDEST SWAP6 POP POP PUSH2 0x1752 JUMP JUMPDEST PUSH2 0x167F PUSH8 0x42A0E649516C2AB3 PUSH1 0xC0 SHL PUSH2 0x310B JUMP JUMPDEST PUSH2 0x1693 PUSH8 0x4AE997846E400AD PUSH1 0xC0 SHL PUSH2 0x310B JUMP JUMPDEST PUSH1 0x2 PUSH1 0x3 DUP2 GT ISZERO PUSH2 0x16A7 JUMPI PUSH2 0x16A6 PUSH2 0x32C5 JUMP JUMPDEST JUMPDEST DUP3 DUP3 PUSH1 0xFF AND DUP2 MLOAD DUP2 LT PUSH2 0x16BD JUMPI PUSH2 0x16BC PUSH2 0x3D33 JUMP JUMPDEST JUMPDEST PUSH1 0x20 MUL PUSH1 0x20 ADD ADD MLOAD PUSH1 0x40 ADD MLOAD PUSH1 0x3 DUP2 GT ISZERO PUSH2 0x16DB JUMPI PUSH2 0x16DA PUSH2 0x32C5 JUMP JUMPDEST JUMPDEST SUB PUSH2 0x171B JUMPI PUSH2 0x16F4 PUSH8 0xC632338C7683ABBE PUSH1 0xC0 SHL PUSH2 0x310B JUMP JUMPDEST PUSH2 0x1708 PUSH8 0xCD560662F517C6BA PUSH1 0xC0 SHL PUSH2 0x310B JUMP JUMPDEST DUP4 DUP1 PUSH2 0x1713 SWAP1 PUSH2 0x3D9E JUMP JUMPDEST SWAP5 POP POP PUSH2 0x1751 JUMP JUMPDEST PUSH2 0x172F PUSH8 0x76F527B88C3C02E3 PUSH1 0xC0 SHL PUSH2 0x310B JUMP JUMPDEST PUSH2 0x1742 PUSH7 0xB92EB535F765A7 PUSH1 0xC0 SHL PUSH2 0x310B JUMP JUMPDEST DUP3 DUP1 PUSH2 0x174D SWAP1 PUSH2 0x3D9E JUMP JUMPDEST SWAP4 POP POP JUMPDEST JUMPDEST DUP1 DUP1 PUSH2 0x175D SWAP1 PUSH2 0x3D9E JUMP JUMPDEST SWAP2 POP POP PUSH2 0x15AF JUMP JUMPDEST POP PUSH2 0x177A PUSH8 0x6D81A0B7FE55BAF9 PUSH1 0xC0 SHL PUSH2 0x310B JUMP JUMPDEST PUSH2 0x178E PUSH8 0x8C145A437865ED9E PUSH1 0xC0 SHL PUSH2 0x310B JUMP JUMPDEST DUP3 PUSH1 0xFF AND DUP5 PUSH1 0xFF AND GT ISZERO PUSH2 0x1808 JUMPI PUSH2 0x17B0 PUSH8 0x9A2385C336D5C16E PUSH1 0xC0 SHL PUSH2 0x310B JUMP JUMPDEST PUSH2 0x17C4 PUSH8 0x20D3BCAAE45C1124 PUSH1 0xC0 SHL PUSH2 0x310B JUMP JUMPDEST PUSH1 0x2 PUSH1 0x4 PUSH1 0x0 DUP8 DUP2 MSTORE PUSH1 0x20 ADD SWAP1 DUP2 MSTORE PUSH1 0x20 ADD PUSH1 0x0 KECCAK256 PUSH1 0x2 ADD PUSH1 0x0 PUSH2 0x100 EXP DUP2 SLOAD DUP2 PUSH1 0xFF MUL NOT AND SWAP1 DUP4 PUSH1 0x3 DUP2 GT ISZERO PUSH2 0x17FE JUMPI PUSH2 0x17FD PUSH2 0x32C5 JUMP JUMPDEST JUMPDEST MUL OR SWAP1 SSTORE POP PUSH2 0x1870 JUMP JUMPDEST PUSH2 0x181C PUSH8 0x789C8F968405B514 PUSH1 0xC0 SHL PUSH2 0x310B JUMP JUMPDEST PUSH2 0x1830 PUSH8 0x57E803A2DBB4C989 PUSH1 0xC0 SHL PUSH2 0x310B JUMP JUMPDEST PUSH1 0x3 PUSH1 0x4 PUSH1 0x0 DUP8 DUP2 MSTORE PUSH1 0x20 ADD SWAP1 DUP2 MSTORE PUSH1 0x20 ADD PUSH1 0x0 KECCAK256 PUSH1 0x2 ADD PUSH1 0x0 PUSH2 0x100 EXP DUP2 SLOAD DUP2 PUSH1 0xFF MUL NOT AND SWAP1 DUP4 PUSH1 0x3 DUP2 GT ISZERO PUSH2 0x186A JUMPI PUSH2 0x1869 PUSH2 0x32C5 JUMP JUMPDEST JUMPDEST MUL OR SWAP1 SSTORE POP JUMPDEST PUSH2 0x1884 PUSH8 0x9EC65B41AACC2D0C PUSH1 0xC0 SHL PUSH2 0x310B JUMP JUMPDEST TIMESTAMP PUSH1 0x4 PUSH1 0x0 DUP8 DUP2 MSTORE PUSH1 0x20 ADD SWAP1 DUP2 MSTORE PUSH1 0x20 ADD PUSH1 0x0 KECCAK256 PUSH1 0x5 ADD DUP2 SWAP1 SSTORE POP POP POP POP POP POP POP POP JUMP JUMPDEST PUSH2 0x18BC PUSH8 0xE88EADDDCDB2BA08 PUSH1 0xC0 SHL PUSH2 0x310B JUMP JUMPDEST PUSH2 0x18D0 PUSH8 0x9B7FA96C458436D1 PUSH1 0xC0 SHL PUSH2 0x310B JUMP JUMPDEST PUSH2 0x18E4 PUSH8 0xFA5B79C4499C1DCE PUSH1 0xC0 SHL PUSH2 0x310B JUMP JUMPDEST PUSH2 0x18F8 PUSH8 0x74C7AD5A36E034E0 PUSH1 0xC0 SHL PUSH2 0x310B JUMP JUMPDEST PUSH2 0x190C PUSH8 0xC0116F2F5F461103 PUSH1 0xC0 SHL PUSH2 0x310B JUMP JUMPDEST PUSH1 0x0 DUP1 SLOAD SWAP1 PUSH2 0x100 EXP SWAP1 DIV PUSH20 0xFFFFFFFFFFFFFFFFFFFFFFFFFFFFFFFFFFFFFFFF AND PUSH20 0xFFFFFFFFFFFFFFFFFFFFFFFFFFFFFFFFFFFFFFFF AND ORIGIN PUSH20 0xFFFFFFFFFFFFFFFFFFFFFFFFFFFFFFFFFFFFFFFF AND EQ DUP1 ISZERO PUSH2 0x1977 JUMPI POP PUSH2 0x1976 PUSH8 0x8695FCFADBC0BCC1 PUSH1 0xC0 SHL PUSH2 0x310E JUMP JUMPDEST JUMPDEST DUP1 PUSH2 0x19A3 JUMPI POP PUSH2 0x1986 ORIGIN PUSH2 0xC81 JUMP JUMPDEST DUP1 ISZERO PUSH2 0x19A2 JUMPI POP PUSH2 0x19A1 PUSH8 0x443860BCD4BCE057 PUSH1 0xC0 SHL PUSH2 0x310E JUMP JUMPDEST JUMPDEST JUMPDEST PUSH2 0x19E2 JUMPI PUSH1 0x40 MLOAD PUSH32 0x8C379A000000000000000000000000000000000000000000000000000000000 DUP2 MSTORE PUSH1 0x4 ADD PUSH2 0x19D9 SWAP1 PUSH2 0x3E39 JUMP JUMPDEST PUSH1 0x40 MLOAD DUP1 SWAP2 SUB SWAP1 REVERT JUMPDEST PUSH2 0x19F6 PUSH8 0xDB9756D9FB45109C PUSH1 0xC0 SHL PUSH2 0x310B JUMP JUMPDEST PUSH2 0x1A0A PUSH8 0x8DDC75D985D733E4 PUSH1 0xC0 SHL PUSH2 0x310B JUMP JUMPDEST PUSH2 0x1A1E PUSH8 0xF5061BEFA544AE0C PUSH1 0xC0 SHL PUSH2 0x310B JUMP JUMPDEST PUSH2 0x1A32 PUSH8 0x79A740EEF784375 PUSH1 0xC0 SHL PUSH2 0x310B JUMP JUMPDEST PUSH2 0x1A46 PUSH8 0x8B03DC5DAAE33121 PUSH1 0xC0 SHL PUSH2 0x310B JUMP JUMPDEST PUSH2 0x1A5A PUSH8 0xB11BF43652493666 PUSH1 0xC0 SHL PUSH2 0x310B JUMP JUMPDEST PUSH2 0x1A6E PUSH8 0xD3EB3A858F628F30 PUSH1 0xC0 SHL PUSH2 0x310B JUMP JUMPDEST PUSH1 0x0 PUSH1 0x3 DUP2 GT ISZERO PUSH2 0x1A82 JUMPI PUSH2 0x1A81 PUSH2 0x32C5 JUMP JUMPDEST JUMPDEST DUP2 PUSH1 0x3 DUP2 GT ISZERO PUSH2 0x1A95 JUMPI PUSH2 0x1A94 PUSH2 0x32C5 JUMP JUMPDEST JUMPDEST SUB PUSH2 0x1AD5 JUMPI PUSH1 0x40 MLOAD PUSH32 0x8C379A000000000000000000000000000000000000000000000000000000000 DUP2 MSTORE PUSH1 0x4 ADD PUSH2 0x1ACC SWAP1 PUSH2 0x3EA5 JUMP JUMPDEST PUSH1 0x40 MLOAD DUP1 SWAP2 SUB SWAP1 REVERT JUMPDEST PUSH2 0x1AE9 PUSH8 0x1086728E1861E726 PUSH1 0xC0 SHL PUSH2 0x310B JUMP JUMPDEST PUSH2 0x1AFD PUSH8 0xA2CB31D80BC3243D PUSH1 0xC0 SHL PUSH2 0x310B JUMP JUMPDEST PUSH2 0x1B11 PUSH8 0xF43D964B5E3BBD3D PUSH1 0xC0 SHL PUSH2 0x310B JUMP JUMPDEST PUSH1 0x0 PUSH2 0x1B1C DUP4 PUSH2 0x6A5 JUMP JUMPDEST SWAP1 POP PUSH2 0x1B32 PUSH8 0x77C49879A5DB16FA PUSH1 0xC0 SHL PUSH2 0x310B JUMP JUMPDEST PUSH2 0x1B46 PUSH8 0xC20789E4BF742ACD PUSH1 0xC0 SHL PUSH2 0x310B JUMP JUMPDEST PUSH2 0x1B5A PUSH8 0xA414530F2FF01D44 PUSH1 0xC0 SHL PUSH2 0x310B JUMP JUMPDEST PUSH1 0x0 DUP2 PUSH1 0x60 ADD MLOAD GT PUSH2 0x1BA1 JUMPI PUSH1 0x40 MLOAD PUSH32 0x8C379A000000000000000000000000000000000000000000000000000000000 DUP2 MSTORE PUSH1 0x4 ADD PUSH2 0x1B98 SWAP1 PUSH2 0x3C3B JUMP JUMPDEST PUSH1 0x40 MLOAD DUP1 SWAP2 SUB SWAP1 REVERT JUMPDEST PUSH2 0x1BB5 PUSH8 0x3E20D0255CB0FD32 PUSH1 0xC0 SHL PUSH2 0x310B JUMP JUMPDEST PUSH2 0x1BC9 PUSH8 0xBA503B558009FBCC PUSH1 0xC0 SHL PUSH2 0x310B JUMP JUMPDEST PUSH2 0x1BDD PUSH8 0xEE34D0B516B370CC PUSH1 0xC0 SHL PUSH2 0x310B JUMP JUMPDEST PUSH2 0x1BF1 PUSH8 0x23028A467B0E904D PUSH1 0xC0 SHL PUSH2 0x310B JUMP JUMPDEST PUSH1 0x1 PUSH1 0x3 DUP2 GT ISZERO PUSH2 0x1C05 JUMPI PUSH2 0x1C04 PUSH2 0x32C5 JUMP JUMPDEST JUMPDEST DUP2 PUSH1 0x40 ADD MLOAD PUSH1 0x3 DUP2 GT ISZERO PUSH2 0x1C1C JUMPI PUSH2 0x1C1B PUSH2 0x32C5 JUMP JUMPDEST JUMPDEST EQ PUSH2 0x1C5C JUMPI PUSH1 0x40 MLOAD PUSH32 0x8C379A000000000000000000000000000000000000000000000000000000000 DUP2 MSTORE PUSH1 0x4 ADD PUSH2 0x1C53 SWAP1 PUSH2 0x3F11 JUMP JUMPDEST PUSH1 0x40 MLOAD DUP1 SWAP2 SUB SWAP1 REVERT JUMPDEST PUSH2 0x1C70 PUSH8 0x9637FCCC0DC5A0FB PUSH1 0xC0 SHL PUSH2 0x310B JUMP JUMPDEST PUSH2 0x1C84 PUSH8 0x4F058A95A9D4F21C PUSH1 0xC0 SHL PUSH2 0x310B JUMP JUMPDEST PUSH2 0x1C98 PUSH8 0xF556F706961BEE9D PUSH1 0xC0 SHL PUSH2 0x310B JUMP JUMPDEST PUSH1 0x0 PUSH1 0x3 PUSH1 0x0 ORIGIN PUSH20 0xFFFFFFFFFFFFFFFFFFFFFFFFFFFFFFFFFFFFFFFF AND PUSH20 0xFFFFFFFFFFFFFFFFFFFFFFFFFFFFFFFFFFFFFFFF AND DUP2 MSTORE PUSH1 0x20 ADD SWAP1 DUP2 MSTORE PUSH1 0x20 ADD PUSH1 0x0 KECCAK256 PUSH1 0x0 SWAP1 SLOAD SWAP1 PUSH2 0x100 EXP SWAP1 DIV PUSH2 0xFFFF AND SWAP1 POP PUSH2 0x1CFE PUSH8 0xFBF35BE8932A521A PUSH1 0xC0 SHL PUSH2 0x310B JUMP JUMPDEST PUSH2 0x1D12 PUSH8 0xBDF67A80FC6038F8 PUSH1 0xC0 SHL PUSH2 0x310B JUMP JUMPDEST PUSH1 0x0 DUP5 DUP1 MLOAD SWAP1 PUSH1 0x20 ADD KECCAK256 SWAP1 POP PUSH2 0x1D32 PUSH8 0x72A0460698A0598C PUSH1 0xC0 SHL PUSH2 0x310B JUMP JUMPDEST PUSH2 0x1D46 PUSH8 0xB95A65B1EBF3E4FC PUSH1 0xC0 SHL PUSH2 0x310B JUMP JUMPDEST PUSH1 0x0 PUSH1 0x5 PUSH1 0x0 DUP4 DUP2 MSTORE PUSH1 0x20 ADD SWAP1 DUP2 MSTORE PUSH1 0x20 ADD PUSH1 0x0 KECCAK256 DUP1 SLOAD DUP1 PUSH1 0x20 MUL PUSH1 0x20 ADD PUSH1 0x40 MLOAD SWAP1 DUP2 ADD PUSH1 0x40 MSTORE DUP1 SWAP3 SWAP2 SWAP1 DUP2 DUP2 MSTORE PUSH1 0x20 ADD PUSH1 0x0 SWAP1 JUMPDEST DUP3 DUP3 LT ISZERO PUSH2 0x1E68 JUMPI DUP4 DUP3 SWAP1 PUSH1 0x0 MSTORE PUSH1 0x20 PUSH1 0x0 KECCAK256 SWAP1 PUSH1 0x2 MUL ADD PUSH1 0x40 MLOAD DUP1 PUSH1 0x80 ADD PUSH1 0x40 MSTORE SWAP1 DUP2 PUSH1 0x0 DUP3 ADD PUSH1 0x0 SWAP1 SLOAD SWAP1 PUSH2 0x100 EXP SWAP1 DIV PUSH20 0xFFFFFFFFFFFFFFFFFFFFFFFFFFFFFFFFFFFFFFFF AND PUSH20 0xFFFFFFFFFFFFFFFFFFFFFFFFFFFFFFFFFFFFFFFF AND PUSH20 0xFFFFFFFFFFFFFFFFFFFFFFFFFFFFFFFFFFFFFFFF AND DUP2 MSTORE PUSH1 0x20 ADD PUSH1 0x0 DUP3 ADD PUSH1 0x14 SWAP1 SLOAD SWAP1 PUSH2 0x100 EXP SWAP1 DIV PUSH2 0xFFFF AND PUSH2 0xFFFF AND PUSH2 0xFFFF AND DUP2 MSTORE PUSH1 0x20 ADD PUSH1 0x0 DUP3 ADD PUSH1 0x16 SWAP1 SLOAD SWAP1 PUSH2 0x100 EXP SWAP1 DIV PUSH1 0xFF AND PUSH1 0x3 DUP2 GT ISZERO PUSH2 0x1E39 JUMPI PUSH2 0x1E38 PUSH2 0x32C5 JUMP JUMPDEST JUMPDEST PUSH1 0x3 DUP2 GT ISZERO PUSH2 0x1E4B JUMPI PUSH2 0x1E4A PUSH2 0x32C5 JUMP JUMPDEST JUMPDEST DUP2 MSTORE PUSH1 0x20 ADD PUSH1 0x1 DUP3 ADD SLOAD DUP2 MSTORE POP POP DUP2 MSTORE PUSH1 0x20 ADD SWAP1 PUSH1 0x1 ADD SWAP1 PUSH2 0x1D7B JUMP JUMPDEST POP POP POP POP SWAP1 POP PUSH2 0x1E82 PUSH8 0xD2FD8259F1A27C64 PUSH1 0xC0 SHL PUSH2 0x310B JUMP JUMPDEST PUSH2 0x1E96 PUSH8 0x66D20A5B72C45B86 PUSH1 0xC0 SHL PUSH2 0x310B JUMP JUMPDEST PUSH1 0x0 JUMPDEST DUP2 MLOAD DUP2 PUSH1 0xFF AND LT ISZERO PUSH2 0x1FCF JUMPI PUSH2 0x1EB9 PUSH8 0xA0404B83E3E561B2 PUSH1 0xC0 SHL PUSH2 0x310B JUMP JUMPDEST PUSH2 0x1ECD PUSH8 0xDFAFF7C195E52867 PUSH1 0xC0 SHL PUSH2 0x310B JUMP JUMPDEST DUP4 PUSH2 0xFFFF AND DUP3 DUP3 PUSH1 0xFF AND DUP2 MLOAD DUP2 LT PUSH2 0x1EE8 JUMPI PUSH2 0x1EE7 PUSH2 0x3D33 JUMP JUMPDEST JUMPDEST PUSH1 0x20 MUL PUSH1 0x20 ADD ADD MLOAD PUSH1 0x20 ADD MLOAD PUSH2 0xFFFF AND SUB PUSH2 0x1FA7 JUMPI PUSH2 0x1F11 PUSH8 0x3342D21884B86C62 PUSH1 0xC0 SHL PUSH2 0x310B JUMP JUMPDEST PUSH2 0x1F25 PUSH8 0xE737AF9F4667A81E PUSH1 0xC0 SHL PUSH2 0x310B JUMP JUMPDEST PUSH2 0x1F39 PUSH8 0x32DE1CCF72253B3A PUSH1 0xC0 SHL PUSH2 0x310B JUMP JUMPDEST PUSH2 0x1F4D PUSH8 0x386388D4F4335BC3 PUSH1 0xC0 SHL PUSH2 0x310B JUMP JUMPDEST PUSH1 0x0 PUSH2 0x1F8E JUMPI PUSH1 0x40 MLOAD PUSH32 0x8C379A000000000000000000000000000000000000000000000000000000000 DUP2 MSTORE PUSH1 0x4 ADD PUSH2 0x1F85 SWAP1 PUSH2 0x3FA3 JUMP JUMPDEST PUSH1 0x40 MLOAD DUP1 SWAP2 SUB SWAP1 REVERT JUMPDEST PUSH2 0x1FA2 PUSH8 0x24E7904531790F43 PUSH1 0xC0 SHL PUSH2 0x310B JUMP JUMPDEST PUSH2 0x1FBC JUMP JUMPDEST PUSH2 0x1FBB PUSH8 0x5DD0BB380FAA949B PUSH1 0xC0 SHL PUSH2 0x310B JUMP JUMPDEST JUMPDEST DUP1 DUP1 PUSH2 0x1FC7 SWAP1 PUSH2 0x3D9E JUMP JUMPDEST SWAP2 POP POP PUSH2 0x1E99 JUMP JUMPDEST POP PUSH2 0x1FE4 PUSH8 0xEBEDDD4398FEAE44 PUSH1 0xC0 SHL PUSH2 0x310B JUMP JUMPDEST PUSH2 0x1FF8 PUSH8 0x610C3306469A01B9 PUSH1 0xC0 SHL PUSH2 0x310B JUMP JUMPDEST PUSH1 0x0 PUSH1 0x40 MLOAD DUP1 PUSH1 0x80 ADD PUSH1 0x40 MSTORE DUP1 ORIGIN PUSH20 0xFFFFFFFFFFFFFFFFFFFFFFFFFFFFFFFFFFFFFFFF AND DUP2 MSTORE PUSH1 0x20 ADD DUP6 PUSH2 0xFFFF AND DUP2 MSTORE PUSH1 0x20 ADD DUP8 PUSH1 0x3 DUP2 GT ISZERO PUSH2 0x203E JUMPI PUSH2 0x203D PUSH2 0x32C5 JUMP JUMPDEST JUMPDEST DUP2 MSTORE PUSH1 0x20 ADD TIMESTAMP DUP2 MSTORE POP SWAP1 POP PUSH2 0x205D PUSH8 0x5BDC5D2948DC7812 PUSH1 0xC0 SHL PUSH2 0x310B JUMP JUMPDEST PUSH2 0x2071 PUSH8 0xA0A51B855DE60FDC PUSH1 0xC0 SHL PUSH2 0x310B JUMP JUMPDEST PUSH1 0x5 PUSH1 0x0 DUP5 DUP2 MSTORE PUSH1 0x20 ADD SWAP1 DUP2 MSTORE PUSH1 0x20 ADD PUSH1 0x0 KECCAK256 DUP2 SWAP1 DUP1 PUSH1 0x1 DUP2 SLOAD ADD DUP1 DUP3 SSTORE DUP1 SWAP2 POP POP PUSH1 0x1 SWAP1 SUB SWAP1 PUSH1 0x0 MSTORE PUSH1 0x20 PUSH1 0x0 KECCAK256 SWAP1 PUSH1 0x2 MUL ADD PUSH1 0x0 SWAP1 SWAP2 SWAP1 SWAP2 SWAP1 SWAP2 POP PUSH1 0x0 DUP3 ADD MLOAD DUP2 PUSH1 0x0 ADD PUSH1 0x0 PUSH2 0x100 EXP DUP2 SLOAD DUP2 PUSH20 0xFFFFFFFFFFFFFFFFFFFFFFFFFFFFFFFFFFFFFFFF MUL NOT AND SWAP1 DUP4 PUSH20 0xFFFFFFFFFFFFFFFFFFFFFFFFFFFFFFFFFFFFFFFF AND MUL OR SWAP1 SSTORE POP PUSH1 0x20 DUP3 ADD MLOAD DUP2 PUSH1 0x0 ADD PUSH1 0x14 PUSH2 0x100 EXP DUP2 SLOAD DUP2 PUSH2 0xFFFF MUL NOT AND SWAP1 DUP4 PUSH2 0xFFFF AND MUL OR SWAP1 SSTORE POP PUSH1 0x40 DUP3 ADD MLOAD DUP2 PUSH1 0x0 ADD PUSH1 0x16 PUSH2 0x100 EXP DUP2 SLOAD DUP2 PUSH1 0xFF MUL NOT AND SWAP1 DUP4 PUSH1 0x3 DUP2 GT ISZERO PUSH2 0x2143 JUMPI PUSH2 0x2142 PUSH2 0x32C5 JUMP JUMPDEST JUMPDEST MUL OR SWAP1 SSTORE POP PUSH1 0x60 DUP3 ADD MLOAD DUP2 PUSH1 0x1 ADD SSTORE POP POP POP POP POP POP POP POP POP JUMP JUMPDEST PUSH1 0x0 PUSH2 0x2173 PUSH8 0xFF83F8AA1D90078E PUSH1 0xC0 SHL PUSH2 0x310B JUMP JUMPDEST PUSH2 0x2187 PUSH8 0x4A9657105FE62D5A PUSH1 0xC0 SHL PUSH2 0x310B JUMP JUMPDEST PUSH2 0x219B PUSH8 0x26E0B9EBFDF0D57A PUSH1 0xC0 SHL PUSH2 0x310B JUMP JUMPDEST PUSH1 0x1 PUSH1 0x0 DUP4 PUSH2 0xFFFF AND PUSH2 0xFFFF AND DUP2 MSTORE PUSH1 0x20 ADD SWAP1 DUP2 MSTORE PUSH1 0x20 ADD PUSH1 0x0 KECCAK256 PUSH1 0x0 SWAP1 SLOAD SWAP1 PUSH2 0x100 EXP SWAP1 DIV PUSH1 0xFF AND SWAP1 POP SWAP2 SWAP1 POP JUMP JUMPDEST PUSH2 0x21DF PUSH8 0x9BAE4AA9F0FA053E PUSH1 0xC0 SHL PUSH2 0x310B JUMP JUMPDEST PUSH2 0x21F3 PUSH8 0x4C474C616D9F7C07 PUSH1 0xC0 SHL PUSH2 0x310B JUMP JUMPDEST PUSH2 0x2207 PUSH8 0x2BB7D6E4A4421C80 PUSH1 0xC0 SHL PUSH2 0x310B JUMP JUMPDEST PUSH2 0x221B PUSH8 0x344453B0F476FAFC PUSH1 0xC0 SHL PUSH2 0x310B JUMP JUMPDEST PUSH2 0x222F PUSH8 0x56C9430E90E27FC3 PUSH1 0xC0 SHL PUSH2 0x310B JUMP JUMPDEST PUSH1 0x0 DUP1 SLOAD SWAP1 PUSH2 0x100 EXP SWAP1 DIV PUSH20 0xFFFFFFFFFFFFFFFFFFFFFFFFFFFFFFFFFFFFFFFF AND PUSH20 0xFFFFFFFFFFFFFFFFFFFFFFFFFFFFFFFFFFFFFFFF AND ORIGIN PUSH20 0xFFFFFFFFFFFFFFFFFFFFFFFFFFFFFFFFFFFFFFFF AND EQ PUSH2 0x22BD JUMPI PUSH1 0x40 MLOAD PUSH32 0x8C379A000000000000000000000000000000000000000000000000000000000 DUP2 MSTORE PUSH1 0x4 ADD PUSH2 0x22B4 SWAP1 PUSH2 0x3B63 JUMP JUMPDEST PUSH1 0x40 MLOAD DUP1 SWAP2 SUB SWAP1 REVERT JUMPDEST PUSH2 0x22D1 PUSH8 0xD36C3AC8E00AEA8D PUSH1 0xC0 SHL PUSH2 0x310B JUMP JUMPDEST PUSH2 0x22E5 PUSH8 0x7D65CE61398F435F PUSH1 0xC0 SHL PUSH2 0x310B JUMP JUMPDEST PUSH2 0x22F9 PUSH8 0xBDB935439DA996CA PUSH1 0xC0 SHL PUSH2 0x310B JUMP JUMPDEST PUSH2 0x230D PUSH8 0x17CE938A9E6581C0 PUSH1 0xC0 SHL PUSH2 0x310B JUMP JUMPDEST PUSH2 0x2321 PUSH8 0xB01E2EE2870C5329 PUSH1 0xC0 SHL PUSH2 0x310B JUMP JUMPDEST PUSH2 0x2335 PUSH8 0x70BCA712BE175AF9 PUSH1 0xC0 SHL PUSH2 0x310B JUMP JUMPDEST DUP1 ISZERO PUSH2 0x2458 JUMPI PUSH2 0x234F PUSH8 0x21AD3BF7BAC82286 PUSH1 0xC0 SHL PUSH2 0x310B JUMP JUMPDEST PUSH2 0x2363 PUSH8 0x6C814D077391B719 PUSH1 0xC0 SHL PUSH2 0x310B JUMP JUMPDEST PUSH2 0x2377 PUSH8 0x1797F2F7564E23FE PUSH1 0xC0 SHL PUSH2 0x310B JUMP JUMPDEST PUSH2 0x238B PUSH8 0xD920CB828A1C43B3 PUSH1 0xC0 SHL PUSH2 0x310B JUMP JUMPDEST PUSH2 0x2394 DUP3 PUSH2 0xC81 JUMP JUMPDEST PUSH2 0x23D3 JUMPI PUSH1 0x40 MLOAD PUSH32 0x8C379A000000000000000000000000000000000000000000000000000000000 DUP2 MSTORE PUSH1 0x4 ADD PUSH2 0x23CA SWAP1 PUSH2 0x400F JUMP JUMPDEST PUSH1 0x40 MLOAD DUP1 SWAP2 SUB SWAP1 REVERT JUMPDEST PUSH2 0x23E7 PUSH8 0xC9659530BCCCCB7C PUSH1 0xC0 SHL PUSH2 0x310B JUMP JUMPDEST PUSH2 0x23FB PUSH8 0xF793AE0192191226 PUSH1 0xC0 SHL PUSH2 0x310B JUMP JUMPDEST PUSH1 0x1 PUSH1 0x2 PUSH1 0x0 DUP5 PUSH20 0xFFFFFFFFFFFFFFFFFFFFFFFFFFFFFFFFFFFFFFFF AND PUSH20 0xFFFFFFFFFFFFFFFFFFFFFFFFFFFFFFFFFFFFFFFF AND DUP2 MSTORE PUSH1 0x20 ADD SWAP1 DUP2 MSTORE PUSH1 0x20 ADD PUSH1 0x0 KECCAK256 PUSH1 0x0 PUSH2 0x100 EXP DUP2 SLOAD DUP2 PUSH1 0xFF MUL NOT AND SWAP1 DUP4 ISZERO ISZERO MUL OR SWAP1 SSTORE POP PUSH2 0x24D0 JUMP JUMPDEST PUSH2 0x246C PUSH8 0xBBA043052572AACC PUSH1 0xC0 SHL PUSH2 0x310B JUMP JUMPDEST PUSH2 0x2480 PUSH8 0xA766A32E9BA30E84 PUSH1 0xC0 SHL PUSH2 0x310B JUMP JUMPDEST PUSH1 0x2 PUSH1 0x0 DUP4 PUSH20 0xFFFFFFFFFFFFFFFFFFFFFFFFFFFFFFFFFFFFFFFF AND PUSH20 0xFFFFFFFFFFFFFFFFFFFFFFFFFFFFFFFFFFFFFFFF AND DUP2 MSTORE PUSH1 0x20 ADD SWAP1 DUP2 MSTORE PUSH1 0x20 ADD PUSH1 0x0 KECCAK256 PUSH1 0x0 PUSH2 0x100 EXP DUP2 SLOAD SWAP1 PUSH1 0xFF MUL NOT AND SWAP1 SSTORE JUMPDEST POP POP JUMP JUMPDEST PUSH2 0x24E8 PUSH8 0xB167F73561425294 PUSH1 0xC0 SHL PUSH2 0x310B JUMP JUMPDEST PUSH2 0x24FC PUSH8 0x4C474C616D9F7C07 PUSH1 0xC0 SHL PUSH2 0x310B JUMP JUMPDEST PUSH2 0x2510 PUSH8 0x2BB7D6E4A4421C80 PUSH1 0xC0 SHL PUSH2 0x310B JUMP JUMPDEST PUSH2 0x2524 PUSH8 0x344453B0F476FAFC PUSH1 0xC0 SHL PUSH2 0x310B JUMP JUMPDEST PUSH2 0x2538 PUSH8 0x56C9430E90E27FC3 PUSH1 0xC0 SHL PUSH2 0x310B JUMP JUMPDEST PUSH1 0x0 DUP1 SLOAD SWAP1 PUSH2 0x100 EXP SWAP1 DIV PUSH20 0xFFFFFFFFFFFFFFFFFFFFFFFFFFFFFFFFFFFFFFFF AND PUSH20 0xFFFFFFFFFFFFFFFFFFFFFFFFFFFFFFFFFFFFFFFF AND ORIGIN PUSH20 0xFFFFFFFFFFFFFFFFFFFFFFFFFFFFFFFFFFFFFFFF AND EQ PUSH2 0x25C6 JUMPI PUSH1 0x40 MLOAD PUSH32 0x8C379A000000000000000000000000000000000000000000000000000000000 DUP2 MSTORE PUSH1 0x4 ADD PUSH2 0x25BD SWAP1 PUSH2 0x3B63 JUMP JUMPDEST PUSH1 0x40 MLOAD DUP1 SWAP2 SUB SWAP1 REVERT JUMPDEST PUSH2 0x25DA PUSH8 0xD36C3AC8E00AEA8D PUSH1 0xC0 SHL PUSH2 0x310B JUMP JUMPDEST PUSH2 0x25EE PUSH8 0x7D65CE61398F435F PUSH1 0xC0 SHL PUSH2 0x310B JUMP JUMPDEST PUSH2 0x2602 PUSH8 0x6AB3024177A2C781 PUSH1 0xC0 SHL PUSH2 0x310B JUMP JUMPDEST PUSH2 0x2616 PUSH8 0xDAB7656B34CBFBAC PUSH1 0xC0 SHL PUSH2 0x310B JUMP JUMPDEST PUSH2 0x262A PUSH8 0x4CC9A20505798E2D PUSH1 0xC0 SHL PUSH2 0x310B JUMP JUMPDEST PUSH2 0x263E PUSH8 0xAC8B9A102BC43F93 PUSH1 0xC0 SHL PUSH2 0x310B JUMP JUMPDEST PUSH1 0x0 PUSH2 0x2649 DUP3 PUSH2 0x6A5 JUMP JUMPDEST SWAP1 POP PUSH2 0x265F PUSH8 0x7122F7DA1BA69CB4 PUSH1 0xC0 SHL PUSH2 0x310B JUMP JUMPDEST PUSH2 0x2673 PUSH8 0x1003C9C82ED21697 PUSH1 0xC0 SHL PUSH2 0x310B JUMP JUMPDEST PUSH2 0x2687 PUSH8 0xB472E72C0BBF10A0 PUSH1 0xC0 SHL PUSH2 0x310B JUMP JUMPDEST PUSH1 0x0 DUP2 PUSH1 0x60 ADD MLOAD GT PUSH2 0x26CE JUMPI PUSH1 0x40 MLOAD PUSH32 0x8C379A000000000000000000000000000000000000000000000000000000000 DUP2 MSTORE PUSH1 0x4 ADD PUSH2 0x26C5 SWAP1 PUSH2 0x3C3B JUMP JUMPDEST PUSH1 0x40 MLOAD DUP1 SWAP2 SUB SWAP1 REVERT JUMPDEST PUSH2 0x26E2 PUSH8 0x59D78B3FEECFB95D PUSH1 0xC0 SHL PUSH2 0x310B JUMP JUMPDEST PUSH2 0x26F6 PUSH8 0x725BFD2E48428C85 PUSH1 0xC0 SHL PUSH2 0x310B JUMP JUMPDEST PUSH2 0x270A PUSH8 0xB7B561A22A4585C6 PUSH1 0xC0 SHL PUSH2 0x310B JUMP JUMPDEST PUSH2 0x271E PUSH8 0xCE07DE86F7083E75 PUSH1 0xC0 SHL PUSH2 0x310B JUMP JUMPDEST PUSH1 0x0 PUSH1 0x3 DUP2 GT ISZERO PUSH2 0x2732 JUMPI PUSH2 0x2731 PUSH2 0x32C5 JUMP JUMPDEST JUMPDEST DUP2 PUSH1 0x40 ADD MLOAD PUSH1 0x3 DUP2 GT ISZERO PUSH2 0x2749 JUMPI PUSH2 0x2748 PUSH2 0x32C5 JUMP JUMPDEST JUMPDEST EQ PUSH2 0x2789 JUMPI PUSH1 0x40 MLOAD PUSH32 0x8C379A000000000000000000000000000000000000000000000000000000000 DUP2 MSTORE PUSH1 0x4 ADD PUSH2 0x2780 SWAP1 PUSH2 0x40A1 JUMP JUMPDEST PUSH1 0x40 MLOAD DUP1 SWAP2 SUB SWAP1 REVERT JUMPDEST PUSH2 0x279D PUSH8 0x73DE0DD9F14DAFDB PUSH1 0xC0 SHL PUSH2 0x310B JUMP JUMPDEST PUSH2 0x27B1 PUSH8 0xC5292E945C105FAB PUSH1 0xC0 SHL PUSH2 0x310B JUMP JUMPDEST PUSH2 0x27C5 PUSH8 0x12D823799162A7FD PUSH1 0xC0 SHL PUSH2 0x310B JUMP JUMPDEST PUSH1 0x0 DUP3 DUP1 MLOAD SWAP1 PUSH1 0x20 ADD KECCAK256 SWAP1 POP PUSH2 0x27E5 PUSH8 0xC8A399D447571814 PUSH1 0xC0 SHL PUSH2 0x310B JUMP JUMPDEST PUSH1 0x1 PUSH1 0x4 PUSH1 0x0 DUP4 DUP2 MSTORE PUSH1 0x20 ADD SWAP1 DUP2 MSTORE PUSH1 0x20 ADD PUSH1 0x0 KECCAK256 PUSH1 0x2 ADD PUSH1 0x0 PUSH2 0x100 EXP DUP2 SLOAD DUP2 PUSH1 0xFF MUL NOT AND SWAP1 DUP4 PUSH1 0x3 DUP2 GT ISZERO PUSH2 0x281F JUMPI PUSH2 0x281E PUSH2 0x32C5 JUMP JUMPDEST JUMPDEST MUL OR SWAP1 SSTORE POP PUSH2 0x2838 PUSH8 0x6E489203B3964D2B PUSH1 0xC0 SHL PUSH2 0x310B JUMP JUMPDEST TIMESTAMP PUSH1 0x4 PUSH1 0x0 DUP4 DUP2 MSTORE PUSH1 0x20 ADD SWAP1 DUP2 MSTORE PUSH1 0x20 ADD PUSH1 0x0 KECCAK256 PUSH1 0x4 ADD DUP2 SWAP1 SSTORE POP POP POP POP JUMP JUMPDEST PUSH2 0x286C PUSH8 0xE07B9FDEEC26BA2 PUSH1 0xC0 SHL PUSH2 0x310B JUMP JUMPDEST PUSH2 0x2880 PUSH8 0x9299615DCC8AEC5B PUSH1 0xC0 SHL PUSH2 0x310B JUMP JUMPDEST PUSH2 0x2894 PUSH8 0xC23DDCC6EFF13EA4 PUSH1 0xC0 SHL PUSH2 0x310B JUMP JUMPDEST PUSH2 0x28A8 PUSH8 0x5002D60FF30D6AF7 PUSH1 0xC0 SHL PUSH2 0x310B JUMP JUMPDEST PUSH2 0x28BC PUSH8 0xB47BF324CBE78573 PUSH1 0xC0 SHL PUSH2 0x310B JUMP JUMPDEST PUSH1 0x0 DUP1 SLOAD SWAP1 PUSH2 0x100 EXP SWAP1 DIV PUSH20 0xFFFFFFFFFFFFFFFFFFFFFFFFFFFFFFFFFFFFFFFF AND PUSH20 0xFFFFFFFFFFFFFFFFFFFFFFFFFFFFFFFFFFFFFFFF AND ORIGIN PUSH20 0xFFFFFFFFFFFFFFFFFFFFFFFFFFFFFFFFFFFFFFFF AND EQ DUP1 ISZERO PUSH2 0x2927 JUMPI POP PUSH2 0x2926 PUSH8 0x45FC740B27C81BC7 PUSH1 0xC0 SHL PUSH2 0x310E JUMP JUMPDEST JUMPDEST DUP1 PUSH2 0x2997 JUMPI POP PUSH1 0x2 PUSH1 0x0 ORIGIN PUSH20 0xFFFFFFFFFFFFFFFFFFFFFFFFFFFFFFFFFFFFFFFF AND PUSH20 0xFFFFFFFFFFFFFFFFFFFFFFFFFFFFFFFFFFFFFFFF AND DUP2 MSTORE PUSH1 0x20 ADD SWAP1 DUP2 MSTORE PUSH1 0x20 ADD PUSH1 0x0 KECCAK256 PUSH1 0x0 SWAP1 SLOAD SWAP1 PUSH2 0x100 EXP SWAP1 DIV PUSH1 0xFF AND DUP1 ISZERO PUSH2 0x2996 JUMPI POP PUSH2 0x2995 PUSH8 0xE09A5CCD2FD05886 PUSH1 0xC0 SHL PUSH2 0x310E JUMP JUMPDEST JUMPDEST JUMPDEST PUSH2 0x29D6 JUMPI PUSH1 0x40 MLOAD PUSH32 0x8C379A000000000000000000000000000000000000000000000000000000000 DUP2 MSTORE PUSH1 0x4 ADD PUSH2 0x29CD SWAP1 PUSH2 0x4133 JUMP JUMPDEST PUSH1 0x40 MLOAD DUP1 SWAP2 SUB SWAP1 REVERT JUMPDEST PUSH2 0x29EA PUSH8 0x8042821D5D855050 PUSH1 0xC0 SHL PUSH2 0x310B JUMP JUMPDEST PUSH2 0x29FE PUSH8 0x226F93F0BDF3EA59 PUSH1 0xC0 SHL PUSH2 0x310B JUMP JUMPDEST PUSH2 0x2A12 PUSH8 0xA1BAEB5A54109566 PUSH1 0xC0 SHL PUSH2 0x310B JUMP JUMPDEST PUSH2 0x2A26 PUSH8 0x534671D46F09DD5 PUSH1 0xC0 SHL PUSH2 0x310B JUMP JUMPDEST PUSH2 0x2A3A PUSH8 0x8607017DE512720F PUSH1 0xC0 SHL PUSH2 0x310B JUMP JUMPDEST PUSH2 0x2A4E PUSH8 0xA5BDC078131D5046 PUSH1 0xC0 SHL PUSH2 0x310B JUMP JUMPDEST PUSH2 0x2A62 PUSH8 0xFA62D63F11ED2AD0 PUSH1 0xC0 SHL PUSH2 0x310B JUMP JUMPDEST PUSH2 0x2A6B DUP2 PUSH2 0x215D JUMP JUMPDEST PUSH2 0x2AAA JUMPI PUSH1 0x40 MLOAD PUSH32 0x8C379A000000000000000000000000000000000000000000000000000000000 DUP2 MSTORE PUSH1 0x4 ADD PUSH2 0x2AA1 SWAP1 PUSH2 0x419F JUMP JUMPDEST PUSH1 0x40 MLOAD DUP1 SWAP2 SUB SWAP1 REVERT JUMPDEST PUSH2 0x2ABE PUSH8 0x45FFAC5DA3BBDF27 PUSH1 0xC0 SHL PUSH2 0x310B JUMP JUMPDEST PUSH2 0x2AD2 PUSH8 0xD794C1AFDA16AC10 PUSH1 0xC0 SHL PUSH2 0x310B JUMP JUMPDEST DUP1 PUSH1 0x3 PUSH1 0x0 DUP5 PUSH20 0xFFFFFFFFFFFFFFFFFFFFFFFFFFFFFFFFFFFFFFFF AND PUSH20 0xFFFFFFFFFFFFFFFFFFFFFFFFFFFFFFFFFFFFFFFF AND DUP2 MSTORE PUSH1 0x20 ADD SWAP1 DUP2 MSTORE PUSH1 0x20 ADD PUSH1 0x0 KECCAK256 PUSH1 0x0 PUSH2 0x100 EXP DUP2 SLOAD DUP2 PUSH2 0xFFFF MUL NOT AND SWAP1 DUP4 PUSH2 0xFFFF AND MUL OR SWAP1 SSTORE POP POP POP JUMP JUMPDEST PUSH1 0x1 PUSH1 0x20 MSTORE DUP1 PUSH1 0x0 MSTORE PUSH1 0x40 PUSH1 0x0 KECCAK256 PUSH1 0x0 SWAP2 POP SLOAD SWAP1 PUSH2 0x100 EXP SWAP1 DIV PUSH1 0xFF AND DUP2 JUMP JUMPDEST PUSH2 0x2B64 PUSH8 0x33EAB950220C2B29 PUSH1 0xC0 SHL PUSH2 0x310B JUMP JUMPDEST PUSH2 0x2B78 PUSH8 0x9B7FA96C458436D1 PUSH1 0xC0 SHL PUSH2 0x310B JUMP JUMPDEST PUSH2 0x2B8C PUSH8 0xFA5B79C4499C1DCE PUSH1 0xC0 SHL PUSH2 0x310B JUMP JUMPDEST PUSH2 0x2BA0 PUSH8 0x74C7AD5A36E034E0 PUSH1 0xC0 SHL PUSH2 0x310B JUMP JUMPDEST PUSH2 0x2BB4 PUSH8 0xC0116F2F5F461103 PUSH1 0xC0 SHL PUSH2 0x310B JUMP JUMPDEST PUSH1 0x0 DUP1 SLOAD SWAP1 PUSH2 0x100 EXP SWAP1 DIV PUSH20 0xFFFFFFFFFFFFFFFFFFFFFFFFFFFFFFFFFFFFFFFF AND PUSH20 0xFFFFFFFFFFFFFFFFFFFFFFFFFFFFFFFFFFFFFFFF AND ORIGIN PUSH20 0xFFFFFFFFFFFFFFFFFFFFFFFFFFFFFFFFFFFFFFFF AND EQ DUP1 ISZERO PUSH2 0x2C1F JUMPI POP PUSH2 0x2C1E PUSH8 0x8695FCFADBC0BCC1 PUSH1 0xC0 SHL PUSH2 0x310E JUMP JUMPDEST JUMPDEST DUP1 PUSH2 0x2C4B JUMPI POP PUSH2 0x2C2E ORIGIN PUSH2 0xC81 JUMP JUMPDEST DUP1 ISZERO PUSH2 0x2C4A JUMPI POP PUSH2 0x2C49 PUSH8 0x443860BCD4BCE057 PUSH1 0xC0 SHL PUSH2 0x310E JUMP JUMPDEST JUMPDEST JUMPDEST PUSH2 0x2C8A JUMPI PUSH1 0x40 MLOAD PUSH32 0x8C379A000000000000000000000000000000000000000000000000000000000 DUP2 MSTORE PUSH1 0x4 ADD PUSH2 0x2C81 SWAP1 PUSH2 0x3E39 JUMP JUMPDEST PUSH1 0x40 MLOAD DUP1 SWAP2 SUB SWAP1 REVERT JUMPDEST PUSH2 0x2C9E PUSH8 0xDB9756D9FB45109C PUSH1 0xC0 SHL PUSH2 0x310B JUMP JUMPDEST PUSH2 0x2CB2 PUSH8 0x8DDC75D985D733E4 PUSH1 0xC0 SHL PUSH2 0x310B JUMP JUMPDEST PUSH2 0x2CC6 PUSH8 0xBDD88F23A88F15D9 PUSH1 0xC0 SHL PUSH2 0x310B JUMP JUMPDEST PUSH2 0x2CDA PUSH8 0x3CF3C50AB941C1C2 PUSH1 0xC0 SHL PUSH2 0x310B JUMP JUMPDEST PUSH2 0x2CEE PUSH8 0x77B6AB4B95EE9E7F PUSH1 0xC0 SHL PUSH2 0x310B JUMP JUMPDEST PUSH2 0x2D02 PUSH8 0xC6784A5E025FA82F PUSH1 0xC0 SHL PUSH2 0x310B JUMP JUMPDEST PUSH2 0x2D16 PUSH8 0x3245CF657CF7A849 PUSH1 0xC0 SHL PUSH2 0x310B JUMP JUMPDEST PUSH2 0x2D1F DUP3 PUSH2 0xD1A JUMP JUMPDEST ISZERO PUSH2 0x2D5F JUMPI PUSH1 0x40 MLOAD PUSH32 0x8C379A000000000000000000000000000000000000000000000000000000000 DUP2 MSTORE PUSH1 0x4 ADD PUSH2 0x2D56 SWAP1 PUSH2 0x420B JUMP JUMPDEST PUSH1 0x40 MLOAD DUP1 SWAP2 SUB SWAP1 REVERT JUMPDEST PUSH2 0x2D73 PUSH8 0xBC21B8CAD4F29024 PUSH1 0xC0 SHL PUSH2 0x310B JUMP JUMPDEST PUSH2 0x2D87 PUSH8 0x27929A90FB6BC637 PUSH1 0xC0 SHL PUSH2 0x310B JUMP JUMPDEST PUSH2 0x2D9B PUSH8 0xB6AD091BCB2503AD PUSH1 0xC0 SHL PUSH2 0x310B JUMP JUMPDEST PUSH1 0x0 PUSH1 0x40 MLOAD DUP1 PUSH1 0xC0 ADD PUSH1 0x40 MSTORE DUP1 DUP5 DUP2 MSTORE PUSH1 0x20 ADD DUP4 DUP2 MSTORE PUSH1 0x20 ADD PUSH1 0x0 PUSH1 0x3 DUP2 GT ISZERO PUSH2 0x2DC8 JUMPI PUSH2 0x2DC7 PUSH2 0x32C5 JUMP JUMPDEST JUMPDEST DUP2 MSTORE PUSH1 0x20 ADD TIMESTAMP DUP2 MSTORE PUSH1 0x20 ADD PUSH1 0x0 DUP2 MSTORE PUSH1 0x20 ADD PUSH1 0x0 DUP2 MSTORE POP SWAP1 POP PUSH2 0x2DF5 PUSH8 0x4D60778E957334A1 PUSH1 0xC0 SHL PUSH2 0x310B JUMP JUMPDEST DUP1 PUSH1 0x4 PUSH1 0x0 DUP6 DUP1 MLOAD SWAP1 PUSH1 0x20 ADD KECCAK256 DUP2 MSTORE PUSH1 0x20 ADD SWAP1 DUP2 MSTORE PUSH1 0x20 ADD PUSH1 0x0 KECCAK256 PUSH1 0x0 DUP3 ADD MLOAD DUP2 PUSH1 0x0 ADD SWAP1 DUP2 PUSH2 0x2E25 SWAP2 SWAP1 PUSH2 0x43D7 JUMP JUMPDEST POP PUSH1 0x20 DUP3 ADD MLOAD DUP2 PUSH1 0x1 ADD SWAP1 DUP2 PUSH2 0x2E3B SWAP2 SWAP1 PUSH2 0x43D7 JUMP JUMPDEST POP PUSH1 0x40 DUP3 ADD MLOAD DUP2 PUSH1 0x2 ADD PUSH1 0x0 PUSH2 0x100 EXP DUP2 SLOAD DUP2 PUSH1 0xFF MUL NOT AND SWAP1 DUP4 PUSH1 0x3 DUP2 GT ISZERO PUSH2 0x2E67 JUMPI PUSH2 0x2E66 PUSH2 0x32C5 JUMP JUMPDEST JUMPDEST MUL OR SWAP1 SSTORE POP PUSH1 0x60 DUP3 ADD MLOAD DUP2 PUSH1 0x3 ADD SSTORE PUSH1 0x80 DUP3 ADD MLOAD DUP2 PUSH1 0x4 ADD SSTORE PUSH1 0xA0 DUP3 ADD MLOAD DUP2 PUSH1 0x5 ADD SSTORE SWAP1 POP POP POP POP POP JUMP JUMPDEST PUSH2 0x2EA6 PUSH8 0x44B404A2420C723E PUSH1 0xC0 SHL PUSH2 0x310B JUMP JUMPDEST PUSH2 0x2EBA PUSH8 0x4C474C616D9F7C07 PUSH1 0xC0 SHL PUSH2 0x310B JUMP JUMPDEST PUSH2 0x2ECE PUSH8 0x2BB7D6E4A4421C80 PUSH1 0xC0 SHL PUSH2 0x310B JUMP JUMPDEST PUSH2 0x2EE2 PUSH8 0x344453B0F476FAFC PUSH1 0xC0 SHL PUSH2 0x310B JUMP JUMPDEST PUSH2 0x2EF6 PUSH8 0x56C9430E90E27FC3 PUSH1 0xC0 SHL PUSH2 0x310B JUMP JUMPDEST PUSH1 0x0 DUP1 SLOAD SWAP1 PUSH2 0x100 EXP SWAP1 DIV PUSH20 0xFFFFFFFFFFFFFFFFFFFFFFFFFFFFFFFFFFFFFFFF AND PUSH20 0xFFFFFFFFFFFFFFFFFFFFFFFFFFFFFFFFFFFFFFFF AND ORIGIN PUSH20 0xFFFFFFFFFFFFFFFFFFFFFFFFFFFFFFFFFFFFFFFF AND EQ PUSH2 0x2F84 JUMPI PUSH1 0x40 MLOAD PUSH32 0x8C379A000000000000000000000000000000000000000000000000000000000 DUP2 MSTORE PUSH1 0x4 ADD PUSH2 0x2F7B SWAP1 PUSH2 0x3B63 JUMP JUMPDEST PUSH1 0x40 MLOAD DUP1 SWAP2 SUB SWAP1 REVERT JUMPDEST PUSH2 0x2F98 PUSH8 0xD36C3AC8E00AEA8D PUSH1 0xC0 SHL PUSH2 0x310B JUMP JUMPDEST PUSH2 0x2FAC PUSH8 0x7D65CE61398F435F PUSH1 0xC0 SHL PUSH2 0x310B JUMP JUMPDEST PUSH2 0x2FC0 PUSH8 0x69D6C1DFE0BC2003 PUSH1 0xC0 SHL PUSH2 0x310B JUMP JUMPDEST PUSH2 0x2FD4 PUSH8 0x58DB0CBD16ABE8A4 PUSH1 0xC0 SHL PUSH2 0x310B JUMP JUMPDEST PUSH2 0x2FE8 PUSH8 0x6672250CA5CDFA2 PUSH1 0xC0 SHL PUSH2 0x310B JUMP JUMPDEST PUSH2 0x2FFC PUSH8 0xF22CF846D2086FF6 PUSH1 0xC0 SHL PUSH2 0x310B JUMP JUMPDEST PUSH2 0x3010 PUSH8 0x58BEF40CC0EAFED3 PUSH1 0xC0 SHL PUSH2 0x310B JUMP JUMPDEST PUSH1 0x0 PUSH20 0xFFFFFFFFFFFFFFFFFFFFFFFFFFFFFFFFFFFFFFFF AND DUP2 PUSH20 0xFFFFFFFFFFFFFFFFFFFFFFFFFFFFFFFFFFFFFFFF AND SUB PUSH2 0x307F JUMPI PUSH1 0x40 MLOAD PUSH32 0x8C379A000000000000000000000000000000000000000000000000000000000 DUP2 MSTORE PUSH1 0x4 ADD PUSH2 0x3076 SWAP1 PUSH2 0x44F5 JUMP JUMPDEST PUSH1 0x40 MLOAD DUP1 SWAP2 SUB SWAP1 REVERT JUMPDEST PUSH2 0x3093 PUSH8 0x8A1A5E137D3BF38 PUSH1 0xC0 SHL PUSH2 0x310B JUMP JUMPDEST PUSH2 0x30A7 PUSH8 0xE8D7EC9EDBE30932 PUSH1 0xC0 SHL PUSH2 0x310B JUMP JUMPDEST DUP1 PUSH1 0x0 DUP1 PUSH2 0x100 EXP DUP2 SLOAD DUP2 PUSH20 0xFFFFFFFFFFFFFFFFFFFFFFFFFFFFFFFFFFFFFFFF MUL NOT AND SWAP1 DUP4 PUSH20 0xFFFFFFFFFFFFFFFFFFFFFFFFFFFFFFFFFFFFFFFF AND MUL OR SWAP1 SSTORE POP POP JUMP JUMPDEST PUSH1 0x3 PUSH1 0x20 MSTORE DUP1 PUSH1 0x0 MSTORE PUSH1 0x40 PUSH1 0x0 KECCAK256 PUSH1 0x0 SWAP2 POP SLOAD SWAP1 PUSH2 0x100 EXP SWAP1 DIV PUSH2 0xFFFF AND DUP2 JUMP JUMPDEST POP JUMP JUMPDEST PUSH1 0x0 PUSH1 0x1 SWAP1 POP SWAP2 SWAP1 POP JUMP JUMPDEST PUSH1 0x40 MLOAD DUP1 PUSH1 0xC0 ADD PUSH1 0x40 MSTORE DUP1 PUSH1 0x60 DUP2 MSTORE PUSH1 0x20 ADD PUSH1 0x60 DUP2 MSTORE PUSH1 0x20 ADD PUSH1 0x0 PUSH1 0x3 DUP2 GT ISZERO PUSH2 0x3146 JUMPI PUSH2 0x3145 PUSH2 0x32C5 JUMP JUMPDEST JUMPDEST DUP2 MSTORE PUSH1 0x20 ADD PUSH1 0x0 DUP2 MSTORE PUSH1 0x20 ADD PUSH1 0x0 DUP2 MSTORE PUSH1 0x20 ADD PUSH1 0x0 DUP2 MSTORE POP SWAP1 JUMP JUMPDEST POP DUP1 SLOAD PUSH2 0x316D SWAP1 PUSH2 0x3AC0 JUMP JUMPDEST PUSH1 0x0 DUP3 SSTORE DUP1 PUSH1 0x1F LT PUSH2 0x317F JUMPI POP PUSH2 0x319E JUMP JUMPDEST PUSH1 0x1F ADD PUSH1 0x20 SWAP1 DIV SWAP1 PUSH1 0x0 MSTORE PUSH1 0x20 PUSH1 0x0 KECCAK256 SWAP1 DUP2 ADD SWAP1 PUSH2 0x319D SWAP2 SWAP1 PUSH2 0x31A1 JUMP JUMPDEST JUMPDEST POP JUMP JUMPDEST JUMPDEST DUP1 DUP3 GT ISZERO PUSH2 0x31BA JUMPI PUSH1 0x0 DUP2 PUSH1 0x0 SWAP1 SSTORE POP PUSH1 0x1 ADD PUSH2 0x31A2 JUMP JUMPDEST POP SWAP1 JUMP JUMPDEST PUSH1 0x0 PUSH1 0x40 MLOAD SWAP1 POP SWAP1 JUMP JUMPDEST PUSH1 0x0 DUP1 REVERT JUMPDEST PUSH1 0x0 DUP1 REVERT JUMPDEST PUSH1 0x0 DUP2 SWAP1 POP SWAP2 SWAP1 POP JUMP JUMPDEST PUSH2 0x31E5 DUP2 PUSH2 0x31D2 JUMP JUMPDEST DUP2 EQ PUSH2 0x31F0 JUMPI PUSH1 0x0 DUP1 REVERT JUMPDEST POP JUMP JUMPDEST PUSH1 0x0 DUP2 CALLDATALOAD SWAP1 POP PUSH2 0x3202 DUP2 PUSH2 0x31DC JUMP JUMPDEST SWAP3 SWAP2 POP POP JUMP JUMPDEST PUSH1 0x0 PUSH1 0x20 DUP3 DUP5 SUB SLT ISZERO PUSH2 0x321E JUMPI PUSH2 0x321D PUSH2 0x31C8 JUMP JUMPDEST JUMPDEST PUSH1 0x0 PUSH2 0x322C DUP5 DUP3 DUP6 ADD PUSH2 0x31F3 JUMP JUMPDEST SWAP2 POP POP SWAP3 SWAP2 POP POP JUMP JUMPDEST PUSH1 0x0 DUP2 MLOAD SWAP1 POP SWAP2 SWAP1 POP JUMP JUMPDEST PUSH1 0x0 DUP3 DUP3 MSTORE PUSH1 0x20 DUP3 ADD SWAP1 POP SWAP3 SWAP2 POP POP JUMP JUMPDEST PUSH1 0x0 JUMPDEST DUP4 DUP2 LT ISZERO PUSH2 0x326F JUMPI DUP1 DUP3 ADD MLOAD DUP2 DUP5 ADD MSTORE PUSH1 0x20 DUP2 ADD SWAP1 POP PUSH2 0x3254 JUMP JUMPDEST PUSH1 0x0 DUP5 DUP5 ADD MSTORE POP POP POP POP JUMP JUMPDEST PUSH1 0x0 PUSH1 0x1F NOT PUSH1 0x1F DUP4 ADD AND SWAP1 POP SWAP2 SWAP1 POP JUMP JUMPDEST PUSH1 0x0 PUSH2 0x3297 DUP3 PUSH2 0x3235 JUMP JUMPDEST PUSH2 0x32A1 DUP2 DUP6 PUSH2 0x3240 JUMP JUMPDEST SWAP4 POP PUSH2 0x32B1 DUP2 DUP6 PUSH1 0x20 DUP7 ADD PUSH2 0x3251 JUMP JUMPDEST PUSH2 0x32BA DUP2 PUSH2 0x327B JUMP JUMPDEST DUP5 ADD SWAP2 POP POP SWAP3 SWAP2 POP POP JUMP JUMPDEST PUSH32 0x4E487B7100000000000000000000000000000000000000000000000000000000 PUSH1 0x0 MSTORE PUSH1 0x21 PUSH1 0x4 MSTORE PUSH1 0x24 PUSH1 0x0 REVERT JUMPDEST PUSH1 0x4 DUP2 LT PUSH2 0x3305 JUMPI PUSH2 0x3304 PUSH2 0x32C5 JUMP JUMPDEST JUMPDEST POP JUMP JUMPDEST PUSH1 0x0 DUP2 SWAP1 POP PUSH2 0x3316 DUP3 PUSH2 0x32F4 JUMP JUMPDEST SWAP2 SWAP1 POP JUMP JUMPDEST PUSH1 0x0 PUSH2 0x3326 DUP3 PUSH2 0x3308 JUMP JUMPDEST SWAP1 POP SWAP2 SWAP1 POP JUMP JUMPDEST PUSH2 0x3336 DUP2 PUSH2 0x331B JUMP JUMPDEST DUP3 MSTORE POP POP JUMP JUMPDEST PUSH1 0x0 DUP2 SWAP1 POP SWAP2 SWAP1 POP JUMP JUMPDEST PUSH2 0x334F DUP2 PUSH2 0x333C JUMP JUMPDEST DUP3 MSTORE POP POP JUMP JUMPDEST PUSH1 0x0 PUSH1 0xC0 DUP3 ADD SWAP1 POP DUP2 DUP2 SUB PUSH1 0x0 DUP4 ADD MSTORE PUSH2 0x336F DUP2 DUP10 PUSH2 0x328C JUMP JUMPDEST SWAP1 POP DUP2 DUP2 SUB PUSH1 0x20 DUP4 ADD MSTORE PUSH2 0x3383 DUP2 DUP9 PUSH2 0x328C JUMP JUMPDEST SWAP1 POP PUSH2 0x3392 PUSH1 0x40 DUP4 ADD DUP8 PUSH2 0x332D JUMP JUMPDEST PUSH2 0x339F PUSH1 0x60 DUP4 ADD DUP7 PUSH2 0x3346 JUMP JUMPDEST PUSH2 0x33AC PUSH1 0x80 DUP4 ADD DUP6 PUSH2 0x3346 JUMP JUMPDEST PUSH2 0x33B9 PUSH1 0xA0 DUP4 ADD DUP5 PUSH2 0x3346 JUMP JUMPDEST SWAP8 SWAP7 POP POP POP POP POP POP POP JUMP JUMPDEST PUSH2 0x33CD DUP2 PUSH2 0x333C JUMP JUMPDEST DUP2 EQ PUSH2 0x33D8 JUMPI PUSH1 0x0 DUP1 REVERT JUMPDEST POP JUMP JUMPDEST PUSH1 0x0 DUP2 CALLDATALOAD SWAP1 POP PUSH2 0x33EA DUP2 PUSH2 0x33C4 JUMP JUMPDEST SWAP3 SWAP2 POP POP JUMP JUMPDEST PUSH1 0x0 DUP1 PUSH1 0x40 DUP4 DUP6 SUB SLT ISZERO PUSH2 0x3407 JUMPI PUSH2 0x3406 PUSH2 0x31C8 JUMP JUMPDEST JUMPDEST PUSH1 0x0 PUSH2 0x3415 DUP6 DUP3 DUP7 ADD PUSH2 0x31F3 JUMP JUMPDEST SWAP3 POP POP PUSH1 0x20 PUSH2 0x3426 DUP6 DUP3 DUP7 ADD PUSH2 0x33DB JUMP JUMPDEST SWAP2 POP POP SWAP3 POP SWAP3 SWAP1 POP JUMP JUMPDEST PUSH1 0x0 PUSH20 0xFFFFFFFFFFFFFFFFFFFFFFFFFFFFFFFFFFFFFFFF DUP3 AND SWAP1 POP SWAP2 SWAP1 POP JUMP JUMPDEST PUSH1 0x0 PUSH2 0x345B DUP3 PUSH2 0x3430 JUMP JUMPDEST SWAP1 POP SWAP2 SWAP1 POP JUMP JUMPDEST PUSH2 0x346B DUP2 PUSH2 0x3450 JUMP JUMPDEST DUP3 MSTORE POP POP JUMP JUMPDEST PUSH1 0x0 PUSH2 0xFFFF DUP3 AND SWAP1 POP SWAP2 SWAP1 POP JUMP JUMPDEST PUSH2 0x3488 DUP2 PUSH2 0x3471 JUMP JUMPDEST DUP3 MSTORE POP POP JUMP JUMPDEST PUSH1 0x4 DUP2 LT PUSH2 0x349F JUMPI PUSH2 0x349E PUSH2 0x32C5 JUMP JUMPDEST JUMPDEST POP JUMP JUMPDEST PUSH1 0x0 DUP2 SWAP1 POP PUSH2 0x34B0 DUP3 PUSH2 0x348E JUMP JUMPDEST SWAP2 SWAP1 POP JUMP JUMPDEST PUSH1 0x0 PUSH2 0x34C0 DUP3 PUSH2 0x34A2 JUMP JUMPDEST SWAP1 POP SWAP2 SWAP1 POP JUMP JUMPDEST PUSH2 0x34D0 DUP2 PUSH2 0x34B5 JUMP JUMPDEST DUP3 MSTORE POP POP JUMP JUMPDEST PUSH1 0x0 PUSH1 0x80 DUP3 ADD SWAP1 POP PUSH2 0x34EB PUSH1 0x0 DUP4 ADD DUP8 PUSH2 0x3462 JUMP JUMPDEST PUSH2 0x34F8 PUSH1 0x20 DUP4 ADD DUP7 PUSH2 0x347F JUMP JUMPDEST PUSH2 0x3505 PUSH1 0x40 DUP4 ADD DUP6 PUSH2 0x34C7 JUMP JUMPDEST PUSH2 0x3512 PUSH1 0x60 DUP4 ADD DUP5 PUSH2 0x3346 JUMP JUMPDEST SWAP6 SWAP5 POP POP POP POP POP JUMP JUMPDEST PUSH1 0x0 DUP1 REVERT JUMPDEST PUSH1 0x0 DUP1 REVERT JUMPDEST PUSH32 0x4E487B7100000000000000000000000000000000000000000000000000000000 PUSH1 0x0 MSTORE PUSH1 0x41 PUSH1 0x4 MSTORE PUSH1 0x24 PUSH1 0x0 REVERT JUMPDEST PUSH2 0x355D DUP3 PUSH2 0x327B JUMP JUMPDEST DUP2 ADD DUP2 DUP2 LT PUSH8 0xFFFFFFFFFFFFFFFF DUP3 GT OR ISZERO PUSH2 0x357C JUMPI PUSH2 0x357B PUSH2 0x3525 JUMP JUMPDEST JUMPDEST DUP1 PUSH1 0x40 MSTORE POP POP POP JUMP JUMPDEST PUSH1 0x0 PUSH2 0x358F PUSH2 0x31BE JUMP JUMPDEST SWAP1 POP PUSH2 0x359B DUP3 DUP3 PUSH2 0x3554 JUMP JUMPDEST SWAP2 SWAP1 POP JUMP JUMPDEST PUSH1 0x0 PUSH8 0xFFFFFFFFFFFFFFFF DUP3 GT ISZERO PUSH2 0x35BB JUMPI PUSH2 0x35BA PUSH2 0x3525 JUMP JUMPDEST JUMPDEST PUSH2 0x35C4 DUP3 PUSH2 0x327B JUMP JUMPDEST SWAP1 POP PUSH1 0x20 DUP2 ADD SWAP1 POP SWAP2 SWAP1 POP JUMP JUMPDEST DUP3 DUP2 DUP4 CALLDATACOPY PUSH1 0x0 DUP4 DUP4 ADD MSTORE POP POP POP JUMP JUMPDEST PUSH1 0x0 PUSH2 0x35F3 PUSH2 0x35EE DUP5 PUSH2 0x35A0 JUMP JUMPDEST PUSH2 0x3585 JUMP JUMPDEST SWAP1 POP DUP3 DUP2 MSTORE PUSH1 0x20 DUP2 ADD DUP5 DUP5 DUP5 ADD GT ISZERO PUSH2 0x360F JUMPI PUSH2 0x360E PUSH2 0x3520 JUMP JUMPDEST JUMPDEST PUSH2 0x361A DUP5 DUP3 DUP6 PUSH2 0x35D1 JUMP JUMPDEST POP SWAP4 SWAP3 POP POP POP JUMP JUMPDEST PUSH1 0x0 DUP3 PUSH1 0x1F DUP4 ADD SLT PUSH2 0x3637 JUMPI PUSH2 0x3636 PUSH2 0x351B JUMP JUMPDEST JUMPDEST DUP2 CALLDATALOAD PUSH2 0x3647 DUP5 DUP3 PUSH1 0x20 DUP7 ADD PUSH2 0x35E0 JUMP JUMPDEST SWAP2 POP POP SWAP3 SWAP2 POP POP JUMP JUMPDEST PUSH1 0x0 PUSH1 0x20 DUP3 DUP5 SUB SLT ISZERO PUSH2 0x3666 JUMPI PUSH2 0x3665 PUSH2 0x31C8 JUMP JUMPDEST JUMPDEST PUSH1 0x0 DUP3 ADD CALLDATALOAD PUSH8 0xFFFFFFFFFFFFFFFF DUP2 GT ISZERO PUSH2 0x3684 JUMPI PUSH2 0x3683 PUSH2 0x31CD JUMP JUMPDEST JUMPDEST PUSH2 0x3690 DUP5 DUP3 DUP6 ADD PUSH2 0x3622 JUMP JUMPDEST SWAP2 POP POP SWAP3 SWAP2 POP POP JUMP JUMPDEST PUSH1 0x0 PUSH1 0x20 DUP3 ADD SWAP1 POP PUSH2 0x36AE PUSH1 0x0 DUP4 ADD DUP5 PUSH2 0x3346 JUMP JUMPDEST SWAP3 SWAP2 POP POP JUMP JUMPDEST PUSH1 0x0 DUP3 DUP3 MSTORE PUSH1 0x20 DUP3 ADD SWAP1 POP SWAP3 SWAP2 POP POP JUMP JUMPDEST PUSH1 0x0 PUSH2 0x36D0 DUP3 PUSH2 0x3235 JUMP JUMPDEST PUSH2 0x36DA DUP2 DUP6 PUSH2 0x36B4 JUMP JUMPDEST SWAP4 POP PUSH2 0x36EA DUP2 DUP6 PUSH1 0x20 DUP7 ADD PUSH2 0x3251 JUMP JUMPDEST PUSH2 0x36F3 DUP2 PUSH2 0x327B JUMP JUMPDEST DUP5 ADD SWAP2 POP POP SWAP3 SWAP2 POP POP JUMP JUMPDEST PUSH2 0x3707 DUP2 PUSH2 0x331B JUMP JUMPDEST DUP3 MSTORE POP POP JUMP JUMPDEST PUSH2 0x3716 DUP2 PUSH2 0x333C JUMP JUMPDEST DUP3 MSTORE POP POP JUMP JUMPDEST PUSH1 0x0 PUSH1 0xC0 DUP4 ADD PUSH1 0x0 DUP4 ADD MLOAD DUP5 DUP3 SUB PUSH1 0x0 DUP7 ADD MSTORE PUSH2 0x3739 DUP3 DUP3 PUSH2 0x36C5 JUMP JUMPDEST SWAP2 POP POP PUSH1 0x20 DUP4 ADD MLOAD DUP5 DUP3 SUB PUSH1 0x20 DUP7 ADD MSTORE PUSH2 0x3753 DUP3 DUP3 PUSH2 0x36C5 JUMP JUMPDEST SWAP2 POP POP PUSH1 0x40 DUP4 ADD MLOAD PUSH2 0x3768 PUSH1 0x40 DUP7 ADD DUP3 PUSH2 0x36FE JUMP JUMPDEST POP PUSH1 0x60 DUP4 ADD MLOAD PUSH2 0x377B PUSH1 0x60 DUP7 ADD DUP3 PUSH2 0x370D JUMP JUMPDEST POP PUSH1 0x80 DUP4 ADD MLOAD PUSH2 0x378E PUSH1 0x80 DUP7 ADD DUP3 PUSH2 0x370D JUMP JUMPDEST POP PUSH1 0xA0 DUP4 ADD MLOAD PUSH2 0x37A1 PUSH1 0xA0 DUP7 ADD DUP3 PUSH2 0x370D JUMP JUMPDEST POP DUP1 SWAP2 POP POP SWAP3 SWAP2 POP POP JUMP JUMPDEST PUSH1 0x0 PUSH1 0x20 DUP3 ADD SWAP1 POP DUP2 DUP2 SUB PUSH1 0x0 DUP4 ADD MSTORE PUSH2 0x37C6 DUP2 DUP5 PUSH2 0x371C JUMP JUMPDEST SWAP1 POP SWAP3 SWAP2 POP POP JUMP JUMPDEST PUSH1 0x0 PUSH1 0x20 DUP3 ADD SWAP1 POP PUSH2 0x37E3 PUSH1 0x0 DUP4 ADD DUP5 PUSH2 0x3462 JUMP JUMPDEST SWAP3 SWAP2 POP POP JUMP JUMPDEST PUSH2 0x37F2 DUP2 PUSH2 0x3450 JUMP JUMPDEST DUP2 EQ PUSH2 0x37FD JUMPI PUSH1 0x0 DUP1 REVERT JUMPDEST POP JUMP JUMPDEST PUSH1 0x0 DUP2 CALLDATALOAD SWAP1 POP PUSH2 0x380F DUP2 PUSH2 0x37E9 JUMP JUMPDEST SWAP3 SWAP2 POP POP JUMP JUMPDEST PUSH1 0x0 PUSH1 0x20 DUP3 DUP5 SUB SLT ISZERO PUSH2 0x382B JUMPI PUSH2 0x382A PUSH2 0x31C8 JUMP JUMPDEST JUMPDEST PUSH1 0x0 PUSH2 0x3839 DUP5 DUP3 DUP6 ADD PUSH2 0x3800 JUMP JUMPDEST SWAP2 POP POP SWAP3 SWAP2 POP POP JUMP JUMPDEST PUSH1 0x0 DUP2 ISZERO ISZERO SWAP1 POP SWAP2 SWAP1 POP JUMP JUMPDEST PUSH2 0x3857 DUP2 PUSH2 0x3842 JUMP JUMPDEST DUP3 MSTORE POP POP JUMP JUMPDEST PUSH1 0x0 PUSH1 0x20 DUP3 ADD SWAP1 POP PUSH2 0x3872 PUSH1 0x0 DUP4 ADD DUP5 PUSH2 0x384E JUMP JUMPDEST SWAP3 SWAP2 POP POP JUMP JUMPDEST PUSH1 0x4 DUP2 LT PUSH2 0x3885 JUMPI PUSH1 0x0 DUP1 REVERT JUMPDEST POP JUMP JUMPDEST PUSH1 0x0 DUP2 CALLDATALOAD SWAP1 POP PUSH2 0x3897 DUP2 PUSH2 0x3878 JUMP JUMPDEST SWAP3 SWAP2 POP POP JUMP JUMPDEST PUSH1 0x0 DUP1 PUSH1 0x40 DUP4 DUP6 SUB SLT ISZERO PUSH2 0x38B4 JUMPI PUSH2 0x38B3 PUSH2 0x31C8 JUMP JUMPDEST JUMPDEST PUSH1 0x0 DUP4 ADD CALLDATALOAD PUSH8 0xFFFFFFFFFFFFFFFF DUP2 GT ISZERO PUSH2 0x38D2 JUMPI PUSH2 0x38D1 PUSH2 0x31CD JUMP JUMPDEST JUMPDEST PUSH2 0x38DE DUP6 DUP3 DUP7 ADD PUSH2 0x3622 JUMP JUMPDEST SWAP3 POP POP PUSH1 0x20 PUSH2 0x38EF DUP6 DUP3 DUP7 ADD PUSH2 0x3888 JUMP JUMPDEST SWAP2 POP POP SWAP3 POP SWAP3 SWAP1 POP JUMP JUMPDEST PUSH2 0x3902 DUP2 PUSH2 0x3471 JUMP JUMPDEST DUP2 EQ PUSH2 0x390D JUMPI PUSH1 0x0 DUP1 REVERT JUMPDEST POP JUMP JUMPDEST PUSH1 0x0 DUP2 CALLDATALOAD SWAP1 POP PUSH2 0x391F DUP2 PUSH2 0x38F9 JUMP JUMPDEST SWAP3 SWAP2 POP POP JUMP JUMPDEST PUSH1 0x0 PUSH1 0x20 DUP3 DUP5 SUB SLT ISZERO PUSH2 0x393B JUMPI PUSH2 0x393A PUSH2 0x31C8 JUMP JUMPDEST JUMPDEST PUSH1 0x0 PUSH2 0x3949 DUP5 DUP3 DUP6 ADD PUSH2 0x3910 JUMP JUMPDEST SWAP2 POP POP SWAP3 SWAP2 POP POP JUMP JUMPDEST PUSH2 0x395B DUP2 PUSH2 0x3842 JUMP JUMPDEST DUP2 EQ PUSH2 0x3966 JUMPI PUSH1 0x0 DUP1 REVERT JUMPDEST POP JUMP JUMPDEST PUSH1 0x0 DUP2 CALLDATALOAD SWAP1 POP PUSH2 0x3978 DUP2 PUSH2 0x3952 JUMP JUMPDEST SWAP3 SWAP2 POP POP JUMP JUMPDEST PUSH1 0x0 DUP1 PUSH1 0x40 DUP4 DUP6 SUB SLT ISZERO PUSH2 0x3995 JUMPI PUSH2 0x3994 PUSH2 0x31C8 JUMP JUMPDEST JUMPDEST PUSH1 0x0 PUSH2 0x39A3 DUP6 DUP3 DUP7 ADD PUSH2 0x3800 JUMP JUMPDEST SWAP3 POP POP PUSH1 0x20 PUSH2 0x39B4 DUP6 DUP3 DUP7 ADD PUSH2 0x3969 JUMP JUMPDEST SWAP2 POP POP SWAP3 POP SWAP3 SWAP1 POP JUMP JUMPDEST PUSH1 0x0 DUP1 PUSH1 0x40 DUP4 DUP6 SUB SLT ISZERO PUSH2 0x39D5 JUMPI PUSH2 0x39D4 PUSH2 0x31C8 JUMP JUMPDEST JUMPDEST PUSH1 0x0 PUSH2 0x39E3 DUP6 DUP3 DUP7 ADD PUSH2 0x3800 JUMP JUMPDEST SWAP3 POP POP PUSH1 0x20 PUSH2 0x39F4 DUP6 DUP3 DUP7 ADD PUSH2 0x3910 JUMP JUMPDEST SWAP2 POP POP SWAP3 POP SWAP3 SWAP1 POP JUMP JUMPDEST PUSH1 0x0 DUP1 PUSH1 0x40 DUP4 DUP6 SUB SLT ISZERO PUSH2 0x3A15 JUMPI PUSH2 0x3A14 PUSH2 0x31C8 JUMP JUMPDEST JUMPDEST PUSH1 0x0 DUP4 ADD CALLDATALOAD PUSH8 0xFFFFFFFFFFFFFFFF DUP2 GT ISZERO PUSH2 0x3A33 JUMPI PUSH2 0x3A32 PUSH2 0x31CD JUMP JUMPDEST JUMPDEST PUSH2 0x3A3F DUP6 DUP3 DUP7 ADD PUSH2 0x3622 JUMP JUMPDEST SWAP3 POP POP PUSH1 0x20 DUP4 ADD CALLDATALOAD PUSH8 0xFFFFFFFFFFFFFFFF DUP2 GT ISZERO PUSH2 0x3A60 JUMPI PUSH2 0x3A5F PUSH2 0x31CD JUMP JUMPDEST JUMPDEST PUSH2 0x3A6C DUP6 DUP3 DUP7 ADD PUSH2 0x3622 JUMP JUMPDEST SWAP2 POP POP SWAP3 POP SWAP3 SWAP1 POP JUMP JUMPDEST PUSH1 0x0 PUSH1 0x20 DUP3 ADD SWAP1 POP PUSH2 0x3A8B PUSH1 0x0 DUP4 ADD DUP5 PUSH2 0x347F JUMP JUMPDEST SWAP3 SWAP2 POP POP JUMP JUMPDEST PUSH32 0x4E487B7100000000000000000000000000000000000000000000000000000000 PUSH1 0x0 MSTORE PUSH1 0x22 PUSH1 0x4 MSTORE PUSH1 0x24 PUSH1 0x0 REVERT JUMPDEST PUSH1 0x0 PUSH1 0x2 DUP3 DIV SWAP1 POP PUSH1 0x1 DUP3 AND DUP1 PUSH2 0x3AD8 JUMPI PUSH1 0x7F DUP3 AND SWAP2 POP JUMPDEST PUSH1 0x20 DUP3 LT DUP2 SUB PUSH2 0x3AEB JUMPI PUSH2 0x3AEA PUSH2 0x3A91 JUMP JUMPDEST JUMPDEST POP SWAP2 SWAP1 POP JUMP JUMPDEST PUSH32 0x4F6E6C7920746865206D616E61676572206861732061636365737320746F2074 PUSH1 0x0 DUP3 ADD MSTORE PUSH32 0x6869732066756E6374696F6E616C697479000000000000000000000000000000 PUSH1 0x20 DUP3 ADD MSTORE POP JUMP JUMPDEST PUSH1 0x0 PUSH2 0x3B4D PUSH1 0x31 DUP4 PUSH2 0x3240 JUMP JUMPDEST SWAP2 POP PUSH2 0x3B58 DUP3 PUSH2 0x3AF1 JUMP JUMPDEST PUSH1 0x40 DUP3 ADD SWAP1 POP SWAP2 SWAP1 POP JUMP JUMPDEST PUSH1 0x0 PUSH1 0x20 DUP3 ADD SWAP1 POP DUP2 DUP2 SUB PUSH1 0x0 DUP4 ADD MSTORE PUSH2 0x3B7C DUP2 PUSH2 0x3B40 JUMP JUMPDEST SWAP1 POP SWAP2 SWAP1 POP JUMP JUMPDEST PUSH32 0x4120636F756E73656C6F722063616E6E6F742062652072656D6F766564000000 PUSH1 0x0 DUP3 ADD MSTORE POP JUMP JUMPDEST PUSH1 0x0 PUSH2 0x3BB9 PUSH1 0x1D DUP4 PUSH2 0x3240 JUMP JUMPDEST SWAP2 POP PUSH2 0x3BC4 DUP3 PUSH2 0x3B83 JUMP JUMPDEST PUSH1 0x20 DUP3 ADD SWAP1 POP SWAP2 SWAP1 POP JUMP JUMPDEST PUSH1 0x0 PUSH1 0x20 DUP3 ADD SWAP1 POP DUP2 DUP2 SUB PUSH1 0x0 DUP4 ADD MSTORE PUSH2 0x3BE8 DUP2 PUSH2 0x3BAC JUMP JUMPDEST SWAP1 POP SWAP2 SWAP1 POP JUMP JUMPDEST PUSH32 0x5468697320746F70696320646F6573206E6F7420657869737473000000000000 PUSH1 0x0 DUP3 ADD MSTORE POP JUMP JUMPDEST PUSH1 0x0 PUSH2 0x3C25 PUSH1 0x1A DUP4 PUSH2 0x3240 JUMP JUMPDEST SWAP2 POP PUSH2 0x3C30 DUP3 PUSH2 0x3BEF JUMP JUMPDEST PUSH1 0x20 DUP3 ADD SWAP1 POP SWAP2 SWAP1 POP JUMP JUMPDEST PUSH1 0x0 PUSH1 0x20 DUP3 ADD SWAP1 POP DUP2 DUP2 SUB PUSH1 0x0 DUP4 ADD MSTORE PUSH2 0x3C54 DUP2 PUSH2 0x3C18 JUMP JUMPDEST SWAP1 POP SWAP2 SWAP1 POP JUMP JUMPDEST PUSH32 0x4F6E6C792049444C4520746F706963732063616E2062652072656D6F76656400 PUSH1 0x0 DUP3 ADD MSTORE POP JUMP JUMPDEST PUSH1 0x0 PUSH2 0x3C91 PUSH1 0x1F DUP4 PUSH2 0x3240 JUMP JUMPDEST SWAP2 POP PUSH2 0x3C9C DUP3 PUSH2 0x3C5B JUMP JUMPDEST PUSH1 0x20 DUP3 ADD SWAP1 POP SWAP2 SWAP1 POP JUMP JUMPDEST PUSH1 0x0 PUSH1 0x20 DUP3 ADD SWAP1 POP DUP2 DUP2 SUB PUSH1 0x0 DUP4 ADD MSTORE PUSH2 0x3CC0 DUP2 PUSH2 0x3C84 JUMP JUMPDEST SWAP1 POP SWAP2 SWAP1 POP JUMP JUMPDEST PUSH32 0x4F6E6C7920564F54494E4720746F706963732063616E20626520636C6F736564 PUSH1 0x0 DUP3 ADD MSTORE POP JUMP JUMPDEST PUSH1 0x0 PUSH2 0x3CFD PUSH1 0x20 DUP4 PUSH2 0x3240 JUMP JUMPDEST SWAP2 POP PUSH2 0x3D08 DUP3 PUSH2 0x3CC7 JUMP JUMPDEST PUSH1 0x20 DUP3 ADD SWAP1 POP SWAP2 SWAP1 POP JUMP JUMPDEST PUSH1 0x0 PUSH1 0x20 DUP3 ADD SWAP1 POP DUP2 DUP2 SUB PUSH1 0x0 DUP4 ADD MSTORE PUSH2 0x3D2C DUP2 PUSH2 0x3CF0 JUMP JUMPDEST SWAP1 POP SWAP2 SWAP1 POP JUMP JUMPDEST PUSH32 0x4E487B7100000000000000000000000000000000000000000000000000000000 PUSH1 0x0 MSTORE PUSH1 0x32 PUSH1 0x4 MSTORE PUSH1 0x24 PUSH1 0x0 REVERT JUMPDEST PUSH32 0x4E487B7100000000000000000000000000000000000000000000000000000000 PUSH1 0x0 MSTORE PUSH1 0x11 PUSH1 0x4 MSTORE PUSH1 0x24 PUSH1 0x0 REVERT JUMPDEST PUSH1 0x0 PUSH1 0xFF DUP3 AND SWAP1 POP SWAP2 SWAP1 POP JUMP JUMPDEST PUSH1 0x0 PUSH2 0x3DA9 DUP3 PUSH2 0x3D91 JUMP JUMPDEST SWAP2 POP PUSH1 0xFF DUP3 SUB PUSH2 0x3DBC JUMPI PUSH2 0x3DBB PUSH2 0x3D62 JUMP JUMPDEST JUMPDEST PUSH1 0x1 DUP3 ADD SWAP1 POP SWAP2 SWAP1 POP JUMP JUMPDEST PUSH32 0x4F6E6C7920746865207265736964656E7473206F72206D616E61676572206861 PUSH1 0x0 DUP3 ADD MSTORE PUSH32 0x76652061636365737320746F20746869732066756E6374696F6E616C69747900 PUSH1 0x20 DUP3 ADD MSTORE POP JUMP JUMPDEST PUSH1 0x0 PUSH2 0x3E23 PUSH1 0x3F DUP4 PUSH2 0x3240 JUMP JUMPDEST SWAP2 POP PUSH2 0x3E2E DUP3 PUSH2 0x3DC7 JUMP JUMPDEST PUSH1 0x40 DUP3 ADD SWAP1 POP SWAP2 SWAP1 POP JUMP JUMPDEST PUSH1 0x0 PUSH1 0x20 DUP3 ADD SWAP1 POP DUP2 DUP2 SUB PUSH1 0x0 DUP4 ADD MSTORE PUSH2 0x3E52 DUP2 PUSH2 0x3E16 JUMP JUMPDEST SWAP1 POP SWAP2 SWAP1 POP JUMP JUMPDEST PUSH32 0x546865206F7074696F6E2063616E6E6F7420626520454D505459000000000000 PUSH1 0x0 DUP3 ADD MSTORE POP JUMP JUMPDEST PUSH1 0x0 PUSH2 0x3E8F PUSH1 0x1A DUP4 PUSH2 0x3240 JUMP JUMPDEST SWAP2 POP PUSH2 0x3E9A DUP3 PUSH2 0x3E59 JUMP JUMPDEST PUSH1 0x20 DUP3 ADD SWAP1 POP SWAP2 SWAP1 POP JUMP JUMPDEST PUSH1 0x0 PUSH1 0x20 DUP3 ADD SWAP1 POP DUP2 DUP2 SUB PUSH1 0x0 DUP4 ADD MSTORE PUSH2 0x3EBE DUP2 PUSH2 0x3E82 JUMP JUMPDEST SWAP1 POP SWAP2 SWAP1 POP JUMP JUMPDEST PUSH32 0x4F6E6C7920564F54494E4720746F706963732063616E20626520766F74656400 PUSH1 0x0 DUP3 ADD MSTORE POP JUMP JUMPDEST PUSH1 0x0 PUSH2 0x3EFB PUSH1 0x1F DUP4 PUSH2 0x3240 JUMP JUMPDEST SWAP2 POP PUSH2 0x3F06 DUP3 PUSH2 0x3EC5 JUMP JUMPDEST PUSH1 0x20 DUP3 ADD SWAP1 POP SWAP2 SWAP1 POP JUMP JUMPDEST PUSH1 0x0 PUSH1 0x20 DUP3 ADD SWAP1 POP DUP2 DUP2 SUB PUSH1 0x0 DUP4 ADD MSTORE PUSH2 0x3F2A DUP2 PUSH2 0x3EEE JUMP JUMPDEST SWAP1 POP SWAP2 SWAP1 POP JUMP JUMPDEST PUSH32 0x41207265736964656E63652073686F756C6420766F7465206F6E6C79206F6E63 PUSH1 0x0 DUP3 ADD MSTORE PUSH32 0x6500000000000000000000000000000000000000000000000000000000000000 PUSH1 0x20 DUP3 ADD MSTORE POP JUMP JUMPDEST PUSH1 0x0 PUSH2 0x3F8D PUSH1 0x21 DUP4 PUSH2 0x3240 JUMP JUMPDEST SWAP2 POP PUSH2 0x3F98 DUP3 PUSH2 0x3F31 JUMP JUMPDEST PUSH1 0x40 DUP3 ADD SWAP1 POP SWAP2 SWAP1 POP JUMP JUMPDEST PUSH1 0x0 PUSH1 0x20 DUP3 ADD SWAP1 POP DUP2 DUP2 SUB PUSH1 0x0 DUP4 ADD MSTORE PUSH2 0x3FBC DUP2 PUSH2 0x3F80 JUMP JUMPDEST SWAP1 POP SWAP2 SWAP1 POP JUMP JUMPDEST PUSH32 0x54686520636F756E73656C6F72206D7573742062652061207265736964656E74 PUSH1 0x0 DUP3 ADD MSTORE POP JUMP JUMPDEST PUSH1 0x0 PUSH2 0x3FF9 PUSH1 0x20 DUP4 PUSH2 0x3240 JUMP JUMPDEST SWAP2 POP PUSH2 0x4004 DUP3 PUSH2 0x3FC3 JUMP JUMPDEST PUSH1 0x20 DUP3 ADD SWAP1 POP SWAP2 SWAP1 POP JUMP JUMPDEST PUSH1 0x0 PUSH1 0x20 DUP3 ADD SWAP1 POP DUP2 DUP2 SUB PUSH1 0x0 DUP4 ADD MSTORE PUSH2 0x4028 DUP2 PUSH2 0x3FEC JUMP JUMPDEST SWAP1 POP SWAP2 SWAP1 POP JUMP JUMPDEST PUSH32 0x4F6E6C792049444C4520746F706963732063616E206265206F70656E20666F72 PUSH1 0x0 DUP3 ADD MSTORE PUSH32 0x20766F74696E6700000000000000000000000000000000000000000000000000 PUSH1 0x20 DUP3 ADD MSTORE POP JUMP JUMPDEST PUSH1 0x0 PUSH2 0x408B PUSH1 0x27 DUP4 PUSH2 0x3240 JUMP JUMPDEST SWAP2 POP PUSH2 0x4096 DUP3 PUSH2 0x402F JUMP JUMPDEST PUSH1 0x40 DUP3 ADD SWAP1 POP SWAP2 SWAP1 POP JUMP JUMPDEST PUSH1 0x0 PUSH1 0x20 DUP3 ADD SWAP1 POP DUP2 DUP2 SUB PUSH1 0x0 DUP4 ADD MSTORE PUSH2 0x40BA DUP2 PUSH2 0x407E JUMP JUMPDEST SWAP1 POP SWAP2 SWAP1 POP JUMP JUMPDEST PUSH32 0x4F6E6C792074686520636F756E73656C6F7273206F72206D616E616765722068 PUSH1 0x0 DUP3 ADD MSTORE PUSH32 0x6176652061636365737320746F20746869732066756E6374696F6E616C697479 PUSH1 0x20 DUP3 ADD MSTORE POP JUMP JUMPDEST PUSH1 0x0 PUSH2 0x411D PUSH1 0x40 DUP4 PUSH2 0x3240 JUMP JUMPDEST SWAP2 POP PUSH2 0x4128 DUP3 PUSH2 0x40C1 JUMP JUMPDEST PUSH1 0x40 DUP3 ADD SWAP1 POP SWAP2 SWAP1 POP JUMP JUMPDEST PUSH1 0x0 PUSH1 0x20 DUP3 ADD SWAP1 POP DUP2 DUP2 SUB PUSH1 0x0 DUP4 ADD MSTORE PUSH2 0x414C DUP2 PUSH2 0x4110 JUMP JUMPDEST SWAP1 POP SWAP2 SWAP1 POP JUMP JUMPDEST PUSH32 0x54686973207265736964656E636520646F6573206E6F74206578697374730000 PUSH1 0x0 DUP3 ADD MSTORE POP JUMP JUMPDEST PUSH1 0x0 PUSH2 0x4189 PUSH1 0x1E DUP4 PUSH2 0x3240 JUMP JUMPDEST SWAP2 POP PUSH2 0x4194 DUP3 PUSH2 0x4153 JUMP JUMPDEST PUSH1 0x20 DUP3 ADD SWAP1 POP SWAP2 SWAP1 POP JUMP JUMPDEST PUSH1 0x0 PUSH1 0x20 DUP3 ADD SWAP1 POP DUP2 DUP2 SUB PUSH1 0x0 DUP4 ADD MSTORE PUSH2 0x41B8 DUP2 PUSH2 0x417C JUMP JUMPDEST SWAP1 POP SWAP2 SWAP1 POP JUMP JUMPDEST PUSH32 0x5468697320746F70696320616C72656164792065786973747300000000000000 PUSH1 0x0 DUP3 ADD MSTORE POP JUMP JUMPDEST PUSH1 0x0 PUSH2 0x41F5 PUSH1 0x19 DUP4 PUSH2 0x3240 JUMP JUMPDEST SWAP2 POP PUSH2 0x4200 DUP3 PUSH2 0x41BF JUMP JUMPDEST PUSH1 0x20 DUP3 ADD SWAP1 POP SWAP2 SWAP1 POP JUMP JUMPDEST PUSH1 0x0 PUSH1 0x20 DUP3 ADD SWAP1 POP DUP2 DUP2 SUB PUSH1 0x0 DUP4 ADD MSTORE PUSH2 0x4224 DUP2 PUSH2 0x41E8 JUMP JUMPDEST SWAP1 POP SWAP2 SWAP1 POP JUMP JUMPDEST PUSH1 0x0 DUP2 SWAP1 POP DUP2 PUSH1 0x0 MSTORE PUSH1 0x20 PUSH1 0x0 KECCAK256 SWAP1 POP SWAP2 SWAP1 POP JUMP JUMPDEST PUSH1 0x0 PUSH1 0x20 PUSH1 0x1F DUP4 ADD DIV SWAP1 POP SWAP2 SWAP1 POP JUMP JUMPDEST PUSH1 0x0 DUP3 DUP3 SHL SWAP1 POP SWAP3 SWAP2 POP POP JUMP JUMPDEST PUSH1 0x0 PUSH1 0x8 DUP4 MUL PUSH2 0x428D PUSH32 0xFFFFFFFFFFFFFFFFFFFFFFFFFFFFFFFFFFFFFFFFFFFFFFFFFFFFFFFFFFFFFFFF DUP3 PUSH2 0x4250 JUMP JUMPDEST PUSH2 0x4297 DUP7 DUP4 PUSH2 0x4250 JUMP JUMPDEST SWAP6 POP DUP1 NOT DUP5 AND SWAP4 POP DUP1 DUP7 AND DUP5 OR SWAP3 POP POP POP SWAP4 SWAP3 POP POP POP JUMP JUMPDEST PUSH1 0x0 DUP2 SWAP1 POP SWAP2 SWAP1 POP JUMP JUMPDEST PUSH1 0x0 PUSH2 0x42D4 PUSH2 0x42CF PUSH2 0x42CA DUP5 PUSH2 0x333C JUMP JUMPDEST PUSH2 0x42AF JUMP JUMPDEST PUSH2 0x333C JUMP JUMPDEST SWAP1 POP SWAP2 SWAP1 POP JUMP JUMPDEST PUSH1 0x0 DUP2 SWAP1 POP SWAP2 SWAP1 POP JUMP JUMPDEST PUSH2 0x42EE DUP4 PUSH2 0x42B9 JUMP JUMPDEST PUSH2 0x4302 PUSH2 0x42FA DUP3 PUSH2 0x42DB JUMP JUMPDEST DUP5 DUP5 SLOAD PUSH2 0x425D JUMP JUMPDEST DUP3 SSTORE POP POP POP POP JUMP JUMPDEST PUSH1 0x0 SWAP1 JUMP JUMPDEST PUSH2 0x4317 PUSH2 0x430A JUMP JUMPDEST PUSH2 0x4322 DUP2 DUP5 DUP5 PUSH2 0x42E5 JUMP JUMPDEST POP POP POP JUMP JUMPDEST JUMPDEST DUP2 DUP2 LT ISZERO PUSH2 0x4346 JUMPI PUSH2 0x433B PUSH1 0x0 DUP3 PUSH2 0x430F JUMP JUMPDEST PUSH1 0x1 DUP2 ADD SWAP1 POP PUSH2 0x4328 JUMP JUMPDEST POP POP JUMP JUMPDEST PUSH1 0x1F DUP3 GT ISZERO PUSH2 0x438B JUMPI PUSH2 0x435C DUP2 PUSH2 0x422B JUMP JUMPDEST PUSH2 0x4365 DUP5 PUSH2 0x4240 JUMP JUMPDEST DUP2 ADD PUSH1 0x20 DUP6 LT ISZERO PUSH2 0x4374 JUMPI DUP2 SWAP1 POP JUMPDEST PUSH2 0x4388 PUSH2 0x4380 DUP6 PUSH2 0x4240 JUMP JUMPDEST DUP4 ADD DUP3 PUSH2 0x4327 JUMP JUMPDEST POP POP JUMPDEST POP POP POP JUMP JUMPDEST PUSH1 0x0 DUP3 DUP3 SHR SWAP1 POP SWAP3 SWAP2 POP POP JUMP JUMPDEST PUSH1 0x0 PUSH2 0x43AE PUSH1 0x0 NOT DUP5 PUSH1 0x8 MUL PUSH2 0x4390 JUMP JUMPDEST NOT DUP1 DUP4 AND SWAP2 POP POP SWAP3 SWAP2 POP POP JUMP JUMPDEST PUSH1 0x0 PUSH2 0x43C7 DUP4 DUP4 PUSH2 0x439D JUMP JUMPDEST SWAP2 POP DUP3 PUSH1 0x2 MUL DUP3 OR SWAP1 POP SWAP3 SWAP2 POP POP JUMP JUMPDEST PUSH2 0x43E0 DUP3 PUSH2 0x3235 JUMP JUMPDEST PUSH8 0xFFFFFFFFFFFFFFFF DUP2 GT ISZERO PUSH2 0x43F9 JUMPI PUSH2 0x43F8 PUSH2 0x3525 JUMP JUMPDEST JUMPDEST PUSH2 0x4403 DUP3 SLOAD PUSH2 0x3AC0 JUMP JUMPDEST PUSH2 0x440E DUP3 DUP3 DUP6 PUSH2 0x434A JUMP JUMPDEST PUSH1 0x0 PUSH1 0x20 SWAP1 POP PUSH1 0x1F DUP4 GT PUSH1 0x1 DUP2 EQ PUSH2 0x4441 JUMPI PUSH1 0x0 DUP5 ISZERO PUSH2 0x442F JUMPI DUP3 DUP8 ADD MLOAD SWAP1 POP JUMPDEST PUSH2 0x4439 DUP6 DUP3 PUSH2 0x43BB JUMP JUMPDEST DUP7 SSTORE POP PUSH2 0x44A1 JUMP JUMPDEST PUSH1 0x1F NOT DUP5 AND PUSH2 0x444F DUP7 PUSH2 0x422B JUMP JUMPDEST PUSH1 0x0 JUMPDEST DUP3 DUP2 LT ISZERO PUSH2 0x4477 JUMPI DUP5 DUP10 ADD MLOAD DUP3 SSTORE PUSH1 0x1 DUP3 ADD SWAP2 POP PUSH1 0x20 DUP6 ADD SWAP5 POP PUSH1 0x20 DUP2 ADD SWAP1 POP PUSH2 0x4452 JUMP JUMPDEST DUP7 DUP4 LT ISZERO PUSH2 0x4494 JUMPI DUP5 DUP10 ADD MLOAD PUSH2 0x4490 PUSH1 0x1F DUP10 AND DUP3 PUSH2 0x439D JUMP JUMPDEST DUP4 SSTORE POP JUMPDEST PUSH1 0x1 PUSH1 0x2 DUP9 MUL ADD DUP9 SSTORE POP POP POP JUMPDEST POP POP POP POP POP POP JUMP JUMPDEST PUSH32 0x5468652061646472657373206D7573742062652076616C696400000000000000 PUSH1 0x0 DUP3 ADD MSTORE POP JUMP JUMPDEST PUSH1 0x0 PUSH2 0x44DF PUSH1 0x19 DUP4 PUSH2 0x3240 JUMP JUMPDEST SWAP2 POP PUSH2 0x44EA DUP3 PUSH2 0x44A9 JUMP JUMPDEST PUSH1 0x20 DUP3 ADD SWAP1 POP SWAP2 SWAP1 POP JUMP JUMPDEST PUSH1 0x0 PUSH1 0x20 DUP3 ADD SWAP1 POP DUP2 DUP2 SUB PUSH1 0x0 DUP4 ADD MSTORE PUSH2 0x450E DUP2 PUSH2 0x44D2 JUMP JUMPDEST SWAP1 POP SWAP2 SWAP1 POP JUMP INVALID LOG2 PUSH5 0x6970667358 0x22 SLT KECCAK256 0x22 LT GAS 0xDA SWAP6 BLOCKHASH SWAP15 DUP7 CREATE MSTORE BLOCKHASH PUSH18 0xEF37B237348EC3FE09727EB9E8BFA42DFCE 0xE ADDRESS PUSH5 0x736F6C6343 STOP ADDMOD XOR STOP CALLER "},"methodIdentifiers":{"addResident(address,uint16)":"b1583546","addTopic(string,string)":"c1e6adfd","closeVoting(string)":"8fc5dad8","counselors(address)":"4de53265","getTopic(string)":"474502d8","isResident(address)":"68aca335","manager()":"481c6a75","numberOfVotes(string)":"2f9f21fe","openVoting(string)":"9e1bf985","removeResident(address)":"597de987","removeTopic(string)":"7b57ee49","residenceExists(uint16)":"967d59e4","residences(uint16)":"bc2f89f3","residents(address)":"e4d65d54","setCounselor(address,bool)":"96fa1def","setManager(address)":"d0ebdbe7","topicExists(string)":"78b5749d","topics(bytes32)":"0f2fbeec","vote(string,uint8)":"90ca27f3","votings(bytes32,uint256)":"1a6c0192"}}}}}