{"contracts/CondominiumAdapter.sol":{"CondominiumAdapter":{"abi":[{"inputs":[],"stateMutability":"nonpayable","type":"constructor"},{"inputs":[{"internalType":"address","name":"resident","type":"address"},{"internalType":"uint16","name":"residenceNumber","type":"uint16"}],"name":"addResident","outputs":[],"stateMutability":"nonpayable","type":"function"},{"inputs":[{"internalType":"string","name":"title","type":"string"},{"internalType":"string","name":"description","type":"string"},{"internalType":"enum CondominiumLib.Category","name":"category","type":"uint8"},{"internalType":"uint256","name":"amount","type":"uint256"},{"internalType":"address","name":"responsible","type":"address"}],"name":"addTopic","outputs":[],"stateMutability":"nonpayable","type":"function"},{"inputs":[{"internalType":"string","name":"title","type":"string"}],"name":"closeVoting","outputs":[],"stateMutability":"nonpayable","type":"function"},{"inputs":[],"name":"getImplementationAddress","outputs":[{"internalType":"address","name":"","type":"address"}],"stateMutability":"view","type":"function"},{"inputs":[{"internalType":"string","name":"title","type":"string"}],"name":"openVoting","outputs":[],"stateMutability":"nonpayable","type":"function"},{"inputs":[],"name":"owner","outputs":[{"internalType":"address","name":"","type":"address"}],"stateMutability":"view","type":"function"},{"inputs":[{"internalType":"address","name":"resident","type":"address"}],"name":"removeResident","outputs":[],"stateMutability":"nonpayable","type":"function"},{"inputs":[{"internalType":"string","name":"title","type":"string"}],"name":"removeTopic","outputs":[],"stateMutability":"nonpayable","type":"function"},{"inputs":[{"internalType":"address","name":"resident","type":"address"},{"internalType":"bool","name":"isEntering","type":"bool"}],"name":"setCounselor","outputs":[],"stateMutability":"nonpayable","type":"function"},{"inputs":[{"internalType":"address","name":"newManager","type":"address"}],"name":"setManager","outputs":[],"stateMutability":"nonpayable","type":"function"},{"inputs":[{"internalType":"address","name":"newImplementation","type":"address"}],"name":"upgrade","outputs":[],"stateMutability":"nonpayable","type":"function"},{"inputs":[{"internalType":"string","name":"title","type":"string"},{"internalType":"enum CondominiumLib.VoteOptions","name":"option","type":"uint8"}],"name":"vote","outputs":[],"stateMutability":"nonpayable","type":"function"}],"evm":{"bytecode":{"linkReferences":{},"object":"60a060405234801561001057600080fd5b503373ffffffffffffffffffffffffffffffffffffffff1660808173ffffffffffffffffffffffffffffffffffffffff16815250506080516110296100676000396000818161020f01526104bf01526110296000f3fe608060405234801561001057600080fd5b50600436106100b45760003560e01c80638fc5dad8116100715780638fc5dad81461016557806390ca27f31461018157806396fa1def1461019d5780639e1bf985146101b9578063b1583546146101d5578063d0ebdbe7146101f1576100b4565b80630900f010146100b95780630cbcae70146100d557806343b8c6b1146100f3578063597de9871461010f5780637b57ee491461012b5780638da5cb5b14610147575b600080fd5b6100d360048036038101906100ce91906108b0565b61020d565b005b6100dd6102de565b6040516100ea91906108ec565b60405180910390f35b61010d60048036038101906101089190610aa8565b610307565b005b610129600480360381019061012491906108b0565b6103a1565b005b61014560048036038101906101409190610b5b565b61042f565b005b61014f6104bd565b60405161015c91906108ec565b60405180910390f35b61017f600480360381019061017a9190610b5b565b6104e1565b005b61019b60048036038101906101969190610bc9565b61056f565b005b6101b760048036038101906101b29190610c5d565b610600565b005b6101d360048036038101906101ce9190610b5b565b610691565b005b6101ef60048036038101906101ea9190610cd7565b61071f565b005b61020b600480360381019061020691906108b0565b6107b0565b005b7f000000000000000000000000000000000000000000000000000000000000000073ffffffffffffffffffffffffffffffffffffffff163373ffffffffffffffffffffffffffffffffffffffff161461029b576040517f08c379a000000000000000000000000000000000000000000000000000000000815260040161029290610d74565b60405180910390fd5b806000806101000a81548173ffffffffffffffffffffffffffffffffffffffff021916908373ffffffffffffffffffffffffffffffffffffffff16021790555050565b60008060009054906101000a900473ffffffffffffffffffffffffffffffffffffffff16905090565b60008054906101000a900473ffffffffffffffffffffffffffffffffffffffff1673ffffffffffffffffffffffffffffffffffffffff166343b8c6b186868686866040518663ffffffff1660e01b8152600401610368959493929190610e88565b600060405180830381600087803b15801561038257600080fd5b505af1158015610396573d6000803e3d6000fd5b505050505050505050565b60008054906101000a900473ffffffffffffffffffffffffffffffffffffffff1673ffffffffffffffffffffffffffffffffffffffff1663597de987826040518263ffffffff1660e01b81526004016103fa91906108ec565b600060405180830381600087803b15801561041457600080fd5b505af1158015610428573d6000803e3d6000fd5b5050505050565b60008054906101000a900473ffffffffffffffffffffffffffffffffffffffff1673ffffffffffffffffffffffffffffffffffffffff16637b57ee49826040518263ffffffff1660e01b81526004016104889190610ee9565b600060405180830381600087803b1580156104a257600080fd5b505af11580156104b6573d6000803e3d6000fd5b5050505050565b7f000000000000000000000000000000000000000000000000000000000000000081565b60008054906101000a900473ffffffffffffffffffffffffffffffffffffffff1673ffffffffffffffffffffffffffffffffffffffff16638fc5dad8826040518263ffffffff1660e01b815260040161053a9190610ee9565b600060405180830381600087803b15801561055457600080fd5b505af1158015610568573d6000803e3d6000fd5b5050505050565b60008054906101000a900473ffffffffffffffffffffffffffffffffffffffff1673ffffffffffffffffffffffffffffffffffffffff166390ca27f383836040518363ffffffff1660e01b81526004016105ca929190610f53565b600060405180830381600087803b1580156105e457600080fd5b505af11580156105f8573d6000803e3d6000fd5b505050505050565b60008054906101000a900473ffffffffffffffffffffffffffffffffffffffff1673ffffffffffffffffffffffffffffffffffffffff166396fa1def83836040518363ffffffff1660e01b815260040161065b929190610f92565b600060405180830381600087803b15801561067557600080fd5b505af1158015610689573d6000803e3d6000fd5b505050505050565b60008054906101000a900473ffffffffffffffffffffffffffffffffffffffff1673ffffffffffffffffffffffffffffffffffffffff16639e1bf985826040518263ffffffff1660e01b81526004016106ea9190610ee9565b600060405180830381600087803b15801561070457600080fd5b505af1158015610718573d6000803e3d6000fd5b5050505050565b60008054906101000a900473ffffffffffffffffffffffffffffffffffffffff1673ffffffffffffffffffffffffffffffffffffffff1663b158354683836040518363ffffffff1660e01b815260040161077a929190610fca565b600060405180830381600087803b15801561079457600080fd5b505af11580156107a8573d6000803e3d6000fd5b505050505050565b60008054906101000a900473ffffffffffffffffffffffffffffffffffffffff1673ffffffffffffffffffffffffffffffffffffffff1663d0ebdbe7826040518263ffffffff1660e01b815260040161080991906108ec565b600060405180830381600087803b15801561082357600080fd5b505af1158015610837573d6000803e3d6000fd5b5050505050565b6000604051905090565b600080fd5b600080fd5b600073ffffffffffffffffffffffffffffffffffffffff82169050919050565b600061087d82610852565b9050919050565b61088d81610872565b811461089857600080fd5b50565b6000813590506108aa81610884565b92915050565b6000602082840312156108c6576108c5610848565b5b60006108d48482850161089b565b91505092915050565b6108e681610872565b82525050565b600060208201905061090160008301846108dd565b92915050565b600080fd5b600080fd5b6000601f19601f8301169050919050565b7f4e487b7100000000000000000000000000000000000000000000000000000000600052604160045260246000fd5b61095a82610911565b810181811067ffffffffffffffff8211171561097957610978610922565b5b80604052505050565b600061098c61083e565b90506109988282610951565b919050565b600067ffffffffffffffff8211156109b8576109b7610922565b5b6109c182610911565b9050602081019050919050565b82818337600083830152505050565b60006109f06109eb8461099d565b610982565b905082815260208101848484011115610a0c57610a0b61090c565b5b610a178482856109ce565b509392505050565b600082601f830112610a3457610a33610907565b5b8135610a448482602086016109dd565b91505092915050565b60048110610a5a57600080fd5b50565b600081359050610a6c81610a4d565b92915050565b6000819050919050565b610a8581610a72565b8114610a9057600080fd5b50565b600081359050610aa281610a7c565b92915050565b600080600080600060a08688031215610ac457610ac3610848565b5b600086013567ffffffffffffffff811115610ae257610ae161084d565b5b610aee88828901610a1f565b955050602086013567ffffffffffffffff811115610b0f57610b0e61084d565b5b610b1b88828901610a1f565b9450506040610b2c88828901610a5d565b9350506060610b3d88828901610a93565b9250506080610b4e8882890161089b565b9150509295509295909350565b600060208284031215610b7157610b70610848565b5b600082013567ffffffffffffffff811115610b8f57610b8e61084d565b5b610b9b84828501610a1f565b91505092915050565b60048110610bb157600080fd5b50565b600081359050610bc381610ba4565b92915050565b60008060408385031215610be057610bdf610848565b5b600083013567ffffffffffffffff811115610bfe57610bfd61084d565b5b610c0a85828601610a1f565b9250506020610c1b85828601610bb4565b9150509250929050565b60008115159050919050565b610c3a81610c25565b8114610c4557600080fd5b50565b600081359050610c5781610c31565b92915050565b60008060408385031215610c7457610c73610848565b5b6000610c828582860161089b565b9250506020610c9385828601610c48565b9150509250929050565b600061ffff82169050919050565b610cb481610c9d565b8114610cbf57600080fd5b50565b600081359050610cd181610cab565b92915050565b60008060408385031215610cee57610ced610848565b5b6000610cfc8582860161089b565b9250506020610d0d85828601610cc2565b9150509250929050565b600082825260208201905092915050565b7f596f7520646f206e6f742068617665207065726d697373696f6e000000000000600082015250565b6000610d5e601a83610d17565b9150610d6982610d28565b602082019050919050565b60006020820190508181036000830152610d8d81610d51565b9050919050565b600081519050919050565b60005b83811015610dbd578082015181840152602081019050610da2565b60008484015250505050565b6000610dd482610d94565b610dde8185610d17565b9350610dee818560208601610d9f565b610df781610911565b840191505092915050565b7f4e487b7100000000000000000000000000000000000000000000000000000000600052602160045260246000fd5b60048110610e4257610e41610e02565b5b50565b6000819050610e5382610e31565b919050565b6000610e6382610e45565b9050919050565b610e7381610e58565b82525050565b610e8281610a72565b82525050565b600060a0820190508181036000830152610ea28188610dc9565b90508181036020830152610eb68187610dc9565b9050610ec56040830186610e6a565b610ed26060830185610e79565b610edf60808301846108dd565b9695505050505050565b60006020820190508181036000830152610f038184610dc9565b905092915050565b60048110610f1c57610f1b610e02565b5b50565b6000819050610f2d82610f0b565b919050565b6000610f3d82610f1f565b9050919050565b610f4d81610f32565b82525050565b60006040820190508181036000830152610f6d8185610dc9565b9050610f7c6020830184610f44565b9392505050565b610f8c81610c25565b82525050565b6000604082019050610fa760008301856108dd565b610fb46020830184610f83565b9392505050565b610fc481610c9d565b82525050565b6000604082019050610fdf60008301856108dd565b610fec6020830184610fbb565b939250505056fea26469706673582212201ecc77be1789ef361c68903959be0dad0200e6e1490c8063408c01b3403e866364736f6c63430008180033","opcodes":"PUSH1 0xA0 PUSH1 0x40 MSTORE CALLVALUE DUP1 ISZERO PUSH2 0x10 JUMPI PUSH1 0x0 DUP1 REVERT JUMPDEST POP CALLER PUSH20 0xFFFFFFFFFFFFFFFFFFFFFFFFFFFFFFFFFFFFFFFF AND PUSH1 0x80 DUP2 PUSH20 0xFFFFFFFFFFFFFFFFFFFFFFFFFFFFFFFFFFFFFFFF AND DUP2 MSTORE POP POP PUSH1 0x80 MLOAD PUSH2 0x1029 PUSH2 0x67 PUSH1 0x0 CODECOPY PUSH1 0x0 DUP2 DUP2 PUSH2 0x20F ADD MSTORE PUSH2 0x4BF ADD MSTORE PUSH2 0x1029 PUSH1 0x0 RETURN INVALID PUSH1 0x80 PUSH1 0x40 MSTORE CALLVALUE DUP1 ISZERO PUSH2 0x10 JUMPI PUSH1 0x0 DUP1 REVERT JUMPDEST POP PUSH1 0x4 CALLDATASIZE LT PUSH2 0xB4 JUMPI PUSH1 0x0 CALLDATALOAD PUSH1 0xE0 SHR DUP1 PUSH4 0x8FC5DAD8 GT PUSH2 0x71 JUMPI DUP1 PUSH4 0x8FC5DAD8 EQ PUSH2 0x165 JUMPI DUP1 PUSH4 0x90CA27F3 EQ PUSH2 0x181 JUMPI DUP1 PUSH4 0x96FA1DEF EQ PUSH2 0x19D JUMPI DUP1 PUSH4 0x9E1BF985 EQ PUSH2 0x1B9 JUMPI DUP1 PUSH4 0xB1583546 EQ PUSH2 0x1D5 JUMPI DUP1 PUSH4 0xD0EBDBE7 EQ PUSH2 0x1F1 JUMPI PUSH2 0xB4 JUMP JUMPDEST DUP1 PUSH4 0x900F010 EQ PUSH2 0xB9 JUMPI DUP1 PUSH4 0xCBCAE70 EQ PUSH2 0xD5 JUMPI DUP1 PUSH4 0x43B8C6B1 EQ PUSH2 0xF3 JUMPI DUP1 PUSH4 0x597DE987 EQ PUSH2 0x10F JUMPI DUP1 PUSH4 0x7B57EE49 EQ PUSH2 0x12B JUMPI DUP1 PUSH4 0x8DA5CB5B EQ PUSH2 0x147 JUMPI JUMPDEST PUSH1 0x0 DUP1 REVERT JUMPDEST PUSH2 0xD3 PUSH1 0x4 DUP1 CALLDATASIZE SUB DUP2 ADD SWAP1 PUSH2 0xCE SWAP2 SWAP1 PUSH2 0x8B0 JUMP JUMPDEST PUSH2 0x20D JUMP JUMPDEST STOP JUMPDEST PUSH2 0xDD PUSH2 0x2DE JUMP JUMPDEST PUSH1 0x40 MLOAD PUSH2 0xEA SWAP2 SWAP1 PUSH2 0x8EC JUMP JUMPDEST PUSH1 0x40 MLOAD DUP1 SWAP2 SUB SWAP1 RETURN JUMPDEST PUSH2 0x10D PUSH1 0x4 DUP1 CALLDATASIZE SUB DUP2 ADD SWAP1 PUSH2 0x108 SWAP2 SWAP1 PUSH2 0xAA8 JUMP JUMPDEST PUSH2 0x307 JUMP JUMPDEST STOP JUMPDEST PUSH2 0x129 PUSH1 0x4 DUP1 CALLDATASIZE SUB DUP2 ADD SWAP1 PUSH2 0x124 SWAP2 SWAP1 PUSH2 0x8B0 JUMP JUMPDEST PUSH2 0x3A1 JUMP JUMPDEST STOP JUMPDEST PUSH2 0x145 PUSH1 0x4 DUP1 CALLDATASIZE SUB DUP2 ADD SWAP1 PUSH2 0x140 SWAP2 SWAP1 PUSH2 0xB5B JUMP JUMPDEST PUSH2 0x42F JUMP JUMPDEST STOP JUMPDEST PUSH2 0x14F PUSH2 0x4BD JUMP JUMPDEST PUSH1 0x40 MLOAD PUSH2 0x15C SWAP2 SWAP1 PUSH2 0x8EC JUMP JUMPDEST PUSH1 0x40 MLOAD DUP1 SWAP2 SUB SWAP1 RETURN JUMPDEST PUSH2 0x17F PUSH1 0x4 DUP1 CALLDATASIZE SUB DUP2 ADD SWAP1 PUSH2 0x17A SWAP2 SWAP1 PUSH2 0xB5B JUMP JUMPDEST PUSH2 0x4E1 JUMP JUMPDEST STOP JUMPDEST PUSH2 0x19B PUSH1 0x4 DUP1 CALLDATASIZE SUB DUP2 ADD SWAP1 PUSH2 0x196 SWAP2 SWAP1 PUSH2 0xBC9 JUMP JUMPDEST PUSH2 0x56F JUMP JUMPDEST STOP JUMPDEST PUSH2 0x1B7 PUSH1 0x4 DUP1 CALLDATASIZE SUB DUP2 ADD SWAP1 PUSH2 0x1B2 SWAP2 SWAP1 PUSH2 0xC5D JUMP JUMPDEST PUSH2 0x600 JUMP JUMPDEST STOP JUMPDEST PUSH2 0x1D3 PUSH1 0x4 DUP1 CALLDATASIZE SUB DUP2 ADD SWAP1 PUSH2 0x1CE SWAP2 SWAP1 PUSH2 0xB5B JUMP JUMPDEST PUSH2 0x691 JUMP JUMPDEST STOP JUMPDEST PUSH2 0x1EF PUSH1 0x4 DUP1 CALLDATASIZE SUB DUP2 ADD SWAP1 PUSH2 0x1EA SWAP2 SWAP1 PUSH2 0xCD7 JUMP JUMPDEST PUSH2 0x71F JUMP JUMPDEST STOP JUMPDEST PUSH2 0x20B PUSH1 0x4 DUP1 CALLDATASIZE SUB DUP2 ADD SWAP1 PUSH2 0x206 SWAP2 SWAP1 PUSH2 0x8B0 JUMP JUMPDEST PUSH2 0x7B0 JUMP JUMPDEST STOP JUMPDEST PUSH32 0x0 PUSH20 0xFFFFFFFFFFFFFFFFFFFFFFFFFFFFFFFFFFFFFFFF AND CALLER PUSH20 0xFFFFFFFFFFFFFFFFFFFFFFFFFFFFFFFFFFFFFFFF AND EQ PUSH2 0x29B JUMPI PUSH1 0x40 MLOAD PUSH32 0x8C379A000000000000000000000000000000000000000000000000000000000 DUP2 MSTORE PUSH1 0x4 ADD PUSH2 0x292 SWAP1 PUSH2 0xD74 JUMP JUMPDEST PUSH1 0x40 MLOAD DUP1 SWAP2 SUB SWAP1 REVERT JUMPDEST DUP1 PUSH1 0x0 DUP1 PUSH2 0x100 EXP DUP2 SLOAD DUP2 PUSH20 0xFFFFFFFFFFFFFFFFFFFFFFFFFFFFFFFFFFFFFFFF MUL NOT AND SWAP1 DUP4 PUSH20 0xFFFFFFFFFFFFFFFFFFFFFFFFFFFFFFFFFFFFFFFF AND MUL OR SWAP1 SSTORE POP POP JUMP JUMPDEST PUSH1 0x0 DUP1 PUSH1 0x0 SWAP1 SLOAD SWAP1 PUSH2 0x100 EXP SWAP1 DIV PUSH20 0xFFFFFFFFFFFFFFFFFFFFFFFFFFFFFFFFFFFFFFFF AND SWAP1 POP SWAP1 JUMP JUMPDEST PUSH1 0x0 DUP1 SLOAD SWAP1 PUSH2 0x100 EXP SWAP1 DIV PUSH20 0xFFFFFFFFFFFFFFFFFFFFFFFFFFFFFFFFFFFFFFFF AND PUSH20 0xFFFFFFFFFFFFFFFFFFFFFFFFFFFFFFFFFFFFFFFF AND PUSH4 0x43B8C6B1 DUP7 DUP7 DUP7 DUP7 DUP7 PUSH1 0x40 MLOAD DUP7 PUSH4 0xFFFFFFFF AND PUSH1 0xE0 SHL DUP2 MSTORE PUSH1 0x4 ADD PUSH2 0x368 SWAP6 SWAP5 SWAP4 SWAP3 SWAP2 SWAP1 PUSH2 0xE88 JUMP JUMPDEST PUSH1 0x0 PUSH1 0x40 MLOAD DUP1 DUP4 SUB DUP2 PUSH1 0x0 DUP8 DUP1 EXTCODESIZE ISZERO DUP1 ISZERO PUSH2 0x382 JUMPI PUSH1 0x0 DUP1 REVERT JUMPDEST POP GAS CALL ISZERO DUP1 ISZERO PUSH2 0x396 JUMPI RETURNDATASIZE PUSH1 0x0 DUP1 RETURNDATACOPY RETURNDATASIZE PUSH1 0x0 REVERT JUMPDEST POP POP POP POP POP POP POP POP POP JUMP JUMPDEST PUSH1 0x0 DUP1 SLOAD SWAP1 PUSH2 0x100 EXP SWAP1 DIV PUSH20 0xFFFFFFFFFFFFFFFFFFFFFFFFFFFFFFFFFFFFFFFF AND PUSH20 0xFFFFFFFFFFFFFFFFFFFFFFFFFFFFFFFFFFFFFFFF AND PUSH4 0x597DE987 DUP3 PUSH1 0x40 MLOAD DUP3 PUSH4 0xFFFFFFFF AND PUSH1 0xE0 SHL DUP2 MSTORE PUSH1 0x4 ADD PUSH2 0x3FA SWAP2 SWAP1 PUSH2 0x8EC JUMP JUMPDEST PUSH1 0x0 PUSH1 0x40 MLOAD DUP1 DUP4 SUB DUP2 PUSH1 0x0 DUP8 DUP1 EXTCODESIZE ISZERO DUP1 ISZERO PUSH2 0x414 JUMPI PUSH1 0x0 DUP1 REVERT JUMPDEST POP GAS CALL ISZERO DUP1 ISZERO PUSH2 0x428 JUMPI RETURNDATASIZE PUSH1 0x0 DUP1 RETURNDATACOPY RETURNDATASIZE PUSH1 0x0 REVERT JUMPDEST POP POP POP POP POP JUMP JUMPDEST PUSH1 0x0 DUP1 SLOAD SWAP1 PUSH2 0x100 EXP SWAP1 DIV PUSH20 0xFFFFFFFFFFFFFFFFFFFFFFFFFFFFFFFFFFFFFFFF AND PUSH20 0xFFFFFFFFFFFFFFFFFFFFFFFFFFFFFFFFFFFFFFFF AND PUSH4 0x7B57EE49 DUP3 PUSH1 0x40 MLOAD DUP3 PUSH4 0xFFFFFFFF AND PUSH1 0xE0 SHL DUP2 MSTORE PUSH1 0x4 ADD PUSH2 0x488 SWAP2 SWAP1 PUSH2 0xEE9 JUMP JUMPDEST PUSH1 0x0 PUSH1 0x40 MLOAD DUP1 DUP4 SUB DUP2 PUSH1 0x0 DUP8 DUP1 EXTCODESIZE ISZERO DUP1 ISZERO PUSH2 0x4A2 JUMPI PUSH1 0x0 DUP1 REVERT JUMPDEST POP GAS CALL ISZERO DUP1 ISZERO PUSH2 0x4B6 JUMPI RETURNDATASIZE PUSH1 0x0 DUP1 RETURNDATACOPY RETURNDATASIZE PUSH1 0x0 REVERT JUMPDEST POP POP POP POP POP JUMP JUMPDEST PUSH32 0x0 DUP2 JUMP JUMPDEST PUSH1 0x0 DUP1 SLOAD SWAP1 PUSH2 0x100 EXP SWAP1 DIV PUSH20 0xFFFFFFFFFFFFFFFFFFFFFFFFFFFFFFFFFFFFFFFF AND PUSH20 0xFFFFFFFFFFFFFFFFFFFFFFFFFFFFFFFFFFFFFFFF AND PUSH4 0x8FC5DAD8 DUP3 PUSH1 0x40 MLOAD DUP3 PUSH4 0xFFFFFFFF AND PUSH1 0xE0 SHL DUP2 MSTORE PUSH1 0x4 ADD PUSH2 0x53A SWAP2 SWAP1 PUSH2 0xEE9 JUMP JUMPDEST PUSH1 0x0 PUSH1 0x40 MLOAD DUP1 DUP4 SUB DUP2 PUSH1 0x0 DUP8 DUP1 EXTCODESIZE ISZERO DUP1 ISZERO PUSH2 0x554 JUMPI PUSH1 0x0 DUP1 REVERT JUMPDEST POP GAS CALL ISZERO DUP1 ISZERO PUSH2 0x568 JUMPI RETURNDATASIZE PUSH1 0x0 DUP1 RETURNDATACOPY RETURNDATASIZE PUSH1 0x0 REVERT JUMPDEST POP POP POP POP POP JUMP JUMPDEST PUSH1 0x0 DUP1 SLOAD SWAP1 PUSH2 0x100 EXP SWAP1 DIV PUSH20 0xFFFFFFFFFFFFFFFFFFFFFFFFFFFFFFFFFFFFFFFF AND PUSH20 0xFFFFFFFFFFFFFFFFFFFFFFFFFFFFFFFFFFFFFFFF AND PUSH4 0x90CA27F3 DUP4 DUP4 PUSH1 0x40 MLOAD DUP4 PUSH4 0xFFFFFFFF AND PUSH1 0xE0 SHL DUP2 MSTORE PUSH1 0x4 ADD PUSH2 0x5CA SWAP3 SWAP2 SWAP1 PUSH2 0xF53 JUMP JUMPDEST PUSH1 0x0 PUSH1 0x40 MLOAD DUP1 DUP4 SUB DUP2 PUSH1 0x0 DUP8 DUP1 EXTCODESIZE ISZERO DUP1 ISZERO PUSH2 0x5E4 JUMPI PUSH1 0x0 DUP1 REVERT JUMPDEST POP GAS CALL ISZERO DUP1 ISZERO PUSH2 0x5F8 JUMPI RETURNDATASIZE PUSH1 0x0 DUP1 RETURNDATACOPY RETURNDATASIZE PUSH1 0x0 REVERT JUMPDEST POP POP POP POP POP POP JUMP JUMPDEST PUSH1 0x0 DUP1 SLOAD SWAP1 PUSH2 0x100 EXP SWAP1 DIV PUSH20 0xFFFFFFFFFFFFFFFFFFFFFFFFFFFFFFFFFFFFFFFF AND PUSH20 0xFFFFFFFFFFFFFFFFFFFFFFFFFFFFFFFFFFFFFFFF AND PUSH4 0x96FA1DEF DUP4 DUP4 PUSH1 0x40 MLOAD DUP4 PUSH4 0xFFFFFFFF AND PUSH1 0xE0 SHL DUP2 MSTORE PUSH1 0x4 ADD PUSH2 0x65B SWAP3 SWAP2 SWAP1 PUSH2 0xF92 JUMP JUMPDEST PUSH1 0x0 PUSH1 0x40 MLOAD DUP1 DUP4 SUB DUP2 PUSH1 0x0 DUP8 DUP1 EXTCODESIZE ISZERO DUP1 ISZERO PUSH2 0x675 JUMPI PUSH1 0x0 DUP1 REVERT JUMPDEST POP GAS CALL ISZERO DUP1 ISZERO PUSH2 0x689 JUMPI RETURNDATASIZE PUSH1 0x0 DUP1 RETURNDATACOPY RETURNDATASIZE PUSH1 0x0 REVERT JUMPDEST POP POP POP POP POP POP JUMP JUMPDEST PUSH1 0x0 DUP1 SLOAD SWAP1 PUSH2 0x100 EXP SWAP1 DIV PUSH20 0xFFFFFFFFFFFFFFFFFFFFFFFFFFFFFFFFFFFFFFFF AND PUSH20 0xFFFFFFFFFFFFFFFFFFFFFFFFFFFFFFFFFFFFFFFF AND PUSH4 0x9E1BF985 DUP3 PUSH1 0x40 MLOAD DUP3 PUSH4 0xFFFFFFFF AND PUSH1 0xE0 SHL DUP2 MSTORE PUSH1 0x4 ADD PUSH2 0x6EA SWAP2 SWAP1 PUSH2 0xEE9 JUMP JUMPDEST PUSH1 0x0 PUSH1 0x40 MLOAD DUP1 DUP4 SUB DUP2 PUSH1 0x0 DUP8 DUP1 EXTCODESIZE ISZERO DUP1 ISZERO PUSH2 0x704 JUMPI PUSH1 0x0 DUP1 REVERT JUMPDEST POP GAS CALL ISZERO DUP1 ISZERO PUSH2 0x718 JUMPI RETURNDATASIZE PUSH1 0x0 DUP1 RETURNDATACOPY RETURNDATASIZE PUSH1 0x0 REVERT JUMPDEST POP POP POP POP POP JUMP JUMPDEST PUSH1 0x0 DUP1 SLOAD SWAP1 PUSH2 0x100 EXP SWAP1 DIV PUSH20 0xFFFFFFFFFFFFFFFFFFFFFFFFFFFFFFFFFFFFFFFF AND PUSH20 0xFFFFFFFFFFFFFFFFFFFFFFFFFFFFFFFFFFFFFFFF AND PUSH4 0xB1583546 DUP4 DUP4 PUSH1 0x40 MLOAD DUP4 PUSH4 0xFFFFFFFF AND PUSH1 0xE0 SHL DUP2 MSTORE PUSH1 0x4 ADD PUSH2 0x77A SWAP3 SWAP2 SWAP1 PUSH2 0xFCA JUMP JUMPDEST PUSH1 0x0 PUSH1 0x40 MLOAD DUP1 DUP4 SUB DUP2 PUSH1 0x0 DUP8 DUP1 EXTCODESIZE ISZERO DUP1 ISZERO PUSH2 0x794 JUMPI PUSH1 0x0 DUP1 REVERT JUMPDEST POP GAS CALL ISZERO DUP1 ISZERO PUSH2 0x7A8 JUMPI RETURNDATASIZE PUSH1 0x0 DUP1 RETURNDATACOPY RETURNDATASIZE PUSH1 0x0 REVERT JUMPDEST POP POP POP POP POP POP JUMP JUMPDEST PUSH1 0x0 DUP1 SLOAD SWAP1 PUSH2 0x100 EXP SWAP1 DIV PUSH20 0xFFFFFFFFFFFFFFFFFFFFFFFFFFFFFFFFFFFFFFFF AND PUSH20 0xFFFFFFFFFFFFFFFFFFFFFFFFFFFFFFFFFFFFFFFF AND PUSH4 0xD0EBDBE7 DUP3 PUSH1 0x40 MLOAD DUP3 PUSH4 0xFFFFFFFF AND PUSH1 0xE0 SHL DUP2 MSTORE PUSH1 0x4 ADD PUSH2 0x809 SWAP2 SWAP1 PUSH2 0x8EC JUMP JUMPDEST PUSH1 0x0 PUSH1 0x40 MLOAD DUP1 DUP4 SUB DUP2 PUSH1 0x0 DUP8 DUP1 EXTCODESIZE ISZERO DUP1 ISZERO PUSH2 0x823 JUMPI PUSH1 0x0 DUP1 REVERT JUMPDEST POP GAS CALL ISZERO DUP1 ISZERO PUSH2 0x837 JUMPI RETURNDATASIZE PUSH1 0x0 DUP1 RETURNDATACOPY RETURNDATASIZE PUSH1 0x0 REVERT JUMPDEST POP POP POP POP POP JUMP JUMPDEST PUSH1 0x0 PUSH1 0x40 MLOAD SWAP1 POP SWAP1 JUMP JUMPDEST PUSH1 0x0 DUP1 REVERT JUMPDEST PUSH1 0x0 DUP1 REVERT JUMPDEST PUSH1 0x0 PUSH20 0xFFFFFFFFFFFFFFFFFFFFFFFFFFFFFFFFFFFFFFFF DUP3 AND SWAP1 POP SWAP2 SWAP1 POP JUMP JUMPDEST PUSH1 0x0 PUSH2 0x87D DUP3 PUSH2 0x852 JUMP JUMPDEST SWAP1 POP SWAP2 SWAP1 POP JUMP JUMPDEST PUSH2 0x88D DUP2 PUSH2 0x872 JUMP JUMPDEST DUP2 EQ PUSH2 0x898 JUMPI PUSH1 0x0 DUP1 REVERT JUMPDEST POP JUMP JUMPDEST PUSH1 0x0 DUP2 CALLDATALOAD SWAP1 POP PUSH2 0x8AA DUP2 PUSH2 0x884 JUMP JUMPDEST SWAP3 SWAP2 POP POP JUMP JUMPDEST PUSH1 0x0 PUSH1 0x20 DUP3 DUP5 SUB SLT ISZERO PUSH2 0x8C6 JUMPI PUSH2 0x8C5 PUSH2 0x848 JUMP JUMPDEST JUMPDEST PUSH1 0x0 PUSH2 0x8D4 DUP5 DUP3 DUP6 ADD PUSH2 0x89B JUMP JUMPDEST SWAP2 POP POP SWAP3 SWAP2 POP POP JUMP JUMPDEST PUSH2 0x8E6 DUP2 PUSH2 0x872 JUMP JUMPDEST DUP3 MSTORE POP POP JUMP JUMPDEST PUSH1 0x0 PUSH1 0x20 DUP3 ADD SWAP1 POP PUSH2 0x901 PUSH1 0x0 DUP4 ADD DUP5 PUSH2 0x8DD JUMP JUMPDEST SWAP3 SWAP2 POP POP JUMP JUMPDEST PUSH1 0x0 DUP1 REVERT JUMPDEST PUSH1 0x0 DUP1 REVERT JUMPDEST PUSH1 0x0 PUSH1 0x1F NOT PUSH1 0x1F DUP4 ADD AND SWAP1 POP SWAP2 SWAP1 POP JUMP JUMPDEST PUSH32 0x4E487B7100000000000000000000000000000000000000000000000000000000 PUSH1 0x0 MSTORE PUSH1 0x41 PUSH1 0x4 MSTORE PUSH1 0x24 PUSH1 0x0 REVERT JUMPDEST PUSH2 0x95A DUP3 PUSH2 0x911 JUMP JUMPDEST DUP2 ADD DUP2 DUP2 LT PUSH8 0xFFFFFFFFFFFFFFFF DUP3 GT OR ISZERO PUSH2 0x979 JUMPI PUSH2 0x978 PUSH2 0x922 JUMP JUMPDEST JUMPDEST DUP1 PUSH1 0x40 MSTORE POP POP POP JUMP JUMPDEST PUSH1 0x0 PUSH2 0x98C PUSH2 0x83E JUMP JUMPDEST SWAP1 POP PUSH2 0x998 DUP3 DUP3 PUSH2 0x951 JUMP JUMPDEST SWAP2 SWAP1 POP JUMP JUMPDEST PUSH1 0x0 PUSH8 0xFFFFFFFFFFFFFFFF DUP3 GT ISZERO PUSH2 0x9B8 JUMPI PUSH2 0x9B7 PUSH2 0x922 JUMP JUMPDEST JUMPDEST PUSH2 0x9C1 DUP3 PUSH2 0x911 JUMP JUMPDEST SWAP1 POP PUSH1 0x20 DUP2 ADD SWAP1 POP SWAP2 SWAP1 POP JUMP JUMPDEST DUP3 DUP2 DUP4 CALLDATACOPY PUSH1 0x0 DUP4 DUP4 ADD MSTORE POP POP POP JUMP JUMPDEST PUSH1 0x0 PUSH2 0x9F0 PUSH2 0x9EB DUP5 PUSH2 0x99D JUMP JUMPDEST PUSH2 0x982 JUMP JUMPDEST SWAP1 POP DUP3 DUP2 MSTORE PUSH1 0x20 DUP2 ADD DUP5 DUP5 DUP5 ADD GT ISZERO PUSH2 0xA0C JUMPI PUSH2 0xA0B PUSH2 0x90C JUMP JUMPDEST JUMPDEST PUSH2 0xA17 DUP5 DUP3 DUP6 PUSH2 0x9CE JUMP JUMPDEST POP SWAP4 SWAP3 POP POP POP JUMP JUMPDEST PUSH1 0x0 DUP3 PUSH1 0x1F DUP4 ADD SLT PUSH2 0xA34 JUMPI PUSH2 0xA33 PUSH2 0x907 JUMP JUMPDEST JUMPDEST DUP2 CALLDATALOAD PUSH2 0xA44 DUP5 DUP3 PUSH1 0x20 DUP7 ADD PUSH2 0x9DD JUMP JUMPDEST SWAP2 POP POP SWAP3 SWAP2 POP POP JUMP JUMPDEST PUSH1 0x4 DUP2 LT PUSH2 0xA5A JUMPI PUSH1 0x0 DUP1 REVERT JUMPDEST POP JUMP JUMPDEST PUSH1 0x0 DUP2 CALLDATALOAD SWAP1 POP PUSH2 0xA6C DUP2 PUSH2 0xA4D JUMP JUMPDEST SWAP3 SWAP2 POP POP JUMP JUMPDEST PUSH1 0x0 DUP2 SWAP1 POP SWAP2 SWAP1 POP JUMP JUMPDEST PUSH2 0xA85 DUP2 PUSH2 0xA72 JUMP JUMPDEST DUP2 EQ PUSH2 0xA90 JUMPI PUSH1 0x0 DUP1 REVERT JUMPDEST POP JUMP JUMPDEST PUSH1 0x0 DUP2 CALLDATALOAD SWAP1 POP PUSH2 0xAA2 DUP2 PUSH2 0xA7C JUMP JUMPDEST SWAP3 SWAP2 POP POP JUMP JUMPDEST PUSH1 0x0 DUP1 PUSH1 0x0 DUP1 PUSH1 0x0 PUSH1 0xA0 DUP7 DUP9 SUB SLT ISZERO PUSH2 0xAC4 JUMPI PUSH2 0xAC3 PUSH2 0x848 JUMP JUMPDEST JUMPDEST PUSH1 0x0 DUP7 ADD CALLDATALOAD PUSH8 0xFFFFFFFFFFFFFFFF DUP2 GT ISZERO PUSH2 0xAE2 JUMPI PUSH2 0xAE1 PUSH2 0x84D JUMP JUMPDEST JUMPDEST PUSH2 0xAEE DUP9 DUP3 DUP10 ADD PUSH2 0xA1F JUMP JUMPDEST SWAP6 POP POP PUSH1 0x20 DUP7 ADD CALLDATALOAD PUSH8 0xFFFFFFFFFFFFFFFF DUP2 GT ISZERO PUSH2 0xB0F JUMPI PUSH2 0xB0E PUSH2 0x84D JUMP JUMPDEST JUMPDEST PUSH2 0xB1B DUP9 DUP3 DUP10 ADD PUSH2 0xA1F JUMP JUMPDEST SWAP5 POP POP PUSH1 0x40 PUSH2 0xB2C DUP9 DUP3 DUP10 ADD PUSH2 0xA5D JUMP JUMPDEST SWAP4 POP POP PUSH1 0x60 PUSH2 0xB3D DUP9 DUP3 DUP10 ADD PUSH2 0xA93 JUMP JUMPDEST SWAP3 POP POP PUSH1 0x80 PUSH2 0xB4E DUP9 DUP3 DUP10 ADD PUSH2 0x89B JUMP JUMPDEST SWAP2 POP POP SWAP3 SWAP6 POP SWAP3 SWAP6 SWAP1 SWAP4 POP JUMP JUMPDEST PUSH1 0x0 PUSH1 0x20 DUP3 DUP5 SUB SLT ISZERO PUSH2 0xB71 JUMPI PUSH2 0xB70 PUSH2 0x848 JUMP JUMPDEST JUMPDEST PUSH1 0x0 DUP3 ADD CALLDATALOAD PUSH8 0xFFFFFFFFFFFFFFFF DUP2 GT ISZERO PUSH2 0xB8F JUMPI PUSH2 0xB8E PUSH2 0x84D JUMP JUMPDEST JUMPDEST PUSH2 0xB9B DUP5 DUP3 DUP6 ADD PUSH2 0xA1F JUMP JUMPDEST SWAP2 POP POP SWAP3 SWAP2 POP POP JUMP JUMPDEST PUSH1 0x4 DUP2 LT PUSH2 0xBB1 JUMPI PUSH1 0x0 DUP1 REVERT JUMPDEST POP JUMP JUMPDEST PUSH1 0x0 DUP2 CALLDATALOAD SWAP1 POP PUSH2 0xBC3 DUP2 PUSH2 0xBA4 JUMP JUMPDEST SWAP3 SWAP2 POP POP JUMP JUMPDEST PUSH1 0x0 DUP1 PUSH1 0x40 DUP4 DUP6 SUB SLT ISZERO PUSH2 0xBE0 JUMPI PUSH2 0xBDF PUSH2 0x848 JUMP JUMPDEST JUMPDEST PUSH1 0x0 DUP4 ADD CALLDATALOAD PUSH8 0xFFFFFFFFFFFFFFFF DUP2 GT ISZERO PUSH2 0xBFE JUMPI PUSH2 0xBFD PUSH2 0x84D JUMP JUMPDEST JUMPDEST PUSH2 0xC0A DUP6 DUP3 DUP7 ADD PUSH2 0xA1F JUMP JUMPDEST SWAP3 POP POP PUSH1 0x20 PUSH2 0xC1B DUP6 DUP3 DUP7 ADD PUSH2 0xBB4 JUMP JUMPDEST SWAP2 POP POP SWAP3 POP SWAP3 SWAP1 POP JUMP JUMPDEST PUSH1 0x0 DUP2 ISZERO ISZERO SWAP1 POP SWAP2 SWAP1 POP JUMP JUMPDEST PUSH2 0xC3A DUP2 PUSH2 0xC25 JUMP JUMPDEST DUP2 EQ PUSH2 0xC45 JUMPI PUSH1 0x0 DUP1 REVERT JUMPDEST POP JUMP JUMPDEST PUSH1 0x0 DUP2 CALLDATALOAD SWAP1 POP PUSH2 0xC57 DUP2 PUSH2 0xC31 JUMP JUMPDEST SWAP3 SWAP2 POP POP JUMP JUMPDEST PUSH1 0x0 DUP1 PUSH1 0x40 DUP4 DUP6 SUB SLT ISZERO PUSH2 0xC74 JUMPI PUSH2 0xC73 PUSH2 0x848 JUMP JUMPDEST JUMPDEST PUSH1 0x0 PUSH2 0xC82 DUP6 DUP3 DUP7 ADD PUSH2 0x89B JUMP JUMPDEST SWAP3 POP POP PUSH1 0x20 PUSH2 0xC93 DUP6 DUP3 DUP7 ADD PUSH2 0xC48 JUMP JUMPDEST SWAP2 POP POP SWAP3 POP SWAP3 SWAP1 POP JUMP JUMPDEST PUSH1 0x0 PUSH2 0xFFFF DUP3 AND SWAP1 POP SWAP2 SWAP1 POP JUMP JUMPDEST PUSH2 0xCB4 DUP2 PUSH2 0xC9D JUMP JUMPDEST DUP2 EQ PUSH2 0xCBF JUMPI PUSH1 0x0 DUP1 REVERT JUMPDEST POP JUMP JUMPDEST PUSH1 0x0 DUP2 CALLDATALOAD SWAP1 POP PUSH2 0xCD1 DUP2 PUSH2 0xCAB JUMP JUMPDEST SWAP3 SWAP2 POP POP JUMP JUMPDEST PUSH1 0x0 DUP1 PUSH1 0x40 DUP4 DUP6 SUB SLT ISZERO PUSH2 0xCEE JUMPI PUSH2 0xCED PUSH2 0x848 JUMP JUMPDEST JUMPDEST PUSH1 0x0 PUSH2 0xCFC DUP6 DUP3 DUP7 ADD PUSH2 0x89B JUMP JUMPDEST SWAP3 POP POP PUSH1 0x20 PUSH2 0xD0D DUP6 DUP3 DUP7 ADD PUSH2 0xCC2 JUMP JUMPDEST SWAP2 POP POP SWAP3 POP SWAP3 SWAP1 POP JUMP JUMPDEST PUSH1 0x0 DUP3 DUP3 MSTORE PUSH1 0x20 DUP3 ADD SWAP1 POP SWAP3 SWAP2 POP POP JUMP JUMPDEST PUSH32 0x596F7520646F206E6F742068617665207065726D697373696F6E000000000000 PUSH1 0x0 DUP3 ADD MSTORE POP JUMP JUMPDEST PUSH1 0x0 PUSH2 0xD5E PUSH1 0x1A DUP4 PUSH2 0xD17 JUMP JUMPDEST SWAP2 POP PUSH2 0xD69 DUP3 PUSH2 0xD28 JUMP JUMPDEST PUSH1 0x20 DUP3 ADD SWAP1 POP SWAP2 SWAP1 POP JUMP JUMPDEST PUSH1 0x0 PUSH1 0x20 DUP3 ADD SWAP1 POP DUP2 DUP2 SUB PUSH1 0x0 DUP4 ADD MSTORE PUSH2 0xD8D DUP2 PUSH2 0xD51 JUMP JUMPDEST SWAP1 POP SWAP2 SWAP1 POP JUMP JUMPDEST PUSH1 0x0 DUP2 MLOAD SWAP1 POP SWAP2 SWAP1 POP JUMP JUMPDEST PUSH1 0x0 JUMPDEST DUP4 DUP2 LT ISZERO PUSH2 0xDBD JUMPI DUP1 DUP3 ADD MLOAD DUP2 DUP5 ADD MSTORE PUSH1 0x20 DUP2 ADD SWAP1 POP PUSH2 0xDA2 JUMP JUMPDEST PUSH1 0x0 DUP5 DUP5 ADD MSTORE POP POP POP POP JUMP JUMPDEST PUSH1 0x0 PUSH2 0xDD4 DUP3 PUSH2 0xD94 JUMP JUMPDEST PUSH2 0xDDE DUP2 DUP6 PUSH2 0xD17 JUMP JUMPDEST SWAP4 POP PUSH2 0xDEE DUP2 DUP6 PUSH1 0x20 DUP7 ADD PUSH2 0xD9F JUMP JUMPDEST PUSH2 0xDF7 DUP2 PUSH2 0x911 JUMP JUMPDEST DUP5 ADD SWAP2 POP POP SWAP3 SWAP2 POP POP JUMP JUMPDEST PUSH32 0x4E487B7100000000000000000000000000000000000000000000000000000000 PUSH1 0x0 MSTORE PUSH1 0x21 PUSH1 0x4 MSTORE PUSH1 0x24 PUSH1 0x0 REVERT JUMPDEST PUSH1 0x4 DUP2 LT PUSH2 0xE42 JUMPI PUSH2 0xE41 PUSH2 0xE02 JUMP JUMPDEST JUMPDEST POP JUMP JUMPDEST PUSH1 0x0 DUP2 SWAP1 POP PUSH2 0xE53 DUP3 PUSH2 0xE31 JUMP JUMPDEST SWAP2 SWAP1 POP JUMP JUMPDEST PUSH1 0x0 PUSH2 0xE63 DUP3 PUSH2 0xE45 JUMP JUMPDEST SWAP1 POP SWAP2 SWAP1 POP JUMP JUMPDEST PUSH2 0xE73 DUP2 PUSH2 0xE58 JUMP JUMPDEST DUP3 MSTORE POP POP JUMP JUMPDEST PUSH2 0xE82 DUP2 PUSH2 0xA72 JUMP JUMPDEST DUP3 MSTORE POP POP JUMP JUMPDEST PUSH1 0x0 PUSH1 0xA0 DUP3 ADD SWAP1 POP DUP2 DUP2 SUB PUSH1 0x0 DUP4 ADD MSTORE PUSH2 0xEA2 DUP2 DUP9 PUSH2 0xDC9 JUMP JUMPDEST SWAP1 POP DUP2 DUP2 SUB PUSH1 0x20 DUP4 ADD MSTORE PUSH2 0xEB6 DUP2 DUP8 PUSH2 0xDC9 JUMP JUMPDEST SWAP1 POP PUSH2 0xEC5 PUSH1 0x40 DUP4 ADD DUP7 PUSH2 0xE6A JUMP JUMPDEST PUSH2 0xED2 PUSH1 0x60 DUP4 ADD DUP6 PUSH2 0xE79 JUMP JUMPDEST PUSH2 0xEDF PUSH1 0x80 DUP4 ADD DUP5 PUSH2 0x8DD JUMP JUMPDEST SWAP7 SWAP6 POP POP POP POP POP POP JUMP JUMPDEST PUSH1 0x0 PUSH1 0x20 DUP3 ADD SWAP1 POP DUP2 DUP2 SUB PUSH1 0x0 DUP4 ADD MSTORE PUSH2 0xF03 DUP2 DUP5 PUSH2 0xDC9 JUMP JUMPDEST SWAP1 POP SWAP3 SWAP2 POP POP JUMP JUMPDEST PUSH1 0x4 DUP2 LT PUSH2 0xF1C JUMPI PUSH2 0xF1B PUSH2 0xE02 JUMP JUMPDEST JUMPDEST POP JUMP JUMPDEST PUSH1 0x0 DUP2 SWAP1 POP PUSH2 0xF2D DUP3 PUSH2 0xF0B JUMP JUMPDEST SWAP2 SWAP1 POP JUMP JUMPDEST PUSH1 0x0 PUSH2 0xF3D DUP3 PUSH2 0xF1F JUMP JUMPDEST SWAP1 POP SWAP2 SWAP1 POP JUMP JUMPDEST PUSH2 0xF4D DUP2 PUSH2 0xF32 JUMP JUMPDEST DUP3 MSTORE POP POP JUMP JUMPDEST PUSH1 0x0 PUSH1 0x40 DUP3 ADD SWAP1 POP DUP2 DUP2 SUB PUSH1 0x0 DUP4 ADD MSTORE PUSH2 0xF6D DUP2 DUP6 PUSH2 0xDC9 JUMP JUMPDEST SWAP1 POP PUSH2 0xF7C PUSH1 0x20 DUP4 ADD DUP5 PUSH2 0xF44 JUMP JUMPDEST SWAP4 SWAP3 POP POP POP JUMP JUMPDEST PUSH2 0xF8C DUP2 PUSH2 0xC25 JUMP JUMPDEST DUP3 MSTORE POP POP JUMP JUMPDEST PUSH1 0x0 PUSH1 0x40 DUP3 ADD SWAP1 POP PUSH2 0xFA7 PUSH1 0x0 DUP4 ADD DUP6 PUSH2 0x8DD JUMP JUMPDEST PUSH2 0xFB4 PUSH1 0x20 DUP4 ADD DUP5 PUSH2 0xF83 JUMP JUMPDEST SWAP4 SWAP3 POP POP POP JUMP JUMPDEST PUSH2 0xFC4 DUP2 PUSH2 0xC9D JUMP JUMPDEST DUP3 MSTORE POP POP JUMP JUMPDEST PUSH1 0x0 PUSH1 0x40 DUP3 ADD SWAP1 POP PUSH2 0xFDF PUSH1 0x0 DUP4 ADD DUP6 PUSH2 0x8DD JUMP JUMPDEST PUSH2 0xFEC PUSH1 0x20 DUP4 ADD DUP5 PUSH2 0xFBB JUMP JUMPDEST SWAP4 SWAP3 POP POP POP JUMP INVALID LOG2 PUSH5 0x6970667358 0x22 SLT KECCAK256 0x1E 0xCC PUSH24 0xBE1789EF361C68903959BE0DAD0200E6E1490C8063408C01 0xB3 BLOCKHASH RETURNDATACOPY DUP7 PUSH4 0x64736F6C PUSH4 0x43000818 STOP CALLER "},"methodIdentifiers":{"addResident(address,uint16)":"b1583546","addTopic(string,string,uint8,uint256,address)":"43b8c6b1","closeVoting(string)":"8fc5dad8","getImplementationAddress()":"0cbcae70","openVoting(string)":"9e1bf985","owner()":"8da5cb5b","removeResident(address)":"597de987","removeTopic(string)":"7b57ee49","setCounselor(address,bool)":"96fa1def","setManager(address)":"d0ebdbe7","upgrade(address)":"0900f010","vote(string,uint8)":"90ca27f3"}}}}}