{
  "_format": "hh-sol-artifact-1",
  "contractName": "CondominiumAdapter",
  "sourceName": "contracts/CondominiumAdapter.sol",
  "abi": [
    {
      "inputs": [],
      "stateMutability": "nonpayable",
      "type": "constructor"
    },
    {
      "anonymous": false,
      "inputs": [
        {
          "indexed": false,
          "internalType": "address",
          "name": "manager",
          "type": "address"
        }
      ],
      "name": "ManagerChanged",
      "type": "event"
    },
    {
      "anonymous": false,
      "inputs": [
        {
          "indexed": false,
          "internalType": "uint256",
          "name": "amount",
          "type": "uint256"
        }
      ],
      "name": "QuotaChanged",
      "type": "event"
    },
    {
      "anonymous": false,
      "inputs": [
        {
          "indexed": true,
          "internalType": "bytes32",
          "name": "topicId",
          "type": "bytes32"
        },
        {
          "indexed": false,
          "internalType": "string",
          "name": "title",
          "type": "string"
        },
        {
          "indexed": true,
          "internalType": "enum CondominiumLib.Status",
          "name": "status",
          "type": "uint8"
        }
      ],
      "name": "TopicChanged",
      "type": "event"
    },
    {
      "anonymous": false,
      "inputs": [
        {
          "indexed": false,
          "internalType": "address",
          "name": "to",
          "type": "address"
        },
        {
          "indexed": true,
          "internalType": "uint256",
          "name": "amount",
          "type": "uint256"
        },
        {
          "indexed": false,
          "internalType": "string",
          "name": "topic",
          "type": "string"
        }
      ],
      "name": "Transfer",
      "type": "event"
    },
    {
      "inputs": [
        {
          "internalType": "address",
          "name": "resident",
          "type": "address"
        },
        {
          "internalType": "uint16",
          "name": "residenceNumber",
          "type": "uint16"
        }
      ],
      "name": "addResident",
      "outputs": [],
      "stateMutability": "nonpayable",
      "type": "function"
    },
    {
      "inputs": [
        {
          "internalType": "string",
          "name": "title",
          "type": "string"
        },
        {
          "internalType": "string",
          "name": "description",
          "type": "string"
        },
        {
          "internalType": "enum CondominiumLib.Category",
          "name": "category",
          "type": "uint8"
        },
        {
          "internalType": "uint256",
          "name": "amount",
          "type": "uint256"
        },
        {
          "internalType": "address",
          "name": "responsible",
          "type": "address"
        }
      ],
      "name": "addTopic",
      "outputs": [],
      "stateMutability": "nonpayable",
      "type": "function"
    },
    {
      "inputs": [
        {
          "internalType": "string",
          "name": "title",
          "type": "string"
        }
      ],
      "name": "closeVoting",
      "outputs": [],
      "stateMutability": "nonpayable",
      "type": "function"
    },
    {
      "inputs": [
        {
          "internalType": "string",
          "name": "topicToEdit",
          "type": "string"
        },
        {
          "internalType": "string",
          "name": "description",
          "type": "string"
        },
        {
          "internalType": "uint256",
          "name": "amount",
          "type": "uint256"
        },
        {
          "internalType": "address",
          "name": "responsible",
          "type": "address"
        }
      ],
      "name": "editTopic",
      "outputs": [],
      "stateMutability": "nonpayable",
      "type": "function"
    },
    {
      "inputs": [],
      "name": "getImplementationAddress",
      "outputs": [
        {
          "internalType": "address",
          "name": "",
          "type": "address"
        }
      ],
      "stateMutability": "view",
      "type": "function"
    },
    {
      "inputs": [
        {
          "internalType": "string",
          "name": "title",
          "type": "string"
        }
      ],
      "name": "openVoting",
      "outputs": [],
      "stateMutability": "nonpayable",
      "type": "function"
    },
    {
      "inputs": [],
      "name": "owner",
      "outputs": [
        {
          "internalType": "address",
          "name": "",
          "type": "address"
        }
      ],
      "stateMutability": "view",
      "type": "function"
    },
    {
      "inputs": [
        {
          "internalType": "uint16",
          "name": "residence",
          "type": "uint16"
        }
      ],
      "name": "payQuota",
      "outputs": [],
      "stateMutability": "payable",
      "type": "function"
    },
    {
      "inputs": [
        {
          "internalType": "address",
          "name": "resident",
          "type": "address"
        }
      ],
      "name": "removeResident",
      "outputs": [],
      "stateMutability": "nonpayable",
      "type": "function"
    },
    {
      "inputs": [
        {
          "internalType": "string",
          "name": "title",
          "type": "string"
        }
      ],
      "name": "removeTopic",
      "outputs": [],
      "stateMutability": "nonpayable",
      "type": "function"
    },
    {
      "inputs": [
        {
          "internalType": "address",
          "name": "resident",
          "type": "address"
        },
        {
          "internalType": "bool",
          "name": "isEntering",
          "type": "bool"
        }
      ],
      "name": "setCounselor",
      "outputs": [],
      "stateMutability": "nonpayable",
      "type": "function"
    },
    {
      "inputs": [
        {
          "internalType": "string",
          "name": "title",
          "type": "string"
        },
        {
          "internalType": "uint256",
          "name": "amount",
          "type": "uint256"
        }
      ],
      "name": "transfer",
      "outputs": [],
      "stateMutability": "nonpayable",
      "type": "function"
    },
    {
      "inputs": [
        {
          "internalType": "address",
          "name": "newImplementation",
          "type": "address"
        }
      ],
      "name": "upgrade",
      "outputs": [],
      "stateMutability": "nonpayable",
      "type": "function"
    },
    {
      "inputs": [
        {
          "internalType": "string",
          "name": "title",
          "type": "string"
        },
        {
          "internalType": "enum CondominiumLib.VoteOptions",
          "name": "option",
          "type": "uint8"
        }
      ],
      "name": "vote",
      "outputs": [],
      "stateMutability": "nonpayable",
      "type": "function"
    }
  ],
  "bytecode": "0x60a06040523480156200001157600080fd5b506200002e67408056f06ef8c4cd60c01b6200008460201b60201c565b6200004a67eb9bbac7335aaf6160c01b6200008460201b60201c565b3373ffffffffffffffffffffffffffffffffffffffff1660808173ffffffffffffffffffffffffffffffffffffffff168152505062000087565b50565b608051612e8d620000aa600039600081816103690152610dde0152612e8d6000f3fe6080604052600436106100dd5760003560e01c80638fc5dad81161007f5780639e1bf985116100595780639e1bf98514610280578063b1583546146102a9578063c12e8063146102d2578063eaf5d9dc146102ee576100dd565b80638fc5dad81461020557806390ca27f31461022e57806396fa1def14610257576100dd565b806343b8c6b1116100bb57806343b8c6b11461015f578063597de987146101885780637b57ee49146101b15780638da5cb5b146101da576100dd565b80630900f010146100e25780630cbcae701461010b57806312cb70c714610136575b600080fd5b3480156100ee57600080fd5b5061010960048036038101906101049190612183565b610317565b005b34801561011757600080fd5b50610120610460565b60405161012d91906121bf565b60405180910390f35b34801561014257600080fd5b5061015d60048036038101906101589190612356565b6104c4565b005b34801561016b57600080fd5b50610186600480360381019061018191906123d7565b61074a565b005b34801561019457600080fd5b506101af60048036038101906101aa9190612183565b61094f565b005b3480156101bd57600080fd5b506101d860048036038101906101d3919061248a565b610b48565b005b3480156101e657600080fd5b506101ef610ddc565b6040516101fc91906121bf565b60405180910390f35b34801561021157600080fd5b5061022c6004803603810190610227919061248a565b610e00565b005b34801561023a57600080fd5b50610255600480360381019061025091906124f8565b6113ef565b005b34801561026357600080fd5b5061027e6004803603810190610279919061258c565b6115eb565b005b34801561028c57600080fd5b506102a760048036038101906102a2919061248a565b6117e7565b005b3480156102b557600080fd5b506102d060048036038101906102cb9190612606565b611a7b565b005b6102ec60048036038101906102e79190612646565b611c77565b005b3480156102fa57600080fd5b5061031560048036038101906103109190612673565b611e71565b005b61032b67f36df096b0b596ea60c01b61210e565b61033f67bb602aa65b23fe0760c01b61210e565b6103536766eca29dab7b0c3c60c01b61210e565b6103676751a354bc49085dcd60c01b61210e565b7f000000000000000000000000000000000000000000000000000000000000000073ffffffffffffffffffffffffffffffffffffffff163373ffffffffffffffffffffffffffffffffffffffff16146103f5576040517f08c379a00000000000000000000000000000000000000000000000000000000081526004016103ec9061276f565b60405180910390fd5b61040967066a08f29b5ecbec60c01b61210e565b61041d676013f23c6293fadf60c01b61210e565b806000806101000a81548173ffffffffffffffffffffffffffffffffffffffff021916908373ffffffffffffffffffffffffffffffffffffffff16021790555050565b6000610476679864bb439257eb4c60c01b61210e565b61048a6730bbe37ce94d4ac960c01b61210e565b61049e679677643323f89fce60c01b61210e565b60008054906101000a900473ffffffffffffffffffffffffffffffffffffffff16905090565b6104d8679cf1d173f04fcae960c01b61210e565b6104ec67d2e8abaa8879d13160c01b61210e565b61050067582ec5c0f27355d960c01b61210e565b610514674ec418108ef3c8b060c01b61210e565b61052867e3c69701e3e150c060c01b61210e565b600073ffffffffffffffffffffffffffffffffffffffff1660008054906101000a900473ffffffffffffffffffffffffffffffffffffffff1673ffffffffffffffffffffffffffffffffffffffff16036105b7576040517f08c379a00000000000000000000000000000000000000000000000000000000081526004016105ae906127db565b60405180910390fd5b6105cb67842270ed594bc33160c01b61210e565b6105df678ccbcafdc47d459060c01b61210e565b6105f3670cdd4f2db93f03fe60c01b61210e565b610607679fd55bb99e1a5f3360c01b61210e565b61061b67b46e6df8843f584c60c01b61210e565b61062f67904937c50f50dee560c01b61210e565b60008060009054906101000a900473ffffffffffffffffffffffffffffffffffffffff1673ffffffffffffffffffffffffffffffffffffffff166312cb70c784846040518363ffffffff1660e01b815260040161068d929190612878565b6000604051808303816000875af11580156106ac573d6000803e3d6000fd5b505050506040513d6000823e3d601f19601f820116820180604052508101906106d591906129cc565b90506106eb67e0b573a0482c191160c01b61210e565b6106ff6794958871fa221dbc60c01b61210e565b80602001517feb10b79f28ae0b520cb7ee8e40115f547bfac852d7167a55d9ae8e028ee23a118260000151836040015160405161073d929190612a15565b60405180910390a2505050565b61075e679f6134732ee68de360c01b61210e565b61077267d2e8abaa8879d13160c01b61210e565b61078667582ec5c0f27355d960c01b61210e565b61079a674ec418108ef3c8b060c01b61210e565b6107ae67e3c69701e3e150c060c01b61210e565b600073ffffffffffffffffffffffffffffffffffffffff1660008054906101000a900473ffffffffffffffffffffffffffffffffffffffff1673ffffffffffffffffffffffffffffffffffffffff160361083d576040517f08c379a0000000000000000000000000000000000000000000000000000000008152600401610834906127db565b60405180910390fd5b61085167842270ed594bc33160c01b61210e565b610865678ccbcafdc47d459060c01b61210e565b61087967048d89cbd82de99c60c01b61210e565b61088d6739ba4cd0110061bd60c01b61210e565b6108a1679c3f558dd68ca02360c01b61210e565b6108b567076e1fe2ed2f885d60c01b61210e565b60008054906101000a900473ffffffffffffffffffffffffffffffffffffffff1673ffffffffffffffffffffffffffffffffffffffff166343b8c6b186868686866040518663ffffffff1660e01b8152600401610916959493929190612abc565b600060405180830381600087803b15801561093057600080fd5b505af1158015610944573d6000803e3d6000fd5b505050505050505050565b61096367ae1ef12b0115cac860c01b61210e565b61097767d2e8abaa8879d13160c01b61210e565b61098b67582ec5c0f27355d960c01b61210e565b61099f674ec418108ef3c8b060c01b61210e565b6109b367e3c69701e3e150c060c01b61210e565b600073ffffffffffffffffffffffffffffffffffffffff1660008054906101000a900473ffffffffffffffffffffffffffffffffffffffff1673ffffffffffffffffffffffffffffffffffffffff1603610a42576040517f08c379a0000000000000000000000000000000000000000000000000000000008152600401610a39906127db565b60405180910390fd5b610a5667842270ed594bc33160c01b61210e565b610a6a678ccbcafdc47d459060c01b61210e565b610a7e67a468da6c6a97b4f160c01b61210e565b610a9267fa7ece3c092df66c60c01b61210e565b610aa667c6226b02aab79cd760c01b61210e565b610aba6720994fea27dfef2b60c01b61210e565b60008054906101000a900473ffffffffffffffffffffffffffffffffffffffff1673ffffffffffffffffffffffffffffffffffffffff1663597de987826040518263ffffffff1660e01b8152600401610b1391906121bf565b600060405180830381600087803b158015610b2d57600080fd5b505af1158015610b41573d6000803e3d6000fd5b5050505050565b610b5c6735c10e76c0583a7d60c01b61210e565b610b7067d2e8abaa8879d13160c01b61210e565b610b8467582ec5c0f27355d960c01b61210e565b610b98674ec418108ef3c8b060c01b61210e565b610bac67e3c69701e3e150c060c01b61210e565b600073ffffffffffffffffffffffffffffffffffffffff1660008054906101000a900473ffffffffffffffffffffffffffffffffffffffff1673ffffffffffffffffffffffffffffffffffffffff1603610c3b576040517f08c379a0000000000000000000000000000000000000000000000000000000008152600401610c32906127db565b60405180910390fd5b610c4f67842270ed594bc33160c01b61210e565b610c63678ccbcafdc47d459060c01b61210e565b610c7767247bb724d8f6021e60c01b61210e565b610c8b67b1045bd7a729e07e60c01b61210e565b610c9f67859b9e50dd8dc9a660c01b61210e565b610cb367562f1a4bde99917360c01b61210e565b60008060009054906101000a900473ffffffffffffffffffffffffffffffffffffffff1673ffffffffffffffffffffffffffffffffffffffff16637b57ee49836040518263ffffffff1660e01b8152600401610d0f9190612b1d565b6000604051808303816000875af1158015610d2e573d6000803e3d6000fd5b505050506040513d6000823e3d601f19601f82011682018060405250810190610d579190612c43565b9050610d6d674cbfb5bc1463b71360c01b61210e565b610d81676518d0214f93a8ff60c01b61210e565b80604001516005811115610d9857610d97612a45565b5b81600001517fefe93f21a3369f1228a2589883bc377a76d7335daddc712853688de4617f82ab8360200151604051610dd09190612b1d565b60405180910390a35050565b7f000000000000000000000000000000000000000000000000000000000000000081565b610e14675c6c9d0241c8ed8c60c01b61210e565b610e2867d2e8abaa8879d13160c01b61210e565b610e3c67582ec5c0f27355d960c01b61210e565b610e50674ec418108ef3c8b060c01b61210e565b610e6467e3c69701e3e150c060c01b61210e565b600073ffffffffffffffffffffffffffffffffffffffff1660008054906101000a900473ffffffffffffffffffffffffffffffffffffffff1673ffffffffffffffffffffffffffffffffffffffff1603610ef3576040517f08c379a0000000000000000000000000000000000000000000000000000000008152600401610eea906127db565b60405180910390fd5b610f0767842270ed594bc33160c01b61210e565b610f1b678ccbcafdc47d459060c01b61210e565b610f2f6797daa2fd81bb3e8160c01b61210e565b610f4367d9609e1a2356324b60c01b61210e565b610f5767315830ebb4d5442960c01b61210e565b610f6b67f0b79b764a66886260c01b61210e565b60008060009054906101000a900473ffffffffffffffffffffffffffffffffffffffff1673ffffffffffffffffffffffffffffffffffffffff16638fc5dad8836040518263ffffffff1660e01b8152600401610fc79190612b1d565b6000604051808303816000875af1158015610fe6573d6000803e3d6000fd5b505050506040513d6000823e3d601f19601f8201168201806040525081019061100f9190612c43565b90506110256734f0ba916d6b65ea60c01b61210e565b61103967fe67cfddbffd4b1e60c01b61210e565b806040015160058111156110505761104f612a45565b5b81600001517fefe93f21a3369f1228a2589883bc377a76d7335daddc712853688de4617f82ab83602001516040516110889190612b1d565b60405180910390a36110a4675a5f1f903259c6f860c01b61210e565b6110b867a858e8ef21d4fd8060c01b61210e565b600260058111156110cc576110cb612a45565b5b816040015160058111156110e3576110e2612a45565b5b036113d6576110fc67bdfc75883d77588b60c01b61210e565b611110671d3dea912bb8288560c01b61210e565b61112467c0ded12ac2161ec260c01b61210e565b60038081111561113757611136612a45565b5b8160600151600381111561114e5761114d612a45565b5b0361125b576111676776736e46a92d2f2260c01b61210e565b61117b6798e1ed58eb2de52c60c01b61210e565b61118f67452b168af9d17e8960c01b61210e565b7f198db6e425fb8aafd1823c6ca50be2d51e5764571a5ae0f0f21c6812e45def0b60008054906101000a900473ffffffffffffffffffffffffffffffffffffffff1673ffffffffffffffffffffffffffffffffffffffff1663d50095846040518163ffffffff1660e01b81526004016020604051808303816000875af115801561121d573d6000803e3d6000fd5b505050506040513d601f19601f820116820180604052508101906112419190612c8c565b60405161124e91906121bf565b60405180910390a16113d1565b61126f67169e58f057d2b2e860c01b61210e565b611283671adf06f01427df6060c01b61210e565b6002600381111561129757611296612a45565b5b816060015160038111156112ae576112ad612a45565b5b036113bb576112c76738f9b90b5a2eb99760c01b61210e565b6112db67e051ad50a65ee32060c01b61210e565b6112ef67142d0790777d0a5f60c01b61210e565b7f274a3b0d5142ec9fc4e77bd3ffc173b4e7c6c64eca73b31a6c6906b184257e7e60008054906101000a900473ffffffffffffffffffffffffffffffffffffffff1673ffffffffffffffffffffffffffffffffffffffff16631df8ba776040518163ffffffff1660e01b81526004016020604051808303816000875af115801561137d573d6000803e3d6000fd5b505050506040513d601f19601f820116820180604052508101906113a19190612cb9565b6040516113ae9190612ce6565b60405180910390a16113d0565b6113cf678a0ce1ee758998c260c01b61210e565b5b5b6113eb565b6113ea67a22d7060c0eab67460c01b61210e565b5b5050565b611403675fb864d4c952769d60c01b61210e565b61141767d2e8abaa8879d13160c01b61210e565b61142b67582ec5c0f27355d960c01b61210e565b61143f674ec418108ef3c8b060c01b61210e565b61145367e3c69701e3e150c060c01b61210e565b600073ffffffffffffffffffffffffffffffffffffffff1660008054906101000a900473ffffffffffffffffffffffffffffffffffffffff1673ffffffffffffffffffffffffffffffffffffffff16036114e2576040517f08c379a00000000000000000000000000000000000000000000000000000000081526004016114d9906127db565b60405180910390fd5b6114f667842270ed594bc33160c01b61210e565b61150a678ccbcafdc47d459060c01b61210e565b61151e6735967df6652d617f60c01b61210e565b611532673bb220e0fcc1f79360c01b61210e565b611546670c1b21b2ba5b9f7460c01b61210e565b61155a6714949c3076c1384b60c01b61210e565b60008054906101000a900473ffffffffffffffffffffffffffffffffffffffff1673ffffffffffffffffffffffffffffffffffffffff166390ca27f383836040518363ffffffff1660e01b81526004016115b5929190612d49565b600060405180830381600087803b1580156115cf57600080fd5b505af11580156115e3573d6000803e3d6000fd5b505050505050565b6115ff675225b349e0d7d47060c01b61210e565b61161367d2e8abaa8879d13160c01b61210e565b61162767582ec5c0f27355d960c01b61210e565b61163b674ec418108ef3c8b060c01b61210e565b61164f67e3c69701e3e150c060c01b61210e565b600073ffffffffffffffffffffffffffffffffffffffff1660008054906101000a900473ffffffffffffffffffffffffffffffffffffffff1673ffffffffffffffffffffffffffffffffffffffff16036116de576040517f08c379a00000000000000000000000000000000000000000000000000000000081526004016116d5906127db565b60405180910390fd5b6116f267842270ed594bc33160c01b61210e565b611706678ccbcafdc47d459060c01b61210e565b61171a67bf82ccbeb899098560c01b61210e565b61172e671bc9b95470aebbee60c01b61210e565b6117426790817a43a317367060c01b61210e565b61175667f567bf11cccfe2f860c01b61210e565b60008054906101000a900473ffffffffffffffffffffffffffffffffffffffff1673ffffffffffffffffffffffffffffffffffffffff166396fa1def83836040518363ffffffff1660e01b81526004016117b1929190612d88565b600060405180830381600087803b1580156117cb57600080fd5b505af11580156117df573d6000803e3d6000fd5b505050505050565b6117fb67c1fadae1510d362460c01b61210e565b61180f67d2e8abaa8879d13160c01b61210e565b61182367582ec5c0f27355d960c01b61210e565b611837674ec418108ef3c8b060c01b61210e565b61184b67e3c69701e3e150c060c01b61210e565b600073ffffffffffffffffffffffffffffffffffffffff1660008054906101000a900473ffffffffffffffffffffffffffffffffffffffff1673ffffffffffffffffffffffffffffffffffffffff16036118da576040517f08c379a00000000000000000000000000000000000000000000000000000000081526004016118d1906127db565b60405180910390fd5b6118ee67842270ed594bc33160c01b61210e565b611902678ccbcafdc47d459060c01b61210e565b61191667ac8e3e2c4be904ef60c01b61210e565b61192a677e3993f0b63acfbe60c01b61210e565b61193e67a1dcdc059de5d41460c01b61210e565b611952676f2431fcf5d95ae660c01b61210e565b60008060009054906101000a900473ffffffffffffffffffffffffffffffffffffffff1673ffffffffffffffffffffffffffffffffffffffff16639e1bf985836040518263ffffffff1660e01b81526004016119ae9190612b1d565b6000604051808303816000875af11580156119cd573d6000803e3d6000fd5b505050506040513d6000823e3d601f19601f820116820180604052508101906119f69190612c43565b9050611a0c6730b6e487a7ac858360c01b61210e565b611a2067cd5cbf713e61342060c01b61210e565b80604001516005811115611a3757611a36612a45565b5b81600001517fefe93f21a3369f1228a2589883bc377a76d7335daddc712853688de4617f82ab8360200151604051611a6f9190612b1d565b60405180910390a35050565b611a8f678a63105ad90020aa60c01b61210e565b611aa367d2e8abaa8879d13160c01b61210e565b611ab767582ec5c0f27355d960c01b61210e565b611acb674ec418108ef3c8b060c01b61210e565b611adf67e3c69701e3e150c060c01b61210e565b600073ffffffffffffffffffffffffffffffffffffffff1660008054906101000a900473ffffffffffffffffffffffffffffffffffffffff1673ffffffffffffffffffffffffffffffffffffffff1603611b6e576040517f08c379a0000000000000000000000000000000000000000000000000000000008152600401611b65906127db565b60405180910390fd5b611b8267842270ed594bc33160c01b61210e565b611b96678ccbcafdc47d459060c01b61210e565b611baa67f07c36011fbb228d60c01b61210e565b611bbe6711663758509c876360c01b61210e565b611bd2679be6677d99236da760c01b61210e565b611be667e81789e1bdb154e560c01b61210e565b60008054906101000a900473ffffffffffffffffffffffffffffffffffffffff1673ffffffffffffffffffffffffffffffffffffffff1663b158354683836040518363ffffffff1660e01b8152600401611c41929190612dc0565b600060405180830381600087803b158015611c5b57600080fd5b505af1158015611c6f573d6000803e3d6000fd5b505050505050565b611c8b6708f6d1c10d73cf8160c01b61210e565b611c9f67d2e8abaa8879d13160c01b61210e565b611cb367582ec5c0f27355d960c01b61210e565b611cc7674ec418108ef3c8b060c01b61210e565b611cdb67e3c69701e3e150c060c01b61210e565b600073ffffffffffffffffffffffffffffffffffffffff1660008054906101000a900473ffffffffffffffffffffffffffffffffffffffff1673ffffffffffffffffffffffffffffffffffffffff1603611d6a576040517f08c379a0000000000000000000000000000000000000000000000000000000008152600401611d61906127db565b60405180910390fd5b611d7e67842270ed594bc33160c01b61210e565b611d92678ccbcafdc47d459060c01b61210e565b611da6674bc9b5b3f08170a760c01b61210e565b611dba67388ae8b6cf4fd05460c01b61210e565b611dce67339ae4a87e6e0efc60c01b61210e565b611de267a1da2cf8286a2d8260c01b61210e565b60008054906101000a900473ffffffffffffffffffffffffffffffffffffffff1673ffffffffffffffffffffffffffffffffffffffff1663c12e806334836040518363ffffffff1660e01b8152600401611e3c9190612de9565b6000604051808303818588803b158015611e5557600080fd5b505af1158015611e69573d6000803e3d6000fd5b505050505050565b611e8567adc1ebfd681fb87860c01b61210e565b611e9967d2e8abaa8879d13160c01b61210e565b611ead67582ec5c0f27355d960c01b61210e565b611ec1674ec418108ef3c8b060c01b61210e565b611ed567e3c69701e3e150c060c01b61210e565b600073ffffffffffffffffffffffffffffffffffffffff1660008054906101000a900473ffffffffffffffffffffffffffffffffffffffff1673ffffffffffffffffffffffffffffffffffffffff1603611f64576040517f08c379a0000000000000000000000000000000000000000000000000000000008152600401611f5b906127db565b60405180910390fd5b611f7867842270ed594bc33160c01b61210e565b611f8c678ccbcafdc47d459060c01b61210e565b611fa067ac669f682704df0960c01b61210e565b611fb46730d936edd491b81660c01b61210e565b611fc8672e05985074d908b460c01b61210e565b611fdc67b42ec6718454382460c01b61210e565b60008060009054906101000a900473ffffffffffffffffffffffffffffffffffffffff1673ffffffffffffffffffffffffffffffffffffffff1663eaf5d9dc868686866040518563ffffffff1660e01b815260040161203e9493929190612e04565b6000604051808303816000875af115801561205d573d6000803e3d6000fd5b505050506040513d6000823e3d601f19601f820116820180604052508101906120869190612c43565b905061209c679fc72ee83135835860c01b61210e565b6120b067cdad2dbbc05cc09160c01b61210e565b806040015160058111156120c7576120c6612a45565b5b81600001517fefe93f21a3369f1228a2589883bc377a76d7335daddc712853688de4617f82ab83602001516040516120ff9190612b1d565b60405180910390a35050505050565b50565b6000604051905090565b600080fd5b600080fd5b600073ffffffffffffffffffffffffffffffffffffffff82169050919050565b600061215082612125565b9050919050565b61216081612145565b811461216b57600080fd5b50565b60008135905061217d81612157565b92915050565b6000602082840312156121995761219861211b565b5b60006121a78482850161216e565b91505092915050565b6121b981612145565b82525050565b60006020820190506121d460008301846121b0565b92915050565b600080fd5b600080fd5b6000601f19601f8301169050919050565b7f4e487b7100000000000000000000000000000000000000000000000000000000600052604160045260246000fd5b61222d826121e4565b810181811067ffffffffffffffff8211171561224c5761224b6121f5565b5b80604052505050565b600061225f612111565b905061226b8282612224565b919050565b600067ffffffffffffffff82111561228b5761228a6121f5565b5b612294826121e4565b9050602081019050919050565b82818337600083830152505050565b60006122c36122be84612270565b612255565b9050828152602081018484840111156122df576122de6121df565b5b6122ea8482856122a1565b509392505050565b600082601f830112612307576123066121da565b5b81356123178482602086016122b0565b91505092915050565b6000819050919050565b61233381612320565b811461233e57600080fd5b50565b6000813590506123508161232a565b92915050565b6000806040838503121561236d5761236c61211b565b5b600083013567ffffffffffffffff81111561238b5761238a612120565b5b612397858286016122f2565b92505060206123a885828601612341565b9150509250929050565b600481106123bf57600080fd5b50565b6000813590506123d1816123b2565b92915050565b600080600080600060a086880312156123f3576123f261211b565b5b600086013567ffffffffffffffff81111561241157612410612120565b5b61241d888289016122f2565b955050602086013567ffffffffffffffff81111561243e5761243d612120565b5b61244a888289016122f2565b945050604061245b888289016123c2565b935050606061246c88828901612341565b925050608061247d8882890161216e565b9150509295509295909350565b6000602082840312156124a05761249f61211b565b5b600082013567ffffffffffffffff8111156124be576124bd612120565b5b6124ca848285016122f2565b91505092915050565b600481106124e057600080fd5b50565b6000813590506124f2816124d3565b92915050565b6000806040838503121561250f5761250e61211b565b5b600083013567ffffffffffffffff81111561252d5761252c612120565b5b612539858286016122f2565b925050602061254a858286016124e3565b9150509250929050565b60008115159050919050565b61256981612554565b811461257457600080fd5b50565b60008135905061258681612560565b92915050565b600080604083850312156125a3576125a261211b565b5b60006125b18582860161216e565b92505060206125c285828601612577565b9150509250929050565b600061ffff82169050919050565b6125e3816125cc565b81146125ee57600080fd5b50565b600081359050612600816125da565b92915050565b6000806040838503121561261d5761261c61211b565b5b600061262b8582860161216e565b925050602061263c858286016125f1565b9150509250929050565b60006020828403121561265c5761265b61211b565b5b600061266a848285016125f1565b91505092915050565b6000806000806080858703121561268d5761268c61211b565b5b600085013567ffffffffffffffff8111156126ab576126aa612120565b5b6126b7878288016122f2565b945050602085013567ffffffffffffffff8111156126d8576126d7612120565b5b6126e4878288016122f2565b93505060406126f587828801612341565b92505060606127068782880161216e565b91505092959194509250565b600082825260208201905092915050565b7f596f7520646f206e6f742068617665207065726d697373696f6e000000000000600082015250565b6000612759601a83612712565b915061276482612723565b602082019050919050565b600060208201905081810360008301526127888161274c565b9050919050565b7f596f75206d757374207570677261646520666972737400000000000000000000600082015250565b60006127c5601683612712565b91506127d08261278f565b602082019050919050565b600060208201905081810360008301526127f4816127b8565b9050919050565b600081519050919050565b60005b83811015612824578082015181840152602081019050612809565b60008484015250505050565b600061283b826127fb565b6128458185612712565b9350612855818560208601612806565b61285e816121e4565b840191505092915050565b61287281612320565b82525050565b600060408201905081810360008301526128928185612830565b90506128a16020830184612869565b9392505050565b600080fd5b600080fd5b6000815190506128c181612157565b92915050565b6000815190506128d68161232a565b92915050565b60006128ef6128ea84612270565b612255565b90508281526020810184848401111561290b5761290a6121df565b5b612916848285612806565b509392505050565b600082601f830112612933576129326121da565b5b81516129438482602086016128dc565b91505092915050565b600060608284031215612962576129616128a8565b5b61296c6060612255565b9050600061297c848285016128b2565b6000830152506020612990848285016128c7565b602083015250604082015167ffffffffffffffff8111156129b4576129b36128ad565b5b6129c08482850161291e565b60408301525092915050565b6000602082840312156129e2576129e161211b565b5b600082015167ffffffffffffffff811115612a00576129ff612120565b5b612a0c8482850161294c565b91505092915050565b6000604082019050612a2a60008301856121b0565b8181036020830152612a3c8184612830565b90509392505050565b7f4e487b7100000000000000000000000000000000000000000000000000000000600052602160045260246000fd5b60048110612a8557612a84612a45565b5b50565b6000819050612a9682612a74565b919050565b6000612aa682612a88565b9050919050565b612ab681612a9b565b82525050565b600060a0820190508181036000830152612ad68188612830565b90508181036020830152612aea8187612830565b9050612af96040830186612aad565b612b066060830185612869565b612b1360808301846121b0565b9695505050505050565b60006020820190508181036000830152612b378184612830565b905092915050565b6000819050919050565b612b5281612b3f565b8114612b5d57600080fd5b50565b600081519050612b6f81612b49565b92915050565b60068110612b8257600080fd5b50565b600081519050612b9481612b75565b92915050565b600081519050612ba9816123b2565b92915050565b600060808284031215612bc557612bc46128a8565b5b612bcf6080612255565b90506000612bdf84828501612b60565b600083015250602082015167ffffffffffffffff811115612c0357612c026128ad565b5b612c0f8482850161291e565b6020830152506040612c2384828501612b85565b6040830152506060612c3784828501612b9a565b60608301525092915050565b600060208284031215612c5957612c5861211b565b5b600082015167ffffffffffffffff811115612c7757612c76612120565b5b612c8384828501612baf565b91505092915050565b600060208284031215612ca257612ca161211b565b5b6000612cb0848285016128b2565b91505092915050565b600060208284031215612ccf57612cce61211b565b5b6000612cdd848285016128c7565b91505092915050565b6000602082019050612cfb6000830184612869565b92915050565b60048110612d1257612d11612a45565b5b50565b6000819050612d2382612d01565b919050565b6000612d3382612d15565b9050919050565b612d4381612d28565b82525050565b60006040820190508181036000830152612d638185612830565b9050612d726020830184612d3a565b9392505050565b612d8281612554565b82525050565b6000604082019050612d9d60008301856121b0565b612daa6020830184612d79565b9392505050565b612dba816125cc565b82525050565b6000604082019050612dd560008301856121b0565b612de26020830184612db1565b9392505050565b6000602082019050612dfe6000830184612db1565b92915050565b60006080820190508181036000830152612e1e8187612830565b90508181036020830152612e328186612830565b9050612e416040830185612869565b612e4e60608301846121b0565b9594505050505056fea2646970667358221220bc609fad6a7656be2423957c692e116701cf82b18ac3a0e21308118f7a75612a64736f6c63430008180033",
  "linkReferences": {},
  "deployedLinkReferences": {}
}