{
  "_format": "hh-sol-artifact-1",
  "contractName": "CondominiumAdapter",
  "sourceName": "contracts/CondominiumAdapter.sol",
  "abi": [
    {
      "inputs": [],
      "stateMutability": "nonpayable",
      "type": "constructor"
    },
    {
      "anonymous": false,
      "inputs": [
        {
          "indexed": false,
          "internalType": "address",
          "name": "manager",
          "type": "address"
        }
      ],
      "name": "ManagerChanged",
      "type": "event"
    },
    {
      "anonymous": false,
      "inputs": [
        {
          "indexed": false,
          "internalType": "uint256",
          "name": "amount",
          "type": "uint256"
        }
      ],
      "name": "QuotaChanged",
      "type": "event"
    },
    {
      "anonymous": false,
      "inputs": [
        {
          "indexed": true,
          "internalType": "bytes32",
          "name": "topicId",
          "type": "bytes32"
        },
        {
          "indexed": false,
          "internalType": "string",
          "name": "title",
          "type": "string"
        },
        {
          "indexed": true,
          "internalType": "enum CondominiumLib.Status",
          "name": "status",
          "type": "uint8"
        }
      ],
      "name": "TopicChanged",
      "type": "event"
    },
    {
      "anonymous": false,
      "inputs": [
        {
          "indexed": false,
          "internalType": "address",
          "name": "to",
          "type": "address"
        },
        {
          "indexed": true,
          "internalType": "uint256",
          "name": "amount",
          "type": "uint256"
        },
        {
          "indexed": false,
          "internalType": "string",
          "name": "topic",
          "type": "string"
        }
      ],
      "name": "Transfer",
      "type": "event"
    },
    {
      "inputs": [
        {
          "internalType": "address",
          "name": "resident",
          "type": "address"
        },
        {
          "internalType": "uint16",
          "name": "residenceNumber",
          "type": "uint16"
        }
      ],
      "name": "addResident",
      "outputs": [],
      "stateMutability": "nonpayable",
      "type": "function"
    },
    {
      "inputs": [
        {
          "internalType": "string",
          "name": "title",
          "type": "string"
        },
        {
          "internalType": "string",
          "name": "description",
          "type": "string"
        },
        {
          "internalType": "enum CondominiumLib.Category",
          "name": "category",
          "type": "uint8"
        },
        {
          "internalType": "uint256",
          "name": "amount",
          "type": "uint256"
        },
        {
          "internalType": "address",
          "name": "responsible",
          "type": "address"
        }
      ],
      "name": "addTopic",
      "outputs": [],
      "stateMutability": "nonpayable",
      "type": "function"
    },
    {
      "inputs": [
        {
          "internalType": "string",
          "name": "title",
          "type": "string"
        }
      ],
      "name": "closeVoting",
      "outputs": [],
      "stateMutability": "nonpayable",
      "type": "function"
    },
    {
      "inputs": [
        {
          "internalType": "string",
          "name": "topicToEdit",
          "type": "string"
        },
        {
          "internalType": "string",
          "name": "description",
          "type": "string"
        },
        {
          "internalType": "uint256",
          "name": "amount",
          "type": "uint256"
        },
        {
          "internalType": "address",
          "name": "responsible",
          "type": "address"
        }
      ],
      "name": "editTopic",
      "outputs": [],
      "stateMutability": "nonpayable",
      "type": "function"
    },
    {
      "inputs": [],
      "name": "getImplementationAddress",
      "outputs": [
        {
          "internalType": "address",
          "name": "",
          "type": "address"
        }
      ],
      "stateMutability": "view",
      "type": "function"
    },
    {
      "inputs": [],
      "name": "getManager",
      "outputs": [
        {
          "internalType": "address",
          "name": "",
          "type": "address"
        }
      ],
      "stateMutability": "view",
      "type": "function"
    },
    {
      "inputs": [],
      "name": "getQuota",
      "outputs": [
        {
          "internalType": "uint256",
          "name": "",
          "type": "uint256"
        }
      ],
      "stateMutability": "view",
      "type": "function"
    },
    {
      "inputs": [
        {
          "internalType": "address",
          "name": "resident",
          "type": "address"
        }
      ],
      "name": "getResident",
      "outputs": [
        {
          "components": [
            {
              "internalType": "address",
              "name": "wallet",
              "type": "address"
            },
            {
              "internalType": "uint16",
              "name": "residence",
              "type": "uint16"
            },
            {
              "internalType": "bool",
              "name": "isCounselor",
              "type": "bool"
            },
            {
              "internalType": "bool",
              "name": "isManager",
              "type": "bool"
            },
            {
              "internalType": "uint256",
              "name": "nextPayment",
              "type": "uint256"
            }
          ],
          "internalType": "struct CondominiumLib.Resident",
          "name": "",
          "type": "tuple"
        }
      ],
      "stateMutability": "view",
      "type": "function"
    },
    {
      "inputs": [
        {
          "internalType": "uint256",
          "name": "page",
          "type": "uint256"
        },
        {
          "internalType": "uint256",
          "name": "pageSize",
          "type": "uint256"
        }
      ],
      "name": "getResidents",
      "outputs": [
        {
          "components": [
            {
              "components": [
                {
                  "internalType": "address",
                  "name": "wallet",
                  "type": "address"
                },
                {
                  "internalType": "uint16",
                  "name": "residence",
                  "type": "uint16"
                },
                {
                  "internalType": "bool",
                  "name": "isCounselor",
                  "type": "bool"
                },
                {
                  "internalType": "bool",
                  "name": "isManager",
                  "type": "bool"
                },
                {
                  "internalType": "uint256",
                  "name": "nextPayment",
                  "type": "uint256"
                }
              ],
              "internalType": "struct CondominiumLib.Resident[]",
              "name": "residents",
              "type": "tuple[]"
            },
            {
              "internalType": "uint256",
              "name": "total",
              "type": "uint256"
            }
          ],
          "internalType": "struct CondominiumLib.ResidentPage",
          "name": "",
          "type": "tuple"
        }
      ],
      "stateMutability": "view",
      "type": "function"
    },
    {
      "inputs": [
        {
          "internalType": "string",
          "name": "title",
          "type": "string"
        }
      ],
      "name": "getTopic",
      "outputs": [
        {
          "components": [
            {
              "internalType": "string",
              "name": "title",
              "type": "string"
            },
            {
              "internalType": "string",
              "name": "description",
              "type": "string"
            },
            {
              "internalType": "enum CondominiumLib.Status",
              "name": "status",
              "type": "uint8"
            },
            {
              "internalType": "uint256",
              "name": "createdDate",
              "type": "uint256"
            },
            {
              "internalType": "uint256",
              "name": "startDate",
              "type": "uint256"
            },
            {
              "internalType": "uint256",
              "name": "endDate",
              "type": "uint256"
            },
            {
              "internalType": "enum CondominiumLib.Category",
              "name": "category",
              "type": "uint8"
            },
            {
              "internalType": "uint256",
              "name": "amount",
              "type": "uint256"
            },
            {
              "internalType": "address",
              "name": "responsible",
              "type": "address"
            }
          ],
          "internalType": "struct CondominiumLib.Topic",
          "name": "",
          "type": "tuple"
        }
      ],
      "stateMutability": "view",
      "type": "function"
    },
    {
      "inputs": [
        {
          "internalType": "uint256",
          "name": "page",
          "type": "uint256"
        },
        {
          "internalType": "uint256",
          "name": "pageSize",
          "type": "uint256"
        }
      ],
      "name": "getTopics",
      "outputs": [
        {
          "components": [
            {
              "components": [
                {
                  "internalType": "string",
                  "name": "title",
                  "type": "string"
                },
                {
                  "internalType": "string",
                  "name": "description",
                  "type": "string"
                },
                {
                  "internalType": "enum CondominiumLib.Status",
                  "name": "status",
                  "type": "uint8"
                },
                {
                  "internalType": "uint256",
                  "name": "createdDate",
                  "type": "uint256"
                },
                {
                  "internalType": "uint256",
                  "name": "startDate",
                  "type": "uint256"
                },
                {
                  "internalType": "uint256",
                  "name": "endDate",
                  "type": "uint256"
                },
                {
                  "internalType": "enum CondominiumLib.Category",
                  "name": "category",
                  "type": "uint8"
                },
                {
                  "internalType": "uint256",
                  "name": "amount",
                  "type": "uint256"
                },
                {
                  "internalType": "address",
                  "name": "responsible",
                  "type": "address"
                }
              ],
              "internalType": "struct CondominiumLib.Topic[]",
              "name": "topics",
              "type": "tuple[]"
            },
            {
              "internalType": "uint256",
              "name": "total",
              "type": "uint256"
            }
          ],
          "internalType": "struct CondominiumLib.TopicPage",
          "name": "",
          "type": "tuple"
        }
      ],
      "stateMutability": "view",
      "type": "function"
    },
    {
      "inputs": [
        {
          "internalType": "string",
          "name": "topicTitle",
          "type": "string"
        }
      ],
      "name": "getVotes",
      "outputs": [
        {
          "components": [
            {
              "internalType": "address",
              "name": "resident",
              "type": "address"
            },
            {
              "internalType": "uint16",
              "name": "residence",
              "type": "uint16"
            },
            {
              "internalType": "enum CondominiumLib.VoteOptions",
              "name": "option",
              "type": "uint8"
            },
            {
              "internalType": "uint256",
              "name": "timestamp",
              "type": "uint256"
            }
          ],
          "internalType": "struct CondominiumLib.Vote[]",
          "name": "",
          "type": "tuple[]"
        }
      ],
      "stateMutability": "view",
      "type": "function"
    },
    {
      "inputs": [
        {
          "internalType": "string",
          "name": "title",
          "type": "string"
        }
      ],
      "name": "openVoting",
      "outputs": [],
      "stateMutability": "nonpayable",
      "type": "function"
    },
    {
      "inputs": [],
      "name": "owner",
      "outputs": [
        {
          "internalType": "address",
          "name": "",
          "type": "address"
        }
      ],
      "stateMutability": "view",
      "type": "function"
    },
    {
      "inputs": [
        {
          "internalType": "uint16",
          "name": "residence",
          "type": "uint16"
        }
      ],
      "name": "payQuota",
      "outputs": [],
      "stateMutability": "payable",
      "type": "function"
    },
    {
      "inputs": [
        {
          "internalType": "address",
          "name": "resident",
          "type": "address"
        }
      ],
      "name": "removeResident",
      "outputs": [],
      "stateMutability": "nonpayable",
      "type": "function"
    },
    {
      "inputs": [
        {
          "internalType": "string",
          "name": "title",
          "type": "string"
        }
      ],
      "name": "removeTopic",
      "outputs": [],
      "stateMutability": "nonpayable",
      "type": "function"
    },
    {
      "inputs": [
        {
          "internalType": "address",
          "name": "resident",
          "type": "address"
        },
        {
          "internalType": "bool",
          "name": "isEntering",
          "type": "bool"
        }
      ],
      "name": "setCounselor",
      "outputs": [],
      "stateMutability": "nonpayable",
      "type": "function"
    },
    {
      "inputs": [
        {
          "internalType": "string",
          "name": "title",
          "type": "string"
        },
        {
          "internalType": "uint256",
          "name": "amount",
          "type": "uint256"
        }
      ],
      "name": "transfer",
      "outputs": [],
      "stateMutability": "nonpayable",
      "type": "function"
    },
    {
      "inputs": [
        {
          "internalType": "address",
          "name": "newImplementation",
          "type": "address"
        }
      ],
      "name": "upgrade",
      "outputs": [],
      "stateMutability": "nonpayable",
      "type": "function"
    },
    {
      "inputs": [
        {
          "internalType": "string",
          "name": "title",
          "type": "string"
        },
        {
          "internalType": "enum CondominiumLib.VoteOptions",
          "name": "option",
          "type": "uint8"
        }
      ],
      "name": "vote",
      "outputs": [],
      "stateMutability": "nonpayable",
      "type": "function"
    }
  ],
  "bytecode": "0x60a060405234801561001057600080fd5b50336080526080516125e861003760003960008181610331015261047301526125e86000f3fe60806040526004361061016a5760003560e01c8063805265e5116100cb5780639e1bf9851161007f578063c12e806311610059578063c12e806314610420578063d500958414610433578063eaf5d9dc1461044857600080fd5b80639e1bf985146103b3578063a7107f02146103d3578063b15835461461040057600080fd5b80638fc5dad8116100b05780638fc5dad81461035357806390ca27f31461037357806396fa1def1461039357600080fd5b8063805265e5146102f25780638da5cb5b1461031f57600080fd5b8063474502d811610122578063597de98711610107578063597de987146102855780637932938b146102a55780637b57ee49146102d257600080fd5b8063474502d81461022b57806356ea46d91461025857600080fd5b806312cb70c71161015357806312cb70c7146101c85780631df8ba77146101e857806343b8c6b11461020b57600080fd5b80630900f0101461016f5780630cbcae7014610191575b600080fd5b34801561017b57600080fd5b5061018f61018a3660046116f3565b610468565b005b34801561019d57600080fd5b506000546001600160a01b03165b6040516001600160a01b0390911681526020015b60405180910390f35b3480156101d457600080fd5b5061018f6101e336600461184c565b61051f565b3480156101f457600080fd5b506101fd610645565b6040519081526020016101bf565b34801561021757600080fd5b5061018f61022636600461189e565b610706565b34801561023757600080fd5b5061024b610246366004611933565b6107d7565b6040516101bf9190611aa9565b34801561026457600080fd5b50610278610273366004611abc565b6108bb565b6040516101bf9190611ade565b34801561029157600080fd5b5061018f6102a03660046116f3565b6109b0565b3480156102b157600080fd5b506102c56102c0366004611abc565b610a6d565b6040516101bf9190611b53565b3480156102de57600080fd5b5061018f6102ed366004611933565b610b59565b3480156102fe57600080fd5b5061031261030d366004611933565b610c89565b6040516101bf9190611bf5565b34801561032b57600080fd5b506101ab7f000000000000000000000000000000000000000000000000000000000000000081565b34801561035f57600080fd5b5061018f61036e366004611933565b610d60565b34801561037f57600080fd5b5061018f61038e366004611c6f565b611064565b34801561039f57600080fd5b5061018f6103ae366004611ccf565b61112b565b3480156103bf57600080fd5b5061018f6103ce366004611933565b6111c4565b3480156103df57600080fd5b506103f36103ee3660046116f3565b611254565b6040516101bf9190611cfd565b34801561040c57600080fd5b5061018f61041b366004611d57565b61134a565b61018f61042e366004611d85565b6113e5565b34801561043f57600080fd5b506101ab61148e565b34801561045457600080fd5b5061018f610463366004611da2565b61154a565b336001600160a01b037f000000000000000000000000000000000000000000000000000000000000000016146104e55760405162461bcd60e51b815260206004820152601a60248201527f596f7520646f206e6f742068617665207065726d697373696f6e00000000000060448201526064015b60405180910390fd5b600080547fffffffffffffffffffffffff0000000000000000000000000000000000000000166001600160a01b0392909216919091179055565b6000546001600160a01b03166105655760405162461bcd60e51b8152602060048201526016602482015260008051602061259383398151915260448201526064016104dc565b600080546040517f12cb70c70000000000000000000000000000000000000000000000000000000081526001600160a01b03909116906312cb70c7906105b19086908690600401611e22565b6000604051808303816000875af11580156105d0573d6000803e3d6000fd5b505050506040513d6000823e601f3d908101601f191682016040526105f89190810190611e94565b905080602001517feb10b79f28ae0b520cb7ee8e40115f547bfac852d7167a55d9ae8e028ee23a1182600001518360400151604051610638929190611f34565b60405180910390a2505050565b600080546001600160a01b031661068c5760405162461bcd60e51b8152602060048201526016602482015260008051602061259383398151915260448201526064016104dc565b60008054906101000a90046001600160a01b03166001600160a01b0316631df8ba776040518163ffffffff1660e01b8152600401602060405180830381865afa1580156106dd573d6000803e3d6000fd5b505050506040513d601f19601f820116820180604052508101906107019190611f56565b905090565b6000546001600160a01b031661074c5760405162461bcd60e51b8152602060048201526016602482015260008051602061259383398151915260448201526064016104dc565b6000546040517f43b8c6b10000000000000000000000000000000000000000000000000000000081526001600160a01b03909116906343b8c6b19061079d9088908890889088908890600401611f6f565b600060405180830381600087803b1580156107b757600080fd5b505af11580156107cb573d6000803e3d6000fd5b505050505b5050505050565b6107df611683565b6000546001600160a01b03166108255760405162461bcd60e51b8152602060048201526016602482015260008051602061259383398151915260448201526064016104dc565b6000546040517f474502d80000000000000000000000000000000000000000000000000000000081526001600160a01b039091169063474502d89061086e908590600401611fc5565b600060405180830381865afa15801561088b573d6000803e3d6000fd5b505050506040513d6000823e601f3d908101601f191682016040526108b391908101906120be565b90505b919050565b6040805180820190915260608152600060208201526000546001600160a01b03166109165760405162461bcd60e51b8152602060048201526016602482015260008051602061259383398151915260448201526064016104dc565b6000546040517f56ea46d900000000000000000000000000000000000000000000000000000000815260048101859052602481018490526001600160a01b03909116906356ea46d990604401600060405180830381865afa15801561097f573d6000803e3d6000fd5b505050506040513d6000823e601f3d908101601f191682016040526109a79190810190612117565b90505b92915050565b6000546001600160a01b03166109f65760405162461bcd60e51b8152602060048201526016602482015260008051602061259383398151915260448201526064016104dc565b6000546040517f597de9870000000000000000000000000000000000000000000000000000000081526001600160a01b0383811660048301529091169063597de98790602401600060405180830381600087803b158015610a5657600080fd5b505af11580156107d0573d6000803e3d6000fd5b50565b6040805180820190915260608152600060208201526000546001600160a01b0316610ac85760405162461bcd60e51b8152602060048201526016602482015260008051602061259383398151915260448201526064016104dc565b6000546040517f7932938b00000000000000000000000000000000000000000000000000000000815260048101859052602481018490526001600160a01b0390911690637932938b90604401600060405180830381865afa158015610b31573d6000803e3d6000fd5b505050506040513d6000823e601f3d908101601f191682016040526109a79190810190612290565b6000546001600160a01b0316610b9f5760405162461bcd60e51b8152602060048201526016602482015260008051602061259383398151915260448201526064016104dc565b600080546040517f7b57ee490000000000000000000000000000000000000000000000000000000081526001600160a01b0390911690637b57ee4990610be9908590600401611fc5565b6000604051808303816000875af1158015610c08573d6000803e3d6000fd5b505050506040513d6000823e601f3d908101601f19168201604052610c309190810190612364565b905080604001516005811115610c4857610c486119c0565b815160208301516040517fefe93f21a3369f1228a2589883bc377a76d7335daddc712853688de4617f82ab91610c7d91611fc5565b60405180910390a35050565b6000546060906001600160a01b0316610cd25760405162461bcd60e51b8152602060048201526016602482015260008051602061259383398151915260448201526064016104dc565b6000546040517f805265e50000000000000000000000000000000000000000000000000000000081526001600160a01b039091169063805265e590610d1b908590600401611fc5565b600060405180830381865afa158015610d38573d6000803e3d6000fd5b505050506040513d6000823e601f3d908101601f191682016040526108b39190810190612403565b6000546001600160a01b0316610da65760405162461bcd60e51b8152602060048201526016602482015260008051602061259383398151915260448201526064016104dc565b600080546040517f8fc5dad80000000000000000000000000000000000000000000000000000000081526001600160a01b0390911690638fc5dad890610df0908590600401611fc5565b6000604051808303816000875af1158015610e0f573d6000803e3d6000fd5b505050506040513d6000823e601f3d908101601f19168201604052610e379190810190612364565b905080604001516005811115610e4f57610e4f6119c0565b815160208301516040517fefe93f21a3369f1228a2589883bc377a76d7335daddc712853688de4617f82ab91610e8491611fc5565b60405180910390a3600281604001516005811115610ea457610ea46119c0565b0361106057600381606001516003811115610ec157610ec16119c0565b03610f8b57600054604080517fd500958400000000000000000000000000000000000000000000000000000000815290517f198db6e425fb8aafd1823c6ca50be2d51e5764571a5ae0f0f21c6812e45def0b926001600160a01b03169163d50095849160048083019260209291908290030181865afa158015610f48573d6000803e3d6000fd5b505050506040513d601f19601f82011682018060405250810190610f6c91906124e8565b6040516001600160a01b03909116815260200160405180910390a15050565b600281606001516003811115610fa357610fa36119c0565b0361106057600054604080517f1df8ba7700000000000000000000000000000000000000000000000000000000815290517f274a3b0d5142ec9fc4e77bd3ffc173b4e7c6c64eca73b31a6c6906b184257e7e926001600160a01b031691631df8ba779160048083019260209291908290030181865afa15801561102a573d6000803e3d6000fd5b505050506040513d601f19601f8201168201806040525081019061104e9190611f56565b60405190815260200160405180910390a15b5050565b6000546001600160a01b03166110aa5760405162461bcd60e51b8152602060048201526016602482015260008051602061259383398151915260448201526064016104dc565b6000546040517f90ca27f30000000000000000000000000000000000000000000000000000000081526001600160a01b03909116906390ca27f3906110f59085908590600401612505565b600060405180830381600087803b15801561110f57600080fd5b505af1158015611123573d6000803e3d6000fd5b505050505050565b6000546001600160a01b03166111715760405162461bcd60e51b8152602060048201526016602482015260008051602061259383398151915260448201526064016104dc565b6000546040517f96fa1def0000000000000000000000000000000000000000000000000000000081526001600160a01b0384811660048301528315156024830152909116906396fa1def906044016110f5565b6000546001600160a01b031661120a5760405162461bcd60e51b8152602060048201526016602482015260008051602061259383398151915260448201526064016104dc565b600080546040517f9e1bf9850000000000000000000000000000000000000000000000000000000081526001600160a01b0390911690639e1bf98590610be9908590600401611fc5565b6040805160a081018252600080825260208201819052918101829052606081018290526080810182905290546001600160a01b03166112c35760405162461bcd60e51b8152602060048201526016602482015260008051602061259383398151915260448201526064016104dc565b6000546040517fa7107f020000000000000000000000000000000000000000000000000000000081526001600160a01b0384811660048301529091169063a7107f029060240160a060405180830381865afa158015611326573d6000803e3d6000fd5b505050506040513d601f19601f820116820180604052508101906108b39190612530565b6000546001600160a01b03166113905760405162461bcd60e51b8152602060048201526016602482015260008051602061259383398151915260448201526064016104dc565b6000546040517fb15835460000000000000000000000000000000000000000000000000000000081526001600160a01b03848116600483015261ffff841660248301529091169063b1583546906044016110f5565b6000546001600160a01b031661142b5760405162461bcd60e51b8152602060048201526016602482015260008051602061259383398151915260448201526064016104dc565b6000546040517fc12e806300000000000000000000000000000000000000000000000000000000815261ffff831660048201526001600160a01b039091169063c12e80639034906024016000604051808303818588803b15801561110f57600080fd5b600080546001600160a01b03166114d55760405162461bcd60e51b8152602060048201526016602482015260008051602061259383398151915260448201526064016104dc565b60008054906101000a90046001600160a01b03166001600160a01b031663d50095846040518163ffffffff1660e01b8152600401602060405180830381865afa158015611526573d6000803e3d6000fd5b505050506040513d601f19601f8201168201806040525081019061070191906124e8565b6000546001600160a01b03166115905760405162461bcd60e51b8152602060048201526016602482015260008051602061259383398151915260448201526064016104dc565b600080546040517feaf5d9dc0000000000000000000000000000000000000000000000000000000081526001600160a01b039091169063eaf5d9dc906115e090889088908890889060040161254c565b6000604051808303816000875af11580156115ff573d6000803e3d6000fd5b505050506040513d6000823e601f3d908101601f191682016040526116279190810190612364565b90508060400151600581111561163f5761163f6119c0565b815160208301516040517fefe93f21a3369f1228a2589883bc377a76d7335daddc712853688de4617f82ab9161167491611fc5565b60405180910390a35050505050565b60408051610120810182526060808252602082015290810160008152602001600081526020016000815260200160008152602001600060038111156116ca576116ca6119c0565b815260006020820181905260409091015290565b6001600160a01b0381168114610a6a57600080fd5b60006020828403121561170557600080fd5b8135611710816116de565b9392505050565b634e487b7160e01b600052604160045260246000fd5b604051610120810167ffffffffffffffff8111828210171561175157611751611717565b60405290565b6040805190810167ffffffffffffffff8111828210171561175157611751611717565b6040516080810167ffffffffffffffff8111828210171561175157611751611717565b604051601f8201601f1916810167ffffffffffffffff811182821017156117c6576117c6611717565b604052919050565b600067ffffffffffffffff8211156117e8576117e8611717565b50601f01601f191660200190565b600082601f83011261180757600080fd5b813561181a611815826117ce565b61179d565b81815284602083860101111561182f57600080fd5b816020850160208301376000918101602001919091529392505050565b6000806040838503121561185f57600080fd5b823567ffffffffffffffff81111561187657600080fd5b611882858286016117f6565b95602094909401359450505050565b60048110610a6a57600080fd5b600080600080600060a086880312156118b657600080fd5b853567ffffffffffffffff808211156118ce57600080fd5b6118da89838a016117f6565b965060208801359150808211156118f057600080fd5b506118fd888289016117f6565b945050604086013561190e81611891565b9250606086013591506080860135611925816116de565b809150509295509295909350565b60006020828403121561194557600080fd5b813567ffffffffffffffff81111561195c57600080fd5b611968848285016117f6565b949350505050565b60005b8381101561198b578181015183820152602001611973565b50506000910152565b600081518084526119ac816020860160208601611970565b601f01601f19169290920160200192915050565b634e487b7160e01b600052602160045260246000fd5b600681106119e6576119e66119c0565b9052565b60048110610a6a57610a6a6119c0565b6119e6816119ea565b60006101208251818552611a1982860182611994565b91505060208301518482036020860152611a338282611994565b9150506040830151611a4860408601826119d6565b50606083015160608501526080830151608085015260a083015160a085015260c0830151611a7960c08601826119fa565b5060e083015160e085015261010080840151611a9f828701826001600160a01b03169052565b5090949350505050565b6020815260006109a76020830184611a03565b60008060408385031215611acf57600080fd5b50508035926020909101359150565b6000602080835260608301845160408386015281815180845260808701915060808160051b8801019350848301925060005b81811015611b3e57607f19888603018352611b2c858551611a03565b94509285019291850191600101611b10565b50505050930151604092909201919091525090565b6020808252825160408383015280516060840181905260009291820190839060808601905b80831015611bdd57611bc78285516001600160a01b03815116825261ffff6020820151166020830152604081015115156040830152606081015115156060830152608081015160808301525050565b60a0820191508484019350600183019250611b78565b50602087015160408701528094505050505092915050565b602080825282518282018190526000919060409081850190868401855b82811015611c625781516001600160a01b03815116855261ffff87820151168786015285810151611c42816119ea565b858701526060908101519085015260809093019290850190600101611c12565b5091979650505050505050565b60008060408385031215611c8257600080fd5b823567ffffffffffffffff811115611c9957600080fd5b611ca5858286016117f6565b9250506020830135611cb681611891565b809150509250929050565b8015158114610a6a57600080fd5b60008060408385031215611ce257600080fd5b8235611ced816116de565b91506020830135611cb681611cc1565b60a081016109aa82846001600160a01b03815116825261ffff6020820151166020830152604081015115156040830152606081015115156060830152608081015160808301525050565b61ffff81168114610a6a57600080fd5b60008060408385031215611d6a57600080fd5b8235611d75816116de565b91506020830135611cb681611d47565b600060208284031215611d9757600080fd5b813561171081611d47565b60008060008060808587031215611db857600080fd5b843567ffffffffffffffff80821115611dd057600080fd5b611ddc888389016117f6565b95506020870135915080821115611df257600080fd5b50611dff878288016117f6565b935050604085013591506060850135611e17816116de565b939692955090935050565b604081526000611e356040830185611994565b90508260208301529392505050565b80516108b6816116de565b600082601f830112611e6057600080fd5b8151611e6e611815826117ce565b818152846020838601011115611e8357600080fd5b611968826020830160208701611970565b600060208284031215611ea657600080fd5b815167ffffffffffffffff80821115611ebe57600080fd5b9083019060608286031215611ed257600080fd5b604051606081018181108382111715611eed57611eed611717565b6040528251611efb816116de565b815260208381015190820152604083015182811115611f1957600080fd5b611f2587828601611e4f565b60408301525095945050505050565b6001600160a01b03831681526040602082015260006119686040830184611994565b600060208284031215611f6857600080fd5b5051919050565b60a081526000611f8260a0830188611994565b8281036020840152611f948188611994565b915050611fa0856119ea565b8460408301528360608301526001600160a01b03831660808301529695505050505050565b6020815260006109a76020830184611994565b8051600681106108b657600080fd5b80516108b681611891565b6000610120828403121561200557600080fd5b61200d61172d565b9050815167ffffffffffffffff8082111561202757600080fd5b61203385838601611e4f565b8352602084015191508082111561204957600080fd5b5061205684828501611e4f565b60208301525061206860408301611fd8565b6040820152606082015160608201526080820151608082015260a082015160a082015261209760c08301611fe7565b60c082015260e082015160e08201526101006120b4818401611e44565b9082015292915050565b6000602082840312156120d057600080fd5b815167ffffffffffffffff8111156120e757600080fd5b61196884828501611ff2565b600067ffffffffffffffff82111561210d5761210d611717565b5060051b60200190565b6000602080838503121561212a57600080fd5b825167ffffffffffffffff8082111561214257600080fd5b908401906040828703121561215657600080fd5b61215e611757565b82518281111561216d57600080fd5b8301601f8101881361217e57600080fd5b805161218c611815826120f3565b81815260059190911b8201860190868101908a8311156121ab57600080fd5b8784015b838110156121e3578051878111156121c75760008081fd5b6121d58d8b83890101611ff2565b8452509188019188016121af565b5084525050509183015192820192909252949350505050565b600060a0828403121561220e57600080fd5b60405160a0810181811067ffffffffffffffff8211171561223157612231611717565b80604052508091508251612244816116de565b8152602083015161225481611d47565b6020820152604083015161226781611cc1565b6040820152606083015161227a81611cc1565b6060820152608092830151920191909152919050565b600060208083850312156122a357600080fd5b825167ffffffffffffffff808211156122bb57600080fd5b90840190604082870312156122cf57600080fd5b6122d7611757565b8251828111156122e657600080fd5b83019150601f820187136122f957600080fd5b8151612307611815826120f3565b81815260a0918202840186019186820191908a84111561232657600080fd5b948701945b8386101561234c5761233d8b876121fc565b8352948501949187019161232b565b50835250509183015192820192909252949350505050565b60006020828403121561237657600080fd5b815167ffffffffffffffff8082111561238e57600080fd5b90830190608082860312156123a257600080fd5b6123aa61177a565b825181526020830151828111156123c057600080fd5b6123cc87828601611e4f565b6020830152506123de60408401611fd8565b6040820152606083015192506123f383611891565b6060810192909252509392505050565b6000602080838503121561241657600080fd5b825167ffffffffffffffff81111561242d57600080fd5b8301601f8101851361243e57600080fd5b805161244c611815826120f3565b81815260079190911b8201830190838101908783111561246b57600080fd5b928401925b828410156124dd57608084890312156124895760008081fd5b61249161177a565b845161249c816116de565b8152848601516124ab81611d47565b818701526040858101516124be81611891565b9082015260608581015190820152825260809093019290840190612470565b979650505050505050565b6000602082840312156124fa57600080fd5b8151611710816116de565b6040815260006125186040830185611994565b9050612523836119ea565b8260208301529392505050565b600060a0828403121561254257600080fd5b6109a783836121fc565b60808152600061255f6080830187611994565b82810360208401526125718187611994565b9150508360408301526001600160a01b03831660608301529594505050505056fe596f75206d757374207570677261646520666972737400000000000000000000a2646970667358221220edcd40986a875a6f39c4d4d47e1266e7cc491951d0c851feba790f078782fbab64736f6c63430008180033",
  "linkReferences": {},
  "deployedLinkReferences": {}
}