{
  "_format": "hh-sol-artifact-1",
  "contractName": "CondominiumAdapter",
  "sourceName": "contracts/CondominiumAdapter.sol",
  "abi": [
    {
      "inputs": [],
      "stateMutability": "nonpayable",
      "type": "constructor"
    },
    {
      "inputs": [
        {
          "internalType": "address",
          "name": "resident",
          "type": "address"
        },
        {
          "internalType": "uint16",
          "name": "residenceNumber",
          "type": "uint16"
        }
      ],
      "name": "addResident",
      "outputs": [],
      "stateMutability": "nonpayable",
      "type": "function"
    },
    {
      "inputs": [
        {
          "internalType": "string",
          "name": "title",
          "type": "string"
        },
        {
          "internalType": "string",
          "name": "description",
          "type": "string"
        },
        {
          "internalType": "enum CondominiumLib.Category",
          "name": "category",
          "type": "uint8"
        },
        {
          "internalType": "uint256",
          "name": "amount",
          "type": "uint256"
        },
        {
          "internalType": "address",
          "name": "responsible",
          "type": "address"
        }
      ],
      "name": "addTopic",
      "outputs": [],
      "stateMutability": "nonpayable",
      "type": "function"
    },
    {
      "inputs": [
        {
          "internalType": "string",
          "name": "title",
          "type": "string"
        }
      ],
      "name": "closeVoting",
      "outputs": [],
      "stateMutability": "nonpayable",
      "type": "function"
    },
    {
      "inputs": [],
      "name": "getImplementationAddress",
      "outputs": [
        {
          "internalType": "address",
          "name": "",
          "type": "address"
        }
      ],
      "stateMutability": "view",
      "type": "function"
    },
    {
      "inputs": [
        {
          "internalType": "string",
          "name": "title",
          "type": "string"
        }
      ],
      "name": "openVoting",
      "outputs": [],
      "stateMutability": "nonpayable",
      "type": "function"
    },
    {
      "inputs": [],
      "name": "owner",
      "outputs": [
        {
          "internalType": "address",
          "name": "",
          "type": "address"
        }
      ],
      "stateMutability": "view",
      "type": "function"
    },
    {
      "inputs": [
        {
          "internalType": "address",
          "name": "resident",
          "type": "address"
        }
      ],
      "name": "removeResident",
      "outputs": [],
      "stateMutability": "nonpayable",
      "type": "function"
    },
    {
      "inputs": [
        {
          "internalType": "string",
          "name": "title",
          "type": "string"
        }
      ],
      "name": "removeTopic",
      "outputs": [],
      "stateMutability": "nonpayable",
      "type": "function"
    },
    {
      "inputs": [
        {
          "internalType": "address",
          "name": "resident",
          "type": "address"
        },
        {
          "internalType": "bool",
          "name": "isEntering",
          "type": "bool"
        }
      ],
      "name": "setCounselor",
      "outputs": [],
      "stateMutability": "nonpayable",
      "type": "function"
    },
    {
      "inputs": [
        {
          "internalType": "address",
          "name": "newImplementation",
          "type": "address"
        }
      ],
      "name": "upgrade",
      "outputs": [],
      "stateMutability": "nonpayable",
      "type": "function"
    },
    {
      "inputs": [
        {
          "internalType": "string",
          "name": "title",
          "type": "string"
        },
        {
          "internalType": "enum CondominiumLib.VoteOptions",
          "name": "option",
          "type": "uint8"
        }
      ],
      "name": "vote",
      "outputs": [],
      "stateMutability": "nonpayable",
      "type": "function"
    }
  ],
  "bytecode": "0x60a060405234801561001057600080fd5b5061002b673d999bb1d0cddc2e60c01b61007e60201b60201c565b6100456793b408f25e30f67c60c01b61007e60201b60201c565b3373ffffffffffffffffffffffffffffffffffffffff1660808173ffffffffffffffffffffffffffffffffffffffff1681525050610081565b50565b60805161120a6100a36000396000818161023801526105ff015261120a6000f3fe608060405234801561001057600080fd5b50600436106100a95760003560e01c80638da5cb5b116100715780638da5cb5b1461013c5780638fc5dad81461015a57806390ca27f31461017657806396fa1def146101925780639e1bf985146101ae578063b1583546146101ca576100a9565b80630900f010146100ae5780630cbcae70146100ca57806343b8c6b1146100e8578063597de987146101045780637b57ee4914610120575b600080fd5b6100c860048036038101906100c39190610a91565b6101e6565b005b6100d261032f565b6040516100df9190610acd565b60405180910390f35b61010260048036038101906100fd9190610c89565b610393565b005b61011e60048036038101906101199190610a91565b610469565b005b61013a60048036038101906101359190610d3c565b610533565b005b6101446105fd565b6040516101519190610acd565b60405180910390f35b610174600480360381019061016f9190610d3c565b610621565b005b610190600480360381019061018b9190610daa565b6106eb565b005b6101ac60048036038101906101a79190610e3e565b6107b8565b005b6101c860048036038101906101c39190610d3c565b610885565b005b6101e460048036038101906101df9190610eb8565b61094f565b005b6101fa672eae6f7b62493f8560c01b610a1c565b61020e67eb438093a45fe8a860c01b610a1c565b61022267b08d0f2c6f921b2260c01b610a1c565b610236678d6566fa6f68a5d160c01b610a1c565b7f000000000000000000000000000000000000000000000000000000000000000073ffffffffffffffffffffffffffffffffffffffff163373ffffffffffffffffffffffffffffffffffffffff16146102c4576040517f08c379a00000000000000000000000000000000000000000000000000000000081526004016102bb90610f55565b60405180910390fd5b6102d867ea39ae027e4d053e60c01b610a1c565b6102ec67e100f40b06bdc74660c01b610a1c565b806000806101000a81548173ffffffffffffffffffffffffffffffffffffffff021916908373ffffffffffffffffffffffffffffffffffffffff16021790555050565b600061034567d51dd9cfe97513a860c01b610a1c565b61035967a574c6f09ef89cdb60c01b610a1c565b61036d675ea80a2eff07bd4a60c01b610a1c565b60008054906101000a900473ffffffffffffffffffffffffffffffffffffffff16905090565b6103a7670eb505460ab111ca60c01b610a1c565b6103bb674f54b4209b8cfd4560c01b610a1c565b6103cf6751beb3705c127ae860c01b610a1c565b60008054906101000a900473ffffffffffffffffffffffffffffffffffffffff1673ffffffffffffffffffffffffffffffffffffffff166343b8c6b186868686866040518663ffffffff1660e01b8152600401610430959493929190611069565b600060405180830381600087803b15801561044a57600080fd5b505af115801561045e573d6000803e3d6000fd5b505050505050505050565b61047d67b3509c423ba6ef2f60c01b610a1c565b610491678e092da7d43a6d4e60c01b610a1c565b6104a567dd3ac08d00e28f7e60c01b610a1c565b60008054906101000a900473ffffffffffffffffffffffffffffffffffffffff1673ffffffffffffffffffffffffffffffffffffffff1663597de987826040518263ffffffff1660e01b81526004016104fe9190610acd565b600060405180830381600087803b15801561051857600080fd5b505af115801561052c573d6000803e3d6000fd5b5050505050565b610547677f9ecf8f34ccd5f560c01b610a1c565b61055b67bee1b0c77ba5bebc60c01b610a1c565b61056f67c7bcd6dcbaa7dc3660c01b610a1c565b60008054906101000a900473ffffffffffffffffffffffffffffffffffffffff1673ffffffffffffffffffffffffffffffffffffffff16637b57ee49826040518263ffffffff1660e01b81526004016105c891906110ca565b600060405180830381600087803b1580156105e257600080fd5b505af11580156105f6573d6000803e3d6000fd5b5050505050565b7f000000000000000000000000000000000000000000000000000000000000000081565b61063567c1425902a0a1347760c01b610a1c565b61064967d1fa3995c37630b860c01b610a1c565b61065d67d395d6ba3bc972ae60c01b610a1c565b60008054906101000a900473ffffffffffffffffffffffffffffffffffffffff1673ffffffffffffffffffffffffffffffffffffffff16638fc5dad8826040518263ffffffff1660e01b81526004016106b691906110ca565b600060405180830381600087803b1580156106d057600080fd5b505af11580156106e4573d6000803e3d6000fd5b5050505050565b6106ff67efc287ba2db3d68f60c01b610a1c565b6107136798359ead6a7005c960c01b610a1c565b610727673b7986dd0b70d4a960c01b610a1c565b60008054906101000a900473ffffffffffffffffffffffffffffffffffffffff1673ffffffffffffffffffffffffffffffffffffffff166390ca27f383836040518363ffffffff1660e01b8152600401610782929190611134565b600060405180830381600087803b15801561079c57600080fd5b505af11580156107b0573d6000803e3d6000fd5b505050505050565b6107cc678b2edaec812a66f960c01b610a1c565b6107e067899a1cdc411c346760c01b610a1c565b6107f467866e1d9051d0338860c01b610a1c565b60008054906101000a900473ffffffffffffffffffffffffffffffffffffffff1673ffffffffffffffffffffffffffffffffffffffff166396fa1def83836040518363ffffffff1660e01b815260040161084f929190611173565b600060405180830381600087803b15801561086957600080fd5b505af115801561087d573d6000803e3d6000fd5b505050505050565b61089967e56f751a533cd6bb60c01b610a1c565b6108ad67f9f50a4f990e369360c01b610a1c565b6108c16727e9d7f489700e9960c01b610a1c565b60008054906101000a900473ffffffffffffffffffffffffffffffffffffffff1673ffffffffffffffffffffffffffffffffffffffff16639e1bf985826040518263ffffffff1660e01b815260040161091a91906110ca565b600060405180830381600087803b15801561093457600080fd5b505af1158015610948573d6000803e3d6000fd5b5050505050565b61096367ecd2c5ca205c0d1160c01b610a1c565b610977671f9ac9e0ccdf74c160c01b610a1c565b61098b67251a634c649906ea60c01b610a1c565b60008054906101000a900473ffffffffffffffffffffffffffffffffffffffff1673ffffffffffffffffffffffffffffffffffffffff1663b158354683836040518363ffffffff1660e01b81526004016109e69291906111ab565b600060405180830381600087803b158015610a0057600080fd5b505af1158015610a14573d6000803e3d6000fd5b505050505050565b50565b6000604051905090565b600080fd5b600080fd5b600073ffffffffffffffffffffffffffffffffffffffff82169050919050565b6000610a5e82610a33565b9050919050565b610a6e81610a53565b8114610a7957600080fd5b50565b600081359050610a8b81610a65565b92915050565b600060208284031215610aa757610aa6610a29565b5b6000610ab584828501610a7c565b91505092915050565b610ac781610a53565b82525050565b6000602082019050610ae26000830184610abe565b92915050565b600080fd5b600080fd5b6000601f19601f8301169050919050565b7f4e487b7100000000000000000000000000000000000000000000000000000000600052604160045260246000fd5b610b3b82610af2565b810181811067ffffffffffffffff82111715610b5a57610b59610b03565b5b80604052505050565b6000610b6d610a1f565b9050610b798282610b32565b919050565b600067ffffffffffffffff821115610b9957610b98610b03565b5b610ba282610af2565b9050602081019050919050565b82818337600083830152505050565b6000610bd1610bcc84610b7e565b610b63565b905082815260208101848484011115610bed57610bec610aed565b5b610bf8848285610baf565b509392505050565b600082601f830112610c1557610c14610ae8565b5b8135610c25848260208601610bbe565b91505092915050565b60048110610c3b57600080fd5b50565b600081359050610c4d81610c2e565b92915050565b6000819050919050565b610c6681610c53565b8114610c7157600080fd5b50565b600081359050610c8381610c5d565b92915050565b600080600080600060a08688031215610ca557610ca4610a29565b5b600086013567ffffffffffffffff811115610cc357610cc2610a2e565b5b610ccf88828901610c00565b955050602086013567ffffffffffffffff811115610cf057610cef610a2e565b5b610cfc88828901610c00565b9450506040610d0d88828901610c3e565b9350506060610d1e88828901610c74565b9250506080610d2f88828901610a7c565b9150509295509295909350565b600060208284031215610d5257610d51610a29565b5b600082013567ffffffffffffffff811115610d7057610d6f610a2e565b5b610d7c84828501610c00565b91505092915050565b60048110610d9257600080fd5b50565b600081359050610da481610d85565b92915050565b60008060408385031215610dc157610dc0610a29565b5b600083013567ffffffffffffffff811115610ddf57610dde610a2e565b5b610deb85828601610c00565b9250506020610dfc85828601610d95565b9150509250929050565b60008115159050919050565b610e1b81610e06565b8114610e2657600080fd5b50565b600081359050610e3881610e12565b92915050565b60008060408385031215610e5557610e54610a29565b5b6000610e6385828601610a7c565b9250506020610e7485828601610e29565b9150509250929050565b600061ffff82169050919050565b610e9581610e7e565b8114610ea057600080fd5b50565b600081359050610eb281610e8c565b92915050565b60008060408385031215610ecf57610ece610a29565b5b6000610edd85828601610a7c565b9250506020610eee85828601610ea3565b9150509250929050565b600082825260208201905092915050565b7f596f7520646f206e6f742068617665207065726d697373696f6e000000000000600082015250565b6000610f3f601a83610ef8565b9150610f4a82610f09565b602082019050919050565b60006020820190508181036000830152610f6e81610f32565b9050919050565b600081519050919050565b60005b83811015610f9e578082015181840152602081019050610f83565b60008484015250505050565b6000610fb582610f75565b610fbf8185610ef8565b9350610fcf818560208601610f80565b610fd881610af2565b840191505092915050565b7f4e487b7100000000000000000000000000000000000000000000000000000000600052602160045260246000fd5b6004811061102357611022610fe3565b5b50565b600081905061103482611012565b919050565b600061104482611026565b9050919050565b61105481611039565b82525050565b61106381610c53565b82525050565b600060a08201905081810360008301526110838188610faa565b905081810360208301526110978187610faa565b90506110a6604083018661104b565b6110b3606083018561105a565b6110c06080830184610abe565b9695505050505050565b600060208201905081810360008301526110e48184610faa565b905092915050565b600481106110fd576110fc610fe3565b5b50565b600081905061110e826110ec565b919050565b600061111e82611100565b9050919050565b61112e81611113565b82525050565b6000604082019050818103600083015261114e8185610faa565b905061115d6020830184611125565b9392505050565b61116d81610e06565b82525050565b60006040820190506111886000830185610abe565b6111956020830184611164565b9392505050565b6111a581610e7e565b82525050565b60006040820190506111c06000830185610abe565b6111cd602083018461119c565b939250505056fea264697066735822122010f3a07cd434edc9585101881b8568d2fc66ee78d63230063b40a693dd9f512264736f6c63430008180033",
  "linkReferences": {},
  "deployedLinkReferences": {}
}