{
  "_format": "hh-sol-artifact-1",
  "contractName": "CondominiumAdapter",
  "sourceName": "contracts/CondominiumAdapter.sol",
  "abi": [
    {
      "inputs": [],
      "stateMutability": "nonpayable",
      "type": "constructor"
    },
    {
      "inputs": [
        {
          "internalType": "address",
          "name": "resident",
          "type": "address"
        },
        {
          "internalType": "uint16",
          "name": "residenceNumber",
          "type": "uint16"
        }
      ],
      "name": "addResident",
      "outputs": [],
      "stateMutability": "nonpayable",
      "type": "function"
    },
    {
      "inputs": [
        {
          "internalType": "string",
          "name": "title",
          "type": "string"
        },
        {
          "internalType": "string",
          "name": "description",
          "type": "string"
        },
        {
          "internalType": "enum CondominiumLib.Category",
          "name": "category",
          "type": "uint8"
        },
        {
          "internalType": "uint256",
          "name": "amount",
          "type": "uint256"
        },
        {
          "internalType": "address",
          "name": "responsible",
          "type": "address"
        }
      ],
      "name": "addTopic",
      "outputs": [],
      "stateMutability": "nonpayable",
      "type": "function"
    },
    {
      "inputs": [
        {
          "internalType": "string",
          "name": "title",
          "type": "string"
        }
      ],
      "name": "closeVoting",
      "outputs": [],
      "stateMutability": "nonpayable",
      "type": "function"
    },
    {
      "inputs": [],
      "name": "getImplementationAddress",
      "outputs": [
        {
          "internalType": "address",
          "name": "",
          "type": "address"
        }
      ],
      "stateMutability": "view",
      "type": "function"
    },
    {
      "inputs": [
        {
          "internalType": "string",
          "name": "title",
          "type": "string"
        }
      ],
      "name": "openVoting",
      "outputs": [],
      "stateMutability": "nonpayable",
      "type": "function"
    },
    {
      "inputs": [],
      "name": "owner",
      "outputs": [
        {
          "internalType": "address",
          "name": "",
          "type": "address"
        }
      ],
      "stateMutability": "view",
      "type": "function"
    },
    {
      "inputs": [
        {
          "internalType": "address",
          "name": "resident",
          "type": "address"
        }
      ],
      "name": "removeResident",
      "outputs": [],
      "stateMutability": "nonpayable",
      "type": "function"
    },
    {
      "inputs": [
        {
          "internalType": "string",
          "name": "title",
          "type": "string"
        }
      ],
      "name": "removeTopic",
      "outputs": [],
      "stateMutability": "nonpayable",
      "type": "function"
    },
    {
      "inputs": [
        {
          "internalType": "address",
          "name": "resident",
          "type": "address"
        },
        {
          "internalType": "bool",
          "name": "isEntering",
          "type": "bool"
        }
      ],
      "name": "setCounselor",
      "outputs": [],
      "stateMutability": "nonpayable",
      "type": "function"
    },
    {
      "inputs": [
        {
          "internalType": "address",
          "name": "newImplementation",
          "type": "address"
        }
      ],
      "name": "upgrade",
      "outputs": [],
      "stateMutability": "nonpayable",
      "type": "function"
    },
    {
      "inputs": [
        {
          "internalType": "string",
          "name": "title",
          "type": "string"
        },
        {
          "internalType": "enum CondominiumLib.VoteOptions",
          "name": "option",
          "type": "uint8"
        }
      ],
      "name": "vote",
      "outputs": [],
      "stateMutability": "nonpayable",
      "type": "function"
    }
  ],
  "bytecode": "0x60a060405234801561001057600080fd5b503373ffffffffffffffffffffffffffffffffffffffff1660808173ffffffffffffffffffffffffffffffffffffffff1681525050608051610f74610067600039600081816101e801526104980152610f746000f3fe608060405234801561001057600080fd5b50600436106100a95760003560e01c80638da5cb5b116100715780638da5cb5b1461013c5780638fc5dad81461015a57806390ca27f31461017657806396fa1def146101925780639e1bf985146101ae578063b1583546146101ca576100a9565b80630900f010146100ae5780630cbcae70146100ca57806343b8c6b1146100e8578063597de987146101045780637b57ee4914610120575b600080fd5b6100c860048036038101906100c391906107fb565b6101e6565b005b6100d26102b7565b6040516100df9190610837565b60405180910390f35b61010260048036038101906100fd91906109f3565b6102e0565b005b61011e600480360381019061011991906107fb565b61037a565b005b61013a60048036038101906101359190610aa6565b610408565b005b610144610496565b6040516101519190610837565b60405180910390f35b610174600480360381019061016f9190610aa6565b6104ba565b005b610190600480360381019061018b9190610b14565b610548565b005b6101ac60048036038101906101a79190610ba8565b6105d9565b005b6101c860048036038101906101c39190610aa6565b61066a565b005b6101e460048036038101906101df9190610c22565b6106f8565b005b7f000000000000000000000000000000000000000000000000000000000000000073ffffffffffffffffffffffffffffffffffffffff163373ffffffffffffffffffffffffffffffffffffffff1614610274576040517f08c379a000000000000000000000000000000000000000000000000000000000815260040161026b90610cbf565b60405180910390fd5b806000806101000a81548173ffffffffffffffffffffffffffffffffffffffff021916908373ffffffffffffffffffffffffffffffffffffffff16021790555050565b60008060009054906101000a900473ffffffffffffffffffffffffffffffffffffffff16905090565b60008054906101000a900473ffffffffffffffffffffffffffffffffffffffff1673ffffffffffffffffffffffffffffffffffffffff166343b8c6b186868686866040518663ffffffff1660e01b8152600401610341959493929190610dd3565b600060405180830381600087803b15801561035b57600080fd5b505af115801561036f573d6000803e3d6000fd5b505050505050505050565b60008054906101000a900473ffffffffffffffffffffffffffffffffffffffff1673ffffffffffffffffffffffffffffffffffffffff1663597de987826040518263ffffffff1660e01b81526004016103d39190610837565b600060405180830381600087803b1580156103ed57600080fd5b505af1158015610401573d6000803e3d6000fd5b5050505050565b60008054906101000a900473ffffffffffffffffffffffffffffffffffffffff1673ffffffffffffffffffffffffffffffffffffffff16637b57ee49826040518263ffffffff1660e01b81526004016104619190610e34565b600060405180830381600087803b15801561047b57600080fd5b505af115801561048f573d6000803e3d6000fd5b5050505050565b7f000000000000000000000000000000000000000000000000000000000000000081565b60008054906101000a900473ffffffffffffffffffffffffffffffffffffffff1673ffffffffffffffffffffffffffffffffffffffff16638fc5dad8826040518263ffffffff1660e01b81526004016105139190610e34565b600060405180830381600087803b15801561052d57600080fd5b505af1158015610541573d6000803e3d6000fd5b5050505050565b60008054906101000a900473ffffffffffffffffffffffffffffffffffffffff1673ffffffffffffffffffffffffffffffffffffffff166390ca27f383836040518363ffffffff1660e01b81526004016105a3929190610e9e565b600060405180830381600087803b1580156105bd57600080fd5b505af11580156105d1573d6000803e3d6000fd5b505050505050565b60008054906101000a900473ffffffffffffffffffffffffffffffffffffffff1673ffffffffffffffffffffffffffffffffffffffff166396fa1def83836040518363ffffffff1660e01b8152600401610634929190610edd565b600060405180830381600087803b15801561064e57600080fd5b505af1158015610662573d6000803e3d6000fd5b505050505050565b60008054906101000a900473ffffffffffffffffffffffffffffffffffffffff1673ffffffffffffffffffffffffffffffffffffffff16639e1bf985826040518263ffffffff1660e01b81526004016106c39190610e34565b600060405180830381600087803b1580156106dd57600080fd5b505af11580156106f1573d6000803e3d6000fd5b5050505050565b60008054906101000a900473ffffffffffffffffffffffffffffffffffffffff1673ffffffffffffffffffffffffffffffffffffffff1663b158354683836040518363ffffffff1660e01b8152600401610753929190610f15565b600060405180830381600087803b15801561076d57600080fd5b505af1158015610781573d6000803e3d6000fd5b505050505050565b6000604051905090565b600080fd5b600080fd5b600073ffffffffffffffffffffffffffffffffffffffff82169050919050565b60006107c88261079d565b9050919050565b6107d8816107bd565b81146107e357600080fd5b50565b6000813590506107f5816107cf565b92915050565b60006020828403121561081157610810610793565b5b600061081f848285016107e6565b91505092915050565b610831816107bd565b82525050565b600060208201905061084c6000830184610828565b92915050565b600080fd5b600080fd5b6000601f19601f8301169050919050565b7f4e487b7100000000000000000000000000000000000000000000000000000000600052604160045260246000fd5b6108a58261085c565b810181811067ffffffffffffffff821117156108c4576108c361086d565b5b80604052505050565b60006108d7610789565b90506108e3828261089c565b919050565b600067ffffffffffffffff8211156109035761090261086d565b5b61090c8261085c565b9050602081019050919050565b82818337600083830152505050565b600061093b610936846108e8565b6108cd565b90508281526020810184848401111561095757610956610857565b5b610962848285610919565b509392505050565b600082601f83011261097f5761097e610852565b5b813561098f848260208601610928565b91505092915050565b600481106109a557600080fd5b50565b6000813590506109b781610998565b92915050565b6000819050919050565b6109d0816109bd565b81146109db57600080fd5b50565b6000813590506109ed816109c7565b92915050565b600080600080600060a08688031215610a0f57610a0e610793565b5b600086013567ffffffffffffffff811115610a2d57610a2c610798565b5b610a398882890161096a565b955050602086013567ffffffffffffffff811115610a5a57610a59610798565b5b610a668882890161096a565b9450506040610a77888289016109a8565b9350506060610a88888289016109de565b9250506080610a99888289016107e6565b9150509295509295909350565b600060208284031215610abc57610abb610793565b5b600082013567ffffffffffffffff811115610ada57610ad9610798565b5b610ae68482850161096a565b91505092915050565b60048110610afc57600080fd5b50565b600081359050610b0e81610aef565b92915050565b60008060408385031215610b2b57610b2a610793565b5b600083013567ffffffffffffffff811115610b4957610b48610798565b5b610b558582860161096a565b9250506020610b6685828601610aff565b9150509250929050565b60008115159050919050565b610b8581610b70565b8114610b9057600080fd5b50565b600081359050610ba281610b7c565b92915050565b60008060408385031215610bbf57610bbe610793565b5b6000610bcd858286016107e6565b9250506020610bde85828601610b93565b9150509250929050565b600061ffff82169050919050565b610bff81610be8565b8114610c0a57600080fd5b50565b600081359050610c1c81610bf6565b92915050565b60008060408385031215610c3957610c38610793565b5b6000610c47858286016107e6565b9250506020610c5885828601610c0d565b9150509250929050565b600082825260208201905092915050565b7f596f7520646f206e6f742068617665207065726d697373696f6e000000000000600082015250565b6000610ca9601a83610c62565b9150610cb482610c73565b602082019050919050565b60006020820190508181036000830152610cd881610c9c565b9050919050565b600081519050919050565b60005b83811015610d08578082015181840152602081019050610ced565b60008484015250505050565b6000610d1f82610cdf565b610d298185610c62565b9350610d39818560208601610cea565b610d428161085c565b840191505092915050565b7f4e487b7100000000000000000000000000000000000000000000000000000000600052602160045260246000fd5b60048110610d8d57610d8c610d4d565b5b50565b6000819050610d9e82610d7c565b919050565b6000610dae82610d90565b9050919050565b610dbe81610da3565b82525050565b610dcd816109bd565b82525050565b600060a0820190508181036000830152610ded8188610d14565b90508181036020830152610e018187610d14565b9050610e106040830186610db5565b610e1d6060830185610dc4565b610e2a6080830184610828565b9695505050505050565b60006020820190508181036000830152610e4e8184610d14565b905092915050565b60048110610e6757610e66610d4d565b5b50565b6000819050610e7882610e56565b919050565b6000610e8882610e6a565b9050919050565b610e9881610e7d565b82525050565b60006040820190508181036000830152610eb88185610d14565b9050610ec76020830184610e8f565b9392505050565b610ed781610b70565b82525050565b6000604082019050610ef26000830185610828565b610eff6020830184610ece565b9392505050565b610f0f81610be8565b82525050565b6000604082019050610f2a6000830185610828565b610f376020830184610f06565b939250505056fea264697066735822122049849ff3d053941cb940d96ef90b1e2a71dd0482f1d299b06af614e5fd349b7a64736f6c63430008180033",
  "linkReferences": {},
  "deployedLinkReferences": {}
}