{
  "_format": "hh-sol-artifact-1",
  "contractName": "CondominiumAdapter",
  "sourceName": "contracts/CondominiumAdapter.sol",
  "abi": [
    {
      "inputs": [],
      "stateMutability": "nonpayable",
      "type": "constructor"
    },
    {
      "anonymous": false,
      "inputs": [
        {
          "indexed": false,
          "internalType": "address",
          "name": "manager",
          "type": "address"
        }
      ],
      "name": "ManagerChanged",
      "type": "event"
    },
    {
      "anonymous": false,
      "inputs": [
        {
          "indexed": false,
          "internalType": "uint256",
          "name": "amount",
          "type": "uint256"
        }
      ],
      "name": "QuotaChanged",
      "type": "event"
    },
    {
      "anonymous": false,
      "inputs": [
        {
          "indexed": true,
          "internalType": "bytes32",
          "name": "topicId",
          "type": "bytes32"
        },
        {
          "indexed": false,
          "internalType": "string",
          "name": "title",
          "type": "string"
        },
        {
          "indexed": true,
          "internalType": "enum CondominiumLib.Status",
          "name": "status",
          "type": "uint8"
        }
      ],
      "name": "TopicChanged",
      "type": "event"
    },
    {
      "anonymous": false,
      "inputs": [
        {
          "indexed": false,
          "internalType": "address",
          "name": "to",
          "type": "address"
        },
        {
          "indexed": true,
          "internalType": "uint256",
          "name": "amount",
          "type": "uint256"
        },
        {
          "indexed": false,
          "internalType": "string",
          "name": "topic",
          "type": "string"
        }
      ],
      "name": "Transfer",
      "type": "event"
    },
    {
      "inputs": [
        {
          "internalType": "address",
          "name": "resident",
          "type": "address"
        },
        {
          "internalType": "uint16",
          "name": "residenceNumber",
          "type": "uint16"
        }
      ],
      "name": "addResident",
      "outputs": [],
      "stateMutability": "nonpayable",
      "type": "function"
    },
    {
      "inputs": [
        {
          "internalType": "string",
          "name": "title",
          "type": "string"
        },
        {
          "internalType": "string",
          "name": "description",
          "type": "string"
        },
        {
          "internalType": "enum CondominiumLib.Category",
          "name": "category",
          "type": "uint8"
        },
        {
          "internalType": "uint256",
          "name": "amount",
          "type": "uint256"
        },
        {
          "internalType": "address",
          "name": "responsible",
          "type": "address"
        }
      ],
      "name": "addTopic",
      "outputs": [],
      "stateMutability": "nonpayable",
      "type": "function"
    },
    {
      "inputs": [
        {
          "internalType": "string",
          "name": "title",
          "type": "string"
        }
      ],
      "name": "closeVoting",
      "outputs": [],
      "stateMutability": "nonpayable",
      "type": "function"
    },
    {
      "inputs": [
        {
          "internalType": "string",
          "name": "topicToEdit",
          "type": "string"
        },
        {
          "internalType": "string",
          "name": "description",
          "type": "string"
        },
        {
          "internalType": "uint256",
          "name": "amount",
          "type": "uint256"
        },
        {
          "internalType": "address",
          "name": "responsible",
          "type": "address"
        }
      ],
      "name": "editTopic",
      "outputs": [],
      "stateMutability": "nonpayable",
      "type": "function"
    },
    {
      "inputs": [],
      "name": "getImplementationAddress",
      "outputs": [
        {
          "internalType": "address",
          "name": "",
          "type": "address"
        }
      ],
      "stateMutability": "view",
      "type": "function"
    },
    {
      "inputs": [],
      "name": "getManager",
      "outputs": [
        {
          "internalType": "address",
          "name": "",
          "type": "address"
        }
      ],
      "stateMutability": "view",
      "type": "function"
    },
    {
      "inputs": [],
      "name": "getQuota",
      "outputs": [
        {
          "internalType": "uint256",
          "name": "",
          "type": "uint256"
        }
      ],
      "stateMutability": "view",
      "type": "function"
    },
    {
      "inputs": [
        {
          "internalType": "address",
          "name": "resident",
          "type": "address"
        }
      ],
      "name": "getResident",
      "outputs": [
        {
          "components": [
            {
              "internalType": "address",
              "name": "wallet",
              "type": "address"
            },
            {
              "internalType": "uint16",
              "name": "residence",
              "type": "uint16"
            },
            {
              "internalType": "bool",
              "name": "isCounselor",
              "type": "bool"
            },
            {
              "internalType": "bool",
              "name": "isManager",
              "type": "bool"
            },
            {
              "internalType": "uint256",
              "name": "nextPayment",
              "type": "uint256"
            }
          ],
          "internalType": "struct CondominiumLib.Resident",
          "name": "",
          "type": "tuple"
        }
      ],
      "stateMutability": "view",
      "type": "function"
    },
    {
      "inputs": [
        {
          "internalType": "uint256",
          "name": "page",
          "type": "uint256"
        },
        {
          "internalType": "uint256",
          "name": "pageSize",
          "type": "uint256"
        }
      ],
      "name": "getResidents",
      "outputs": [
        {
          "components": [
            {
              "components": [
                {
                  "internalType": "address",
                  "name": "wallet",
                  "type": "address"
                },
                {
                  "internalType": "uint16",
                  "name": "residence",
                  "type": "uint16"
                },
                {
                  "internalType": "bool",
                  "name": "isCounselor",
                  "type": "bool"
                },
                {
                  "internalType": "bool",
                  "name": "isManager",
                  "type": "bool"
                },
                {
                  "internalType": "uint256",
                  "name": "nextPayment",
                  "type": "uint256"
                }
              ],
              "internalType": "struct CondominiumLib.Resident[]",
              "name": "residents",
              "type": "tuple[]"
            },
            {
              "internalType": "uint256",
              "name": "total",
              "type": "uint256"
            }
          ],
          "internalType": "struct CondominiumLib.ResidentPage",
          "name": "",
          "type": "tuple"
        }
      ],
      "stateMutability": "view",
      "type": "function"
    },
    {
      "inputs": [
        {
          "internalType": "string",
          "name": "title",
          "type": "string"
        }
      ],
      "name": "getTopic",
      "outputs": [
        {
          "components": [
            {
              "internalType": "string",
              "name": "title",
              "type": "string"
            },
            {
              "internalType": "string",
              "name": "description",
              "type": "string"
            },
            {
              "internalType": "enum CondominiumLib.Status",
              "name": "status",
              "type": "uint8"
            },
            {
              "internalType": "uint256",
              "name": "createdDate",
              "type": "uint256"
            },
            {
              "internalType": "uint256",
              "name": "startDate",
              "type": "uint256"
            },
            {
              "internalType": "uint256",
              "name": "endDate",
              "type": "uint256"
            },
            {
              "internalType": "enum CondominiumLib.Category",
              "name": "category",
              "type": "uint8"
            },
            {
              "internalType": "uint256",
              "name": "amount",
              "type": "uint256"
            },
            {
              "internalType": "address",
              "name": "responsible",
              "type": "address"
            }
          ],
          "internalType": "struct CondominiumLib.Topic",
          "name": "",
          "type": "tuple"
        }
      ],
      "stateMutability": "view",
      "type": "function"
    },
    {
      "inputs": [
        {
          "internalType": "uint256",
          "name": "page",
          "type": "uint256"
        },
        {
          "internalType": "uint256",
          "name": "pageSize",
          "type": "uint256"
        }
      ],
      "name": "getTopics",
      "outputs": [
        {
          "components": [
            {
              "components": [
                {
                  "internalType": "string",
                  "name": "title",
                  "type": "string"
                },
                {
                  "internalType": "string",
                  "name": "description",
                  "type": "string"
                },
                {
                  "internalType": "enum CondominiumLib.Status",
                  "name": "status",
                  "type": "uint8"
                },
                {
                  "internalType": "uint256",
                  "name": "createdDate",
                  "type": "uint256"
                },
                {
                  "internalType": "uint256",
                  "name": "startDate",
                  "type": "uint256"
                },
                {
                  "internalType": "uint256",
                  "name": "endDate",
                  "type": "uint256"
                },
                {
                  "internalType": "enum CondominiumLib.Category",
                  "name": "category",
                  "type": "uint8"
                },
                {
                  "internalType": "uint256",
                  "name": "amount",
                  "type": "uint256"
                },
                {
                  "internalType": "address",
                  "name": "responsible",
                  "type": "address"
                }
              ],
              "internalType": "struct CondominiumLib.Topic[]",
              "name": "topics",
              "type": "tuple[]"
            },
            {
              "internalType": "uint256",
              "name": "total",
              "type": "uint256"
            }
          ],
          "internalType": "struct CondominiumLib.TopicPage",
          "name": "",
          "type": "tuple"
        }
      ],
      "stateMutability": "view",
      "type": "function"
    },
    {
      "inputs": [
        {
          "internalType": "string",
          "name": "topicTitle",
          "type": "string"
        }
      ],
      "name": "getVotes",
      "outputs": [
        {
          "components": [
            {
              "internalType": "address",
              "name": "resident",
              "type": "address"
            },
            {
              "internalType": "uint16",
              "name": "residence",
              "type": "uint16"
            },
            {
              "internalType": "enum CondominiumLib.VoteOptions",
              "name": "option",
              "type": "uint8"
            },
            {
              "internalType": "uint256",
              "name": "timestamp",
              "type": "uint256"
            }
          ],
          "internalType": "struct CondominiumLib.Vote[]",
          "name": "",
          "type": "tuple[]"
        }
      ],
      "stateMutability": "view",
      "type": "function"
    },
    {
      "inputs": [
        {
          "internalType": "string",
          "name": "title",
          "type": "string"
        }
      ],
      "name": "openVoting",
      "outputs": [],
      "stateMutability": "nonpayable",
      "type": "function"
    },
    {
      "inputs": [],
      "name": "owner",
      "outputs": [
        {
          "internalType": "address",
          "name": "",
          "type": "address"
        }
      ],
      "stateMutability": "view",
      "type": "function"
    },
    {
      "inputs": [
        {
          "internalType": "uint16",
          "name": "residence",
          "type": "uint16"
        }
      ],
      "name": "payQuota",
      "outputs": [],
      "stateMutability": "payable",
      "type": "function"
    },
    {
      "inputs": [
        {
          "internalType": "address",
          "name": "resident",
          "type": "address"
        }
      ],
      "name": "removeResident",
      "outputs": [],
      "stateMutability": "nonpayable",
      "type": "function"
    },
    {
      "inputs": [
        {
          "internalType": "string",
          "name": "title",
          "type": "string"
        }
      ],
      "name": "removeTopic",
      "outputs": [],
      "stateMutability": "nonpayable",
      "type": "function"
    },
    {
      "inputs": [
        {
          "internalType": "address",
          "name": "resident",
          "type": "address"
        },
        {
          "internalType": "bool",
          "name": "isEntering",
          "type": "bool"
        }
      ],
      "name": "setCounselor",
      "outputs": [],
      "stateMutability": "nonpayable",
      "type": "function"
    },
    {
      "inputs": [
        {
          "internalType": "string",
          "name": "title",
          "type": "string"
        },
        {
          "internalType": "uint256",
          "name": "amount",
          "type": "uint256"
        }
      ],
      "name": "transfer",
      "outputs": [],
      "stateMutability": "nonpayable",
      "type": "function"
    },
    {
      "inputs": [
        {
          "internalType": "address",
          "name": "newImplementation",
          "type": "address"
        }
      ],
      "name": "upgrade",
      "outputs": [],
      "stateMutability": "nonpayable",
      "type": "function"
    },
    {
      "inputs": [
        {
          "internalType": "string",
          "name": "title",
          "type": "string"
        },
        {
          "internalType": "enum CondominiumLib.VoteOptions",
          "name": "option",
          "type": "uint8"
        }
      ],
      "name": "vote",
      "outputs": [],
      "stateMutability": "nonpayable",
      "type": "function"
    }
  ],
  "bytecode": "0x60a06040523480156200001157600080fd5b506200002e6795353e6f953f016b60c01b6200008460201b60201c565b6200004a67f5b854669796387a60c01b6200008460201b60201c565b3373ffffffffffffffffffffffffffffffffffffffff1660808173ffffffffffffffffffffffffffffffffffffffff168152505062000087565b50565b608051614e5b620000aa6000396000818161057d0152611a550152614e5b6000f3fe60806040526004361061016a5760003560e01c8063805265e5116100cb5780639e1bf9851161007f578063c12e806311610059578063c12e8063146104bb578063d5009584146104d7578063eaf5d9dc146105025761016a565b80639e1bf9851461042c578063a7107f0214610455578063b1583546146104925761016a565b80638fc5dad8116100b05780638fc5dad8146103b157806390ca27f3146103da57806396fa1def146104035761016a565b8063805265e5146103495780638da5cb5b146103865761016a565b8063474502d811610122578063597de98711610107578063597de987146102ba5780637932938b146102e35780637b57ee49146103205761016a565b8063474502d81461024057806356ea46d91461027d5761016a565b806312cb70c71161015357806312cb70c7146101c35780631df8ba77146101ec57806343b8c6b1146102175761016a565b80630900f0101461016f5780630cbcae7014610198575b600080fd5b34801561017b57600080fd5b5061019660048036038101906101919190613312565b61052b565b005b3480156101a457600080fd5b506101ad610674565b6040516101ba919061334e565b60405180910390f35b3480156101cf57600080fd5b506101ea60048036038101906101e591906134e5565b6106d8565b005b3480156101f857600080fd5b5061020161095e565b60405161020e9190613550565b60405180910390f35b34801561022357600080fd5b5061023e60048036038101906102399190613590565b610b5e565b005b34801561024c57600080fd5b5061026760048036038101906102629190613643565b610d63565b60405161027491906138b4565b60405180910390f35b34801561028957600080fd5b506102a4600480360381019061029f91906138d6565b610f7c565b6040516102b19190613ae1565b60405180910390f35b3480156102c657600080fd5b506102e160048036038101906102dc9190613312565b611198565b005b3480156102ef57600080fd5b5061030a600480360381019061030591906138d6565b611391565b6040516103179190613c8f565b60405180910390f35b34801561032c57600080fd5b5061034760048036038101906103429190613643565b6115ad565b005b34801561035557600080fd5b50610370600480360381019061036b9190613643565b611841565b60405161037d9190613dfd565b60405180910390f35b34801561039257600080fd5b5061039b611a53565b6040516103a8919061334e565b60405180910390f35b3480156103bd57600080fd5b506103d860048036038101906103d39190613643565b611a77565b005b3480156103e657600080fd5b5061040160048036038101906103fc9190613e44565b612062565b005b34801561040f57600080fd5b5061042a60048036038101906104259190613ecc565b61225e565b005b34801561043857600080fd5b50610453600480360381019061044e9190613643565b61245a565b005b34801561046157600080fd5b5061047c60048036038101906104779190613312565b6126ee565b6040516104899190613f74565b60405180910390f35b34801561049e57600080fd5b506104b960048036038101906104b49190613fbb565b612902565b005b6104d560048036038101906104d09190613ffb565b612afe565b005b3480156104e357600080fd5b506104ec612cf8565b6040516104f9919061334e565b60405180910390f35b34801561050e57600080fd5b5061052960048036038101906105249190614028565b612ef9565b005b61053f67386ef666d06ea50060c01b613196565b61055367d74f8a2d921d6cd360c01b613196565b61056767cdd71641a1b2f01260c01b613196565b61057b671c0ef4cf061c591260c01b613196565b7f000000000000000000000000000000000000000000000000000000000000000073ffffffffffffffffffffffffffffffffffffffff163373ffffffffffffffffffffffffffffffffffffffff1614610609576040517f08c379a000000000000000000000000000000000000000000000000000000000815260040161060090614124565b60405180910390fd5b61061d67c94b83fb64c3ef3d60c01b613196565b610631674727867bc369d19f60c01b613196565b806000806101000a81548173ffffffffffffffffffffffffffffffffffffffff021916908373ffffffffffffffffffffffffffffffffffffffff16021790555050565b600061068a673bf9bae9ee4fff7860c01b613196565b61069e67318b0c93da31fac660c01b613196565b6106b2670ad0a18312c4c51260c01b613196565b60008054906101000a900473ffffffffffffffffffffffffffffffffffffffff16905090565b6106ec67538343e00f53c5a460c01b613196565b610700671ec3b0962430f13160c01b613196565b61071467643c3d23f9a5972560c01b613196565b61072867c62921798a00adb160c01b613196565b61073c67ab51f5e5923b383b60c01b613196565b600073ffffffffffffffffffffffffffffffffffffffff1660008054906101000a900473ffffffffffffffffffffffffffffffffffffffff1673ffffffffffffffffffffffffffffffffffffffff16036107cb576040517f08c379a00000000000000000000000000000000000000000000000000000000081526004016107c290614190565b60405180910390fd5b6107df679c5318813ac5cb7660c01b613196565b6107f367602e87d4def3008d60c01b613196565b610807672a07006ef2141d9d60c01b613196565b61081b673c48cb291c60096660c01b613196565b61082f670a289ed1fb2cb3a260c01b613196565b61084367aa7480f7b6fab83c60c01b613196565b60008060009054906101000a900473ffffffffffffffffffffffffffffffffffffffff1673ffffffffffffffffffffffffffffffffffffffff166312cb70c784846040518363ffffffff1660e01b81526004016108a19291906141e9565b6000604051808303816000875af11580156108c0573d6000803e3d6000fd5b505050506040513d6000823e3d601f19601f820116820180604052508101906108e9919061433d565b90506108ff67c77403710f6e1b0d60c01b613196565b61091367e2226865e660d92f60c01b613196565b80602001517feb10b79f28ae0b520cb7ee8e40115f547bfac852d7167a55d9ae8e028ee23a1182600001518360400151604051610951929190614386565b60405180910390a2505050565b600061097467d91f06864490e46d60c01b613196565b610988671ec3b0962430f13160c01b613196565b61099c67643c3d23f9a5972560c01b613196565b6109b067c62921798a00adb160c01b613196565b6109c467ab51f5e5923b383b60c01b613196565b600073ffffffffffffffffffffffffffffffffffffffff1660008054906101000a900473ffffffffffffffffffffffffffffffffffffffff1673ffffffffffffffffffffffffffffffffffffffff1603610a53576040517f08c379a0000000000000000000000000000000000000000000000000000000008152600401610a4a90614190565b60405180910390fd5b610a67679c5318813ac5cb7660c01b613196565b610a7b67602e87d4def3008d60c01b613196565b610a8f67b7d38582d824df7e60c01b613196565b610aa266df03b2745161a260c01b613196565b610ab667fbfc2a2588a7dac060c01b613196565b610aca6785b9cf11dba485c360c01b613196565b60008054906101000a900473ffffffffffffffffffffffffffffffffffffffff1673ffffffffffffffffffffffffffffffffffffffff16631df8ba776040518163ffffffff1660e01b8152600401602060405180830381865afa158015610b35573d6000803e3d6000fd5b505050506040513d601f19601f82011682018060405250810190610b5991906143b6565b905090565b610b7267a1f5a40db94279cf60c01b613196565b610b86671ec3b0962430f13160c01b613196565b610b9a67643c3d23f9a5972560c01b613196565b610bae67c62921798a00adb160c01b613196565b610bc267ab51f5e5923b383b60c01b613196565b600073ffffffffffffffffffffffffffffffffffffffff1660008054906101000a900473ffffffffffffffffffffffffffffffffffffffff1673ffffffffffffffffffffffffffffffffffffffff1603610c51576040517f08c379a0000000000000000000000000000000000000000000000000000000008152600401610c4890614190565b60405180910390fd5b610c65679c5318813ac5cb7660c01b613196565b610c7967602e87d4def3008d60c01b613196565b610c8d6782159bc53f12c1f860c01b613196565b610ca16772bcdb7e6aae06f760c01b613196565b610cb567ef435522c39bb84860c01b613196565b610cc967b4004a9e03903ea960c01b613196565b60008054906101000a900473ffffffffffffffffffffffffffffffffffffffff1673ffffffffffffffffffffffffffffffffffffffff166343b8c6b186868686866040518663ffffffff1660e01b8152600401610d2a9594939291906143f2565b600060405180830381600087803b158015610d4457600080fd5b505af1158015610d58573d6000803e3d6000fd5b505050505050505050565b610d6b613199565b610d7f67d035d5369558cf6160c01b613196565b610d93671ec3b0962430f13160c01b613196565b610da767643c3d23f9a5972560c01b613196565b610dbb67c62921798a00adb160c01b613196565b610dcf67ab51f5e5923b383b60c01b613196565b600073ffffffffffffffffffffffffffffffffffffffff1660008054906101000a900473ffffffffffffffffffffffffffffffffffffffff1673ffffffffffffffffffffffffffffffffffffffff1603610e5e576040517f08c379a0000000000000000000000000000000000000000000000000000000008152600401610e5590614190565b60405180910390fd5b610e72679c5318813ac5cb7660c01b613196565b610e8667602e87d4def3008d60c01b613196565b610e9a6742f95ea887d5052b60c01b613196565b610eae67501feec78e2651cc60c01b613196565b610ec267c56f8404609a915860c01b613196565b610ed667166b3ae2a6c5d8e860c01b613196565b60008054906101000a900473ffffffffffffffffffffffffffffffffffffffff1673ffffffffffffffffffffffffffffffffffffffff1663474502d8836040518263ffffffff1660e01b8152600401610f2f9190614453565b600060405180830381865afa158015610f4c573d6000803e3d6000fd5b505050506040513d6000823e3d601f19601f82011682018060405250810190610f7591906145c7565b9050919050565b610f8461321f565b610f9867e2f486611f6bfe3060c01b613196565b610fac671ec3b0962430f13160c01b613196565b610fc067643c3d23f9a5972560c01b613196565b610fd467c62921798a00adb160c01b613196565b610fe867ab51f5e5923b383b60c01b613196565b600073ffffffffffffffffffffffffffffffffffffffff1660008054906101000a900473ffffffffffffffffffffffffffffffffffffffff1673ffffffffffffffffffffffffffffffffffffffff1603611077576040517f08c379a000000000000000000000000000000000000000000000000000000000815260040161106e90614190565b60405180910390fd5b61108b679c5318813ac5cb7660c01b613196565b61109f67602e87d4def3008d60c01b613196565b6110b3671626d8e8507d806460c01b613196565b6110c76724beee836a28b3e060c01b613196565b6110db67a416989bc2d82a9f60c01b613196565b6110ef672eab0f7aa23c3f9560c01b613196565b60008054906101000a900473ffffffffffffffffffffffffffffffffffffffff1673ffffffffffffffffffffffffffffffffffffffff166356ea46d984846040518363ffffffff1660e01b815260040161114a929190614610565b600060405180830381865afa158015611167573d6000803e3d6000fd5b505050506040513d6000823e3d601f19601f82011682018060405250810190611190919061478b565b905092915050565b6111ac6774509212fa15054560c01b613196565b6111c0671ec3b0962430f13160c01b613196565b6111d467643c3d23f9a5972560c01b613196565b6111e867c62921798a00adb160c01b613196565b6111fc67ab51f5e5923b383b60c01b613196565b600073ffffffffffffffffffffffffffffffffffffffff1660008054906101000a900473ffffffffffffffffffffffffffffffffffffffff1673ffffffffffffffffffffffffffffffffffffffff160361128b576040517f08c379a000000000000000000000000000000000000000000000000000000000815260040161128290614190565b60405180910390fd5b61129f679c5318813ac5cb7660c01b613196565b6112b367602e87d4def3008d60c01b613196565b6112c767f7d89cb40eee640060c01b613196565b6112db673e744a139d1dfcb760c01b613196565b6112ef674e2a750a878a75d660c01b613196565b61130367e991139197e4d2a160c01b613196565b60008054906101000a900473ffffffffffffffffffffffffffffffffffffffff1673ffffffffffffffffffffffffffffffffffffffff1663597de987826040518263ffffffff1660e01b815260040161135c919061334e565b600060405180830381600087803b15801561137657600080fd5b505af115801561138a573d6000803e3d6000fd5b5050505050565b611399613239565b6113ad674be48e8d51436a6f60c01b613196565b6113c1671ec3b0962430f13160c01b613196565b6113d567643c3d23f9a5972560c01b613196565b6113e967c62921798a00adb160c01b613196565b6113fd67ab51f5e5923b383b60c01b613196565b600073ffffffffffffffffffffffffffffffffffffffff1660008054906101000a900473ffffffffffffffffffffffffffffffffffffffff1673ffffffffffffffffffffffffffffffffffffffff160361148c576040517f08c379a000000000000000000000000000000000000000000000000000000000815260040161148390614190565b60405180910390fd5b6114a0679c5318813ac5cb7660c01b613196565b6114b467602e87d4def3008d60c01b613196565b6114c8671834befbc7e8bd9360c01b613196565b6114dc67b7da1880c4da73be60c01b613196565b6114f067f8ede010396f720e60c01b613196565b611504677ed13ca59149e96b60c01b613196565b60008054906101000a900473ffffffffffffffffffffffffffffffffffffffff1673ffffffffffffffffffffffffffffffffffffffff16637932938b84846040518363ffffffff1660e01b815260040161155f929190614610565b600060405180830381865afa15801561157c573d6000803e3d6000fd5b505050506040513d6000823e3d601f19601f820116820180604052508101906115a591906149b9565b905092915050565b6115c1671e4c1e0d7f50d25060c01b613196565b6115d5671ec3b0962430f13160c01b613196565b6115e967643c3d23f9a5972560c01b613196565b6115fd67c62921798a00adb160c01b613196565b61161167ab51f5e5923b383b60c01b613196565b600073ffffffffffffffffffffffffffffffffffffffff1660008054906101000a900473ffffffffffffffffffffffffffffffffffffffff1673ffffffffffffffffffffffffffffffffffffffff16036116a0576040517f08c379a000000000000000000000000000000000000000000000000000000000815260040161169790614190565b60405180910390fd5b6116b4679c5318813ac5cb7660c01b613196565b6116c867602e87d4def3008d60c01b613196565b6116dc6708fd6cbc331f2f3160c01b613196565b6116f067c8f4e677d14eeef260c01b613196565b61170467eaccb5d382cbef2560c01b613196565b611718671f5438ddca76780d60c01b613196565b60008060009054906101000a900473ffffffffffffffffffffffffffffffffffffffff1673ffffffffffffffffffffffffffffffffffffffff16637b57ee49836040518263ffffffff1660e01b81526004016117749190614453565b6000604051808303816000875af1158015611793573d6000803e3d6000fd5b505050506040513d6000823e3d601f19601f820116820180604052508101906117bc9190614acc565b90506117d267833ce72e22b5692d60c01b613196565b6117e6674826d44a2a87ef6360c01b613196565b806040015160058111156117fd576117fc61370b565b5b81600001517fefe93f21a3369f1228a2589883bc377a76d7335daddc712853688de4617f82ab83602001516040516118359190614453565b60405180910390a35050565b60606118576764338ef4e9ba62c160c01b613196565b61186b671ec3b0962430f13160c01b613196565b61187f67643c3d23f9a5972560c01b613196565b61189367c62921798a00adb160c01b613196565b6118a767ab51f5e5923b383b60c01b613196565b600073ffffffffffffffffffffffffffffffffffffffff1660008054906101000a900473ffffffffffffffffffffffffffffffffffffffff1673ffffffffffffffffffffffffffffffffffffffff1603611936576040517f08c379a000000000000000000000000000000000000000000000000000000000815260040161192d90614190565b60405180910390fd5b61194a679c5318813ac5cb7660c01b613196565b61195e67602e87d4def3008d60c01b613196565b61197166208928241fe72160c01b613196565b61198567df1a1cd6d2a8884760c01b613196565b61199967a64e2510c78fd0ef60c01b613196565b6119ad678db30b0e7312c49a60c01b613196565b60008054906101000a900473ffffffffffffffffffffffffffffffffffffffff1673ffffffffffffffffffffffffffffffffffffffff1663805265e5836040518263ffffffff1660e01b8152600401611a069190614453565b600060405180830381865afa158015611a23573d6000803e3d6000fd5b505050506040513d6000823e3d601f19601f82011682018060405250810190611a4c9190614c65565b9050919050565b7f000000000000000000000000000000000000000000000000000000000000000081565b611a8b67de75c2c62f48fccd60c01b613196565b611a9f671ec3b0962430f13160c01b613196565b611ab367643c3d23f9a5972560c01b613196565b611ac767c62921798a00adb160c01b613196565b611adb67ab51f5e5923b383b60c01b613196565b600073ffffffffffffffffffffffffffffffffffffffff1660008054906101000a900473ffffffffffffffffffffffffffffffffffffffff1673ffffffffffffffffffffffffffffffffffffffff1603611b6a576040517f08c379a0000000000000000000000000000000000000000000000000000000008152600401611b6190614190565b60405180910390fd5b611b7e679c5318813ac5cb7660c01b613196565b611b9267602e87d4def3008d60c01b613196565b611ba667c113bac5ab54521960c01b613196565b611bba6767a054b37a0ee76860c01b613196565b611bce67975b41a8d61189d260c01b613196565b611be2675909cb469757d6c760c01b613196565b60008060009054906101000a900473ffffffffffffffffffffffffffffffffffffffff1673ffffffffffffffffffffffffffffffffffffffff16638fc5dad8836040518263ffffffff1660e01b8152600401611c3e9190614453565b6000604051808303816000875af1158015611c5d573d6000803e3d6000fd5b505050506040513d6000823e3d601f19601f82011682018060405250810190611c869190614acc565b9050611c9c67f22b5bdd1b45568a60c01b613196565b611cb067acb52716bf11133860c01b613196565b80604001516005811115611cc757611cc661370b565b5b81600001517fefe93f21a3369f1228a2589883bc377a76d7335daddc712853688de4617f82ab8360200151604051611cff9190614453565b60405180910390a3611d1b670878c01ddcf1393560c01b613196565b611d2f67ae923d1b6fc3d6e160c01b613196565b60026005811115611d4357611d4261370b565b5b81604001516005811115611d5a57611d5961370b565b5b0361204957611d7367b3c41199c66a8a6160c01b613196565b611d8767c8b34235d9bac53f60c01b613196565b611d9b6783a62e7992f4fc4460c01b613196565b600380811115611dae57611dad61370b565b5b81606001516003811115611dc557611dc461370b565b5b03611ed057611dde67196a3ef57d4a5f5760c01b613196565b611df267d1a857da8600dc1760c01b613196565b611e06679921610b3fe1753560c01b613196565b7f198db6e425fb8aafd1823c6ca50be2d51e5764571a5ae0f0f21c6812e45def0b60008054906101000a900473ffffffffffffffffffffffffffffffffffffffff1673ffffffffffffffffffffffffffffffffffffffff1663d50095846040518163ffffffff1660e01b8152600401602060405180830381865afa158015611e92573d6000803e3d6000fd5b505050506040513d601f19601f82011682018060405250810190611eb69190614cae565b604051611ec3919061334e565b60405180910390a1612044565b611ee467938186ca2588269160c01b613196565b611ef8677b31c50ab77a992a60c01b613196565b60026003811115611f0c57611f0b61370b565b5b81606001516003811115611f2357611f2261370b565b5b0361202e57611f3c67ba64aab7c80d11bb60c01b613196565b611f5067cbcaa81d22b3b17d60c01b613196565b611f646747c6977d76523f8f60c01b613196565b7f274a3b0d5142ec9fc4e77bd3ffc173b4e7c6c64eca73b31a6c6906b184257e7e60008054906101000a900473ffffffffffffffffffffffffffffffffffffffff1673ffffffffffffffffffffffffffffffffffffffff16631df8ba776040518163ffffffff1660e01b8152600401602060405180830381865afa158015611ff0573d6000803e3d6000fd5b505050506040513d601f19601f8201168201806040525081019061201491906143b6565b6040516120219190613550565b60405180910390a1612043565b61204267188e9ab97a37829860c01b613196565b5b5b61205e565b61205d6789f76cc9a916134560c01b613196565b5b5050565b612076674c2cfa6eab74bfc460c01b613196565b61208a671ec3b0962430f13160c01b613196565b61209e67643c3d23f9a5972560c01b613196565b6120b267c62921798a00adb160c01b613196565b6120c667ab51f5e5923b383b60c01b613196565b600073ffffffffffffffffffffffffffffffffffffffff1660008054906101000a900473ffffffffffffffffffffffffffffffffffffffff1673ffffffffffffffffffffffffffffffffffffffff1603612155576040517f08c379a000000000000000000000000000000000000000000000000000000000815260040161214c90614190565b60405180910390fd5b612169679c5318813ac5cb7660c01b613196565b61217d67602e87d4def3008d60c01b613196565b61219167f6bb1003d3192b8760c01b613196565b6121a567ea768910b1cda85160c01b613196565b6121b9675959598460c9d17f60c01b613196565b6121cd676c1f32e12b98073860c01b613196565b60008054906101000a900473ffffffffffffffffffffffffffffffffffffffff1673ffffffffffffffffffffffffffffffffffffffff166390ca27f383836040518363ffffffff1660e01b8152600401612228929190614cea565b600060405180830381600087803b15801561224257600080fd5b505af1158015612256573d6000803e3d6000fd5b505050505050565b61227267ca03082fe77acee460c01b613196565b612286671ec3b0962430f13160c01b613196565b61229a67643c3d23f9a5972560c01b613196565b6122ae67c62921798a00adb160c01b613196565b6122c267ab51f5e5923b383b60c01b613196565b600073ffffffffffffffffffffffffffffffffffffffff1660008054906101000a900473ffffffffffffffffffffffffffffffffffffffff1673ffffffffffffffffffffffffffffffffffffffff1603612351576040517f08c379a000000000000000000000000000000000000000000000000000000000815260040161234890614190565b60405180910390fd5b612365679c5318813ac5cb7660c01b613196565b61237967602e87d4def3008d60c01b613196565b61238d674147f5f12c8d70aa60c01b613196565b6123a1675c9e6c339e5ba05a60c01b613196565b6123b56710b1b95e2e35313360c01b613196565b6123c967e0b6fd8fa732049560c01b613196565b60008054906101000a900473ffffffffffffffffffffffffffffffffffffffff1673ffffffffffffffffffffffffffffffffffffffff166396fa1def83836040518363ffffffff1660e01b8152600401612424929190614d29565b600060405180830381600087803b15801561243e57600080fd5b505af1158015612452573d6000803e3d6000fd5b505050505050565b61246e677399bdc06f9fc10360c01b613196565b612482671ec3b0962430f13160c01b613196565b61249667643c3d23f9a5972560c01b613196565b6124aa67c62921798a00adb160c01b613196565b6124be67ab51f5e5923b383b60c01b613196565b600073ffffffffffffffffffffffffffffffffffffffff1660008054906101000a900473ffffffffffffffffffffffffffffffffffffffff1673ffffffffffffffffffffffffffffffffffffffff160361254d576040517f08c379a000000000000000000000000000000000000000000000000000000000815260040161254490614190565b60405180910390fd5b612561679c5318813ac5cb7660c01b613196565b61257567602e87d4def3008d60c01b613196565b61258967139b12f01dc57c9b60c01b613196565b61259d67c9405bd79104e39460c01b613196565b6125b1676fb85805fb8bd90560c01b613196565b6125c5675281399037b0aa1860c01b613196565b60008060009054906101000a900473ffffffffffffffffffffffffffffffffffffffff1673ffffffffffffffffffffffffffffffffffffffff16639e1bf985836040518263ffffffff1660e01b81526004016126219190614453565b6000604051808303816000875af1158015612640573d6000803e3d6000fd5b505050506040513d6000823e3d601f19601f820116820180604052508101906126699190614acc565b905061267f6739c5763c6ba32fae60c01b613196565b612693672dd71be878fa3ebd60c01b613196565b806040015160058111156126aa576126a961370b565b5b81600001517fefe93f21a3369f1228a2589883bc377a76d7335daddc712853688de4617f82ab83602001516040516126e29190614453565b60405180910390a35050565b6126f6613253565b61270a670b8674c95b8c9fbf60c01b613196565b61271e671ec3b0962430f13160c01b613196565b61273267643c3d23f9a5972560c01b613196565b61274667c62921798a00adb160c01b613196565b61275a67ab51f5e5923b383b60c01b613196565b600073ffffffffffffffffffffffffffffffffffffffff1660008054906101000a900473ffffffffffffffffffffffffffffffffffffffff1673ffffffffffffffffffffffffffffffffffffffff16036127e9576040517f08c379a00000000000000000000000000000000000000000000000000000000081526004016127e090614190565b60405180910390fd5b6127fd679c5318813ac5cb7660c01b613196565b61281167602e87d4def3008d60c01b613196565b61282567d0755da43acbd0fa60c01b613196565b612839677ad45843f9c62f5f60c01b613196565b61284d67300c1629a8e8769360c01b613196565b61286167d50f7d89c126127360c01b613196565b60008054906101000a900473ffffffffffffffffffffffffffffffffffffffff1673ffffffffffffffffffffffffffffffffffffffff1663a7107f02836040518263ffffffff1660e01b81526004016128ba919061334e565b60a060405180830381865afa1580156128d7573d6000803e3d6000fd5b505050506040513d601f19601f820116820180604052508101906128fb9190614d52565b9050919050565b61291667cba0d2da7966c1cf60c01b613196565b61292a671ec3b0962430f13160c01b613196565b61293e67643c3d23f9a5972560c01b613196565b61295267c62921798a00adb160c01b613196565b61296667ab51f5e5923b383b60c01b613196565b600073ffffffffffffffffffffffffffffffffffffffff1660008054906101000a900473ffffffffffffffffffffffffffffffffffffffff1673ffffffffffffffffffffffffffffffffffffffff16036129f5576040517f08c379a00000000000000000000000000000000000000000000000000000000081526004016129ec90614190565b60405180910390fd5b612a09679c5318813ac5cb7660c01b613196565b612a1d67602e87d4def3008d60c01b613196565b612a31675fd3f34bbc7e5cbc60c01b613196565b612a4567d16a9113afd5584960c01b613196565b612a5967904b79e26e0f5e9060c01b613196565b612a6d675f8d75be16909f4160c01b613196565b60008054906101000a900473ffffffffffffffffffffffffffffffffffffffff1673ffffffffffffffffffffffffffffffffffffffff1663b158354683836040518363ffffffff1660e01b8152600401612ac8929190614d8e565b600060405180830381600087803b158015612ae257600080fd5b505af1158015612af6573d6000803e3d6000fd5b505050505050565b612b1267d4138b8b0503a21760c01b613196565b612b26671ec3b0962430f13160c01b613196565b612b3a67643c3d23f9a5972560c01b613196565b612b4e67c62921798a00adb160c01b613196565b612b6267ab51f5e5923b383b60c01b613196565b600073ffffffffffffffffffffffffffffffffffffffff1660008054906101000a900473ffffffffffffffffffffffffffffffffffffffff1673ffffffffffffffffffffffffffffffffffffffff1603612bf1576040517f08c379a0000000000000000000000000000000000000000000000000000000008152600401612be890614190565b60405180910390fd5b612c05679c5318813ac5cb7660c01b613196565b612c1967602e87d4def3008d60c01b613196565b612c2d67140e1d98f21cc3c260c01b613196565b612c4167ff874f0eeb52f08460c01b613196565b612c5567746fa4a16818644d60c01b613196565b612c6967910ccdf04648c96c60c01b613196565b60008054906101000a900473ffffffffffffffffffffffffffffffffffffffff1673ffffffffffffffffffffffffffffffffffffffff1663c12e806334836040518363ffffffff1660e01b8152600401612cc39190614db7565b6000604051808303818588803b158015612cdc57600080fd5b505af1158015612cf0573d6000803e3d6000fd5b505050505050565b6000612d0e6776f4d07e4b72a57260c01b613196565b612d22671ec3b0962430f13160c01b613196565b612d3667643c3d23f9a5972560c01b613196565b612d4a67c62921798a00adb160c01b613196565b612d5e67ab51f5e5923b383b60c01b613196565b600073ffffffffffffffffffffffffffffffffffffffff1660008054906101000a900473ffffffffffffffffffffffffffffffffffffffff1673ffffffffffffffffffffffffffffffffffffffff1603612ded576040517f08c379a0000000000000000000000000000000000000000000000000000000008152600401612de490614190565b60405180910390fd5b612e01679c5318813ac5cb7660c01b613196565b612e1567602e87d4def3008d60c01b613196565b612e2967bf07c8d60be8b30760c01b613196565b612e3d679b93ffe0fed1089e60c01b613196565b612e5167d6a01ae59c779c9760c01b613196565b612e6567dd6e9360028ebe6860c01b613196565b60008054906101000a900473ffffffffffffffffffffffffffffffffffffffff1673ffffffffffffffffffffffffffffffffffffffff1663d50095846040518163ffffffff1660e01b8152600401602060405180830381865afa158015612ed0573d6000803e3d6000fd5b505050506040513d601f19601f82011682018060405250810190612ef49190614cae565b905090565b612f0d67541db3d9319ce55160c01b613196565b612f21671ec3b0962430f13160c01b613196565b612f3567643c3d23f9a5972560c01b613196565b612f4967c62921798a00adb160c01b613196565b612f5d67ab51f5e5923b383b60c01b613196565b600073ffffffffffffffffffffffffffffffffffffffff1660008054906101000a900473ffffffffffffffffffffffffffffffffffffffff1673ffffffffffffffffffffffffffffffffffffffff1603612fec576040517f08c379a0000000000000000000000000000000000000000000000000000000008152600401612fe390614190565b60405180910390fd5b613000679c5318813ac5cb7660c01b613196565b61301467602e87d4def3008d60c01b613196565b61302867962e8b1d4284db8b60c01b613196565b61303c672d4ffa3b8d03198260c01b613196565b613050678137b8c9f8b2840560c01b613196565b61306467f24aa448370eb09d60c01b613196565b60008060009054906101000a900473ffffffffffffffffffffffffffffffffffffffff1673ffffffffffffffffffffffffffffffffffffffff1663eaf5d9dc868686866040518563ffffffff1660e01b81526004016130c69493929190614dd2565b6000604051808303816000875af11580156130e5573d6000803e3d6000fd5b505050506040513d6000823e3d601f19601f8201168201806040525081019061310e9190614acc565b90506131246742048aff49c20dc660c01b613196565b6131386704cc84856aa39ab860c01b613196565b8060400151600581111561314f5761314e61370b565b5b81600001517fefe93f21a3369f1228a2589883bc377a76d7335daddc712853688de4617f82ab83602001516040516131879190614453565b60405180910390a35050505050565b50565b6040518061012001604052806060815260200160608152602001600060058111156131c7576131c661370b565b5b8152602001600081526020016000815260200160008152602001600060038111156131f5576131f461370b565b5b815260200160008152602001600073ffffffffffffffffffffffffffffffffffffffff1681525090565b604051806040016040528060608152602001600081525090565b604051806040016040528060608152602001600081525090565b6040518060a00160405280600073ffffffffffffffffffffffffffffffffffffffff168152602001600061ffff168152602001600015158152602001600015158152602001600081525090565b6000604051905090565b600080fd5b600080fd5b600073ffffffffffffffffffffffffffffffffffffffff82169050919050565b60006132df826132b4565b9050919050565b6132ef816132d4565b81146132fa57600080fd5b50565b60008135905061330c816132e6565b92915050565b600060208284031215613328576133276132aa565b5b6000613336848285016132fd565b91505092915050565b613348816132d4565b82525050565b6000602082019050613363600083018461333f565b92915050565b600080fd5b600080fd5b6000601f19601f8301169050919050565b7f4e487b7100000000000000000000000000000000000000000000000000000000600052604160045260246000fd5b6133bc82613373565b810181811067ffffffffffffffff821117156133db576133da613384565b5b80604052505050565b60006133ee6132a0565b90506133fa82826133b3565b919050565b600067ffffffffffffffff82111561341a57613419613384565b5b61342382613373565b9050602081019050919050565b82818337600083830152505050565b600061345261344d846133ff565b6133e4565b90508281526020810184848401111561346e5761346d61336e565b5b613479848285613430565b509392505050565b600082601f83011261349657613495613369565b5b81356134a684826020860161343f565b91505092915050565b6000819050919050565b6134c2816134af565b81146134cd57600080fd5b50565b6000813590506134df816134b9565b92915050565b600080604083850312156134fc576134fb6132aa565b5b600083013567ffffffffffffffff81111561351a576135196132af565b5b61352685828601613481565b9250506020613537858286016134d0565b9150509250929050565b61354a816134af565b82525050565b60006020820190506135656000830184613541565b92915050565b6004811061357857600080fd5b50565b60008135905061358a8161356b565b92915050565b600080600080600060a086880312156135ac576135ab6132aa565b5b600086013567ffffffffffffffff8111156135ca576135c96132af565b5b6135d688828901613481565b955050602086013567ffffffffffffffff8111156135f7576135f66132af565b5b61360388828901613481565b94505060406136148882890161357b565b9350506060613625888289016134d0565b9250506080613636888289016132fd565b9150509295509295909350565b600060208284031215613659576136586132aa565b5b600082013567ffffffffffffffff811115613677576136766132af565b5b61368384828501613481565b91505092915050565b600081519050919050565b600082825260208201905092915050565b60005b838110156136c65780820151818401526020810190506136ab565b60008484015250505050565b60006136dd8261368c565b6136e78185613697565b93506136f78185602086016136a8565b61370081613373565b840191505092915050565b7f4e487b7100000000000000000000000000000000000000000000000000000000600052602160045260246000fd5b6006811061374b5761374a61370b565b5b50565b600081905061375c8261373a565b919050565b600061376c8261374e565b9050919050565b61377c81613761565b82525050565b61378b816134af565b82525050565b600481106137a2576137a161370b565b5b50565b60008190506137b382613791565b919050565b60006137c3826137a5565b9050919050565b6137d3816137b8565b82525050565b6137e2816132d4565b82525050565b600061012083016000830151848203600086015261380682826136d2565b9150506020830151848203602086015261382082826136d2565b91505060408301516138356040860182613773565b5060608301516138486060860182613782565b50608083015161385b6080860182613782565b5060a083015161386e60a0860182613782565b5060c083015161388160c08601826137ca565b5060e083015161389460e0860182613782565b506101008301516138a96101008601826137d9565b508091505092915050565b600060208201905081810360008301526138ce81846137e8565b905092915050565b600080604083850312156138ed576138ec6132aa565b5b60006138fb858286016134d0565b925050602061390c858286016134d0565b9150509250929050565b600081519050919050565b600082825260208201905092915050565b6000819050602082019050919050565b600061012083016000830151848203600086015261396082826136d2565b9150506020830151848203602086015261397a82826136d2565b915050604083015161398f6040860182613773565b5060608301516139a26060860182613782565b5060808301516139b56080860182613782565b5060a08301516139c860a0860182613782565b5060c08301516139db60c08601826137ca565b5060e08301516139ee60e0860182613782565b50610100830151613a036101008601826137d9565b508091505092915050565b6000613a1a8383613942565b905092915050565b6000602082019050919050565b6000613a3a82613916565b613a448185613921565b935083602082028501613a5685613932565b8060005b85811015613a925784840389528151613a738582613a0e565b9450613a7e83613a22565b925060208a01995050600181019050613a5a565b50829750879550505050505092915050565b60006040830160008301518482036000860152613ac18282613a2f565b9150506020830151613ad66020860182613782565b508091505092915050565b60006020820190508181036000830152613afb8184613aa4565b905092915050565b600081519050919050565b600082825260208201905092915050565b6000819050602082019050919050565b600061ffff82169050919050565b613b4681613b2f565b82525050565b60008115159050919050565b613b6181613b4c565b82525050565b60a082016000820151613b7d60008501826137d9565b506020820151613b906020850182613b3d565b506040820151613ba36040850182613b58565b506060820151613bb66060850182613b58565b506080820151613bc96080850182613782565b50505050565b6000613bdb8383613b67565b60a08301905092915050565b6000602082019050919050565b6000613bff82613b03565b613c098185613b0e565b9350613c1483613b1f565b8060005b83811015613c45578151613c2c8882613bcf565b9750613c3783613be7565b925050600181019050613c18565b5085935050505092915050565b60006040830160008301518482036000860152613c6f8282613bf4565b9150506020830151613c846020860182613782565b508091505092915050565b60006020820190508181036000830152613ca98184613c52565b905092915050565b600081519050919050565b600082825260208201905092915050565b6000819050602082019050919050565b60048110613cee57613ced61370b565b5b50565b6000819050613cff82613cdd565b919050565b6000613d0f82613cf1565b9050919050565b613d1f81613d04565b82525050565b608082016000820151613d3b60008501826137d9565b506020820151613d4e6020850182613b3d565b506040820151613d616040850182613d16565b506060820151613d746060850182613782565b50505050565b6000613d868383613d25565b60808301905092915050565b6000602082019050919050565b6000613daa82613cb1565b613db48185613cbc565b9350613dbf83613ccd565b8060005b83811015613df0578151613dd78882613d7a565b9750613de283613d92565b925050600181019050613dc3565b5085935050505092915050565b60006020820190508181036000830152613e178184613d9f565b905092915050565b60048110613e2c57600080fd5b50565b600081359050613e3e81613e1f565b92915050565b60008060408385031215613e5b57613e5a6132aa565b5b600083013567ffffffffffffffff811115613e7957613e786132af565b5b613e8585828601613481565b9250506020613e9685828601613e2f565b9150509250929050565b613ea981613b4c565b8114613eb457600080fd5b50565b600081359050613ec681613ea0565b92915050565b60008060408385031215613ee357613ee26132aa565b5b6000613ef1858286016132fd565b9250506020613f0285828601613eb7565b9150509250929050565b60a082016000820151613f2260008501826137d9565b506020820151613f356020850182613b3d565b506040820151613f486040850182613b58565b506060820151613f5b6060850182613b58565b506080820151613f6e6080850182613782565b50505050565b600060a082019050613f896000830184613f0c565b92915050565b613f9881613b2f565b8114613fa357600080fd5b50565b600081359050613fb581613f8f565b92915050565b60008060408385031215613fd257613fd16132aa565b5b6000613fe0858286016132fd565b9250506020613ff185828601613fa6565b9150509250929050565b600060208284031215614011576140106132aa565b5b600061401f84828501613fa6565b91505092915050565b60008060008060808587031215614042576140416132aa565b5b600085013567ffffffffffffffff8111156140605761405f6132af565b5b61406c87828801613481565b945050602085013567ffffffffffffffff81111561408d5761408c6132af565b5b61409987828801613481565b93505060406140aa878288016134d0565b92505060606140bb878288016132fd565b91505092959194509250565b600082825260208201905092915050565b7f596f7520646f206e6f742068617665207065726d697373696f6e000000000000600082015250565b600061410e601a836140c7565b9150614119826140d8565b602082019050919050565b6000602082019050818103600083015261413d81614101565b9050919050565b7f596f75206d757374207570677261646520666972737400000000000000000000600082015250565b600061417a6016836140c7565b915061418582614144565b602082019050919050565b600060208201905081810360008301526141a98161416d565b9050919050565b60006141bb8261368c565b6141c581856140c7565b93506141d58185602086016136a8565b6141de81613373565b840191505092915050565b6000604082019050818103600083015261420381856141b0565b90506142126020830184613541565b9392505050565b600080fd5b600080fd5b600081519050614232816132e6565b92915050565b600081519050614247816134b9565b92915050565b600061426061425b846133ff565b6133e4565b90508281526020810184848401111561427c5761427b61336e565b5b6142878482856136a8565b509392505050565b600082601f8301126142a4576142a3613369565b5b81516142b484826020860161424d565b91505092915050565b6000606082840312156142d3576142d2614219565b5b6142dd60606133e4565b905060006142ed84828501614223565b600083015250602061430184828501614238565b602083015250604082015167ffffffffffffffff8111156143255761432461421e565b5b6143318482850161428f565b60408301525092915050565b600060208284031215614353576143526132aa565b5b600082015167ffffffffffffffff811115614371576143706132af565b5b61437d848285016142bd565b91505092915050565b600060408201905061439b600083018561333f565b81810360208301526143ad81846141b0565b90509392505050565b6000602082840312156143cc576143cb6132aa565b5b60006143da84828501614238565b91505092915050565b6143ec816137b8565b82525050565b600060a082019050818103600083015261440c81886141b0565b9050818103602083015261442081876141b0565b905061442f60408301866143e3565b61443c6060830185613541565b614449608083018461333f565b9695505050505050565b6000602082019050818103600083015261446d81846141b0565b905092915050565b6006811061448257600080fd5b50565b60008151905061449481614475565b92915050565b6000815190506144a98161356b565b92915050565b600061012082840312156144c6576144c5614219565b5b6144d16101206133e4565b9050600082015167ffffffffffffffff8111156144f1576144f061421e565b5b6144fd8482850161428f565b600083015250602082015167ffffffffffffffff8111156145215761452061421e565b5b61452d8482850161428f565b602083015250604061454184828501614485565b604083015250606061455584828501614238565b606083015250608061456984828501614238565b60808301525060a061457d84828501614238565b60a08301525060c06145918482850161449a565b60c08301525060e06145a584828501614238565b60e0830152506101006145ba84828501614223565b6101008301525092915050565b6000602082840312156145dd576145dc6132aa565b5b600082015167ffffffffffffffff8111156145fb576145fa6132af565b5b614607848285016144af565b91505092915050565b60006040820190506146256000830185613541565b6146326020830184613541565b9392505050565b600067ffffffffffffffff82111561465457614653613384565b5b602082029050602081019050919050565b600080fd5b600061467d61467884614639565b6133e4565b905080838252602082019050602084028301858111156146a05761469f614665565b5b835b818110156146e757805167ffffffffffffffff8111156146c5576146c4613369565b5b8086016146d289826144af565b855260208501945050506020810190506146a2565b5050509392505050565b600082601f83011261470657614705613369565b5b815161471684826020860161466a565b91505092915050565b60006040828403121561473557614734614219565b5b61473f60406133e4565b9050600082015167ffffffffffffffff81111561475f5761475e61421e565b5b61476b848285016146f1565b600083015250602061477f84828501614238565b60208301525092915050565b6000602082840312156147a1576147a06132aa565b5b600082015167ffffffffffffffff8111156147bf576147be6132af565b5b6147cb8482850161471f565b91505092915050565b600067ffffffffffffffff8211156147ef576147ee613384565b5b602082029050602081019050919050565b60008151905061480f81613f8f565b92915050565b60008151905061482481613ea0565b92915050565b600060a082840312156148405761483f614219565b5b61484a60a06133e4565b9050600061485a84828501614223565b600083015250602061486e84828501614800565b602083015250604061488284828501614815565b604083015250606061489684828501614815565b60608301525060806148aa84828501614238565b60808301525092915050565b60006148c96148c4846147d4565b6133e4565b90508083825260208201905060a084028301858111156148ec576148eb614665565b5b835b818110156149155780614901888261482a565b84526020840193505060a0810190506148ee565b5050509392505050565b600082601f83011261493457614933613369565b5b81516149448482602086016148b6565b91505092915050565b60006040828403121561496357614962614219565b5b61496d60406133e4565b9050600082015167ffffffffffffffff81111561498d5761498c61421e565b5b6149998482850161491f565b60008301525060206149ad84828501614238565b60208301525092915050565b6000602082840312156149cf576149ce6132aa565b5b600082015167ffffffffffffffff8111156149ed576149ec6132af565b5b6149f98482850161494d565b91505092915050565b6000819050919050565b614a1581614a02565b8114614a2057600080fd5b50565b600081519050614a3281614a0c565b92915050565b600060808284031215614a4e57614a4d614219565b5b614a5860806133e4565b90506000614a6884828501614a23565b600083015250602082015167ffffffffffffffff811115614a8c57614a8b61421e565b5b614a988482850161428f565b6020830152506040614aac84828501614485565b6040830152506060614ac08482850161449a565b60608301525092915050565b600060208284031215614ae257614ae16132aa565b5b600082015167ffffffffffffffff811115614b0057614aff6132af565b5b614b0c84828501614a38565b91505092915050565b600067ffffffffffffffff821115614b3057614b2f613384565b5b602082029050602081019050919050565b600081519050614b5081613e1f565b92915050565b600060808284031215614b6c57614b6b614219565b5b614b7660806133e4565b90506000614b8684828501614223565b6000830152506020614b9a84828501614800565b6020830152506040614bae84828501614b41565b6040830152506060614bc284828501614238565b60608301525092915050565b6000614be1614bdc84614b15565b6133e4565b90508083825260208201905060808402830185811115614c0457614c03614665565b5b835b81811015614c2d5780614c198882614b56565b845260208401935050608081019050614c06565b5050509392505050565b600082601f830112614c4c57614c4b613369565b5b8151614c5c848260208601614bce565b91505092915050565b600060208284031215614c7b57614c7a6132aa565b5b600082015167ffffffffffffffff811115614c9957614c986132af565b5b614ca584828501614c37565b91505092915050565b600060208284031215614cc457614cc36132aa565b5b6000614cd284828501614223565b91505092915050565b614ce481613d04565b82525050565b60006040820190508181036000830152614d0481856141b0565b9050614d136020830184614cdb565b9392505050565b614d2381613b4c565b82525050565b6000604082019050614d3e600083018561333f565b614d4b6020830184614d1a565b9392505050565b600060a08284031215614d6857614d676132aa565b5b6000614d768482850161482a565b91505092915050565b614d8881613b2f565b82525050565b6000604082019050614da3600083018561333f565b614db06020830184614d7f565b9392505050565b6000602082019050614dcc6000830184614d7f565b92915050565b60006080820190508181036000830152614dec81876141b0565b90508181036020830152614e0081866141b0565b9050614e0f6040830185613541565b614e1c606083018461333f565b9594505050505056fea2646970667358221220f951dcdfbb354def0f0e4671159ca507cd5aaea21e15cdcd5cf9c4c08c5440ad64736f6c63430008180033",
  "linkReferences": {},
  "deployedLinkReferences": {}
}